:020000040000FA
:1000000048072020D5000000D9000000DB000000D8
:1000100000000000000000000000000000000000E0
:10002000000000000000000000000000DD000000F3
:100030000000000000000000DF000000E100000000
:10004000E300000055160000E3000000E30000009C
:10005000E3000000E3000000E3000000E300000014
:1000600000000000E3000000E300000000000000CA
:1000700000000000E3000000E3000000A5280000ED
:10008000E3000000E30000006D280000E300000032
:10009000E3000000E300000000000000000000009A
:1000A000E3000000E300000000000000000000008A
:1000B000E300000000000000E3000000E300000097
:1000C0000348854600F044FD00480047D53C000049
:1000D0004807202003480047FEE7FEE7FEE7FEE76B
:1000E000FEE7FEE7C1000000D2B201E00270401C52
:1000F000491EFBD270470022F6E710B513460A46A8
:1001000004461946FFF7F0FF204610BD421C017857
:10011000401C0029FBD1801A7047F8B502464A40BE
:10012000D40F42004B0052085B089A4202D20246AA
:10013000084611464A0023D0C30D4A00DDB2120E14
:10014000AD1A202D35DA49020126490AF6058A1929
:10015000002C00D0524220214F1B1146B9402A41A9
:100160001018C20D9A4221D0002C17D0012D08DCA6
:10017000DA05801AD20F8019D207DBB200F05FFBDC
:10018000F8BDDA05801A012340001B06C01880184C
:100190005A428018CA0F1043490007E04908C207B5
:1001A0001143DA05801A80194008801800F03FFBDF
:1001B000F8BD61000122511A001BF7E70122D207A6
:1001C0005140AAE70122D2075040A6E7024670B587
:1001D0004A40D30FDB0740002DD04A002AD0010E41
:1001E000140E000212020919400A520A8418E5018D
:1001F00004465443000A120A2E045043A41942191B
:10020000200CC543AA18120C0125AD03521C52192B
:1002100012047F39240400D0521C104301D4400042
:10022000491EC2B20C06C0092018401C4008802A92
:1002300002D003E0002070BD40084000002900DA31
:100240000020184370BD70B502464A40D50F4000EB
:100250004A00ED0740085208002814D0002A12D0A6
:10026000C40DD30D41020120C0055202490A520AB1
:10027000E41A091812187D34914201D3641C00E07D
:100280004900002C01DA002070BD0023914201D307
:10029000891A0343400849000028F7D100290AD0F1
:1002A000914202D10121C90705E0914201D2012109
:1002B00001E00121C943E005C018401900F0B7FA78
:1002C00070BD0000F0B507460846584087B0C00F23
:1002D000049048000E46590040084908BC1A88415D
:1002E00005D2384631461E4617460B460246580090
:1002F000400810434CD0300D039040055900400D8C
:10030000490D0590401A0290402872DA1803012125
:10031000000B09050843019004980092002805D0BD
:100320000199524200208841009201900298402198
:100330000A1A0199009800F046FA05460C466B46E9
:1003400007CB00F061FAC0197141039A0E0D00232A
:10035000D71756401A467A40164344D0049A002ACA
:100360002DD0029A012A039A15DC1205C01A914178
:1003700001263605001C7141D20F059ED20700935D
:10038000019202962A46234600F09FFA07B0F0BD7C
:1003900038463146FAE71605224A0F46B218C01A07
:1003A000B74101210905001C4F4100187F4111464A
:1003B00018187941E20F10436D19644113E0E20708
:1003C0006D0815436408C2071443039A01261205F9
:1003D000C01A91413605001C7141CE0740083043D8
:1003E0004908C01851412A46234600F061FACDE77A
:1003F000FFE7049801224000C117121A00238B4125
:1004000004983146C417381AA141EEE730B40124EC
:10041000E407634030BC55E730B40124E407614091
:1004200030BC4FE70000E0FFF0B50C465C4085B003
:10043000E40FE40703944C00002664085900944636
:10044000490802460296224321D062460A431ED042
:100450006200570D4A000E032303550D0124024686
:100460002C492405781B1B0B360B401823432643CD
:10047000614600901C46501AB44103D30098401CBA
:10048000009002E0921800985B41002803DA0020F7
:10049000014605B0F0BD002001210905074686464A
:1004A00011E064461D46141BB54106D36546521B38
:1004B000B341744607430C43A646CD07400849089C
:1004C000284392185B4105460D43EAD11046184374
:1004D00013D06046194650407140084306D060462C
:1004E000101AB34106D20122002306E000220123A4
:1004F000DB0702E00122D243531000987446010545
:10050000381C6141029C039D0019694100F0D0F93B
:10051000BFE70000FD0300000122D207002800DB36
:10052000101A002900DB511A814201D801207047BE
:10053000002070470122D207002800DB101A002992
:1005400000DB511A814201D301207047002070471F
:100550000122D207002800DB101A002900DB511A03
:10056000814201D901207047002070470122D20743
:10057000002800DB101A002900DB511A814201D14A
:100580000120704700207047C217C10F504010B5BE
:100590004018CA079623002100F051F910BD0A4601
:1005A00070B5C917D30F4A4048400025C1181446FA
:1005B0006C41DA0796232046002C03D0B62300F0C6
:1005C0003EF970BD08460021F9E700000EB5C217DC
:1005D000C10F5040CA0740180021054B02930192F9
:1005E00000910A460B4600F070F903B000BD000010
:1005F000330400000EB505490291002100910A461E
:100600000B46019100F061F903B000BD3304000016
:10061000C20F410040020123400ADB05D207090E48
:10062000C0187F2901DA00207047962903DC962341
:10063000591AC84001E096398840002AF4D0404257
:100640007047000070B5CD0F4A0009030123090B64
:100650001B0519430B4BED070024520D9A4201DA9A
:10066000002070BD074B34339A4203DC9A1A00F025
:10067000BAF802E00449511888402C43F1D04042B6
:1006800070BD0000FF030000CDFBFFFF4A0009031F
:100690000123090B1B051943094B10B5520D9A4252
:1006A00001DA002010BD064B34339A4203DC9A1A5B
:1006B00000F099F810BD03495118884010BD0000A2
:1006C000FF030000CDFBFFFFC20FD2074000400830
:1006D0000BD0C10D0723DB01C91840020905400AF0
:1006E0001143C2084007114370470020014670477C
:1006F000CB0FDB07490010B5490802460A4307D073
:100700000A0D07240903E401090B121B002A01DC6E
:10071000002010BDC900440F0C43C100E018D205F1
:10072000801800F084F810BD70B50446002903D08D
:1007300000202022012310E0002801D00020C04327
:10074000C046C0460DE02546D5408D4205D30D4636
:100750009540641B1D46954040191546521E002DBC
:10076000F1DC214670BDF0B51FB40646002082B012
:1007700005464024019100901BE0019922460F4656
:10078000304600F030F8049A059B801A994110D346
:1007900010461946224600F016F8361A8F41019786
:1007A000224601200021009F00F00DF838184D412D
:1007B00000902046641E0028DFDC019B009829463B
:1007C000324607B0F0BD10B5202A04DB0146203ABE
:1007D0009140002010BD914020239C1A0346E34025
:1007E0001943904010BD10B5202A04DB0846203A7A
:1007F000D040002110BD0B46D340D0402024A21A87
:1008000091400843194610BD10B5202A06DBCB17CE
:100810000846203A1041C1170B4306E00B4613412E
:10082000D0402024A21A91400843194610BD002947
:1008300004DA401C490001D140084000704770B400
:100840000024050C05D11024000402D1002921D078
:100850001124050E01D100020834050F01D1000159
:10086000241D850F01D18000A41C002801DB40005D
:10087000641C002908D020252E1B0D46F540A14000
:1008800000D001212943084301061B1B000ADB1D80
:1008900002D5002070BC7047DB05181880180029AD
:1008A000F8DA401C4900F5D170BC400840007047A0
:1008B00010B5002B08DA0024401C614192185B41FE
:1008C0001A4301D14008400010BDF0B51FB482B0FA
:1008D00005460C0003D0084604F020FE02E004F0B8
:1008E0001DFE20300246009021462846FFF76BFF90
:1008F000049B059A04460F4618431143084314D03D
:10090000184610431BD0009840210A1A1846059932
:10091000FFF769FF05460E46009A05990498FFF710
:1009200052FF084305D0012004E02046394607B0B5
:10093000F0BD0020C11705430E432C4337430099F7
:100940000E986305401A7905E40A00220C43FD0A5B
:100950000A3002D500200146E9E701051019694176
:100960000C9C0D9D00196941FFF7A2FFDFE7000015
:10097000F0B51FB488B00B99099800244840099934
:10098000C00F490049080991C0070B990090490020
:1009900049080B9109990898A64608431CD00B9961
:1009A0000A98084318D0099801244000420D4800D5
:1009B000410D099824050003000B204309900B9872
:1009C0000003000B20430B9050181C4940180022D4
:1009D00001901446104605E0002001460DB0F0BD20
:1009E000032801DA034600E003239C46C11A0AAE3D
:1009F0000AE05F0008ADED5B4F00F75B7D43002729
:100A0000AA187C41491C5B1E6145F2DD410004AB24
:100A10005A522104120C0A43240C401C0828DFDB24
:100A2000019802900099704601910090059B049AEC
:100A300007990698FFF749FFD0E700000DFCFFFF7C
:100A4000FEB500231A461B1A8A4103DB002001462B
:100A500003B0F0BD4A000D0301212D0B0905520D15
:100A60000D43D10702D100186D41521E5110FF31C4
:100A7000FF310131002704463E4638460097019178
:100A80000246012100200905FFF7ADFEC31971419F
:100A9000F818324684468E464A4161462846611A15
:100AA000904104D36046241A954176461F46241986
:100AB00000986D41401C00903428E1DDF919304662
:100AC0007041091BA84103D20022D243134601E022
:100AD0000022134601980105381C7141FFF7E8FE1A
:100AE000B6E700004A0009030123090B1B0519435F
:100AF0000A4B10B5520D9A4202DA0020014610BD91
:100B0000064B34339A4203DC9A1AFFF76CFE10BD91
:100B1000034BD218FFF757FE10BD0000FF03000083
:100B2000CDFBFFFF10B5002904DB0124E4074042A0
:100B30008C412146002B04DB1C460123DB0752427B
:100B4000A341994200D1904210BD00000000000076
:100B50001CB5094800900948019005460126009CF3
:100B600005E0E36807CC33430C3C98471034AC42B3
:100B7000F7D3FFF7A9FA000080960000A0960000C6
:100B8000811E091F00BFFCD2704784B00390029100
:100B900001920398006800900098019988430090A2
:100BA00000980299019A114008430399086004B023
:100BB0007047000082B001900091009B0199094AA2
:100BC00088581843885002B07047C04682B00190E0
:100BD0000091009B0199034A88581843885002B03D
:100BE0007047C0464810000082B001900091009804
:100BF000019995225201885002B0704782B001904D
:100C000000910098019995225201885002B07047D6
:100C100082B001900091009801999522520188506C
:100C200002B0704782B001900091009B0199034A85
:100C300088581843885002B07047C04628100000FA
:100C400082B00190009100980199024A885002B048
:100C50007047C046D012000081B00090009901207A
:100C6000C2026348885001B07047C04682B001900C
:100C700000910198024940580099084002B070471D
:100C80003810000010B584B0069C039002910192C8
:100C90000093029801990843009908430699084374
:100CA0000349084303998900244A885004B010BDC1
:100CB0008100040081B00090009881001F4A8120CB
:100CC000885001B07047C04610B584B0069C0390B0
:100CD00002910192009302980199084300990843F8
:100CE000069908438121084303998900134A8850D3
:100CF00004B010BD81B00090009881000F4A002020
:100D0000885001B07047C04682B0019000910098B1
:100D10000349084301998900084A885002B0704786
:100D20008000040082B00190009100988021084367
:100D300001998900014A885002B0704704804240FE
:100D400082B00190009101982721C9014058009973
:100D5000084002B0704782B00190009101982721AD
:100D6000C90140580099084002B0704781B0009016
:100D700000993B4A3B48885001B0704782B00190CF
:100D80000091009B0199034A88581843885002B08B
:100D90007047C0469013000082B001900091009807
:100DA0000199074A885002B07047C04682B001904E
:100DB000009100980199024A885002B07047C046DD
:100DC0009012000081B000900099034A88580123D6
:100DD0001843885001B070470411000081B00090A2
:100DE00000990120C202BF48885001B07047C04638
:100DF00001000026B0B51122120283580C4C1C4091
:100E00000B894D881D438B792B430A4D1D402B19AF
:100E100083508B88CC791C43097821435D239B0048
:100E20001940801842689A4389184160B0BDC04695
:100E300080CCFFFF7F33000081B000900098034911
:100E4000405810210840000901B0704710110000FF
:100E500081B000900099024A0248885001B0704762
:100E600004080000030000B180B582B00190009139
:100E70000198904940180099024AFFF786FE02B097
:100E800080BDC046FF03000010B501221203831885
:100E90000C785C604978815010BD000080B584B04A
:100EA00000920A4601460098039102A90A7001AA1D
:100EB00010700398044BC0180978127811433F2230
:100EC000FFF763FE04B080BD0C11000082B00190FA
:100ED000684601700078019945229201885002B05D
:100EE00070470000F0B584B001242202344B196829
:100EF0000392914319606A490D686D04FCD5457EE3
:100F000025409E69A64374199C612024045D032535
:100F10002C40DE69AE433419DC611F4C2568052680
:100F20002660466A37681F6276685E6207262E4032
:100F30002660C4697F252D02DE69AE436406640C19
:100F40003419DC610768456882680092C6680269E6
:100F50000192426902929A69104C14403A07120BAE
:100F60002D03ADB2AA183243009D2D072D0D154358
:100F7000019A1543029A1543007E2843084A02400D
:100F8000101998611868039A104318600868800562
:100F9000FCD504B0F0BDC046001340408D00F0FF0A
:100FA00072FF0F00064908680122904308607047ED
:100FB0000349086801221202904308607047C04646
:100FC00008010B4081B00146684601700078024973
:100FD000086001B07047C04608030B4080B582B07E
:100FE000014601A8018001880F2002022B48FFF76B
:100FF000CCFD02B080BDC046F0B5124B1D46083D89
:101000002E680124A6432E600326360330401F6855
:10101000B743381818601868FF26B043C9B24018A3
:10102000186028682043286018682107002A06D025
:10103000084318601A480168C905FCD5F0BD88430B
:101040001860F0BD10010B4080B582B0014601A8C8
:101050000170017802480322FFF797FD02B080BDBE
:1010600000010B4080B582B0014601A801700178F3
:101070000A483022FFF789FD02B080BD0749886029
:10108000074802689202FCD5012212040B68134340
:101090000B600168C906FCD57047C04604010B40CF
:1010A00004020B4081B000900099024A0120885050
:1010B00001B070470811000082B001900091009BC0
:1010C0000199C74A88581843885002B07047C046F3
:1010D00081B0009000990120C202C748885001B039
:1010E0007047C0460100002681B000900098812121
:1010F00049014058C0B201B070470000F0B5AA4A9B
:1011000082183B4BC31808794E793A4D774C002E24
:1011100023D0202804D00526F601002803D003E0C0
:10112000354E002800D18826576F2F403743576728
:10113000976F2F4037439767566B26405663966BE1
:10114000264096630026566596658F26F6435F68AF
:1011500037405F609F6837409F608E79096820281C
:101160000BD0002819D1491E5160D76E2F4088211D
:101170000F43D7661746703719E0491E5160D16E8C
:1011800029401D4F3943D166116F294039431167FA
:1011900001214907194D174609E049085160D76EEA
:1011A0002F400521C9010F43D766174670373C68A9
:1011B0002C400C433C60D16A4C4C2140D162116BF5
:1011C000214011630021D16411658F21C943D46F7F
:1011D0000C40D4671C680C401C600643BD203040A6
:1011E0001168074B0B40C018801C1060F0BDC04652
:1011F0008418000024493E0001040000FFFFFFCFD7
:101200004000FFCFB0B54A68364BC250664A8018DE
:101210000A78222A58D8930001A4E3589F46C04672
:10122000BF120000C9120000BF120000C912000066
:10123000C9120000C9120000C9120000C912000042
:10124000C9120000C9120000C9120000C912000032
:10125000C9120000C9120000C9120000C912000022
:10126000AD120000C9120000AD120000C91200004A
:10127000C9120000C9120000C9120000C912000002
:10128000C9120000C9120000C9120000C9120000F2
:10129000C9120000C9120000C9120000C9120000E2
:1012A000AD120000C9120000AD12000003231B079D
:1012B00004689C4301235B07E318036004E00323F5
:1012C0001B0704689C4304600B69C360CB68064C31
:1012D0001C40C36A054D1D402B19C362097A114396
:1012E0000160B0BD08180000777702008888FDFF14
:1012F00081B000900099614A6148885001B0704700
:1013000082B0019000910098019911221202885038
:1013100002B0704710B507239B0419409200801853
:10132000024A84589C436118815010BD3018000057
:1013300010B5029CA400001911431943014A8150C1
:1013400010BDC0465018000092008018014A81501C
:101350007047C0461018000010B501221203831810
:101360000C789C604B7883508978014A815010BD7D
:101370000C11000010B586B001930B460146019890
:10138000059104A90B8003AB1A8002AA108005986E
:10139000054C001909881B88194312881143034A18
:1013A000FFF7F3FB06B010BD0418000080FF00003B
:1013B00081B000900099112002028858012318433F
:1013C000885001B07047000082B001900091009BEE
:1013D0000199034A88581843885002B07047C046A4
:1013E0002810000081B0009000990120C20202483C
:1013F000885001B07047C0460100002681B00090BF
:101400000098812149014058C0B201B070470000E6
:10141000B0B51122120283580124A34383500B88D4
:101420008C781C438B882343094C1C408358094DFE
:101430001D40631983508B79CC791C43097A214371
:101440007E231940801842689A4351184160B0BD0C
:1014500018670000E798FDFF81B0009000980249EE
:101460004058C0B201B070472411000081B0009014
:101470000099024A0248885001B0704704080000F1
:10148000030000B180B584B00390029101920398EB
:101490000B49401802990B4AFFF777FB03980A495A
:1014A000401801993F22FFF770FB0399074A8818FB
:1014B000895801221140FFF768FB04B080BDC04687
:1014C00010110000FFFF00001411000004110000C3
:1014D00010B50122120383180C789C604978815062
:1014E00010BD80B582B001900091019811210902D0
:1014F000401800990322D203FFF747FB02B080BDDA
:1015000010B58AB00D9C0C9C099008910792069327
:1015100000200590FFE705980C99884231D8FFE735
:101520000C98404305994943401AFFF763F804F0CB
:1015300085FCFFF787F8049005980290FFE7029872
:1015400005994942884217DBFFE70998029940183C
:101550000899049A891A0D9A00F018FA09980299C4
:1015600040180899049A89180D9A00F00FFAFFE7BD
:101570000298401E0290E2E7FFE70598401C0590A4
:10158000C9E70C9841000320401A0390FFE7059833
:10159000049988425BDDFFE70398002807D5FFE741
:1015A0000598800003994018801D03900BE0059872
:1015B0000499401A8000039940180A300390049857
:1015C000401C0490FFE70598401E05900598404296
:1015D0000190FFE701980599884217DCFFE7099819
:1015E000019940180899049A891A0D9A00F0CEF9C9
:1015F0000998019940180899049A89180D9A00F0E1
:10160000C5F9FFE70198401C0190E3E704984042C8
:101610000090FFE700980499884217DCFFE70998DB
:10162000059940180899009A89180D9A00F0AEF9AA
:1016300009980599401A0899009A89180D9A00F09E
:10164000A5F9FFE70098401C0090E3E79FE70AB088
:1016500010BD000080B582B025480321FFF706FBCE
:10166000019001A80078C00700281AD0FFE72048A1
:101670000221FFF770FB002809D1FFE71D494868E8
:101680000A680023521E98410A60486008E0194920
:1016900048680A680023521C58410A604860FFE706
:1016A00020E001A80078800700281AD5FFE710483D
:1016B0000121FFF750FB002809D1FFE70D494868D9
:1016C0000A680023521C58410A60486008E0094932
:1016D00048680A680023521E98410A604860FFE784
:1016E000FFE7FFE702480321FFF770FA02B080BD71
:1016F00000200A405802202080B584B00390029157
:10170000019200932A2000F0CDFE039800F0B1FE74
:10171000019800F0AEFE2B2000F0C4FE02982330AA
:1017200000F0A7FE0098233000F0A3FE2C2000F06C
:10173000B9FE04B080BD10B58AB00C9C0990089128
:1017400007920693042005900998059A8018089B33
:1017500007998A1A0C990091194600F091F8099A94
:101760000898059BC1180698C31A0C98009010465B
:1017700000F086F80998059A8018069B07998A1A3E
:101780000C990091194600F07BF8079A0898059B80
:10179000C1180698C31A0C980090104600F070F813
:1017A0000998059A8018089989180C9B0193009252
:1017B0005A220292B4230393FFF7A2FE029B0798DA
:1017C000059A801A089989180C9C019400920022AD
:1017D000FFF796FE039A0998059BC0180699C91A47
:1017E0000C9C0194009387235B000493FFF788FE11
:1017F000049A0798059BC01A0699C91A0C9C019473
:1018000000932D23DB00FFF77BFE0998059BC01892
:101810000899079AD21ACB180C9C009400F010F982
:10182000079A059C101B08990919069B1B1B0C9C09
:10183000009400F005F90998059C0019069B191BF6
:10184000079A121B0C9C009400F0FAF8099808996A
:10185000059C09190219069B1B1B0C9C009400F0A7
:10186000EFF80998059C001908990919079A121BA5
:10187000069B1B1B0C9C009400F0E2F80AB010BD04
:1018800010B58EB0109C0D900C910B920A93002015
:10189000089007900B980D99401A06900A980C9999
:1018A000401A05900D9801900C9800900698012818
:1018B00003DBFFE7012003900EE00698002803D128
:1018C000FFE70020039006E00020C0430390069845
:1018D00040420690FFE7FFE70598012803DBFFE79A
:1018E000012002900EE00598002803D1FFE70020B8
:1018F000029006E00020C043029005984042059007
:10190000FFE7FFE706980599884203DDFFE70698A1
:10191000049002E005980490FFE700200990FFE79B
:1019200009980499491C88422ED2FFE70198009932
:10193000109A00F02BF8069908984018089005991D
:1019400007984018079008980499884209DDFFE736
:1019500004990898401A089003990198401801903A
:10196000FFE707980499884209DDFFE70499079883
:10197000401A07900299009840180090FFE7FFE78F
:101980000998401C0990CBE70EB010BD80B584B01B
:10199000039002910192039A029B10461946FFF7A9
:1019A000ABFE019800F065FD04B080BD10B586B0B7
:1019B000089C05900491039202930598049B039A56
:1019C000089900911946FFF75BFF059A0499029B5D
:1019D000089800901046FFF753FF0598029B039A62
:1019E000089900911946FFF74BFF039A0499029B4F
:1019F000089800901046FFF743FF06B010BD80B571
:101A000086B00590049103920293059A0499039875
:101A10000B181046FFF770FE04980190FFE701983D
:101A20000499039A8918884208DCFFE7029800F0BD
:101A300020FDFFE70198401C0190F0E706B080BD53
:101A400010B586B0089C0590049103920293059806
:101A50000499039A521E029B5B1EFFF74DFE0498E9
:101A60000190FFE701980299884215D2FFE7059897
:101A70000090FFE700980399884208D2FFE7089892
:101A800000F0F7FCFFE70098401C0090F2E7FFE74A
:101A90000198401C0190E5E706B010BD70B594B008
:101AA00000920C46054600981A99199A189E1395AB
:101AB000129411AC0194207010930FA80290027040
:101AC0000EAA11700AAA00210391117013990791AF
:101AD000007841080CA8049001700178C8080590AE
:101AE0004907401C0029069001D105980690029BE9
:101AF000049A0199069C1878604308901198203840
:101B000008701398129912788218521E1B78CB18FD
:101B10005B1EFFF7F1FD03980990FFE7099808990C
:101B2000884200D39DE00FA800780C280BD1FFE776
:101B300011A800780C2141434E4840180999405C97
:101B40000DA9087031E00FA8007810280AD1FFE72E
:101B500011A800780101464840180999405C0DA978
:101B6000087021E00FA8007818280BD1FFE711A812
:101B70000078302141433D4840180999405C0DA947
:101B8000087010E00FA8007820280AD1FFE711A8FC
:101B900000788101344840180999405C0DA908700B
:101BA00000E05EE0FFE7FFE7FFE70BA90020087019
:101BB000FFE70BA8007807284EDCFFE70EA80078A7
:101BC000002822D1FFE70DA800780BA90978C840AA
:101BD000C007002804D0FFE7109800F04AFC03E09B
:101BE000189800F046FCFFE70A98411C0AA801700B
:101BF00000780CA90978FEF797FD002904D1FFE7CA
:101C00000AA90020087027E020E00DA800780BA9A1
:101C10000978C840C007002806D0FFE7139812993A
:101C2000109AFFF7B3FEFFE71398401C1390139828
:101C30000799401A0CA90978884206D1FFE707984E
:101C400013901298401C129006E0FFE7FFE70B98F4
:101C5000401C0BA90870ACE7FFE70998401C0990ED
:101C60005CE714B070BDC046B87A0000E8680000B8
:101C7000F8620000845E000070B58AB00C4605462C
:101C800010980F990E9E099508940792069305AA3D
:101C9000117004A90870FFE70798007800287DD02C
:101CA000FFE70798007880285DDBFFE705A800784C
:101CB0000C280FD1FFE709980899079A069B0E9CFC
:101CC00005AD2D7804AE367802960195009400F0AB
:101CD00067F83FE005A8007810280FD1FFE70998C2
:101CE0000899079A069B0E9C05AD2D7804AE3678B0
:101CF00002960195009400F021F92AE005A80078E9
:101D000018280FD1FFE709980899079A069B0E9C9F
:101D100005AD2D7804AE367802960195009400F05A
:101D2000DBF915E005A8007820280FD1FFE7099816
:101D30000899079A069B0E9C05AD2D7804AE36785F
:101D400002960195009400F095FA00E026E0FFE786
:101D5000FFE7FFE70798801C079005A8017809981E
:101D60004018099019E009980899079A1278069B7B
:101D70000E9C05AD03952D7804AE3678029601953C
:101D80000094FFF78BFE03980799491C0791007890
:101D90004108099840180990FFE77DE70AB070BD37
:101DA00070B592B000920C46054600981899179AA3
:101DB000169E119510940F900E930DA802700CAA08
:101DC000117009AA002101911170119905910178F2
:101DD0000291C80803904907401C0029049001D1D2
:101DE0000398049001980299049A514306910521A1
:101DF00007910890FFE708980799884200D399E077
:101E000008981A2141434C48405C0F990978884250
:101E100000D08AE008981A2141434748401840788A
:101E20000F994978884200D07FE0119810990DAA47
:101E30001378C218521ECB185B1EFFF75DFC0BA96E
:101E400000200870FFE70BA80078069988426BD243
:101E5000FFE70AA900200870FFE70AA80078072812
:101E60005CDCFFE70CA80078002829D1FFE7089880
:101E70001A214143304840180BA90978401880784E
:101E80000AA90978C840C007002804D0FFE70E98C7
:101E900000F0EFFA03E0169800F0EBFAFFE709987C
:101EA000411C09A8017000780DA90978FEF73CFCD7
:101EB000002904D1FFE709A9002008702EE027E0DF
:101EC00008981A2141431C4840180BA9097840186A
:101ED00080780AA90978C840C007002806D0FFE723
:101EE000119810990E9AFFF751FDFFE71198401CC9
:101EF000119011980599401A0DA90978884206D1C8
:101F0000FFE7059811901098401C109006E0FFE73D
:101F1000FFE70A98401C0AA908709EE7FFE70B98A4
:101F2000401C0BA908708EE7FFE7FFE70898401CEC
:101F3000089060E712B070BD2593000070B592B0B4
:101F400000920C46054600981899179A169E11950E
:101F500010940F900E930DA802700CAA117009AA8C
:101F60000021019111701199059101780291C80821
:101F700003904907401C0029049001D10398049064
:101F800001980299049A514306910B2107910890F8
:101F9000FFE708980799884200D399E00898222122
:101FA00041434C48405C0F990978884200D08AE050
:101FB0000898222141434748401840780F994978B2
:101FC000884200D07FE0119810990DAA1378C218AA
:101FD000521ECB185B1EFFF78FFB0BA90020087069
:101FE000FFE70BA80078069988426BD2FFE70AA9A1
:101FF00000200870FFE70AA8007807285CDCFFE7EC
:102000000CA80078002829D1FFE708982221414335
:10201000304840180BA90978401880780AA9097837
:10202000C840C007002804D0FFE70E9800F021FA4E
:1020300003E0169800F01DFAFFE70998411C09A873
:10204000017000780DA90978FEF76EFB002904D114
:10205000FFE709A9002008702EE027E00898222158
:1020600041431C4840180BA90978401880780AA9F8
:102070000978C840C007002806D0FFE711981099DA
:102080000E9AFFF783FCFFE71198401C11901198FE
:102090000599401A0DA90978884206D1FFE70598ED
:1020A00011901098401C109006E0FFE7FFE70A9897
:1020B000401C0AA908709EE7FFE70B98401C0BA97B
:1020C00008708EE7FFE7FFE70898401C089060E77C
:1020D00012B070BDA793000070B592B000920C468C
:1020E000054600981899179A169E119510940F900E
:1020F0000E930DA802700CAA117009AA002101917B
:1021000011701199059101780291C808039049074F
:10211000401C0029049001D1039804900198029971
:10212000049A51430691032107910890FFE708980C
:102130000799884200D399E008984A2141434C48C6
:10214000405C0F990978884200D08AE008984A21BB
:1021500041434748401840780F994978884200D059
:102160007FE0119810990DAA1378C218521ECB184F
:102170005B1EFFF7C1FA0BA900200870FFE70BA850
:102180000078069988426BD2FFE70AA90020087000
:10219000FFE70AA8007807285CDCFFE70CA80078B6
:1021A000002829D1FFE708984A21414330484018C8
:1021B0000BA90978401880780AA90978C840C00797
:1021C000002804D0FFE70E9800F053F903E01698BA
:1021D00000F04FF9FFE70998411C09A80170007849
:1021E0000DA90978FEF7A0FA002904D1FFE709A993
:1021F000002008702EE027E008984A2141431C483F
:1022000040180BA90978401880780AA90978C840B5
:10221000C007002806D0FFE7119810990E9AFFF723
:10222000B5FBFFE71198401C119011980599401AD1
:102230000DA90978884206D1FFE7059811901098FA
:10224000401C109006E0FFE7FFE70A98401C0AA92F
:1022500008709EE7FFE70B98401C0BA908708EE7FB
:10226000FFE7FFE70898401C089060E712B070BDD8
:102270001D95000070B592B000920C46054600987E
:102280001899179A169E119510940F900E930DA8F9
:1022900002700CAA117009AA002101911170119904
:1022A000059101780291C80803904907401C002954
:1022B000049001D10398049001980299049A514323
:1022C0000691012107910890FFE708980799884235
:1022D00000D399E00898822141434C48405C0F9913
:1022E0000978884200D08AE0089882214143474813
:1022F000401840780F994978884200D07FE01198C3
:1023000010990DAA1378C218521ECB185B1EFFF746
:10231000F3F90BA900200870FFE70BA800780699D5
:1023200088426BD2FFE70AA900200870FFE70AA8DD
:10233000007807285CDCFFE70CA80078002829D18A
:10234000FFE7089882214143304840180BA90978DB
:10235000401880780AA90978C840C007002804D02E
:10236000FFE70E9800F085F803E0169800F081F87A
:10237000FFE70998411C09A8017000780DA90978A8
:10238000FEF7D2F9002904D1FFE709A9002008705F
:102390002EE027E00898822141431C4840180BA9F1
:1023A0000978401880780AA90978C840C007002831
:1023B00006D0FFE7119810990E9AFFF7E7FAFFE7AA
:1023C0001198401C119011980599401A0DA909788F
:1023D000884206D1FFE7059811901098401C109094
:1023E00006E0FFE7FFE70A98401C0AA908709EE78D
:1023F000FFE70B98401C0BA908708EE7FFE7FFE78B
:102400000898401C089060E712B070BDFB95000072
:1024100070B58AB00C46054610980F990E9E099526
:1024200008940792069305AA117004A90870FFE7A3
:102430000798007800281AD0FFE709980899079AAA
:102440001278069B0E9C05AD03952D7804AE367868
:10245000029601950094FFF721FB0398007841084C
:102460000998401809900798401C0790E0E70AB0C7
:1024700070BD80B582B0019001A80090407800F056
:1024800027F80098007800F023F802B080BD80B5EE
:1024900082B0014601A80170007800F019F802B07E
:1024A00080BD000080B584B003A9009108700120B0
:1024B000C1020291EA480190FEF7A0FB0098007863
:1024C00000F006F801980299FEF766FC04B080BDA2
:1024D00080B584B003A900910870012081030291A6
:1024E000DF480190FEF78AFB0098007802F00AF8B6
:1024F00001980299FEF750FC04B080BD80B58CB005
:102500000920FEF7F7FB0A20FEF7F4FB3A2007212B
:102510000191FEF707FC012003908106CF4802904D
:10252000FEF78EFB01993B20FEF7FCFB0298039916
:10253000C906FEF785FB142002210491FEF7F2FB89
:1025400004991520FEF7E0FB192003210B91FEF7FB
:10255000E9FB0B991820FEF7E5FB0398002306938F
:102560000093020431201946FEF7AEFB1A20FEF755
:10257000A1FB1B20FEF79EFB1E20FEF79BFB3820D5
:10258000FEF798FB03980699009142040592C30454
:1025900007931320FEF776FB059A0699079B009197
:1025A0001220FEF76FFB059A0699079B0091052004
:1025B0000990FEF767FB0498059A0699079B00911E
:1025C000FEF760FB069A079B00920B201146FEF770
:1025D00059FB069A079B00920C201146FEF752FB0E
:1025E0009F480A900A490891FEF7FEFA08990A984E
:1025F000FEF726FB09990A98FEF7C0FB0A980B998B
:10260000FEF7D8FA0A980B99FEF70CFB0CB080BDC8
:10261000004C400480B586B01E4992480590FEF7F4
:102620009BFE05981C49FEF769FD0598002302935F
:1026300019461A46FEF79EFE029B0598009319461E
:102640001A46FEF775FE029A05981146FEF762FEDD
:10265000029A059811490391FEF776FE029B0598B0
:1026600001210491009119461A46FEF761FE029974
:10267000049A0598FEF74EFE0399049A0598FEF712
:1026800063FE0598FEF70EFD05980321FEF738FE60
:1026900006B080BD789200007C92000010270000F8
:1026A00080B582B00B4970480190FEF7EDFB0198B0
:1026B0000949FEF79FFB01980021FEF7D5FB019821
:1026C00010210222FEF7EAFB0198FEF77BFB02B025
:1026D00080BDC046849200008692000080B582B022
:1026E00000200190FEF76EFC012000904002FEF7F2
:1026F00075FC0198FEF7A8FCFEF754FCFEF758FCA9
:10270000009A032000030A21FEF776FC0748FEF733
:10271000E9FB1020FEF7A6FC0198FEF7AFFC00983D
:10272000019900F053F902B080BDC04690920000BC
:1027300080B582B00A495A480190FEF70DFE019813
:102740000849FEF75FFD01980121FEF7B5FC122054
:10275000032100F03BF90198FEF7A4FC02B080BD14
:10276000B8920000BC92000080B582B01049574872
:102770000190FEF7ADFE01980E49FEF749FE019863
:102780000021FEF7AEFE0198412189001B22FEF7D1
:1027900079FE019801218902FEF716FE0F20032120
:1027A00000F014F90198FEF703FE02B080BDC046A8
:1027B000D0920000D292000080B500F01DF8FFF723
:1027C0009DFEFFF78BFFFFF725FFFFF7B1FFFFF738
:1027D000CBFFFFF765FF05499C2200208854044980
:1027E000B822885403492422885480BDD400202074
:1027F0009C0120207401202080B586B017480090ED
:10280000FEF7B4FA16480190FEF7B0FA15480290A8
:10281000FEF76EFD22480390FEF76AFD2B480490F8
:10282000FEF724FE10480590FEF712FB0098FEF715
:1028300013FA0198FEF710FA0298FEF749FC039884
:10284000FEF746FC0498FEF7CDFD0598FEF7C6FAA4
:102850001020FEF795F906B080BDC04600000A4082
:1028600000200A4000A0864000A0464080B50C48E9
:10287000FEF73AFC012811D1FFE701F0D3F8022856
:1028800003D0FFE700F04AFDFFE701F0E9F8012877
:1028900003D1FFE701F0B0F8FFE7FFE780BDC046D6
:1028A0000000864010B50948FEF7A8FD0B280CD1A2
:1028B000FFE70648FEF7D0FD054980240A59531C5E
:1028C0000B51885400F0C6FAFFE710BD008010409D
:1028D0001800202081B00146684601700021405652
:1028E000002809D4FFE7684601781F200140012035
:1028F000884016490860FFE701B0704781B0014683
:102900006846017000214056002809D4FFE7684658
:1029100001781F200140012088400C490860FFE732
:1029200001B0704781B001466846017000214056F1
:10293000002809D4FFE7684601781F2001400120E4
:10294000884002490860FFE701B0704780E200E07C
:1029500081B001466846017000214056002809D424
:10296000FFE7684601781F20014001208840164992
:102970000860FFE701B0704781B00146684601700A
:1029800000214056002809D4FFE7684601781F203F
:102990000140012088400C490860FFE701B0704702
:1029A00081B001466846017000214056002809D4D4
:1029B000FFE7684601781F20014001208840024956
:1029C0000860FFE701B0704700E100E070B582B039
:1029D000024601A80270009100214056002816D43A
:1029E000FFE7002401A908570322D3431840174AE0
:1029F000805809578C07E50EFF24AC40A043009C8B
:102A0000A401E4B2AC402043194088501AE001A967
:102A100008780F24204008380322D34318400A4A7C
:102A20008058002549578D07EE0EFF25B540A84375
:102A3000009DAD01EDB2B540284321400839194051
:102A40008850FFE702B070BD1CED00E000E400E03C
:102A500080B582B0019001980078C006000F009008
:102A6000012808D0FFE7009808284FD0FFE700981A
:102A7000092850D054E000F0E5FF002811D1FFE70D
:102A8000D7484168491E41604068002804D5FFE7E7
:102A9000D34901204860FFE7D148406802F032F88E
:102AA000FFE700F0CFFF03280ED1FFE7CC48816895
:102AB000491CCA17920F8A1803239A43891A816006
:102AC000806802F087FAFFE700F0BCFF04281CD101
:102AD000FFE700F0A7FF012808D1FFE700F0B8FFEB
:102AE000BF498968012201F0FDFB0DE000F09AFF6B
:102AF000022808D1FFE700F089FFB949896801225F
:102B000001F0DCFAFFE7FFE7FFE70AE0B448052140
:102B100000F012FC05E0B248062100F00DFC00E0D8
:102B2000FFE702B080BDC04680B582B00190019839
:102B30000078C006000F012835D1FFE700F082FFC2
:102B4000012805D0FFE700F07DFF02280ED1FFE746
:102B50000220009002F0C0F8002001F0BBFB01F061
:102B6000E7FC00999E4800F0E7FBFFE700F06AFFF2
:102B7000032808D1FFE79A48022100F0DDFB04207A
:102B800002F028FAFFE700F05DFF04280AD1FFE712
:102B90009348022100F0D0FB00F050FF001D02F02E
:102BA00003F8FFE700E0FFE702B080BDB0B590B0EA
:102BB0000F900F980078C006000F0D90012805D0E7
:102BC000FFE70D98062800D182E099E000F03AFF77
:102BD000002857D1FFE78248012100F0ADFB00F04B
:102BE00011FFC0B202F078F800F02CFF01281DD1CF
:102BF000FFE700F02DFF00680C9000F029FF40680F
:102C0000099000F025FF80680A9000F007FF0B9004
:102C100000F01EFF09990A9A0B9B04460C98E46A7F
:102C200000250195009402F0D3FAFFE700F00AFFB7
:102C3000022826D1FFE700F019FFFDF7B0FC32496A
:102C4000FDF7C4FAFDF7E4FC0E9000F0DFFE00682B
:102C5000089000F0DBFE4068059000F0D7FE0E996A
:102C600007918068069000F0D1FE0599069A079BAF
:102C700004460898E46A00250195009401F08EFD51
:102C8000FFE724E000F0DEFE012805D0FFE700F0BA
:102C9000D9FE02280AD1FFE751480490012100F033
:102CA0004BFB0498806802F095F90FE000F0CAFE33
:102CB00003280AD1FFE74A480390012100F03CFBBA
:102CC0000398806801F070FFFFE7FFE7FFE718E077
:102CD00000F0B8FE012805D0FFE700F0B3FE02289F
:102CE0000DD1FFE73E48032100F026FB00F0A2FED5
:102CF000002803D1FFE701F01BFCFFE7FFE700E03E
:102D0000FFE710B0B0BDC04607B1933E80B582B0BA
:102D1000019001980078C006000F0090012808D0AB
:102D2000FFE7009808284ED0FFE7009809284FD009
:102D300053E000F087FE00280DD1FFE728484168E6
:102D4000491CCA0F8A1801239A43891A41604068B6
:102D500001F0D8FEFFE700F075FE032811D1FFE770
:102D60001F488168491E81608068002804D5FFE7FC
:102D70001B4903208860FFE71948806802F02AF9A0
:102D8000FFE700F05FFE04281CD1FFE700F04AFED9
:102D9000012808D1FFE700F05BFE11498968002295
:102DA00001F0A0FA0DE000F03DFE022808D1FFE797
:102DB00000F02CFE0A498968002201F07FF9FFE744
:102DC000FFE7FFE70AE00648042100F0B5FA05E056
:102DD0000348062100F0B0FA00E0FFE702B080BD32
:102DE0009802202080B582B000F046FE019001A834
:102DF00000780007C00F02B080BD80B582B000F03F
:102E00003BFE019001A800788007C00F02B080BD92
:102E100080B582B000F030FE019001A80078400734
:102E2000C00F02B080BD80B582B000F025FE0190D9
:102E300001A800780121084002B080BD80B582B0B1
:102E40000F200190FFF75AFD0198FFF795FD02B0A2
:102E500080BD000081B00948802140587F2806DBF2
:102E6000FFE70649802200208850009002E0012000
:102E70000090FFE7009801B07047C046180020207E
:102E800001490020087070470A00202010B586B064
:102E90000A9C099C089C0590049103920293059852
:102EA0000999401A05900498099949184018049006
:102EB00003980999401A03900298099949184018F3
:102EC00002900598039B089942180A9900911946A7
:102ED000FEF7D6FC059A039908980B180A980090FB
:102EE0001046FEF7CDFC059804994018039B0899FD
:102EF000421A0A9900911946FEF7C2FC05980499F6
:102F00004218039908980B180A9800901046FEF78B
:102F1000B7FC05980399029A8B18089942180A99E8
:102F200000911946FEF7ACFC059A039802994118E6
:102F300008980B1A0A9800901046FEF7A1FC059815
:102F4000049940180399029A8B180899421A0A9911
:102F500000911946FEF794FC0598049942180398CD
:102F60000299411808980B1A0A9800901046FEF72B
:102F700087FC06B010BD0000B0B58CB0139C129C4D
:102F8000119C109C0B900A9109920893119910982A
:102F90004843C10F4018401007900B980A99CA0F78
:102FA00089184910401806901198C10F4018401018
:102FB000059009980899CA0F89184910401804907B
:102FC0000B9809990A9A8218089BCB18139C0094B5
:102FD000FEF7B1FB06980799401A0499059A891AD9
:102FE000129A139B11AC2478012502950194009349
:102FF000C04BFEF741FE0CB0B0BDC046B0B58AB0C4
:103000000E9C0990089107AD03952A8006AC2370A9
:10301000217808984843C10F401840100590207847
:1030200040080490059A9620801A0999AA322378BC
:103030005B182D880095FEF77EFB039B0599A02069
:10304000401A09990E9A1B8824780125029501944B
:103050000093A84BFEF710FE0AB0B0BD80B584B057
:103060005A200290054801900090054801218A07E6
:103070000449054B00F0E7FF04B080BD003C1C464E
:103080009C0020200000964200002041B0B58EB088
:103090000491044604981499139D129D0C940B906E
:1030A0000A92099308A8018007AA0021118006AAA4
:1030B000118005AA1180405E0999884204DBFFE770
:1030C000099808A90880FFE7002108A8405E0028A9
:1030D00004DCFFE708A900200880FFE70B980999A6
:1030E00040180899401A06A908803248007800283C
:1030F00012D0FFE70C9806A90988129AFEF746FC41
:103100000C982D49088006982C49088029490020F0
:1031100008700DA9088048E027480088411C07A8CE
:10312000018000880A99884227DAFFE707A8019002
:1031300000880B99099A8A18139BFEF760FC019A84
:103140001D48029000881D4903910988128806AB2A
:103150001B88129C0094FEF793FB01980088401C8A
:103160000B99099A8A18634BFEF749FC029A039956
:10317000079810800698088013E00C980B99099A1C
:103180008A18139BFEF73BFC0C9806A90988129A33
:10319000FEF7FCFB0C980849088006980749088050
:1031A000FFE707980DA90880FFE70DA800880EB07B
:1031B000B0BDC04604002020CC002020CE0020203E
:1031C000B0B58EB00491044604981499139D129DD5
:1031D0000C940B900A92099308A8018007AA002179
:1031E000118006AA118005AA1180405E09998842C3
:1031F00004DBFFE7099808A90880FFE7002108A879
:10320000405E002804DCFFE708A900200880FFE7F3
:103210000B98099940180899401A06A90880324865
:103220000078002812D0FFE70C9806A90988129AA6
:10323000FEF7ACFB0C982D49088006982C490880B5
:103240002949002008700DA9088048E02748008817
:10325000411C07A8018000880A99884227DAFFE705
:1032600007A8019000880B99099A8A18139BFEF70A
:10327000C6FB019A1D48029000881D4903910988E8
:10328000128806AB1B88129C0094FEF7F9FA01988D
:103290000088401C0B99099A8A18164BFEF7AFFB61
:1032A000029A0399079810800698088013E00C98FA
:1032B0000B99099A8A18139BFEF7A1FB0C9806A993
:1032C0000988129AFEF762FB0C9808490880069854
:1032D00007490880FFE707980DA90880FFE70DA8B8
:1032E00000880EB0B0BDC04605002020D0002020D0
:1032F000D2002020FFFF0000014901200870704724
:103300000A00202080B582B001200190FFF7E2FA88
:103310000198FFF71DFB02B080BD00000549486819
:10332000086888608868C00F0873002048600860DB
:103330007047C0465802202083B0029001A8017057
:103340000078401E0090052800D999E0009881007F
:1033500001A040588746C04671330000DF330000AB
:103360004D340000693400007134000079340000ED
:1033700002980078002818D1FFE7029840680028DA
:1033800006D1FFE7029901200870029948730BE00B
:1033900002984068012806D1FFE7029902200870D0
:1033A00002994873FFE7FFE718E0029800780128C8
:1033B00005D0FFE702980078022804D1FFE70299C0
:1033C0000320087009E002980078032804D1FFE781
:1033D000029904200870FFE7FFE7FFE751E0029839
:1033E0000078032814D1FFE70298407B012804D11C
:1033F000FFE702990120087009E00298407B02284B
:1034000004D1FFE7029902200870FFE7FFE71CE004
:1034100002980078012805D0FFE70298007802287A
:1034200008D1FFE7029900200870029908730299F9
:10343000487309E002980078042804D1FFE7029954
:1034400003200870FFE7FFE7FFE71AE00298007B20
:10345000002804D1FFE702990120087303E00299D4
:1034600000200873FFE70CE002990120487008E093
:1034700002990220487004E002990020487000E0A0
:10348000FFE703B07047000080B584B003A90020B7
:103490000870FB4A126802920870FFE70298002841
:1034A00000D1EBE1029800784009012805DBFFE735
:1034B00002994888401C4880FFE70298007840093C
:1034C0000190062800D9D0E10198810001A0405860
:1034D0008746C046F134000049350000B33500008E
:1034E0002F3700007F370000E93700004738000021
:1034F000E5480088002203A98956C840C007002873
:103500001AD0FFE70299002048800299888002992A
:1035100008781F2210402030087002990878E122B4
:103520001040087002984069002804D0FFE7029814
:1035300041698847FFE706E002990878E1221040D8
:1035400016300870FFE790E1CE480088002203A9FA
:103550008956C840C007002807D1FFE702990878BC
:103560001F2210404030087022E0029948884989A3
:1035700088421CDBFFE7029948888989884216DA6D
:10358000FFE7029908781F221040803008700299E6
:103590000878E1221040083008700298406900283D
:1035A00004D0FFE7029841698847FFE7FFE7FFE79C
:1035B0005BE1029948880989884229DAFFE7029984
:1035C0008888401C888002988088012807D1FFE7FE
:1035D000029908781F2210406030087017E00299A5
:1035E00000208880029908781F22104008700299F4
:1035F0000878E1221040001D0870029840690028F8
:1036000004D0FFE7029841698847FFE7FFE78DE0B4
:1036100002994888098988421EDBFFE70299488899
:103620004989884218DAFFE70299002088800299C8
:1036300008781F221040087002990878E122104093
:10364000801C087002984069002804D0FFE70298A7
:1036500041698847FFE768E00299488849898842BC
:103660001EDBFFE7029948888989884218DAFFE75C
:10367000029900208880029908781F221040087063
:1036800002990878E12210400A30087002984069D7
:10369000002804D0FFE7029841698847FFE743E02C
:1036A00002994888898988421EDBFFE70299488889
:1036B000C989884218DAFFE70299002088800299B8
:1036C00008781F221040087002990878E122104003
:1036D0000E30087002984069002804D0FFE7029875
:1036E00041698847FFE71EE002994888C9898842F6
:1036F00018DBFFE7029900208880029908781F22D2
:103700001040087002990878E122104012300870C9
:1037100002984069002804D0FFE702984169884771
:10372000FFE7FFE7FFE7FFE7FFE7FFE79DE08848E8
:103730000088002203A98956C840C00700280FD07E
:10374000FFE702998888401C8880029908781F2228
:1037500010404030087002994888401E48800DE0B3
:10376000029948880989884207DBFFE702990878AF
:103770001F22104040300870FFE7FFE775E07348F4
:103780000088002203A98956C840C007002807D135
:10379000FFE7029908781F2210404030087022E0AD
:1037A00002994888898988421CDBFFE7029948888A
:1037B000C989884216DAFFE7029908781F2210406B
:1037C000A030087002990878E12210400C3008708F
:1037D00002984069002804D0FFE7029841698847B1
:1037E000FFE7FFE7FFE740E058480088002203A911
:1037F0008956C840C007002807D1FFE7029908781A
:103800001F221040403008701CE002994888C98986
:10381000884216DBFFE7029908781F221040C0306B
:10382000087002990878E122104010300870029860
:103830004069002804D0FFE7029841698847FFE704
:10384000FFE7FFE711E041480088002203A98956FD
:10385000C840C007002807D1FFE7029908781F2257
:10386000104040300870FFE7FFE7FFE702988069EB
:1038700002900398401C03A908700FE604B080BDB5
:103880001000202016002020A802202080B586B03D
:1038900004A900200880574909882B4A118003A9F0
:1038A0000870524A126805920870FFE705990020D7
:1038B0000029029006D0FFE705980069411E884163
:1038C0000290FFE70298C00700282BD0FFE71E48B0
:1038D0000088019005980078C00700280BD0FFE70A
:1038E00005980069804741424841002203A9895652
:1038F0008840009008E0059800698047002203A9ED
:10390000895688400090FFE70198009908430E49C6
:103910000880FFE70598806905900398401C03A97B
:103920000870C3E708480088C14304A801800088E4
:1039300006490B8802465A401040054A10800498F8
:10394000088006B080BDC046080020201600202058
:10395000A802202083B001902448006800900198BC
:10396000002805D0FFE722480078112804DBFFE794
:1039700002A9FF20087033E0FFE7009800280DD06F
:10398000FFE700980199884204D1FFE702A9FF20D0
:10399000087025E0009880690090EEE713490868F8
:1039A000019A9061019A10781F2318401070019AB3
:1039B0001078E123184016301070019A00205080D2
:1039C000019A9080019808600A49088840000880A0
:1039D00007480178491C0170007802A90870FFE7C8
:1039E000002102A8405603B07047C04610002020B6
:1039F000140020200600202080B5FFF747FFFFF7C6
:103A000043FD80BD114840687047C046024870477A
:103A10000148C06A7047C0469C0020201548806855
:103A20007047C0460948407B7047C0460748407809
:103A30007047C0460548007B7047C0460348806811
:103A40007047C046014800787047C0469802202061
:103A5000024870470148C06A7047C046680220208B
:103A6000014800787047C0460A002020014841689C
:103A70000068704758022020B0B584B00120009043
:103A800041021F480190FDF75BF900990446019837
:103A9000621E944103AB02931A78FE252A40121944
:103AA0001A700902FDF74CF90099029B044601982F
:103AB000621E94411A786400FD252A4012191A707A
:103AC000C907FDF73DF90099029B04460198621E63
:103AD00094411A78A400FB252A4012191A7009078C
:103AE000FDF72EF902990246501E82410878D20055
:103AF000F723184080180870039804B0B0BDC04682
:103B000000000A4080B592B001200390810201912B
:103B10006C480090FDF772F86B48FDF731F800989B
:103B20000199FDF739F96948FDF72AF8112010903D
:103B3000FEF7B8FC36200E90FEF7B4FC7020FEF7BE
:103B4000A6FC3A20FEF7AEFC05200690FEF79FFC8F
:103B5000B220FEF7A7FC0C200290FEF798FC02981A
:103B6000FEF795FC00200490FEF791FC33200C90AA
:103B7000FEF78DFC0C98FEF78AFCB720FEF792FC4E
:103B80003520FEF784FCBB20FEF78CFC1A20FEF7E4
:103B90007EFCC020FEF786FC2C20FEF778FCC220BD
:103BA000FEF780FC0398FEF772FCC320FEF77AFC58
:103BB0000B200990FEF76BFCC420FEF773FC20205D
:103BC000FEF765FCC620FEF76DFC0F20FEF75FFCDC
:103BD000D020FEF767FCA420FEF759FCA120FEF7D9
:103BE00056FC2120FEF75EFCE020FEF75BFCF02097
:103BF0000890FEF74CFC0498FEF749FC0420059061
:103C0000FEF745FC0598FEF742FC0598FEF73FFCE1
:103C10000698FEF73CFC29201190FEF738FC0C9822
:103C2000FEF735FC3E200D90FEF731FC3820FEF704
:103C30002EFC12200790FEF72AFC0798FEF727FCBF
:103C400028200B90FEF723FC3020FEF720FCE1201B
:103C5000FEF728FC0898FEF71AFC07200A90FEF7EA
:103C600016FC0A20FEF713FC0D20FEF710FC099845
:103C7000FEF70DFC0A98FEF70AFC0B98FEF707FC0E
:103C80000C98FEF704FC0D98FEF701FC0E98FEF769
:103C9000FEFB14200F90FEF7FAFB0F98FEF7F7FBE0
:103CA0001198FEF7F4FB3220FEF7F1FB1098FEF7B7
:103CB000F9FB0748FCF764FF1198FEF7F3FB12B01D
:103CC00080BDC04600200A40009F240000127A00F8
:103CD000007C9200B0B5A0B000201F90FEF76CFDF4
:103CE000FFF7ACF801F0A8FBFFF70CFB00F02EFC8F
:103CF00000F024FC00F0ECFBFFF7B0F9FFF702FF47
:103D000000F080FEFFE7FFF795FE01284ED1FFE7A8
:103D1000FFF788FE01460491012804D0FFE70498CC
:103D200002281CD037E0FFF795FE014613A800F0EB
:103D3000C1F8FFF77FFE012803D1FFE700F0EAFF9B
:103D40000CE0FFF777FE002807D1FFE700F0F0FB5B
:103D5000FFF77EFE00F06CF9FFE7FFE725E0FFF7D5
:103D600057FE014607A800F05FF8FFF763FE012841
:103D700003D1FFE700F0F6FB0CE0FFF75BFE002845
:103D800007D1FFE700F0D4FBFFF740FE00F050F949
:103D9000FFE7FFE709E0FFF7AFFAFFF759FE00F092
:103DA00047F9002000F096FAFFE7FFE7FFF74AFE29
:103DB000042837D1FFE7FFF739FE01F00BF8FFF7D2
:103DC00031FE012804D1FFE7FFF742FE039003E034
:103DD000FFF71CFE0390FFE703980690FFF722FE13
:103DE000012806D1FFE7FFF719FEFCF7CDFB029093
:103DF00008E0FFF73BFEFCF7D2FB2C49FCF7E6F9A5
:103E00000290FFE70298FCF703FC05900698059BDB
:103E1000C46A82684168006801250195009401F038
:103E2000D7F9FFE76FE7C046B0B586B001900591BE
:103E30000598FCF7A9FB1D49FCF705FAFCF7E8FB20
:103E400003900398FCF7A0FB0290FFF70FFEFCF72E
:103E5000A6FB02990246164800F06AF8FCF7D8FB68
:103E600004903248FCF78CFE0498012806DBFFE73B
:103E700004A80188002000F015FA0DE0049800283D
:103E800009D5FFE704984042049004A80088002167
:103E900000F008FAFFE7FFE7019805493CC93CC07C
:103EA0003CC93CC03CC93CC006B0B0BD07B1933E64
:103EB0009C002020B0B584B0009003910398FCF7DB
:103EC00063FB0190FFF7AAFDFCF75EFB0199024638
:103ED000154800F02DF8FCF79BFB02901348FCF707
:103EE0004FFE0298012806DBFFE702A801880020A8
:103EF00000F0D8F90DE00298002809D5FFE70298F4
:103F00004042029002A80088002100F0CBF9FFE7B0
:103F1000FFE7009804493CC93CC03CC93CC03CC9CF
:103F20003CC004B0B0BDC04668022020801A060024
:103F300080B58CB00B900A9109920B998869C86181
:103F40000A980999FCF73AF90B9988610B988069EE
:103F500008900B98069081690069FCF7DEF80699D5
:103F600008610B998869C969FCF728F907900B99D2
:103F70000869096AFCF7D0FA002804D1FFE70B9919
:103F8000086A086112E00B990869096A0122D207E0
:103F90005140FCF7CFFA002807D1FFE70B99086AD8
:103FA0000122D20750400861FFE7FFE70B99059116
:103FB000086802900898019048680969FCF706F9BA
:103FC0000199024602980392FCF700F90399FCF765
:103FD000A4F801460598049180680799FCF7F6F863
:103FE0000499FCF79AF8059948620B99486A896A1E
:103FF000FCF792FA002804D1FFE70B99886A48621F
:1040000012E00B99486A896A0122D2075140FCF7F5
:1040100091FA002807D1FFE70B99886A0122D2079D
:1040200050404862FFE7FFE70B98406A0CB080BD44
:1040300081B0009000990020C86000990861009943
:10404000486101B0704710B584B0089C079C069C7D
:1040500003900291019200930298039908600198DD
:10406000039948600098039988600698039908624C
:1040700007980399886208980399C86204B010BD34
:1040800081B00090009800880449884204DBFFE773
:10409000009903480880FFE701B07047102700002F
:1040A0000F27000080B582B0014601A80180018879
:1040B0007B480022FDF748F902B080BD80B58EB084
:1040C0000D900C910B920B98002849D1FFE70C98AA
:1040D0000A90032843D80A98810001A040588746D7
:1040E000F14000000D410000294100004541000061
:1040F0000D9809900068FCF7E7FAF24AF34BFCF7D9
:10410000E1F8FCF7F5FA0999086028E00D980890A5
:104110004068FCF7D9FAEB4AEC4BFCF7D3F8FCF714
:10412000E7FA089948601AE00D9807908068FCF754
:10413000CBFAE44AE54BFCF7C5F8FCF7D9FA079946
:1041400088600CE00D98C06AFF216831884205DC68
:10415000FFE70D99C86A401CC862FFE7FFE78DE0E2
:104160000C980690032800D987E00698810001A0EA
:104170004058874685410000CF41000019420000A9
:10418000634200000D9800680021FCF7C5F9002883
:1041900009D1FFE70D98059000683A49FBF7BDFF8C
:1041A00005990860FFE70D9800680121C907FCF731
:1041B000CFF9002803D1FFE70020049003E00D9819
:1041C00000680490FFE704980D99086055E00D9889
:1041D00040680021FCF7A0F9002809D1FFE70D98FD
:1041E000039040682749FBF798FF03994860FFE771
:1041F0000D9840680121C907FCF7AAF9002803D1EE
:10420000FFE70020029003E00D9840680290FFE76E
:1042100002980D99486030E00D9880680021FCF705
:104220007BF9002809D1FFE70D98019080681549B6
:10423000FBF773FF01998860FFE70D988068012103
:10424000C907FCF785F9002803D1FFE7002000909B
:1042500003E00D9880680090FFE700980D99886052
:104260000BE00D98C06A0649884205DBFFE70D990F
:10427000C86A401EC862FFE7FFE7FFE70EB080BDD7
:1042800099FEFFFFCDCCCCBD80B582B0014601A820
:104290000180018802480122FDF756F802B080BD76
:1042A00000A0864080B584B0024603A8009002803A
:1042B00002AA01921180FFF7E3FE0198FFF7E0FEEA
:1042C00000980088FFF7E0FF01980088FFF7EAFEFA
:1042D00004B080BD81B06946087000989A4908739F
:1042E00001B0704780B58EB00D900C910B920B9879
:1042F000002847D1FFE70C980A90032841D80A9874
:10430000810001A040588746194300003543000052
:10431000514300006D4300000D9809900068FCF7C0
:10432000D3F9C54A694BFBF7CDFFFCF7E1F90999D1
:10433000086026E00D9808904068FCF7C5F9BE4A71
:10434000624BFBF7BFFFFCF7D3F90899486018E010
:104350000D9807908068FCF7B7F9B74A5B4BFBF7FD
:10436000B1FFFCF7C5F9079988600AE00D98C06AAB
:10437000632805DCFFE70D99C86A401CC862FFE7A7
:10438000FFE79DE00C980690032800D997E0069877
:10439000810001A040588746A9430000FD4300006A
:1043A00051440000A54400000D9800680021FCF76E
:1043B000B3F800280ED1FFE70D9805900068FCF7D0
:1043C00083F99D4A404BFBF77DFFFCF791F9059976
:1043D0000860FFE70D9800680121C907FCF7B8F8ED
:1043E000002803D1FFE70020049003E00D98006847
:1043F0000490FFE704980D99086060E00D9840680C
:104400000021FCF789F800280ED1FFE70D980390F2
:104410004068FCF759F9884A2B4BFBF753FFFCF730
:1044200067F903994860FFE70D9840680121C907C3
:10443000FCF78EF8002803D1FFE70020029003E08C
:104440000D9840680290FFE702980D99486036E0A9
:104450000D9880680021FCF75FF800280ED1FFE777
:104460000D9801908068FCF72FF9734A164BFBF703
:1044700029FFFCF73DF901998860FFE70D988068F6
:104480000121C907FCF764F8002803D1FFE70020E9
:10449000009003E00D9880680090FFE700980D9968
:1044A00088600CE00D98C06A6221C943884205DB30
:1044B000FFE70D99C86A401EC862FFE7FFE7FFE704
:1044C0000EB080BD9A9999999999B9BF9999B93FB8
:1044D00080B584B0622002900548019000900548A4
:1044E0000549064A064BFFF7AEFD04B080BDC04645
:1044F000003C1C466802202000000C420000C04026
:104500000000204180B582B0014601A80170017809
:104510000648FCF7DBFCFFE70448FCF78DFC0028AD
:1045200001D0FFE7F8E702B080BDC04600A04640DA
:1045300080B500210846FFF7B5FE80BD0249002086
:1045400008704860886070479802202080B582B06B
:1045500012200190FEF7E6F90198FEF721FA02B069
:1045600080BD0000B0B58EB000200A900D90FEF71F
:1045700087FCFFF77BFAFCF712F82E49FBF726FEC3
:10458000FCF746F80D90FFF741FA00680690FFF738
:104590003DFA40680390FFF739FA0D99059180685C
:1045A0000490FFF733FA0399049A059B0446069892
:1045B000E46A01250195009400F0F0F80A980C9047
:1045C0000D982D21C90007914018FBF7FFFF1A4AEB
:1045D00008921A4B0993FBF727FFFCF733F80A9967
:1045E00001913F22520100920290FF224032582353
:1045F0000846FEF74BFD0C900C980B90FFF708FA5D
:1046000007994018FBF7E2FF089A099BFBF70CFF9C
:1046100002460A980B460A49FBF7F8FEFCF736F803
:1046200001460B981F22D202FDF7B0F9FEF764FE97
:104630000EB0B0BD07B1933E9A99999999992040CF
:104640000000564070B59EB0002003901D901C9055
:104650001B901A901990189017901690159014901E
:1046600013901290119010900F900125A9060D91B2
:1046700047480C90FCF7CCFA039900910520820181
:10468000AA2309930846FDF7DBF90C200E900E993A
:104690004C20401A02951021049101911F24089486
:1046A0000094572105915022D24B0B93FDF7F6F958
:1046B000049A05990B9B0E9EA020801B02950192E7
:1046C00000944922FDF7EAF9049A05990B9B0E9E86
:1046D000F420801B0295019200944422FDF7DEF93C
:1046E0000E992E20401A1990682006901A900E9963
:1046F0007420401A1B90802007901C9019981A99DA
:104700001B9A1C9B0094FDF716F8069907980E9BC0
:104710008222D21A149215910E9AC821891A1691E2
:10472000179014981599169A179B0094FDF703F8A3
:10473000069907980E9BD622D21A0F9210910E9AC4
:1047400047218900891A119112900F981099119A96
:10475000129B0094FCF7EFFF08980B9B029518241E
:10476000019400900B4A142088210A91FDF750FE15
:10477000089A09980A990B9B029501940092064A9F
:10478000FDF746FE0C980D99FCF710FB1EB070BDAE
:1047900000200A40E4920000EC92000010B5B0B096
:1047A000339C329C2F902E912D922C931FA8322156
:1047B000FBF7A1FC002009901E901D901C901B90FF
:1047C0001A901990189017901690159014901390B5
:1047D0001290119010900F9008200E9046200D908E
:1047E00018200C9022200B9054200A903398012816
:1047F0000DD0FFE77A497B4808607B4908607B4918
:1048000008607B49E74808607B490860FFE7744817
:1048100000682F99FBF7AAFE002831D1FFE72F98F7
:104820006F4908602F98FBF74FFF02460B4673490C
:104830001FA8089000F05EFE0898FBF767FC089A36
:1048400001460E9848430F900B980D990F9BC91A7B
:10485000CB0FC918491040181A900C981038C10F86
:104860004018401068301B901A981B99002302933F
:10487000102301931F230093CA4BFDF7C9FDFFE7E7
:10488000594800682E99FBF771FE002833D1FFE7E5
:104890002E98554908602E98FBF716FF02460B46E6
:1048A00056491FA8079000F025FE0798FBF72EFC3D
:1048B000079A01460E9848430F900B980A994018A2
:1048C0000D990F9BC91ACB0FC918491040181590A4
:1048D0000C981038C10F4018401068301690159889
:1048E000169900230293102301931F230093F94B81
:1048F000FDF78EFDFFE73D4800682D99FBF736FE7A
:10490000002834D1FFE72D98384908602D98FBF72F
:10491000DBFE02460B4639491FA8069000F0EAFD6F
:104920000698FBF7F3FB069A01460E9848430F9052
:104930000B980A99401840180D990F9BC91ACB0F74
:10494000C9184910401810900C981038C10F401821
:104950004010683011901098119900230293102391
:1049600001931F230093DB4BFDF752FDFFE7204827
:1049700000682C99884215D0FFE72C981C490860E4
:104980002C9A1F491FA8059000F0B4FD059A00203D
:1049900002901821019100905C208821CD4BFDF7F9
:1049A00037FDFFE7144800683299884215D0FFE7C9
:1049B000329811490860329A11491FA8049000F0FA
:1049C00099FD049A00200290182101910090FE2088
:1049D0008821C04BFDF71CFDFFE730B010BDC0467D
:1049E000B802202000FF7F47B4022020AC02202024
:1049F000B0022020FFFF0000BC022020F99200003E
:104A0000F592000070B592B0012081063848FCF79D
:104A1000FFF800210091052005908201AA23084695
:104A2000FDF70EF805993348009003201F26102348
:104A300006933246FEF7E2FA069B2F4800901620B6
:104A400008213246FEF7DAFA28201190502008900B
:104A50001090412107910F910E90119810990F9A83
:104A60000E9B0396254C0294182501950224009470
:104A7000FEF782FA07990898C8220D920C900B91C4
:104A80000A900D980C990B9A0A9B03961C4E02965D
:104A900001950094FEF770FAFEF7B4FF0146099104
:104AA000002804D0FFE7099801280DD019E08948B3
:104AB0000290052001900A200090282041225023D6
:104AC0001946FEF7E3F90CE08248029005200190B8
:104AD0000A200090C820412250231946FEF7D6F93B
:104AE000FFE7012081060248FCF760F912B070BDB3
:104AF00000200A400A930000159300000093000074
:104B00000593000010B58EB00D900CA9052008701B
:104B10000D980B90002804D0FFE70B9801281FD0B8
:104B20003DE00CA8079000786A49029101900A20A4
:104B30000890009028204122099250230A93194698
:104B4000FEF7A4F907990898099A0A9B09780024A6
:104B5000029401910090C8201946FEF797F91EE0D3
:104B60000CA8039000780021029101900A20049083
:104B70000090282041220592502306931946FEF703
:104B800085F903990498059A069B0978514C02947B
:104B900001910090C8201946FEF778F9FFE70EB0A2
:104BA00010BDC046FFFF000010B584B0039002A9FD
:104BB0000320087003980190072800D988E0019825
:104BC000810001A040588746E94B0000054C0000D9
:104BD000214C00003F4C00005D4C0000794C00006F
:104BE000954C0000B34C000002A803782320C01AA3
:104BF0006921C91A1A4667327F33F34C0094FCF7D7
:104C0000D5FE65E002A803787720C01A6921C91A89
:104C10001A46BB327F33EC4C0094FCF7C7FE57E0DA
:104C200002A80378CB20C01A6921C91AFF221032CA
:104C30009A187F33E44C0094FCF7B8FE48E002A8D1
:104C40000378AB20C01A8921C91AFF223C329A1876
:104C5000A533DD4C0094FCF7A9FE39E002A80378E7
:104C60002320C01A6921C91A1A4667327F330024EB
:104C70000094FCF79BFE2BE002A803787720C01A73
:104C80006921C91A1A46BB327F3300240094FCF70D
:104C90008DFE1DE002A80378CB20C01A6921C91A35
:104CA000FF2210329A187F3300240094FCF77EFE16
:104CB0000EE002A80378AB20C01A8921C91AFF228E
:104CC0003C329A18A53300240094FCF76FFEFFE7EE
:104CD00004B010BDFFFF000080B582B0014601A8FE
:104CE00001700078022803D1FFE7FFF78BFEFFE792
:104CF00001A80078002803D1FFE700F0BDF8FFE726
:104D000001A80078012803D1FFE7FFF79BFCFFE72C
:104D100002B080BDB0B58CB0FEF7B2F8FEF798FED9
:104D200000680690FEF794FE40680390FEF790FE40
:104D300080680490FEF772FE0590FEF789FE0399E5
:104D4000049A059B04460698E46A0125019500949F
:104D500000F03EFA002009900B90FEF75FFE6430F1
:104D6000FBF734FC184A0792184B0893FBF75CFBDF
:104D7000FBF768FC099901913F22520100920290D1
:104D8000FF22403258230846FEF71AFA0B900B9880
:104D90000A90FEF75FFE6430FBF718FC079A089B49
:104DA000FBF742FB024609980B460949FBF72EFB2D
:104DB000FBF76CFC01460A981F22D202FCF7E6FDC5
:104DC000FEF79AFA0CB0B0BD66666666666602408B
:104DD0000000564080B582B0014601A801700078FD
:104DE000002801D1FFE742E001A8007801281CD18A
:104DF000FFE7FEF717FE012808D1FFE7FEF728FEC0
:104E00001C4989680022FFF76DFA0DE0FEF70AFEE3
:104E1000022808D1FFE7FEF7F9FD1649896800224C
:104E2000FFF74CF9FFE7FFE721E001A8007802282F
:104E30001CD1FFE7FEF7F6FD012808D1FFE7FEF7DA
:104E400007FE0C4989680122FFF74CFA0DE0FEF7D6
:104E5000E9FD022808D1FFE7FEF7D8FD054989687A
:104E60000122FFF72BF9FFE7FFE7FFE7FFE702B0BB
:104E700080BDC0469802202070B59EB000200390EF
:104E80001D901C901B901A901990189017901690D6
:104E90001590149013901290119010900F9001257E
:104EA000A9060D9147480C90FBF7B2FE03990091BB
:104EB00005208201AA2309930846FCF7C1FD0C20B6
:104EC0000E900E994C20401A0295102104910191E8
:104ED0001F2408940094572105915022BB4B0B933B
:104EE000FCF7DCFD049A05990B9B0E9EA020801B0D
:104EF0000295019200944922FCF7D0FD049A05998D
:104F00000B9B0E9EF420801B02950192009444227C
:104F1000FCF7C4FD0E992E20401A199068200690C7
:104F20001A900E997420401A1B90802007901C90B4
:104F300019981A991B9A1C9B0094FCF7FCFB069984
:104F400007980E9B8222D21A149215910E9AC821AC
:104F5000891A1691179014981599169A179B009410
:104F6000FCF7E9FB069907980E9BD622D21A0F92FE
:104F700010910E9A47218900891A119112900F9869
:104F80001099119A129B0094FCF7D5FB08980B9B83
:104F900002951824019400900C4A142088210A914B
:104FA000FDF736FA089A09980A990B9B0295019425
:104FB0000092074AFDF72CFA0C980D99FBF7F6FEC4
:104FC0001EB070BD00200A40FFFF0000DC92000010
:104FD000EC92000070B59EB01D901CA903200870D3
:104FE0001D981B90042800D9EDE01B98810001A0BA
:104FF000405887460950000063500000B55000003B
:1050000007510000595100001CAC189420786F49DA
:10501000029101900A201A900090222046211591B9
:105020006822169218231793FDF730FF1599169AE8
:10503000179B1A98247800251995029501940090E1
:105040007620FDF723FF1899199A1A980978029289
:1050500001910090AA20922188221E23FDF716FFBD
:10506000B1E01CAC2078F049029101900A20119027
:1050700000907620462112916822139218231493EF
:10508000FDF704FF11981299139A149B26780025B6
:10509000029501960090CA20FDF7F8FE119812992A
:1050A000139A149B24780295019400902220FDF716
:1050B000EDFE88E01CAC2078DB49029101900A20CB
:1050C0000D900090CA2046210E9168220F9218235D
:1050D0001093FDF7DBFE0D982178002502950191D4
:1050E0000090AA20922188221E23FDF7CFFE0D9862
:1050F0000E990F9A109B24780295019400907620C7
:10510000FDF7C4FE5FE01CAC2078C7490291019016
:105110000A2009900090AA20922188221E23FDF7E0
:10512000B5FE099821780025029501910090222072
:1051300046210A9168220B9218230C93FDF7A6FED4
:1051400009980A990B9A0C9B247802950194009077
:10515000CA20FDF79BFE36E01CAC069420780025A3
:105160000795029501900A20089000902220462180
:1051700003916822049218230593FDF787FE039993
:10518000049A059B0898267802950196009076204F
:10519000FDF77CFE0399049A059B089824780295F4
:1051A00001940090CA20FDF771FE0699079A0898AD
:1051B0000978029201910090AA20922188221E2350
:1051C000FDF764FEFFE71EB070BDC046FFFF0000A4
:1051D00010B5B0B0339C329C2F902E912D922C9311
:1051E0001FA83221FAF787FF002009901E901D901A
:1051F0001C901B901A90199018901790169015906B
:10520000149013901290119010900F9008200E900F
:1052100046200D9018200C9022200B9054200A90CC
:10522000339801280DD0FFE77A497B4808607B4915
:1052300008607B4908607B497B4808607B490860BF
:10524000FFE7744800682F99FBF790F9002831D1E7
:10525000FFE72F986F4908602F98FBF735FA024651
:105260000B4673491FA8089000F044F90898FAF714
:105270004DFF089A01460E9848430F900B980D99E0
:105280000F9BC91ACB0FC918491040181A900C98D7
:105290001038C10F4018401068301B901A981B99A5
:1052A00000230293102301931F2300935E4BFDF70D
:1052B000AFF8FFE7594800682E99FBF757F9002827
:1052C00033D1FFE72E98554908602E98FBF7FCF97B
:1052D00002460B4656491FA8079000F00BF90798A5
:1052E000FAF714FF079A01460E9848430F900B985F
:1052F0000A9940180D990F9BC91ACB0FC91849106C
:10530000401815900C981038C10F401840106830A4
:1053100016901598169900230293102301931F23CA
:105320000093414BFDF774F8FFE73D4800682D9965
:10533000FBF71CF9002834D1FFE72D9838490860A5
:105340002D98FBF7C1F902460B4639491FA8069074
:1053500000F0D0F80698FAF7D9FE069A01460E98A2
:1053600048430F900B980A99401840180D990F9BCD
:10537000C91ACB0FC9184910401810900C98103852
:10538000C10F4018401068301190109811990023F7
:105390000293102301931F230093234BFDF738F84A
:1053A000FFE7204800682C99884215D0FFE72C9829
:1053B0001C4908602C9A1F491FA8059000F09AF814
:1053C000059A002002901821019100905C2088210C
:1053D000154BFDF71DF8FFE7144800683299884225
:1053E00015D0FFE7329811490860329A11491FA879
:1053F000049000F07FF8049A002002901821019197
:105400000090FE208821084BFDF702F8FFE730B03E
:1054100010BDC046C802202000FF7F47C4022020E4
:10542000C0022020CC022020FFFF0000D00220205C
:10543000F9920000F592000010B582B02448009067
:105440007021FAF758FE0099224808612248486105
:105450002248C86222480863224888642248C864F7
:10546000224848662248886600200190FFE701989C
:1054700003282BDCFFE701981C210B46434314480B
:10548000C25CFE242240C254019B0A465A43831840
:1054900007221A81019B0A465A4383180C225A811B
:1054A000019B0A465A4383181B229A81019B0A4694
:1054B0005A4383182022DA81019A51434018FEF79B
:1054C00049FAFFE70198401C0190D0E702B010BDF7
:1054D000D4022020272E00000D2D0000FB2D0000FF
:1054E000292B0000112E0000AD2B0000E52D00003F
:1054F000512A00000FB410B504A9074B02AA039863
:1055000000F0FAF8044602A9002000F091FC2046C1
:1055100010BC08BC04B01847315E00002021020C0A
:1055200001D010211046020A01D0104608390209A4
:1055300001D01046091F820801D01046891E42087A
:1055400001D0881E7047081A704700000000000054
:1055500002E008C8121F08C1002AFAD170470000F3
:105560007047000000000000002001E001C1121F90
:10557000002AFBD170470000014908607047000015
:1055800000002020F0B51FB486B00998089A030DDA
:105590000021024314D05148514A181850430514B1
:1055A0001198012810981AD0281A401C00264D4F37
:1055B0004D49009601910490002812DA444211E00E
:1055C0001198012449A3012801D11098C1430698DC
:1055D000119A84600360C26041600BB0F0BD40422C
:1055E000E4E70446210500203F4A001C5141039195
:1055F000029012E0E00707D032463B46019900983E
:10560000FBF7B6F90191009032463B461046194629
:10561000FBF7AEF906460F466410002CEAD1049859
:10562000039B0028029A0999089806DAFBF7A0F96B
:10563000019B009AFBF79CF905E0FAF7F5FE019B48
:10564000009AFAF7F1FE04460E460022284BFBF7BB
:1056500069FA03D80020C043014607E00022254B29
:1056600020463146FAF72EFEFBF73CFA102409E0FB
:10567000002C0ADB0A220023FBF775F8079B303267
:105680001A55641E02460A43F2D11122641C079B7C
:10569000121B1C19119B012B03D0012308430ED1AF
:1056A0000AE0084304D0112010900020119077E701
:1056B0001098151A6D1E0BE01098824202DD00232F
:1056C0006D1C03E0824201DA00236D1E002BEED038
:1056D000069811998260C16030C07EE701FCFFFF2F
:1056E000104D0000000014400000F03F30000000AA
:1056F0000000F0430000E03FFFB597B006460025EC
:1057000018E2252877D100242746FD49049400E0BB
:105710000443761C32780120203A90400842F7D1A9
:1057200030782A280ED002223078014630390929F3
:1057300016D804990A235943303940181443761C6B
:105740000490F1E7189802C804911890002904DA2F
:105750000120400304434842049002200443761C85
:1057600030782E2814D1042004437078761C2A281F
:1057700009D11898761C80C8189009E00A214F4377
:10578000303FC719761C3078014630390929F5D9E0
:1057900030786C2810D006DC4C281AD068280ED03F
:1057A0006A2817D104E0742813D07A2812D110E0A7
:1057B0000120400504430CE00121090501E003211B
:1057C00009050C437178814203D10120000524189A
:1057D000761C761C3078119066280BD013DC582884
:1057E0007DD009DC00287BD04528F6D04628F4D0AF
:1057F00047281AD1A5E118E0632835D0642870D075
:10580000652812D19DE170286CD008DC6728F1D0A2
:1058100069287BD06E280DD06F2806D1BAE0732896
:105820002ED0752871D0782859D01A9A1999904796
:105830006D1C7EE16002400F022809D003280DD0C4
:105840000428189801680DD00D60001D189070E1B3
:105850001898EA1701680D604A60F6E71898016821
:105860000D80F2E70D70F0E718986A460178117222
:10587000001D18900020507202A80090012005E041
:10588000189802C8189000200091C04361070DD5F8
:10589000002101E00199491C0191B94212DA8142CB
:1058A000F8DB009A515C0029F4D10BE0002101E003
:1058B0000199491C01918142FADB019A0099895CA6
:1058C0000029F5D1019904981A9B471A21463846B8
:1058D000199A00F097FA0199401945180BE04FE02A
:1058E0002CE113E04EE0009800990078491C0091EB
:1058F0001A9A199990470198401E0190401CF2D1C4
:10590000214638461A9B199A10E137E00A200021F7
:10591000009001916002410F022907D0189A01CA34
:105920001892C2179446032908D00AE01898C01D9F
:10593000C108C90005C91891944607E000B2C21712
:105940009446042902D140B2C1178C460022614618
:10595000944506DA0A460021404291418C462D21A9
:1059600002E0210504D52B216A461173012103E0D1
:10597000E10701D02021F7E7029155E00A200AE073
:10598000102008E010200090002104200443019121
:10599000082703E008200021019100906002410FD8
:1059A000022907D0189A01CA1892002294460329A6
:1059B00008D008E01898C01DC108C90005C9189191
:1059C000944603E080B2042900D1C0B200210291C4
:1059D000210729D51199702906D0009A1021019B21
:1059E0004A401A4305D00EE040216A461173012156
:1059F00008E06146014306D030216A4611731199CF
:105A0000517302210291009A0821019B4A401A43D6
:105A10000AD16146014301D1610705D530216A46AB
:105A2000117301217F1E02911199582904D035A1CB
:105A30000E910DA90D910DE037A1F9E76146019B8B
:105A4000009AFAF790FE0E9B8C469B5C0D9A521EB4
:105A50000D92137061460143F0D10D9805A9081A03
:105A600020300190600703D501200004844300E04A
:105A700001270198874201DD381A00E000200199D2
:105A800000904118029809180498401A0490E00305
:105A900006D421461A9B199A049800F0B3F94519C7
:105AA000002706E003A81A9AC05D199990476D1C5B
:105AB0007F1C02988742F5DBE0030CD521461A9B38
:105AC000199A049800F09EF9451904E01A9A3020BA
:105AD000199990476D1C0099481E00900029F5DC2B
