:2000000000802020F7130000EF130000EF1300000000000000000000000000000000000012
:20002000000000000000000000000000EF1300000000000000000000EF130000EF130000BA
:20004000EF130000EF130000EF130000EF130000EF130000EF130000EF130000EF13000090
:2000600000000000EF130000EF1300000000000000000000EF130000EF130000EF13000076
:20008000EF130000EF130000EF130000EF130000EF130000EF130000000000000000000054
:2000A000EF130000EF1300000000000000000000EF13000000000000EF130000EF13000036
:2000C000F0B5FFB08CB0049315460646909800908A913468204601F054F9201800218991CC
:2000E0000290844244D20022859285A803920273641C0F46601E0078002834D0252806D008
:2001000034602946049A90477F1C641CF2E70398C04301908997601C03903060207885A9BF
:200120000873732809D18AA989AA2846049B00F021F88999039C019A11E005AC85A98AAAF3
:20014000204600F035F8024620462946009B9847411C019A114600D0C1198991039C481C6F
:200160000298BED100E03A4610467FB00CB0F0BD0A46F9E7F8B504460868051D0D60066874
:20018000002E11D0009414461D46304601F0F9F807462068C01920600024BC4207DA305DE9
:2001A0000099A847641CF8E7002021469847F8BDF0B585B001920E4604467F2080002518D6
:2001C00000270397FF210291FE312022204601F0D1F804956F70307B252852D06B1C782861
:2001E00013D0642811D06F280FD0632820D1019A1068011D11600168C8B247424741029A8B
:200200001046FC302018297014E01D4603A904AA3046019B00F03BF803980499002803D072
:20022000481E2D220A7000E00846029A2B4601E02846029A191A0029254601DC611A4D1CE1
:20024000411C530000262846324600F0A9FE002F02D0411C067000E00146A14206D8481E29
:20026000611A491C202201F085F82670291B2022204601F07FF8204601F083F8C01905B0A4
:20028000F0BD00206070252020700120F7E7F8B514460D460646077B194600F014F8317BBE
:2002A000642904D1002802D50121296040426F2F01D00A2100E00821782F00D110212246FC
:2002C00000F012F8F8BD007B642805D06F2803D0782801D0702804D10868021D0A600068EA
:2002E000704700207047C046F8B514460D460646002804D12068411E2160302101700A4F44
:20030000002E0DD03046294600F010F801466943711A795C2268531E236011700646EFE781
:20032000206801F02EF8F8BD8C1E000080B5102903D0082903D1C00880BD000980BD00F03E
:2003400029FD80BDB0B58AB004460E9809AD2C7008AC217007A90A7006AA137005AA107088
:20036000089801AA107007982038087003A900200870FFE703A8007806A90978884264DABE
:20038000FFE706A800780C280CD1FFE707A800780C2141432F48401803A90978405C04A93D
:2003A00008700AE007A8007801012948401803A90978405C04A90870FFE702A900200870D2
:2003C000FFE702A80078072839DCFFE704A800780006002809D5FFE709A8007808A909787A
:2003E00005AA127800F086F90AE009A8007808A9097805AA127853425A4100F07BF9FFE75D
:200400000498400004A908700898411C08A80170007801A90978401A06A90978884208D1ED
:20042000FFE7019808A908700998401C09A9087005E0FFE70298401C02A90870C1E7FFE77B
:200440000398401C03A9087094E70AB0B0BDC04600140000F019000080B582B000F0FEFE69
:20046000782000F0F3FC00F003FFAE200021019100F089FA0199D52000F085FA0199502017
:2004800000F081FA0199A82000F07DFA01993F2000F079FA0199D32000F075FA01990846F8
:2004A00000F071FA0199402000F06DFA01998D2000F069FA0199142000F065FA01992020FF
:2004C00000F061FA0199022000F05DFA0199A12000F059FA0199C02000F055FA0199DA20E3
:2004E00000F051FA0199122000F04DFA0199812000F049FA0199EF2000F045FA0199D920E5
:2005000000F041FA0199F12000F03DFA0199DB2000F039FA0199302000F035FA0199A420BF
:2005200000F031FA0199A62000F02DFA0199AF2000F029FA00F0CAFA02B080BDF0B584B031
:200540003049314A0125AC0316682B0203939E4316600E68264205D10E68264202D10E685F
:200560002642F6D06C02467E9769AF432E40BD1995612025455DD6690327BE433D40751993
:20058000D561224D2E680727374005262E60466A33681362736853622F60C3695B065B0CEF
:2005A000D5697F263602B543EB18D361E8C8009707680197476802971B071B0B2D03ADB284
:2005C000ED1833071B0D007A009E35431D43019B1D43029B1D43054390690D4B03400D489A
:2005E0002840C01890611068039B184310600868204205D10868204202D108682042F6D004
:2006000004B0F0BD04020B4008010B40001340408D00F0FF72FF0F00B0B58CB004461098B2
:200620000BAD2C700AAC2170099208A90B7007A9087004A90020087006A90870FFE706A830
:20064000007808A90978884252DAFFE70998029008990698C0434018C1B20A20039000F027
:200660000DFC0146029800F095FB039900F092FB05A8017004A80078002822D1FFE706A806
:20068000007808A90978491E88421ADAFFE705A80078002810D1FFE70B9807A90B785A0859
:2006A0000699514340180AA9097801220092C0B22022FFF747FE16E004A901200870FFE7B5
:2006C000FFE70B9807A90B785A080699514340180AA90978059A303201240094C0B2D2B28D
:2006E000FFF730FEFFE70698401C06A90870A6E70CB0B0BD86B0034605A8037004AB197042
:2007000003A90A706A460021117000787F2805DCFFE704A80078402801DBFFE72DE004A973
:200720000878C2080720821A02AB1A700A78024001A90A700978411A0120884069460870A1
:2007400003A8007800280CD0FFE7009B05A80078C1000B48411802A80278885C1843885420
:200760000BE0009B05A80078C1000548411802A80278885C98438854FFE706B07047C0464F
:200780000000202080B586B0059005981E49884203D3FFE71D480590FFE705995020484316
:2007A000059000200090049000F000FE014600980391029001A90870FFE700F0F7FD0290EF
:2007C00002980399884204D9FFE701A901200870FFE701A80078002807D0FFE703980299F1
:2007E000401A0B494018049004E003980299401A0490FFE704980599884201D3FFE700E0D3
:20080000DBE706B080BDC0463433030033330300FFFFFF0080B584B003A900200870FFE7BA
:2008200003A8007807282FDCFFE70398B030C0B20021019100F0A7F80199084600F0A3F8D3
:200840000199102000F09FF8019802A90870FFE702A800787F2811DCFFE702A80078C10026
:200860000A48401803A90978405C012100F08BF8FFE70298401C02A90870E9E7FFE7039820
:20088000401C03A90870CBE704B080BD00002020F8B5451C00780023082B32D02F78C207A7
:2008A0000CD16A780F241440E41C122C0BD102242E57F4B2002E08D4EE1C0EE06D1C4A1C96
:2008C0000F7011461AE0AE1C08E02E1DED7800957F252C40009DED012C1912343D011209D2
:2008E0005219094DAA420ED0D243002C05D08D5C4F1C0D70641E3946F7E7354640085B1C6D
:20090000CAE72846C5E7F8BDFF0F000080B586B005AB187004A801700392FFE703980078FB
:2009200000282ED0FFE705A800787B2808DBFFE705A9002008700498103004A90870FFE7ED
:2009400004A800783B2808DBFFE705A90020087004A9087000F0BAF8FFE705A8029000789D
:2009600004A90978039A1278012300930C23FFF7E9FC02990598083008700398401C0390EF
:20098000CCE706B080BD80B584B003AA107002A801700078002803D0FFE700F07DFC02E05C
:2009A00000F070FCFFE701A900200870FFE701A8007807281ADCFFE700F078FC03A800781A
:2009C0000006002803D5FFE700F08EFC02E000F081FCFFE700F074FC0398400003A908701D
:2009E000FFE70198401C01A90870E0E700F054FC04B080BD80B586B014200221019100F0BE
:200A000021FB0199152000F0DDFA1E2000F05CFB1F2000F059FB019800F056FB052000F02D
:200A200053FB192000F050FB0920010703910A48029000F0EBFB0298039900F02DFB6120A6
:200A4000410205910548049000F0E0FB0498059900F022FB06B080BD00000A4000200A4023
:200A600080B584B000200390029000F099FBFFF7F3FC124800F088F8FFE7114801218902A9
:200A800000F09AFC0F4A00210846FFF73FFF0E48019002680C2000901E2014210823FFF733
:200AA000BBFDFFF7B7FE01990868401C0860642000F02CF90A2000F0C9F9DEE7AC1E000001
:200AC000000020209D1E0000FC04202080B582B001A900200870FFE701A8007807281EDC02
:200AE000FFE7694600200870FFE7684600787F280FDCFFE768460078C1000B48411801A809
:200B0000027800208854FFE70098401C69460870EBE7FFE70198401C01A90870DCE7FFF7D6
:200B200079FE02B080BDC0460000202080B582B012491348019000F0E1FB0198114900F0AC
:200B40009FF80198002100F06DFA019815212D2200F070F8019800F0F3FA0198702100F0E7
:200B6000E3F90198022100F0F3F9019800F02FFB019800F021FB02B080BDC046C41E0000D2
:200B800000801040BA1E000083B01EB505AC0EC401900F48006880470E4A9069401C0DD083
:200BA00005A902910C48009018320C4B01A8FFF787FA04460A480068804704E008480068E8
:200BC00080470020C44320461EBC02BC03B00847F404202004042020E1130000D9130000C7
:200BE000F804202080B584B003900291039800F0CFFB6946088001A900200880FFE701A8BD
:200C000000886946098888420DDAFFE7039801A90988415C064800F0F5F9FFE70198401CFB
:200C200001A90880EBE76846008804B080BDC0460080104080B584B00390029101920398F6
:200C40000B49401802990B4A00F046F903980A49401801993F2200F03FF90399074A8818D3
:200C600089580122114000F037F904B080BDC04610110000FFFF00001411000004110000AF
:200C800070B511221302C218C4580125AC43C4500C888D7825438C882C43C558084E2E4063
:200CA000084D2540AC19C4508879CB790343087A184351687E23994318400818506070BDAE
:200CC000E798FDFF1867000010B50E490E4A01235C0590600868204205D10868204202D1E4
:200CE00008682042F6D010681B04034313600868C00605D40868C00602D40868C006F6D5F0
:200D000010BDC04604020B4004010B4080B582B0014601A801800088002803D1FFE700F02D
:200D200089FA10E009490888401C088080B201A90988884206D1FFE700F086FA03490020AA
:200D40000880FFE7FFE702B080BDC0460004202080B584B00C48019000F0C2F90B48029028
:200D600000F0BEF90A48039000F00EFA019800F09FF9029800F09CF9039800F0EDF910200E
:200D800000F020FB04B080BD00000A4000200A40008010401CB50A0017D000230124E407DE
:200DA000A04200D20400944201D95200FBE790425B41904200D3801A914201D25208F6E70D
:200DC00019000200080011001CBD0100002000F0F8F81CBD80B582B00020019000F0A4F987
:200DE0000120400200F0FEF8019800F039F900F0A1FA00F015FA0548FFF7A0FB102000F067
:200E00003DF90198FFF760FF02B080BD641E000070B50A480A4C84420CD00A4D0A4EB54228
:200E200008D02A686968501C12789200A25890470835F4E700BF00BF70BDC046001F000036
:200E4000F41E0000081F0000181F000080B582B0019000200090FFE700980749884208DCFE
:200E6000FFE70198FFF78EFCFFE70098401C0090F2E702B080BDC046E703000083B002AA72
:200E8000107001A8017001200090FFE701AA1078411E1170002806D0FFE702A8007800996F
:200EA00048430090F2E7009803B0704780B582B001900091FFE7074800F05AF9002801D042
:200EC000FFE7F8E701A80178024800F09BF8019802B080BD0080104084B003900291019219
:200EE000039800680090009801998843009000980299019A114008430399086004B07047F9
:200F000081B000900549042008600098401E0449086004490020086001B0704710E000E07E
:200F200014E000E018E000E080B584B0019101460198039102A908700398044A8018097871
:200F40007022FFF7C9FF04B080BDC0460C11000080B584B0019101460198039102A908709B
:200F60000398044A801809780722FFF7B5FF04B080BDC0460C110000084880F3088800BF76
:200F800000BF00F03AFA002801D0FFF741FF0020FFF766FD012000F027FAC04600802020CE
:200FA000B0B504460020002B08D0D2B20D782570954204D0641C491C5B1EF7D1B0BD601C07
:200FC000B0BD704782B00190009100980349084301998900024A885002B070478000040036
:200FE0000480424080B582B0014601A8018001880F2002020248FFF76FFF02B080BDC046B4
:2010000004010B40064A80180268120605D50268120602D502681206F6D481617047C046F8
:201020000811000080B582B001900091019811210902401800990322D203FFF74DFF02B059
:2010400080BD704782B00190009100988021084301998900014A885002B07047048042400F
:2010600080B582B0014601A80170017802480322FFF732FF02B080BD00010B4080B582B0F7
:20108000014601A80170017802483022FFF724FF02B080BD04010B4082B001900091009896
:2010A0000199024A885002B07047C046D012000081B0009000990120C2020248885001B00F
:2010C0007047C0460100002681B0009000988100024A8120885001B07047C0460480424019
:2010E00081B000900099024A0248885001B0704704080000030000B182B001900091009814
:201100000199024A885002B07047C0469012000082B00190009100980199024A885002B0A4
:201120007047C046B012000081B001466846017000780249086001B07047C04608030B40AA
:2011400081B00090009911200202885801235B041843885001B0704781B000900099012087
:20116000C2020248885001B07047C0460100002681B000900098034940580121084001B09C
:201180007047C0460811000081B000900099024A0248885001B0704704080000030000B189
:2011A00080B5FFF7D5FDFFF725FCFFF713FEFFF7BDFC00F0CFF880BD81B0009000991120E6
:2011C0000202885801231843885001B0704781B000900099112002028858042318438850A3
:2011E00001B0704782B0019000910098019995225201885002B0704782B0019000910098CA
:20120000019995225201885002B0704782B0019000910098019995225201885002B0704718
:201220000349086801221202904308607047C04608010B4080B5012041020248FFF7D2FFC5
:2012400080BDC04600200A4080B5012041020248FFF75EFF80BDC04600200A4080B50120A8
:2012600081030248FFF7C8FF80BDC04600200A4080B5012081030248FFF73EFF80BDC0469C
:2012800000200A4080B50120C1030248FFF7B4FF80BDC04600200A4080B50120C1030248C6
:2012A000FFF72AFF80BDC04600200A4080B5012001070248FFF7A0FF80BDC04600000A4098
:2012C00080B5012001070248FFF716FF80BDC04600000A4080B50120C1070248FFF78CFFE5
:2012E00080BDC04600000A4080B50120C1070248FFF702FF80BDC04600000A4010B501228D
:20130000120383180C789C604978815010BD10B500239A4203D0CC5CC4545B1CF9E710BD43
:2013200080B50B4603214258C11D184600F050F880BD0000024908680122904308607047E8
:2013400008010B4002490868052210430860704710E000E080B501200006FFF7D1FDFFF7FF
:20136000F1FF80BD80B50A4603214158104600F023F880BD0B4611461A4680B500F00FF82C
:2013800080BD0021425C491C002AFBD1481E70470021425C491C002AFBD1481E704700237F
:2013A0009A4202D0C1545B1CFAE77047014800687047C04618E000E00A46002180B5FFF779
:2013C000EEFF80BD811E091F00BFFCD27047000080B5FFF79CFF80BD80B5FFF767FD80BD09
:2013E00080B5FFF7FFFB80BD00F003F8FEE7FFE7FEE700BF7047BFE5704701207047000047
:20140000000000000000000000000000000000000000000000001FCC000C000000000000D5
:2014200000000800300060000800300060000000022003FC1E20022003FC1E20022000009C
:2014400000000E1811043FFF10840C78000000000F0010840F3800C00778188400780000BE
:2014600000780F8410C411240E9800E4008400080800680070000000000000000000000062
:2014800000000000000007E01818200440020000000040022004181807E000000000000052
:2014A0000240024001800FF001800240024000000080008000800FF800800080008000001C
:2014C0000001000D000E000000000000000000000000008000800080008000800080008070
:2014E0000000000C000C000000000000000000000000000600180060018006001800200097
:20150000000007F0080810041004080807F000000000080408041FFC00040004000000005A
:2015200000000E0C10141024104411840E0C000000000C1810041104110412880C700000BE
:20154000000000E00320042408241FFC0024000000001F9810841104110410881070000068
:20156000000007F008881104110418880070000000001C00100010FC13001C001000000033
:2015800000000E3811441084108411440E38000000000700088C10441044088807F0000023
:2015A000000000000000030C030C0000000000000000000000010106000000000000000005
:2015C000000000800140022004100808100400000220022002200220022002200220000002
:2015E0000000100408080410022001400080000000000E001200100C106C10800F00000079
:2016000003E00C1813E4142417C4082807D000000004003C03C41C40074000E4001C000404
:2016200010041FFC1104110411040E880070000003E00C1810041004100410081C100000AF
:2016400010041FFC100410041004080807F0000010041FFC1104110417C4100408180000B0
:2016600010041FFC1104110017C010000800000003E00C181004100410441C7800400000CF
:2016800010041FFC10840080008010841FFC10040000100410041FFC100410040000000059
:2016A00000030001100110011FFE10001000000010041FFC110403801464181C1004000040
:2016C00010041FFC1004000400040004000C000010041FFC1F0000FC1F001FFC1004000017
:2016E00010041FFC0C04030000E010181FFC100007F00808100410041004080807F000002B
:2017000010041FFC10841080108010800F00000007F0081810241024101C080A07F2000091
:2017200010041FFC1104110011C011300E0C000400000E1C11041084108410441C38000015
:201740001800100010041FFC100410001800000010001FF810040004000410041FF8100078
:2017600010001E0011E0001C007013801C0010001FC0103C00E01F0000E0103C1FC00000CA
:201780001004180C163401C001C01634180C100410001C00130400FC13041C001000000041
:2017A0000804101C1064108413041C04101800000000000000007FFE400240024002000047
:2017C000000030000C0003800060001C0003000000004002400240027FFE00000000000088
:2017E0000000000020004000400040002000000000010001000100010001000100010001E1
:201800000000400040002000000000000000000000000098012401440144014400FC00049C
:2018200010001FFC0088010401040088007000000000007000880104010401040088000064
:201840000000007000880104010411081FFC0004000000F8014401440144014400C800007A
:201860000000010401040FFC1104110411001800000000D601290129012901C901060000DB
:2018800010041FFC008401000100010400FC000400000104190419FC00040004000000004F
:2018A0000000000300010101190119FE0000000010041FFC0024004001B4010C0104000097
:2018C0000000100410041FFC0004000400000000010401FC0104010001FC0104010000FCB6
:2018E000010401FC008401000100010400FC0004000000F8010401040104010400F8000057
:20190000010101FF00850104010400880070000000000070008801040104010501FF000135
:201920000104010401FC00840104010001800000000000CC0124012401240124019800009C
:2019400000000100010007F80104010400000000010001F8000400040004010801FC00046C
:20196000010001800170000C001001600180010001F0010C003001C00030010C01F0010057
:2019800000000104018C00740170018C01040000010101810171000E00180160018001003F
:2019A00000000184010C013401440184010C0000000000000000000001003EFC40024002CA
:2019C0000000000000000000FFFF0000000000000000400240023EFC01000000000000004A
:2019E0000000600080008000400040002000200000000000000000000000000000000000C7
:201A00003F4000000000000000003000400030004000000009000BC03D000BC03D00090045
:201A200018C024407FE0224031800000180024C01B000D803240018003801C4027401C807F
:201A4000074000401000600000000000000000000000000000001F802040402000004020D0
:201A600020401F8000000000090006001F80060009000000040004003F80040004000000DB
:201A8000001000600000000000000000040004000400040004000000000000400000000082
:201AA00000000000002001C006003800400000001F802040204020401F8000000000104019
:201AC0003FC000400000000018C02140224024401840000010802040244024401B8000001D
:201AE00002000D0011003FC0014000003C80244024402440238000001F8024402440344020
:201B0000038000003000200027C03800200000001B802440244024401B8000001C0022C053
:201B2000224022401F80000000000000084000000000000000000000046000000000000096
:201B4000000004000A001100208040400900090009000900090000000000404020801100E8
:201B60000A0004001800200023402400180000001F802040274029401F400000004007C04B
:201B800039000F0001C0004020403FC0244024401B8000001F8020402040204030800000CB
:201BA00020403FC0204020401F80000020403FC024402E4030C0000020403FC024402E0055
:201BC000300000000F001080204022403380020020403FC0040004003FC020402040204039
:201BE0003FC02040204000000060202020203FC02000200020403FC024400B0030C02040E9
:201C000020403FC020400040004000C03FC03C0003C03C003FC0000020403FC00C402300BE
:201C20003FC020001F802040204020401F80000020403FC024402400180000001F80214028
:201C4000214020E01FA0000020403FC02440260019C0004018C024402440224031800000AF
:201C6000300020403FC020403000000020003F80004000403F80200020003E0001C00700E1
:201C800038002000380007C03C0007C038000000204039C0060039C0204000002000384062
:201CA00007C0384020000000304021C02640384020C00000000000007FE040204020000097
:201CC000000070000C000380004000000000402040207FE000000000000020004000200026
:201CE0000000000000100010001000100010001000000000400000000000000000000280C2
:201D00000540054003C0004020003FC00440044003800000000003800440044006400000BB
:201D200000000380044024403FC00040000003800540054003400000000004401FC0244062
:201D400024402000000002E0055005500650042020403FC00440040003C00040000004400B
:201D600027C000400000000000100010041027E00000000020403FC00140070004C0044052
:201D8000204020403FC000400040000007C0040007C0040003C00000044007C00440040058
:201DA00003C00040000003800440044003800000041007F0045004400380000000000380E9
:201DC0000440045007F00010044007C00240040004000000000006400540054004C000007B
:201DE000000004001F80044000400000040007800040044007C000400400070004C0018056
:201E000006000400060001C0070001C006000000044006C0010006C00440000004100710E3
:201E200004E00180060004000000044005C00640044000000000000004007BE040200000E1
:201E4000000000000000FFF000000000000040207BE00400000000004000800040002000B4
:201E60002000400001000000000000000000000040000000000000000000000002000000BF
:201E800004000000010000002C00C441303132333435363738396162636465660048454CD1
:201EA0004C4F20574845454C544543004F4C45445F496E69745F4F4B2100000018000000CD
:081EC0000030000008000000E2
:201EC800005500000F0112014001018F012202C01502030F01240440FF000004BF02017FF6
:201EE8007E03431000330F71FFF00000910800002113000065130000020000000204000017
:101F0800C81E000004042020001F0000000020203C
:00000001FF
