:020000040000FA
:10000000E80520206D01000071010000730100006F
:1000100000000000000000000000000000000000E0
:10002000000000000000000000000000750100005A
:1000300000000000000000007701000079010000CE
:100040007B0100007B0100007B0100007B010000C0
:100050007B0100007B0100007B0100007B010000B0
:10006000000000007B0100007B0100000000000098
:10007000000000007B0100007B0100007B0100000C
:100080007B0100007B0100007B0100007B01000080
:100090007B0100007B010000000000000000000068
:1000A0007B0100007B010000000000000000000058
:1000B0007B010000000000007B0100007B010000CC
:1000C00000F002F800F042F812A030C808382418F6
:1000D0002D18AC4201D100F039F80FCCA246AB4646
:1000E0000CA730CF2D1B083F3F197C427F1E544484
:1000F0002D090426F441641EAC4201D300F026F819
:100100000126334200D0FB1A3343984754465D46DC
:10011000DFE700000C0A00001C0A000000000000DD
:100120007047000000000000002300240025002686
:10013000103A01D378C1FBD8520700D330C100D5A3
:100140000B6070471FB51FBD10B510BD00F04BF818
:100150001146FFF7F7FF00F069FC00F063F803B405
:10016000FFF7F2FF03BC00F069F800000648004703
:10017000FEE7FEE7FEE7FEE7FEE7FEE70348044989
:10018000044A054B70470000C1000000E800202031
:10019000E8052020E8042020E804202030B5441C95
:1001A00003E00178401C00290DD08107F9D10B4BE9
:1001B000DD0104C8D11A91432940FAD0001B0A0678
:1001C00003D0C01E30BD001B30BD0A0401D0801E0C
:1001D00030BD0902FCD0401E30BD0000010101010C
:1001E000704770477047754600F024F8AE4605002A
:1001F00069465346C008C000854618B020B5FFF7D1
:10020000BDFF60BCB64600260027C0C5C0C5C0C53E
:10021000C0C5C0C5C0C5C0C5C0C5403D490849002E
:100220008D46704710B50446C046C0462046FFF7CD
:1002300096FF10BD0048704700002020014918209B
:10024000ABBEFEE7260002007047811E091F00BFFB
:10025000FCD2704784B00390029101920398006829
:100260000090009801998843009000980299019AA3
:10027000114008430399086004B0704782B00190B0
:10028000009100980199024A885002B07047C04618
:10029000D012000081B0009000990120C2023E48B7
:1002A000885001B07047C04682B00190009100981C
:1002B0000349084301998900084A885002B07047F1
:1002C0008000040082B001900091009880210843D2
:1002D00001998900014A885002B070470480424069
:1002E00081B000900099AE4AAE48885001B0704786
:1002F000064908680122904308607047034908686E
:1003000001221202904308607047C04608010B406A
:100310000349086801221203104308607047C04671
:1003200004010B4081B00146684601700078024923
:10033000086001B07047C04608030B4080B582B02A
:10034000014601A80170017802480322FFF782FFED
:1003500002B080BD00010B4081B000900099024ABC
:100360000120885001B070470811000082B0019050
:100370000091009B0199C44A88581843885002B0E4
:100380007047C04681B0009000990120C202C44865
:10039000885001B07047C04601000026F0B5AC4A55
:1003A00082183B4BC31808794E793A4D774C002E92
:1003B00023D0202804D00526F601002803D003E02E
:1003C000354E002800D18826576F2F403743576796
:1003D000976F2F4037439767566B26405663966B4F
:1003E000264096630026566596658F26F6435F681D
:1003F00037405F609F6837409F608E79096820288A
:100400000BD0002819D1491E5160D76E2F4088218A
:100410000F43D7661746703719E0491E5160D16EF9
:1004200029401D4F3943D166116F29403943116767
:1004300001214907194D174609E049085160D76E57
:100440002F400521C9010F43D766174670373C6816
:100450002C400C433C60D16A4C4C2140D162116B62
:10046000214011630021D16411658F21C943D46FEC
:100470000C40D4671C680C401C600643BD20304013
:100480001168074B0B40C018801C1060F0BDC046BF
:100490008418000024493E0001040000FFFFFFCF44
:1004A0004000FFCFB0B54A68364BC250684A80184A
:1004B0000A78222A58D8930001A4E3589F46C046E0
:1004C0005F050000690500005F0500006905000088
:1004D0006905000069050000690500006905000064
:1004E0006905000069050000690500006905000054
:1004F0006905000069050000690500006905000044
:100500004D050000690500004D050000690500006B
:100510006905000069050000690500006905000023
:100520006905000069050000690500006905000013
:100530006905000069050000690500006905000003
:100540004D050000690500004D05000003231B0751
:1005500004689C4301235B07E318036004E0032362
:100560001B0704689C4304600B69C360CB68064C9E
:100570001C40C36A054D1D402B19C362097A114303
:100580000160B0BD08180000777702008888FDFF81
:1005900081B000900099594A5948885001B070477D
:1005A00004080000030000B182B00190009100989F
:1005B000019911221202885002B0704710B507232A
:1005C0009B04194092008018024A84589C43611889
:1005D000815010BD3018000010B5029CA400001915
:1005E00011431943014A815010BDC0465018000004
:1005F00092008018014A81507047C04610180000D0
:1006000010B50122120383180C789C604B7883503C
:100610008978014A815010BD0C11000010B586B0D8
:1006200001930B4601460198059104A90B8003AB89
:100630001A8002AA10800598054C001909881B88A9
:10064000194312881143034AFFF704FE06B010BD98
:100650000418000080FF000081B000900099112074
:100660000202885801231843885001B070470000E7
:1006700082B001900091009B0199034A8858184369
:10068000885002B07047C0462810000081B000902A
:1006900000990120C2020248885001B07047C0464C
:1006A00001000026B0B51122120283580124A34391
:1006B00083500B888C781C438B882343094C1C4047
:1006C0008358094D1D40631983508B79CC791C43A5
:1006D000097A21437E231940801842689A435118B1
:1006E0004160B0BD18670000E798FDFF81B0009041
:1006F0000099024A0248885001B07047040800007F
:10070000030000B180B584B0039002910192039878
:100710000B49401802990B4AFFF79CFD03980A49C0
:10072000401801993F22FFF795FD0399074A881861
:10073000895801221140FFF78DFD04B080BDC046ED
:1007400010110000FFFF0000141100000411000050
:1007500010B50122120383180C789C6049788150EF
:1007600010BD80B582B0019000910198112109025D
:10077000401800990322D203FFF76CFD02B080BD40
:10078000034A801802681206FCD481617047C04693
:1007900008110000B0B58AB000920A4600990446DC
:1007A0000E9809AD2C7008AC227007AA118006A91A
:1007B0000B7005A90870002004900390029001902E
:1007C000099B01A80370F6234370089B837052783D
:1007D000C270079A0271069A42710978012211408B
:1007E00081716B21C171082100F0D8F80AB0B0BD49
:1007F00080B582B031200321FFF764FD0120009015
:1008000081056448FFF73AFD002002210191FFF7BE
:1008100059FD00980199FFF747FD02B080BDC04621
:1008200080B584B01649AC480390FFF7E9FE039801
:100830001449FFF7B3FD039801220292510392027B
:100840008023FFF7EBFE02990398009100230193A8
:1008500019461A46FFF7C0FE0199029A0398FFF75E
:10086000ADFE029A03987D21C900FFF7C1FE0398EF
:10087000FFF772FD03980221FFF796FE04B080BDDA
:10088000DC0A0000E00A000080B582B00020019080
:10089000FFF748FD0198FFF751FDFFF729FDFFF72E
:1008A0002DFDFFF735FD02B080BD000080B582B0A0
:1008B000084939480190FFF7A3FE01980649FFF760
:1008C000F1FD01980121FFF751FD0198FFF744FD6B
:1008D00002B080BDE80A0000EC0A000080B582B0DA
:1008E0000D4951480190FFF733FF01980B49FFF77D
:1008F000D9FE01980021FFF734FF019802210B2255
:10090000FFF700FF019801218902FFF7B1FE01986E
:10091000FFF7A2FE02B080BD000B0000020B00003A
:1009200080B500F00BF8FFF763FFFFF7ADFFFFF7AF
:1009300077FFFFF7BBFFFFF7D1FF80BD80B586B023
:1009400013480190FFF7CCFC12480290FFF7C8FC57
:1009500061480390FFF71CFE0F480490FFF718FE54
:1009600031480590FFF7C2FE0198FFF793FC02980B
:10097000FFF790FC0398FFF705FD0498FFF702FDD1
:100980000598FFF783FE1020FFF75FFC06B080BDDF
:1009900000000A4000200A400040084080B584B0B2
:1009A000039002A801700078812804DBFFE702A908
:1009B00080200870FFE701A900200870FFE701A868
:1009C000007802A9097888420CDAFFE7039801A9A8
:1009D0000A78805C13498854FFE70198401C01A9FC
:1009E0000870ECE702980E4908706946002008700C
:1009F000FFE7684600780A49097888420DDAFFE780
:100A0000684601780748415C0748FFF7B9FEFFE7F1
:100A10000098401C69460870EBE704B080BDC046F2
:100A2000E0002020600020200080104080B588B0C9
:100A3000002004900790FFF773FF04980690FFE7EB
:100A400000200690FFE70698204988420EDCFFE769
:100A5000069921480122FFF7CBFD7D200002FFF718
:100A6000F4FBFFE70698401C0690ECE71748069059
:100A7000FFE7069801280EDBFFE7069916480122DA
:100A8000FFF7B6FD7D200002FFF7DFFBFFE70698CA
:100A9000401E0690EDE7002100910120C8220523A9
:100AA000FFF778FE0A480390FFF7CFFB094805904F
:100AB00005980290FFF772FB01460298C9B2FFF752
:100AC0006DFF0398FFF7C1FBBAE7C046E7030000DC
:100AD0000048E8010C0B0000000009400807000076
:100AE000E8030000000001000807630002000000A6
:100AF0003F9C00000100000000000000000000001A
:100B000004000000180000000030000048656C6C14
:100B10006F204D53504D30210D0A000000000000A1
:100B2000300B000000002020E80500002801000034
:04000005000000C136
:00000001FF
