:020000040000FA
:10000000B0062020D5000000D9000000DB00000071
:1000100000000000000000000000000000000000E0
:10002000000000000000000000000000DD000000F3
:100030000000000000000000DF000000E100000000
:10004000E300000079120000E3000000E30000007C
:10005000E3000000E3000000E3000000E300000014
:1000600000000000E3000000E300000000000000CA
:1000700000000000E3000000E3000000B9230000DE
:10008000E3000000E300000099230000E30000000B
:10009000E3000000E300000000000000000000009A
:1000A000E3000000E300000000000000000000008A
:1000B000E300000000000000E3000000E300000097
:1000C0000348854600F034FB004800470D3000002F
:1000D000B006202003480047FEE7FEE7FEE7FEE704
:1000E000FEE7FEE7C1000000D2B201E00270401C52
:1000F000491EFBD270470022F6E710B513460A46A8
:1001000004461946FFF7F0FF204610BD421C017857
:10011000401C0029FBD1801A704700000EB505492C
:100120000291002100910A460B46019100F095F8DA
:1001300003B000BD3304000070B5CD0F4A000903C1
:100140000123090B1B0519430B4BED070024520D2E
:100150009A4201DA002070BD074B34339A4203DC27
:100160009A1A00F05CF802E00449511888402C43C8
:10017000F1D0404270BD0000FF030000CDFBFFFF47
:1001800070B50446002903D000202022012310E08E
:10019000002801D00020C043C046C0460DE02546DF
:1001A000D5408D4205D30D469540641B1D469540B4
:1001B00040191546521E002DF1DC214670BDF0B5E8
:1001C0001FB40646002082B00546402401910090ED
:1001D0001BE0019922460F46304600F020F8049AB1
:1001E000059B801A994110D310461946224600F00B
:1001F000B7FA361A8F410197224601200021009F4D
:1002000000F0AEFA38184D4100902046641E0028D8
:10021000DFDC019B00982946324607B0F0BD10B5DF
:10022000202A04DB0846203AD040002110BD0B46AE
:10023000D340D0402024A21A91400843194610BD53
:1002400010B5002B08DA0024401C614192185B4174
:100250001A4301D14008400010BDF0B51FB482B070
:1002600005460C0003D0084603F0D4F802E003F082
:10027000D1F82030024600902146284600F070FA5E
:10028000049B059A04460F4618431143084314D0B3
:10029000184610431BD0009840210A1A18460599A9
:1002A000FFF7BDFF05460E46009A0599049800F039
:1002B00057FA084305D0012004E02046394607B02C
:1002C000F0BD0020C11705430E432C43374300996E
:1002D0000E986305401A7905E40A00220C43FD0AD2
:1002E0000A3002D500200146E9E7010510196941ED
:1002F0000C9C0D9D00196941FFF7A2FFDFE700008C
:10030000F0B507460846584087B0C00F0490480033
:100310000E46590040084908BC1A884105D23846A3
:1003200031461E4617460B46024658004008104309
:100330004CD0300D039040055900400D490D0590FB
:10034000401A0290402872DA18030121000B0905B7
:100350000843019004980092002805D00199524268
:100360000020884100920190029840210A1A0199C8
:10037000009800F0F5F905460C466B4607CB00F0F7
:10038000FFF9C0197141039A0E0D0023D71756408B
:100390001A467A40164344D0049A002A2DD0029A75
:1003A000012A039A15DC1205C01A9141012636056F
:1003B000001C7141D20F059ED20700930192029654
:1003C0002A462346FFF749FF07B0F0BD38463146BD
:1003D000FAE71605224A0F46B218C01AB7410121A2
:1003E0000905001C4F4100187F411146181879413A
:1003F000E20F10436D19644113E0E2076D081543E5
:100400006408C2071443039A01261205C01A9141D9
:100410003605001C7141CE07400830434908C0181A
:1004200051412A462346FFF70BFFCDE7FFE704982B
:1004300001224000C117121A00238B410498314653
:10044000C417381AA141EEE730B40124E407634031
:1004500030BC55E730B40124E407614030BC4FE7BD
:100460000000E0FFF0B51FB488B00B990998002494
:1004700048400999C00F490049080991C0070B99E4
:100480000090490049080B9109990898A64608432D
:100490001CD00B990A98084318D0099801244000F1
:1004A000420D4800410D099824050003000B20432C
:1004B00009900B980003000B20430B9050181C4927
:1004C0004018002201901446104605E00020014625
:1004D0000DB0F0BD032801DA034600E003239C467B
:1004E000C11A0AAE0AE05F0008ADED5B4F00F75B92
:1004F0007D430027AA187C41491C5B1E6145F2DD43
:10050000410004AB5A522104120C0A43240C401C33
:100510000828DFDB01980290009970460191009055
:10052000059B049A07990698FFF797FED0E700000D
:100530000DFCFFFFF0B50C465C4085B0E40FE4070E
:1005400003944C000026640859009446490802466A
:100550000296224321D062460A431ED06200570D04
:100560004A000E032303550D012402462C4924059D
:10057000781B1B0B360B4018234326436146009023
:100580001C46501AB44103D30098401C009002E06E
:10059000921800985B41002803DA0020014605B05C
:1005A000F0BD0020012109050746864611E064469A
:1005B0001D46141BB54106D36546521BB341744614
:1005C00007430C43A646CD07400849082843921824
:1005D0005B4105460D43EAD11046184313D06046EF
:1005E000194650407140084306D06046101AB34186
:1005F00006D20122002306E000220123DB0702E0ED
:100600000122D2435310009874460105381C614101
:10061000029C039D00196941FFF712FEBFE700002D
:10062000FD030000FEB500231A461B1A8A4103DBB6
:100630000020014603B0F0BD4A000D0301212D0B3F
:100640000905520D0D43D10702D100186D41521E0C
:100650005110FF31FF310131002704463E46384634
:10066000009701910246012100200905FFF7D7FDFF
:10067000C3197141F818324684468E464A41614694
:100680002846611A904104D36046241A9541764663
:100690001F46241900986D41401C00903428E1DD6C
:1006A000F91930467041091BA84103D20022D243F8
:1006B000134601E00022134601980105381C7141E0
:1006C000FFF7BEFDB6E700004A0009030123090B4E
:1006D0001B0519430A4B10B5520D9A4202DA00204D
:1006E000014610BD064B34339A4203DC9A1AFFF7D9
:1006F00096FD10BD034BD21800F032F810BD00007B
:10070000FF030000CDFBFFFF10B5002904DB01242F
:10071000E40740428C412146002B04DB1C460123A8
:10072000DB075242A341994200D1904210BD000024
:100730001CB5094800900948019005460126009C17
:1007400005E0E36807CC33430C3C98471034AC42D7
:10075000F7D3FFF7B9FC000070750000907500003A
:1007600010B5202A04DB0146203A9140002010BD3C
:10077000914020239C1A0346E3401943904010BD4A
:1007800010B5202A06DBCB170846203A1041C117C6
:100790000B4306E00B461341D0402024A21A91409F
:1007A0000843194610BD811E091F00BFFCD27047C7
:1007B00084B0039002910192039800680090009821
:1007C00001998843009000980299019A11400843CA
:1007D0000399086004B0704782B001900091009BBB
:1007E0000199094A88581843885002B07047C0469A
:1007F00082B001900091009B0199034A88581843E8
:10080000885002B07047C0464810000082B0019086
:1008100000910098019995225201885002B07047CA
:1008200082B0019000910098019995225201885060
:1008300002B0704782B00190009100980199952212
:100840005201885002B0704782B001900091009B25
:100850000199034A88581843885002B07047C0462F
:100860002810000082B00190009100980199024A7E
:10087000885002B07047C046D012000081B000908E
:1008800000990120C2026348885001B07047C046F9
:1008900082B00190009101980249405800990840A7
:1008A00002B070473810000010B584B0069C039069
:1008B000029101920093029801990843009908431C
:1008C000069908430349084303998900244A88503C
:1008D00004B010BD8100040081B000900098810038
:1008E0001F4A8120885001B07047C04610B584B0BF
:1008F000069C03900291019200930298019908438B
:100900000099084306990843812108430399890007
:10091000134A885004B010BD81B000900098810047
:100920000F4A0020885001B07047C04682B0019045
:10093000009100980349084301998900084A8850AA
:1009400002B070478000040082B0019000910098CE
:100950008021084301998900014A885002B07047FC
:100960000480424082B00190009101982721C90182
:1009700040580099084002B0704782B00190009141
:1009800001982721C90140580099084002B07047DA
:1009900081B0009000993B4A3B48885001B07047B5
:1009A00082B001900091009B0199034A8858184336
:1009B000885002B07047C0469013000082B001908A
:1009C000009100980199074A885002B07047C046CC
:1009D00082B00190009100980199024A885002B0BB
:1009E0007047C0469012000081B000900099034A01
:1009F000885801231843885001B070470411000043
:100A000081B0009000990120C202BF48885001B017
:100A10007047C04601000026B0B51122120283586B
:100A20000C4C1C400B894D881D438B792B430A4D80
:100A30001D402B1983508B88CC791C4309782143A6
:100A40005D239B001940801842689A4389184160D1
:100A5000B0BDC04680CCFFFF7F33000081B0009066
:100A600000980349405810210840000901B0704720
:100A70001011000081B000900099024A024888508D
:100A800001B0704704080000030000B180B582B0D7
:100A9000019000910198904940180099024AFFF78F
:100AA00087FE02B080BDC046FF03000010B50122E2
:100AB000120383180C785C604978815010BD0000E7
:100AC00080B584B000920A4601460098039102A9BD
:100AD0000A7001AA10700398044BC01809781278A4
:100AE00011433F22FFF764FE04B080BD0C110000EB
:100AF00082B0019068460170007801994522920108
:100B0000885002B070470000F0B584B00124220282
:100B1000344B19680392914319606A490D686D045A
:100B2000FCD5457E25409E69A64374199C6120240E
:100B3000045D03252C40DE69AE433419DC611F4C93
:100B4000256805262660466A37681F6276685E62F9
:100B500007262E402660C4697F252D02DE69AE433C
:100B60006406640C3419DC61076845688268009289
:100B7000C66802690192426902929A69104C144057
:100B80003A07120B2D03ADB2AA183243009D2D0770
:100B90002D0D1543019A1543029A1543007E2843F3
:100BA000084A0240101998611868039A10431860A7
:100BB00008688005FCD504B0F0BDC0460013404075
:100BC0008D00F0FF72FF0F00064908680122904374
:100BD00008607047034908680122120290430860C8
:100BE0007047C04608010B4081B00146684601705D
:100BF00000780249086001B07047C04608030B4006
:100C000080B582B0014601A8018001880F20020250
:100C10002B48FFF7CDFD02B080BDC046F0B5124BAA
:100C20001D46083D2E680124A6432E600326360388
:100C300030401F68B743381818601868FF26B04363
:100C4000C9B2401818602868204328601868210736
:100C5000002A06D0084318601A480168C905FCD567
:100C6000F0BD88431860F0BD10010B4080B582B024
:100C7000014601A80170017802480322FFF798FDA0
:100C800002B080BD00010B4080B582B0014601A8D2
:100C9000017001780A483022FFF78AFD02B080BD5A
:100CA00007498860074802689202FCD501221204B5
:100CB0000B6813430B600168C906FCD57047C0463A
:100CC00004010B4004020B4081B000900099024ADD
:100CD0000120885001B070470811000082B00190D7
:100CE0000091009B0199C74A88581843885002B068
:100CF0007047C04681B0009000990120C202C748E9
:100D0000885001B07047C0460100002681B00090B5
:100D10000098812149014058C0B201B070470000DD
:100D2000F0B5AA4A82183B4BC31808794E793A4D60
:100D3000774C002E23D0202804D00526F601002869
:100D400003D003E0354E002800D18826576F2F408E
:100D500037435767976F2F4037439767566B264047
:100D60005663966B264096630026566596658F26D9
:100D7000F6435F6837405F609F6837409F608E79B9
:100D8000096820280BD0002819D1491E5160D76E60
:100D90002F4088210F43D7661746703719E0491E48
:100DA0005160D16E29401D4F3943D166116F2940E2
:100DB0003943116701214907194D174609E04908D0
:100DC0005160D76E2F400521C9010F43D7661746E2
:100DD00070373C682C400C433C60D16A4C4C21403D
:100DE000D162116B214011630021D16411658F2103
:100DF000C943D46F0C40D4671C680C401C60064388
:100E0000BD2030401168074B0B40C018801C10609B
:100E1000F0BDC0468418000024493E0001040000D3
:100E2000FFFFFFCF4000FFCFB0B54A68364BC2503E
:100E3000664A80180A78222A58D8930001A4E358F9
:100E40009F46C046E30E0000ED0E0000E30E0000DA
:100E5000ED0E0000ED0E0000ED0E0000ED0E0000A6
:100E6000ED0E0000ED0E0000ED0E0000ED0E000096
:100E7000ED0E0000ED0E0000ED0E0000ED0E000086
:100E8000ED0E0000D10E0000ED0E0000D10E0000AE
:100E9000ED0E0000ED0E0000ED0E0000ED0E000066
:100EA000ED0E0000ED0E0000ED0E0000ED0E000056
:100EB000ED0E0000ED0E0000ED0E0000ED0E000046
:100EC000ED0E0000D10E0000ED0E0000D10E00006E
:100ED00003231B0704689C4301235B07E31803609B
:100EE00004E003231B0704689C4304600B69C36090
:100EF000CB68064C1C40C36A054D1D402B19C362CC
:100F0000097A11430160B0BD08180000777702002C
:100F10008888FDFF81B000900099614A614888503F
:100F200001B0704782B001900091009801991122A0
:100F30001202885002B0704710B507239B04194075
:100F400092008018024A84589C436118815010BD59
:100F50003018000010B5029CA40000191143194379
:100F6000014A815010BDC046501800009200801800
:100F7000014A81507047C0461018000010B5012288
:100F8000120383180C789C604B7883508978014A4F
:100F9000815010BD0C11000010B586B001930B46B6
:100FA00001460198059104A90B8003AB1A8002AA9F
:100FB00010800598054C001909881B881943128870
:100FC0001143034AFFF7F4FB06B010BD04180000FC
:100FD00080FF000081B00090009911200202885823
:100FE00001231843885001B07047000082B001907F
:100FF0000091009B0199034A88581843885002B019
:101000007047C0462810000081B000900099012070
:10101000C2020248885001B07047C0460100002655
:1010200081B000900098812149014058C0B201B0C0
:1010300070470000B0B51122120283580124A34367
:1010400083500B888C781C438B882343094C1C40AD
:101050008358094D1D40631983508B79CC791C430B
:10106000097A21437E231940801842689A43511817
:101070004160B0BD18670000E798FDFF81B00090A7
:10108000009802494058C0B201B0704724110000D6
:1010900081B000900099024A0248885001B0704720
:1010A00004080000030000B180B584B003900291F1
:1010B000019203980B49401802990B4AFFF778FBFD
:1010C00003980A49401801993F22FFF771FB0399E1
:1010D000074A8818895801221140FFF769FB04B0BC
:1010E00080BDC04610110000FFFF00001411000079
:1010F0000411000010B50122120383180C789C60C3
:101100004978815010BD80B582B00190009101985E
:1011100011210902401800990322D203FFF748FB6E
:1011200002B080BD10B58AB00D9C0C9C099008914E
:101130000792069300200590FFE705980C998842D6
:1011400031D8FFE70C98404305994943401AFEF710
:10115000E5FF02F0EFFDFEF7EFFF04900598029027
:10116000FFE7029805994942884217DBFFE7099893
:10117000029940180899049A891A0D9A00F018FAF1
:101180000998029940180899049A89180D9A00F054
:101190000FFAFFE70298401E0290E2E7FFE705988A
:1011A000401C0590C9E70C9841000320401A0390A9
:1011B000FFE70598049988425BDDFFE70398002864
:1011C00007D5FFE70598800003994018801D03901C
:1011D0000BE005980499401A8000039940180A30E2
:1011E00003900498401C0490FFE70598401E05906A
:1011F000059840420190FFE701980599884217DC65
:10120000FFE70998019940180899049A891A0D9ADC
:1012100000F0CEF90998019940180899049A8918A4
:101220000D9A00F0C5F9FFE70198401C0190E3E733
:10123000049840420090FFE700980499884217DC28
:10124000FFE70998059940180899009A89180D9A9E
:1012500000F0AEF909980599401A0899009A891882
:101260000D9A00F0A5F9FFE70098401C0090E3E715
:101270009FE70AB010BD000080B582B02548032169
:10128000FFF706FB019001A80078C00700281AD0DC
:10129000FFE720480221FFF770FB002809D1FFE794
:1012A0001D4948680A680023521E98410A60486038
:1012B00008E0194948680A680023521C58410A602E
:1012C0004860FFE720E001A80078800700281AD5D1
:1012D000FFE710480121FFF750FB002809D1FFE785
:1012E0000D4948680A680023521C58410A6048604A
:1012F00008E0094948680A680023521E98410A60BC
:101300004860FFE7FFE7FFE702480321FFF770FAB5
:1013100002B080BD00200A402802202080B584B0A1
:1013200003900291019200932A2000F051FE03984D
:1013300000F036FE019800F033FE2B2000F048FE4E
:101340000298233000F02CFE0098233000F028FE95
:101350002C2000F03DFE04B080BD10B58AB00C9C7E
:101360000990089107920693042005900998059A20
:101370008018089B07998A1A0C990091194600F069
:1013800091F8099A0898059BC1180698C31A0C98F9
:101390000090104600F086F80998059A8018069B80
:1013A00007998A1A0C990091194600F07BF8079A60
:1013B0000898059BC1180698C31A0C98009010460F
:1013C00000F070F80998059A8018089989180C9B04
:1013D000019300925A220292B4230393FFF7A2FED4
:1013E000029B0798059A801A089989180C9C019409
:1013F00000920022FFF796FE039A0998059BC018F9
:101400000699C91A0C9C0194009387235B000493EE
:10141000FFF788FE049A0798059BC01A0699C91A17
:101420000C9C019400932D23DB00FFF77BFE0998B1
:10143000059BC0180899079AD21ACB180C9C0094E7
:1014400000F0C6F8079A059C101B08990919069B1D
:101450001B1B0C9C009400F0BBF80998059C00191C
:10146000069B191B079A121B0C9C009400F0B0F805
:1014700009980899059C09190219069B1B1B0C9CCD
:10148000009400F0A5F80998059C0019089909191D
:10149000079A121B069B1B1B0C9C009400F098F8EB
:1014A0000AB010BD10B58EB0109C0D900C910B922F
:1014B0000A930020089007900B980D99401A069007
:1014C0000A980C99401A05900D9801900C9800907C
:1014D0000698012803DBFFE7012003900EE0069841
:1014E000002803D1FFE70020039006E00020C0435E
:1014F0000390069840420690FFE7FFE70598012811
:1015000003DBFFE7012002900EE00598002803D1DD
:10151000FFE70020029006E00020C04302900598FB
:1015200040420590FFE7FFE706980599884203DDF2
:10153000FFE70698049002E005980490FFE700207A
:101540000990FFE709980499491C88422ED2FFE7C9
:1015500001980099109A00F02BF806990898401805
:1015600008900599079840180790089804998842B0
:1015700009DDFFE704990898401A0890039901983B
:1015800040180190FFE707980499884209DDFFE7BA
:1015900004990798401A0790029900984018009003
:1015A000FFE7FFE70998401C0990CBE70EB010BD9C
:1015B00080B584B0039002910192039A029B104679
:1015C0001946FFF7ABFE019800F0EAFC04B080BDBD
:1015D00010B586B0089C059004910392029305987B
:1015E0000499039A521E029B5B1EFFF797FE049814
:1015F0000190FFE701980299884215D2FFE705980C
:101600000090FFE700980399884208D2FFE7089806
:1016100000F0C6FCFFE70098401C0090F2E7FFE7EF
:101620000198401C0190E5E706B010BD70B594B07C
:1016300000920C46054600981A99199A189E13951F
:10164000129411AC0194207010930FA802900270B4
:101650000EAA11700AAA0021039111701399079123
:10166000007841080CA8049001700178C808059022
:101670004907401C0029069001D105980690029B5D
:10168000049A0199069C18786043089011982038B4
:1016900008701398129912788218521E1B78CB1872
:1016A0005B1EFFF73BFE03980990FFE70998089936
:1016B000884200D39DE00FA800780C280BD1FFE7EB
:1016C00011A800780C2141434E4840180999405C0C
:1016D0000DA9087031E00FA8007810280AD1FFE7A3
:1016E00011A800780101464840180999405C0DA9ED
:1016F000087021E00FA8007818280BD1FFE711A887
:101700000078302141433D4840180999405C0DA9BB
:10171000087010E00FA8007820280AD1FFE711A870
:1017200000788101344840180999405C0DA908707F
:1017300000E05EE0FFE7FFE7FFE70BA9002008708D
:10174000FFE70BA8007807284EDCFFE70EA800781B
:10175000002822D1FFE70DA800780BA90978C8401E
:10176000C007002804D0FFE7109800F019FC03E040
:10177000189800F015FCFFE70A98411C0AA80170B0
:1017800000780CA90978FEF7FBFC002904D1FFE7DB
:101790000AA90020087027E020E00DA800780BA916
:1017A0000978C840C007002806D0FFE713981299AF
:1017B000109AFFF7FDFEFFE71398401C1390139853
:1017C0000799401A0CA90978884206D1FFE70798C3
:1017D00013901298401C129006E0FFE7FFE70B9869
:1017E000401C0BA90870ACE7FFE70998401C099062
:1017F0005CE714B070BDC046B0590000E04700007F
:10180000F04100007C3D000070B58AB00C460546F2
:1018100010980F990E9E099508940792069305AAB1
:10182000117004A90870FFE70798007800287DD0A0
:10183000FFE70798007880285DDBFFE705A80078C0
:101840000C280FD1FFE709980899079A069B0E9C70
:1018500005AD2D7804AE367802960195009400F01F
:1018600067F83FE005A8007810280FD1FFE7099836
:101870000899079A069B0E9C05AD2D7804AE367824
:1018800002960195009400F021F92AE005A800785D
:1018900018280FD1FFE709980899079A069B0E9C14
:1018A00005AD2D7804AE367802960195009400F0CF
:1018B000DBF915E005A8007820280FD1FFE709988B
:1018C0000899079A069B0E9C05AD2D7804AE3678D4
:1018D00002960195009400F095FA00E026E0FFE7FB
:1018E000FFE7FFE70798801C079005A80178099893
:1018F0004018099019E009980899079A1278069BF0
:101900000E9C05AD03952D7804AE367802960195B0
:101910000094FFF78BFE03980799491C0791007804
:101920004108099840180990FFE77DE70AB070BDAB
:1019300070B592B000920C46054600981899179A17
:10194000169E119510940F900E930DA802700CAA7C
:10195000117009AA00210191117011990591017866
:101960000291C80803904907401C0029049001D146
:101970000398049001980299049A51430691052115
:1019800007910890FFE708980799884200D399E0EB
:1019900008981A2141434C48405C0F9909788842C5
:1019A00000D08AE008981A214143474840184078FF
:1019B0000F994978884200D07FE0119810990DAABC
:1019C0001378C218521ECB185B1EFFF7A7FC0BA999
:1019D00000200870FFE70BA80078069988426BD2B8
:1019E000FFE70AA900200870FFE70AA80078072887
:1019F0005CDCFFE70CA80078002829D1FFE70898F5
:101A00001A214143304840180BA9097840188078C2
:101A10000AA90978C840C007002804D0FFE70E983B
:101A200000F0BEFA03E0169800F0BAFAFFE7099852
:101A3000411C09A8017000780DA90978FEF7A0FBE8
:101A4000002904D1FFE709A9002008702EE027E053
:101A500008981A2141431C4840180BA909784018DE
:101A600080780AA90978C840C007002806D0FFE797
:101A7000119810990E9AFFF79BFDFFE71198401CF3
:101A8000119011980599401A0DA90978884206D13C
:101A9000FFE7059811901098401C109006E0FFE7B2
:101AA000FFE70A98401C0AA908709EE7FFE70B9819
:101AB000401C0BA908708EE7FFE7FFE70898401C61
:101AC000089060E712B070BD1672000070B592B059
:101AD00000920C46054600981899179A169E119583
:101AE00010940F900E930DA802700CAA117009AA01
:101AF0000021019111701199059101780291C80896
:101B000003904907401C0029049001D103980490D8
:101B100001980299049A514306910B21079108906C
:101B2000FFE708980799884200D399E00898222196
:101B300041434C48405C0F990978884200D08AE0C4
:101B40000898222141434748401840780F99497826
:101B5000884200D07FE0119810990DAA1378C2181E
:101B6000521ECB185B1EFFF7D9FB0BA90020087093
:101B7000FFE70BA80078069988426BD2FFE70AA915
:101B800000200870FFE70AA8007807285CDCFFE760
:101B90000CA80078002829D1FFE7089822214143AA
:101BA000304840180BA90978401880780AA90978AC
:101BB000C840C007002804D0FFE70E9800F0F0F9F5
:101BC00003E0169800F0ECF9FFE70998411C09A81A
:101BD000017000780DA90978FEF7D2FA002904D126
:101BE000FFE709A9002008702EE027E008982221CD
:101BF00041431C4840180BA90978401880780AA96D
:101C00000978C840C007002806D0FFE7119810994E
:101C10000E9AFFF7CDFCFFE71198401C1190119828
:101C20000599401A0DA90978884206D1FFE7059861
:101C300011901098401C109006E0FFE7FFE70A980B
:101C4000401C0AA908709EE7FFE70B98401C0BA9EF
:101C500008708EE7FFE7FFE70898401C089060E7F0
:101C600012B070BD9872000070B592B000920C4630
:101C7000054600981899179A169E119510940F9082
:101C80000E930DA802700CAA117009AA00210191EF
:101C900011701199059101780291C80803904907C4
:101CA000401C0029049001D10398049001980299E6
:101CB000049A51430691032107910890FFE7089881
:101CC0000799884200D399E008984A2141434C483B
:101CD000405C0F990978884200D08AE008984A2130
:101CE00041434748401840780F994978884200D0CE
:101CF0007FE0119810990DAA1378C218521ECB18C4
:101D00005B1EFFF70BFB0BA900200870FFE70BA879
:101D10000078069988426BD2FFE70AA90020087074
:101D2000FFE70AA8007807285CDCFFE70CA800782A
:101D3000002829D1FFE708984A214143304840183C
:101D40000BA90978401880780AA90978C840C0070B
:101D5000002804D0FFE70E9800F022F903E016985F
:101D600000F01EF9FFE70998411C09A801700078EE
:101D70000DA90978FEF704FA002904D1FFE709A9A3
:101D8000002008702EE027E008984A2141431C48B3
:101D900040180BA90978401880780AA90978C8402A
:101DA000C007002806D0FFE7119810990E9AFFF798
:101DB000FFFBFFE71198401C119011980599401AFC
:101DC0000DA90978884206D1FFE70598119010986F
:101DD000401C109006E0FFE7FFE70A98401C0AA9A4
:101DE00008709EE7FFE70B98401C0BA908708EE770
:101DF000FFE7FFE70898401C089060E712B070BD4D
:101E00000E74000070B592B000920C460546009822
:101E10001899179A169E119510940F900E930DA86D
:101E200002700CAA117009AA002101911170119978
:101E3000059101780291C80803904907401C0029C8
:101E4000049001D10398049001980299049A514397
:101E50000691012107910890FFE7089807998842A9
:101E600000D399E00898822141434C48405C0F9987
:101E70000978884200D08AE0089882214143474887
:101E8000401840780F994978884200D07FE0119837
:101E900010990DAA1378C218521ECB185B1EFFF7BB
:101EA0003DFA0BA900200870FFE70BA800780699FF
:101EB00088426BD2FFE70AA900200870FFE70AA852
:101EC000007807285CDCFFE70CA80078002829D1FF
:101ED000FFE7089882214143304840180BA9097850
:101EE000401880780AA90978C840C007002804D0A3
:101EF000FFE70E9800F054F803E0169800F050F851
:101F0000FFE70998411C09A8017000780DA909781C
:101F1000FEF736F9002904D1FFE709A9002008706F
:101F20002EE027E00898822141431C4840180BA965
:101F30000978401880780AA90978C840C0070028A5
:101F400006D0FFE7119810990E9AFFF731FBFFE7D3
:101F50001198401C119011980599401A0DA9097803
:101F6000884206D1FFE7059811901098401C109008
:101F700006E0FFE7FFE70A98401C0AA908709EE701
:101F8000FFE70B98401C0BA908708EE7FFE7FFE7FF
:101F90000898401C089060E712B070BDEC74000017
:101FA00080B582B0019001A80090407800F026F83A
:101FB0000098007800F022F802B080BD80B582B0B1
:101FC000014601A80170007800F018F802B080BD49
:101FD00080B584B003A9009108700120C10202916C
:101FE000EA480190FEF726FC0098007800F006F819
:101FF00001980299FEF7ECFC04B080BD80B584B076
:1020000003A900910870012081030291DF4801902B
:10201000FEF710FC0098007801F078F8019802991A
:10202000FEF7D6FC04B080BD80B58CB00920FEF769
:1020300073FC0A20FEF770FC3A2007210191FEF79D
:1020400083FC012003908106CF480290FEF70AFC32
:1020500001993B20FEF778FC02980399C906FEF728
:1020600001FC142002210491FEF76EFC0499152056
:10207000FEF75CFC192003210B91FEF765FC0B9920
:102080001820FEF761FC03980023069300930204D6
:1020900031201946FEF72AFC1A20FEF71DFC1B20F2
:1020A000FEF71AFC1E20FEF717FC3820FEF714FC82
:1020B00003980699009142040592C30407931320E4
:1020C000FEF7F2FB059A0699079B00911220FEF796
:1020D000EBFB059A0699079B009105200990FEF7F6
:1020E000E3FB0498059A0699079B0091FEF7DCFB39
:1020F000069A079B00920B201146FEF7D5FB069A25
:10210000079B00920C201146FEF7CEFB9F480A90D9
:102110000A490891FEF784FB08990A98FEF7A2FB8A
:1021200009990A98FEF73CFC0A980B99FEF754FBB4
:102130000A980B99FEF788FB0CB080BD004C400458
:1021400080B586B01E4992480590FEF717FF0598A6
:102150001C49FEF7E5FD05980023029319461A462F
:10216000FEF71AFF029B0598009319461A46FEF7E0
:10217000F1FE029A05981146FEF7DEFE029A0598D6
:1021800011490391FEF7F2FE029B0598012104918B
:10219000009119461A46FEF7DDFE0299049A059849
:1021A000FEF7CAFE0399049A0598FEF7DFFE05982C
:1021B000FEF78AFD05980321FEF7B4FE06B080BD48
:1021C00070710000747100001027000080B582B0AB
:1021D0000B4970480190FEF769FC01980949FEF728
:1021E0001BFC01980021FEF751FC019810210222EE
:1021F000FEF766FC0198FEF7F7FB02B080BDC04613
:102200007C7100007E71000080B582B000200190DA
:10221000FEF7EAFC012000904002FEF7F1FC019875
:10222000FEF724FDFEF7D0FCFEF7D4FC009A032055
:1022300000030A21FEF7F2FC0748FEF765FC1020B8
:10224000FEF722FD0198FEF72BFD0098019900F0A2
:1022500045F902B080BDC0468871000080B582B0EB
:102260000A4954480190FEF789FE01980849FEF793
:10227000DBFD01980121FEF731FD1220032100F062
:102280002DF90198FEF720FD02B080BDB07100006D
:10229000B471000080B582B0104951480190FEF73A
:1022A00029FF01980E49FEF7C5FE01980021FEF7AF
:1022B0002AFF0198412189001B22FEF7F5FE0198B3
:1022C00001218902FEF792FE0F20032100F006F99A
:1022D0000198FEF77FFE02B080BDC046C8710000C5
:1022E000CA71000080B500F01DF8FFF79DFEFFF7F2
:1022F0008BFFFFF725FFFFF7B1FFFFF7CBFFFFF7DE
:1023000065FF05499C22002088540449B82288545E
:1023100003492422885480BDA40020206C01202081
:102320004401202080B586B017480090FEF730FBAE
:1023300016480190FEF72CFB15480290FEF7EAFDC7
:102340001C480390FEF7E6FD25480490FEF7A0FE2A
:1023500010480590FEF78EFB0098FEF78FFA019863
:10236000FEF78CFA0298FEF7C5FC0398FEF7C2FC54
:102370000498FEF749FE0598FEF742FB1020FEF791
:1023800012FA06B080BDC04600000A4000200A4094
:1023900000A0864000A0464080B50648FEF7B6FC87
:1023A000012805D1FFE700F029FA00F0EDFCFFE776
:1023B00080BDC0460000864010B50948FEF730FEDB
:1023C0000B280CD1FFE70648FEF758FEC9498024C8
:1023D0000A59531C0B51885400F078F9FFE710BDDF
:1023E0000080104081B001466846017000214056CF
:1023F000002809D4FFE7684601781F20014001202A
:10240000884016490860FFE701B0704781B0014677
:102410006846017000214056002809D4FFE768464D
:1024200001781F200140012088400C490860FFE727
:1024300001B0704781B001466846017000214056E6
:10244000002809D4FFE7684601781F2001400120D9
:10245000884002490860FFE701B0704780E200E071
:1024600081B001466846017000214056002809D419
:10247000FFE7684601781F20014001208840164987
:102480000860FFE701B0704781B0014668460170FF
:1024900000214056002809D4FFE7684601781F2034
:1024A0000140012088400C490860FFE701B07047F7
:1024B00081B001466846017000214056002809D4C9
:1024C000FFE7684601781F2001400120884002494B
:1024D0000860FFE701B0704700E100E070B582B02E
:1024E000024601A80270009100214056002816D42F
:1024F000FFE7002401A908570322D3431840174AD5
:10250000805809578C07E50EFF24AC40A043009C7F
:10251000A401E4B2AC402043194088501AE001A95C
:1025200008780F24204008380322D34318400A4A71
:102530008058002549578D07EE0EFF25B540A8436A
:10254000009DAD01EDB2B540284321400839194046
:102550008850FFE702B070BD1CED00E000E400E031
:1025600082B0019001980078C006000F0090012809
:1025700008D0FFE70098082805D0FFE70098092851
:1025800002D002E002E001E000E0FFE702B07047A5
:1025900080B582B0019001980078C006000F0090CD
:1025A000012804D0FFE70098062807D007E000F0D4
:1025B000F1FB4142484100F06DFD01E000E0FFE722
:1025C00002B080BD80B582B0019001980078C0064D
:1025D000000F0090012804D0FFE70098062807D0DC
:1025E0001DE000F0D7FB4142484100F053FD17E0E9
:1025F0000C4801684A42514101600068002805D03A
:10260000FFE70948002100F069FDFFE70548006881
:10261000002803D1FFE700F08FFDFFE700E0FFE7B0
:1026200002B080BD140020200F27000082B001906E
:1026300001980078C006000F0090012808D0FFE73D
:102640000098082805D0FFE70098092802D002E08A
:1026500002E001E000E0FFE702B0704780B582B021
:1026600000F0A6FB019001A800780007C00F02B09F
:1026700080BD80B582B000F09BFB019001A800787E
:102680008007C00F02B080BD80B582B000F090FB23
:10269000019001A800784007C00F02B080BD80B54E
:1026A00082B000F085FB019001A80078012108406C
:1026B00002B080BD80B582B00F200190FFF7A6FE6A
:1026C0000198FFF7E1FE02B080BD000081B009482B
:1026D000802140587F2806DBFFE706498022002042
:1026E0008850009002E001200090FFE7009801B0C0
:1026F0007047C04620002020B0B58CB0139C129CBF
:10270000119C109C0B900A91099208931198C10F8B
:102710004018411010984843C10F401840100790CE
:102720000B980A99CA0F89184910401806901198F9
:10273000C10F40184010059009980899CA0F8918D0
:102740004910401804900B9809990A9A8218089B1E
:10275000CB18139C0094FEF700FE06980799401AC8
:102760000499059A891A129A139B11AC24780125B1
:102770000295019400931A4BFFF746F80CB0B0BDD8
:10278000B0B58AB00E9C0990089107AD03952A80D8
:1027900006AC2370217808984843C10F40184010B8
:1027A0000590207840080490059A9620801A09998F
:1027B000AA3223785B182D880095FEF7CEFD039B87
:1027C0000599A020401A09990E9A1B8824780125A2
:1027D000029501940093024BFFF716F80AB0B0BDC2
:1027E000FFFF000080B582B001200190FFF7FAFDE5
:1027F0000198FFF735FE02B080BD0000054948682A
:10280000086888608868C00F087300204860086006
:102810007047C0462802202080B584B003A900205C
:102820000870FB4A126802920870FFE702980028BD
:1028300000D1EBE1029800784009012805DBFFE7B1
:1028400002994888401C4880FFE7029800784009B8
:102850000190062800D9D0E10198810001A04058DC
:102860008746C04681280000D9280000432900007F
:10287000BF2A00000F2B0000792B0000D72B00008F
:10288000E5480088002203A98956C840C0070028EF
:102890001AD0FFE7029900204880029988800299A7
:1028A00008781F2210402030087002990878E12231
:1028B0001040087002984069002804D0FFE7029891
:1028C00041698847FFE706E002990878E122104055
:1028D00016300870FFE790E1CE480088002203A977
:1028E0008956C840C007002807D1FFE70299087839
:1028F0001F2210404030087022E002994888498920
:1029000088421CDBFFE7029948888989884216DAE9
:10291000FFE7029908781F22104080300870029962
:102920000878E122104008300870029840690028B9
:1029300004D0FFE7029841698847FFE7FFE7FFE718
:102940005BE1029948880989884229DAFFE7029900
:102950008888401C888002988088012807D1FFE77A
:10296000029908781F2210406030087017E0029921
:1029700000208880029908781F2210400870029970
:102980000878E1221040001D087002984069002874
:1029900004D0FFE7029841698847FFE7FFE78DE031
:1029A00002994888098988421EDBFFE70299488816
:1029B0004989884218DAFFE7029900208880029945
:1029C00008781F221040087002990878E122104010
:1029D000801C087002984069002804D0FFE7029824
:1029E00041698847FFE768E0029948884989884239
:1029F0001EDBFFE7029948888989884218DAFFE7D9
:102A0000029900208880029908781F2210400870DF
:102A100002990878E12210400A3008700298406953
:102A2000002804D0FFE7029841698847FFE743E0A8
:102A300002994888898988421EDBFFE70299488805
:102A4000C989884218DAFFE7029900208880029934
:102A500008781F221040087002990878E12210407F
:102A60000E30087002984069002804D0FFE70298F1
:102A700041698847FFE71EE002994888C989884272
:102A800018DBFFE7029900208880029908781F224E
:102A90001040087002990878E12210401230087046
:102AA00002984069002804D0FFE7029841698847EE
:102AB000FFE7FFE7FFE7FFE7FFE7FFE79DE0884865
:102AC0000088002203A98956C840C00700280FD0FB
:102AD000FFE702998888401C8880029908781F22A5
:102AE00010404030087002994888401E48800DE030
:102AF000029948880989884207DBFFE7029908782C
:102B00001F22104040300870FFE7FFE775E0734870
:102B10000088002203A98956C840C007002807D1B1
:102B2000FFE7029908781F2210404030087022E029
:102B300002994888898988421CDBFFE70299488806
:102B4000C989884216DAFFE7029908781F221040E7
:102B5000A030087002990878E12210400C3008700B
:102B600002984069002804D0FFE70298416988472D
:102B7000FFE7FFE7FFE740E058480088002203A98D
:102B80008956C840C007002807D1FFE70299087896
:102B90001F221040403008701CE002994888C98903
:102BA000884216DBFFE7029908781F221040C030E8
:102BB000087002990878E1221040103008700298DD
:102BC0004069002804D0FFE7029841698847FFE781
:102BD000FFE7FFE711E041480088002203A989567A
:102BE000C840C007002807D1FFE7029908781F22D4
:102BF000104040300870FFE7FFE7FFE70298806968
:102C000002900398401C03A908700FE604B080BD31
:102C1000100020201A0020203802202080B586B025
:102C200004A900200880574909882B4A118003A96C
:102C30000870524A126805920870FFE70599002053
:102C40000029029006D0FFE705980069411E8841DF
:102C50000290FFE70298C00700282BD0FFE71E482C
:102C60000088019005980078C00700280BD0FFE786
:102C700005980069804741424841002203A98956CE
:102C80008840009008E0059800698047002203A969
:102C9000895688400090FFE70198009908430E4943
:102CA0000880FFE70598806905900398401C03A9F8
:102CB0000870C3E708480088C14304A80180008861
:102CC00006490B8802465A401040054A1080049875
:102CD000088006B080BDC046060020201A002020D3
:102CE0003802202083B001902448006800900198A9
:102CF000002805D0FFE722480078112804DBFFE711
:102D000002A9FF20087033E0FFE7009800280DD0EB
:102D1000FFE700980199884204D1FFE702A9FF204C
:102D2000087025E0009880690090EEE71349086874
:102D3000019A9061019A10781F2318401070019A2F
:102D40001078E123184016301070019A002050804E
:102D5000019A9080019808600A490888400008801C
:102D600007480178491C0170007802A90870FFE744
:102D7000002102A8405603B07047C0461000202032
:102D8000180020200400202080B5FFF747FFFFF740
:102D900043FD80BDC34800787047C0460348806843
:102DA0007047C0460148007B7047C046280220207B
:102DB000B0B584B00120009041021F480190FDF79A
:102DC000D1FD009904460198621E944103AB029321
:102DD0001A78FE252A4012191A700902FDF7C2FD61
:102DE0000099029B04460198621E94411A7864007F
:102DF000FD252A4012191A70C907FDF7B3FD009985
:102E0000029B04460198621E94411A78A400FB2597
:102E10002A4012191A700907FDF7A4FD029902460B
:102E2000501E82410878D200F7231840801808709D
:102E3000039804B0B0BDC04600000A4080B592B00F
:102E400001200390810201916C480090FDF7F2FC93
:102E50006B48FDF7A8FC00980199FDF7B9FD69489A
:102E6000FDF7A1FC11201090FFF7B2F836200E906C
:102E7000FFF7AEF87020FFF7A1F83A20FFF7A8F8A7
:102E800005200690FFF79AF8B220FFF7A1F80C2072
:102E90000290FFF793F80298FFF790F80020049053
:102EA000FFF78CF833200C90FFF788F80C98FFF7A9
:102EB00085F8B720FFF78CF83520FFF77FF8BB20A7
:102EC000FFF786F81A20FFF779F8C020FFF780F89F
:102ED0002C20FFF773F8C220FFF77AF80398FFF76A
:102EE0006DF8C320FFF774F80B200990FFF766F820
:102EF000C420FFF76DF82020FFF760F8C620FFF729
:102F000067F80F20FFF75AF8D020FFF761F8A420E8
:102F1000FFF754F8A120FFF751F82120FFF758F8E8
:102F2000E020FFF755F8F0200890FFF747F80498E5
:102F3000FFF744F804200590FFF740F80598FFF7E5
:102F40003DF80598FFF73AF80698FFF737F829207B
:102F50001190FFF733F80C98FFF730F83E200D90F2
:102F6000FFF72CF83820FFF729F812200790FFF719
:102F700025F80798FFF722F828200B90FFF71EF896
:102F80003020FFF71BF8E120FFF722F80898FFF741
:102F900015F807200A90FFF711F80A20FFF70EF83E
:102FA0000D20FFF70BF80998FFF708F80A98FFF7CC
:102FB00005F80B98FFF702F80C98FEF7FFFF0D9845
:102FC000FEF7FCFF0E98FEF7F9FF14200F90FEF7B6
:102FD000F5FF0F98FEF7F2FF1198FEF7EFFF322092
:102FE000FEF7ECFF1098FEF7F3FF0748FDF7DBFB59
:102FF0001198FEF7EDFF12B080BDC04600200A40D8
:10300000009F240000127A00007C920080B582B0FC
:10301000002001900090FFF765F9FFF74BFB00F0EF
:1030200087F9FFF7DFFB00F08DF8FFF707FF00F0EF
:1030300021F9FFE70098401C009000990848484398
:10304000084940180221C8410749884203D8FFE7D0
:1030500000F084F8FFE70548FDF7A5FBEAE7C04666
:10306000CDCCCCCC98999919CCCCCC0C0071020069
:1030700081B00090009800880449884204DBFFE793
:10308000009903480880FFE701B07047102700004F
:103090000F27000081B06946087000980149087048
:1030A00001B070471C00202080B582B0014601A805
:1030B0000180018808480022FDF758FF02B080BD5A
:1030C00080B582B0014601A8018001880248012232
:1030D000FDF74CFF02B080BD00A0864080B584B0F3
:1030E000024603A80090028002AA01921180FFF715
:1030F000BFFF0198FFF7BCFF00980088FFF7E0FFD3
:1031000001980088FFF7D0FF04B080BD80B582B081
:10311000014601A8017001780648FDF7E9FCFFE7C8
:103120000448FDF79BFC002801D0FFE7F8E702B058
:1031300080BDC04600A0464080B500210846FFF78C
:10314000CDFF80BD80B582B012200190FFF772F9EB
:103150000198FFF7ADF902B080BD000070B5CAB0AC
:1031600018A8C821FCF7C7FF3C4800680F90FFF77C
:1031700015FE01460F9888422DD0FFE7FFF70EFE9F
:1031800036490860FFF70AFE0246354918AD284661
:1031900000F02CF91E2017906E2016905F201590DD
:1031A0001920149017980E9016980B9015980C9063
:1031B00014980D902846FCF7A9FF0B990C9A0D9BCB
:1031C00004460E9800260396029518250195009452
:1031D000FFF792FAFFE7234800680A90FFF7E2FD45
:1031E00001460A98884236D0FFE7FFF7DBFD1D490C
:1031F0000860AA201390782012905F201190192067
:103200001090FFF7CFFD01461748184A0892002991
:10321000099001D008980990099A154918AD2846D7
:1032200000F0E4F813980790129804901198059014
:10323000109806902846FCF769FF0499059A069BAA
:1032400004460798002603960295182501950094D8
:10325000FFF752FAFFE74AB070BDC04608002020D1
:10326000E57100000C002020D4710000DC7100002A
:10327000F871000070B592B00120810609912748CD
:103280000890FDF7C3FA002100910526B201AA2398
:1032900005930846FEF79CF92148009003201F255E
:1032A0001023049331462A46FFF76AFA049B1D480F
:1032B0000090162008212A46FFF762FA2820119074
:1032C0005A201090412006900F90192007900E90E0
:1032D000119810990F9A0E9B0395134C0294182481
:1032E00001940096FFF708FA059A069907980D923F
:1032F00078220C920B910A900D980C990B9A0A9BCC
:1033000003950A4D0295019409240094FFF7F4F9FE
:1033100008980999FDF752FB12B070BD00200A40D1
:10332000FB71000006720000E8710000EE71000001
:1033300010B582B0244800907021FCF7DCFE0099A3
:1033400022480861224848612248C862224808632E
:10335000224888642248C864224848662248886611
:1033600000200190FFE7019803282BDCFFE701987C
:103370001C210B4643431448C25CFE242240C25425
:10338000019B0A465A43831807221A81019B0A4669
:103390005A4383180C225A81019B0A465A438318C8
:1033A0001B229A81019B0A465A4383182022DA8104
:1033B000019A51434018FFF795FCFFE70198401C24
:1033C0000190D0E702B010BD3C0220209F260000F3
:1033D0002D2600007326000091250000892600009C
:1033E000C52500005D260000612500000FB410B562
:1033F00004A9074B02AA039800F0FAF8044602A9B0
:10340000002000F091FC204610BC08BC04B0184716
:10341000293D00002021020C01D010211046020A93
:1034200001D010460839020901D01046091F820850
:1034300001D01046891E420801D0881E7047081A24
:10344000704700000000000002E008C8121F08C119
:10345000002AFAD170470000704700000000000009
:10346000002001E001C1121F002AFBD170470000BB
:10347000014908607047000000002020F0B51FB42B
:1034800086B00998089A030D0021024314D05148D0
:10349000514A1818504305141198012810981AD051
:1034A000281A401C00264D4F4D490096019104906A
:1034B000002812DA444211E01198012449A301289E
:1034C00001D11098C1430698119A84600360C260CC
:1034D00041600BB0F0BD4042E4E704462105002006
:1034E0003F4A001C51410391029012E0E00707D0CF
:1034F00032463B4601990098FCF7B4FF01910090D9
:1035000032463B4610461946FCF7ACFF06460F46CE
:103510006410002CEAD10498039B0028029A0999B0
:10352000089806DAFCF79EFF019B009AFCF79AFFC9
:1035300005E0FCF7FFFF019B009AFCF7FBFF044648
:103540000E460022284BFDF7DFF803D80020C043C9
:10355000014607E00022254B20463146FCF7D0FE0D
:10356000FDF7B2F8102409E0002C0ADB0A22002340
:10357000FCF725FE079B30321A55641E02460A43AB
:10358000F2D11122641C079B121B1C19119B012BE9
:1035900003D0012308430ED10AE0084304D01120D0
:1035A00010900020119077E71098151A6D1E0BE00F
:1035B0001098824202DD00236D1C03E0824201DA92
:1035C00000236D1E002BEED0069811998260C16019
:1035D00030C07EE701FCFFFF104D000000001440EA
:1035E0000000F03F300000000000F0430000E03F2A
:1035F000FFB597B00646002518E2252877D10024AC
:103600002746FD49049400E00443761C32780120EB
:10361000203A90400842F7D130782A280ED0022272
:10362000307801463039092916D804990A235943BC
:10363000303940181443761C0490F1E7189802C8FA
:1036400004911890002904DA012040030443484201
:10365000049002200443761C30782E2814D10420D4
:1036600004437078761C2A2809D11898761C80C8E3
:10367000189009E00A214F43303FC719761C307873
:10368000014630390929F5D930786C2810D006DC8C
:103690004C281AD068280ED06A2817D104E0742864
:1036A00013D07A2812D110E00120400504430CE029
:1036B0000121090501E0032109050C4371788142CC
:1036C00003D1012000052418761C761C3078119057
:1036D00066280BD013DC58287DD009DC00287BD06D
:1036E0004528F6D04628F4D047281AD1A5E118E09D
:1036F000632835D0642870D0652812D19DE17028E8
:103700006CD008DC6728F1D069287BD06E280DD0FA
:103710006F2806D1BAE073282ED0752871D078288A
:1037200059D01A9A199990476D1C7EE16002400F9A
:10373000022809D003280DD00428189801680DD05C
:103740000D60001D189070E11898EA1701680D606F
:103750004A60F6E7189801680D80F2E70D70F0E70F
:1037600018986A4601781172001D18900020507256
:1037700002A80090012005E0189802C818900020C7
:103780000091C04361070DD5002101E00199491C5A
:103790000191B94212DA8142F8DB009A515C0029AA
:1037A000F4D10BE0002101E00199491C0191814213
:1037B000FADB019A0099895C0029F5D101990498F6
:1037C0001A9B471A21463846199A00F097FA019930
:1037D000401945180BE04FE02CE113E04EE0009853
:1037E00000990078491C00911A9A199990470198FC
:1037F000401E0190401CF2D1214638461A9B199A6E
:1038000010E137E00A200021009001916002410F91
:10381000022907D0189A01CA1892C21794460329A0
:1038200008D00AE01898C01DC108C90005C9189140
:10383000944607E000B2C2179446042902D140B270
:10384000C1178C4600226146944506DA0A460021DB
:10385000404291418C462D2102E0210504D52B21C7
:103860006A461173012103E0E10701D02021F7E747
:10387000029155E00A200AE0102008E01020009094
:103880000021042004430191082703E008200021BF
:10389000019100906002410F022907D0189A01CAD5
:1038A000189200229446032908D008E01898C01DF9
:1038B000C108C90005C91891944603E080B20429E3
:1038C00000D1C0B200210291210729D51199702998
:1038D00006D0009A1021019B4A401A4305D00EE001
:1038E00040216A461173012108E06146014306D078
:1038F00030216A4611731199517302210291009A85
:103900000821019B4A401A430AD16146014301D173
:10391000610705D530216A46117301217F1E02918E
:103920001199582904D035A10E910DA90D910DE0E2
:1039300037A1F9E76146019B009AFCF740FC0E9B1A
:103940008C469B5C0D9A521E0D921370614601438A
:10395000F0D10D9805A9081A20300190600703D511
:1039600001200004844300E001270198874201DD23
:10397000381A00E0002001990090411802980918B7
:103980000498401A0490E00306D421461A9B199A21
:10399000049800F0B3F94519002706E003A81A9A25
:1039A000C05D199990476D1C7F1C02988742F5DB1A
:1039B000E0030CD521461A9B199A049800F09EF951
:1039C000451904E01A9A3020199990476D1C009906
:1039D000481E00900029F5DC08E00D980D9900784C
:1039E000491C0D911A9A199990476D1C0199481E0E
:1039F00001900029F1DC63E1092801003031323304
:103A0000343536373839616263646566000000001A
:103A10003031323334353637383941424344454604
:103A20000000000000F05AF94519761C3078002893
:103A300000D0E2E528461BB0F0BD600700D40627A1
:103A40001898C01DC108C90048680A680831C30F2A
:103A5000DB071891190001D09CA108E0210501D5D0
:103A60009BA104E0E10701D09AA100E09AA14300E4
:103A700011985B08109165280CD006DC452809D008
:103A800046281DD0472841D141E0662818D0672834
:103A90003CD13CE00021112F01DB112000E0781C1B
:103AA0000191009008A911A8FFF7E8FC139905916E
:103AB0000021119A15927F1C12980197009150E0F5
:103AC0000120C00703900120019008A9009711A8C8
:103AD000FFF7D4FC139A149905920022119B0092CF
:103AE00012981593059A0192002901D0104602E020
:103AF000791C40180190381A01D5019804E0404221
:103B0000401E0090781C0190C01B029043E0012FE2
:103B100000DA01270021112F01DD112000E03846D5
:103B20000191009008A911A8FFF7A8FC139905912D
:103B3000119A0021129815920091019721070CD437
:103B40000599B94201DB019900E00191012904DDE9
:103B5000159A491E515C302906D0B84201DA011D80
:103B600005DA0121029115E00199491EEDE70028CF
:103B700005DC0099411800910199091A03E0019AA6
:103B8000411C914200DD01910099401A401C0290B5
:103B90000120C0070390200706D4029901988142B2
:103BA00002DB0020C043029000206946C87707AFBF
:103BB000012103980337C907884224D002201190BD
:103BC0002B201290039800280CDA404203902D20FD
:103BD000129007E00A210398FCF7D2FA30317F1ED9
:103BE000039039701199481E11900029F2DC039856
:103BF0000028EFD1791E12980870307820210840F3
:103C00004530BF1E387006A8C01BC01D0390109819
:103C10000078002800D00120019941180298C017AF
:103C20000918039809180498401A401E0490E003EC
:103C300006D421461A9B199A049800F05FF845199A
:103C400010980078002803D01A9A199990476D1C93
:103C5000E00324D521461A9B199A049800F04EF8E7
:103C600045191CE00098002807DB00990598884258
:103C700003DD1598405C199901E0199930201A9AD2
:103C8000904700986D1C401C00900298401E0290C6
:103C9000002804D11A9A2E20199990476D1C019979
:103CA000481E01900029DDDC05E038781A9A7F1C57
:103CB000199990476D1C0399481E03900029F4DC64
:103CC00021461A9B199A0498ACE600002D000000CA
:103CD0002B0000002000000000000000F8B50446A2
:103CE00000251E461746880404D405E039462020E6
:103CF000B0476D1C641EF9D52846F8BDFFB50446D3
:103D0000002581B01E46C80301D5302700E02027DA
:103D1000880404D505E038460399B0476D1C641E3D
:103D2000F9D5284605B0F0BD0A68531C0B60107029
:103D300070470000F8B506460C46FCF773FC051EFC
:103D40000F4600D00120014349000B484908411AA1
:103D5000C90F0DD0002E01D0012100E000210C433D
:103D600061004908401AC00F02D10120FFF780FB13
:103D700028463946F8BD00000000F07F0000000032
:103D8000000000000000000000000404040404001F
:103D90000004000014140A000000000000000000ED
:103DA00000000A0A1F0A0A1F0A0A000000040E1572
:103DB00005060C14150E0400000012150D152E2C0E
:103DC0002A1200000000040A0A3615152916000000
:103DD00002020100000000000000000010080804BA
:103DE0000404040408081000020404080808080871
:103DF0000404020000000004150E0E15040000006B
:103E000000000008083E0808000000000000000054
:103E1000000000000202010000000000003F00005E
:103E20000000000000000000000000000002000090
:103E300000201010080804040202010000000E1106
:103E400011111111110E00000000040604040404F5
:103E5000040E000000000E1111080402011F0000F2
:103E600000000E11100C1010110E00000000080CC4
:103E70000C0A091F081C000000001F01010F11108F
:103E8000110E000000000C12010D1311110E0000A4
:103E900000001E10080804040404000000000E11B5
:103EA000110E1111110E000000000E111119161043
:103EB00009060000000000000400000000040000EB
:103EC00000000000000400000004040000001008CE
:103ED0000402020408100000000000003F003F0040
:103EE0000000000000000204081010080402000096
:103EF00000000E11110804040004000000001C2240
:103F0000292D2D1D221C0000000004040C0A0A1E8D
:103F10001233000000000F12120E1212120F0000D6
:103F200000001E1101010101110E000000000F121E
:103F300012121212120F000000001F120A0E0A02C3
:103F4000121F000000001F120A0E0A0202070000E2
:103F500000001C1201013911120C00000000331284
:103F6000121E12121233000000001F040404040485
:103F7000041F000000003E08080808080808090798
:103F8000000037120A060A1212370000000007026A
:103F900002020202223F000000003B1B1B1B151502
:103FA0001535000000003B1216161A1A12170000F1
:103FB00000000E1111111111110E000000000F125E
:103FC000120E02020207000000000E11111111175B
:103FD000190E180000000F12120E0A1212370000FC
:103FE00000001E1101060810110F000000001F152F
:103FF00004040404040E0000000033121212121212
:10400000120C000000003312120A0A0C0404000013
:104010000000151515150E0A0A0A000000001B0AFB
:104020000A04040A0A1B000000001B0A0A0A04040E
:10403000040E000000001F0908040402121F000003
:104040001C0404040404040404041C00000202040C
:1040500004040808081010000E08080808080808DA
:1040600008080E00040A0000000000000000000024
:1040700000000000000000000000003F02040000FB
:10408000000000000000000000000000000C121CF6
:10409000123C000000030202020E1212120E000077
:1040A00000000000001C1202120C0000001810108A
:1040B000101C1212123C000000000000000C121E26
:1040C000021C000000182404041E0404041E000046
:1040D00000000000003C120C021C221C0003020223
:1040E000020E12121237000000040400000604043D
:1040F000040E000000080800000C08080808080763
:1041000000030202021A0A060A1300000007040450
:1041100004040404041F000000000000000F151533
:104120001515000000000000000F121212370000E9
:1041300000000000000C1212120C00000000000031
:10414000000F1212120E020700000000001C1212D3
:10415000121C103800000000001B060202070000BD
:1041600000000000001E020C101E000000000004F1
:10417000041E0404041C000000000000001B1212B6
:10418000123C000000000000001B0A0A04040000AA
:10419000000000000015150E0A0A000000000000D3
:1041A000001B0A040A1B000000000000003312126A
:1041B0000C08040300000000001E0804041E000098
:1041C00018080808080C0808080818000808080853
:1041D0000808080808080808060404040408040479
:1041E00004040600160900000000000000000000A2
:1041F00000000000000000000000000000000000BF
:104200000000000808080808080800001818000046
:1042100000486C24120000000000000000000000B4
:104220000000002424247F1212127F1212120000B8
:104230000000081C2A2A0A0C1828282A2A1C080808
:1042400000000022251515152A5854545422000048
:104250000000000C1212120A76252911916E00003E
:10426000000606040300000000000000000000003B
:10427000004020101008080808080810102040000E
:1042800000020408081010101010100808040200A2
:104290000000000008086B1C1C6B080800000000F0
:1042A00000000000080808087F080808080000004F
:1042B00000000000000000000000000006060403EB
:1042C0000000000000000000FE00000000000000F0
:1042D00000000000000000000000000006060000D2
:1042E0000000804040202010100808040402020052
:1042F0000000001824424242424242422418000078
:10430000000000080E08080808080808083E000019
:104310000000003C4242422020100804427E00007F
:104320000000003C4242201820404042221C000075
:10433000000000203028242422227E202078000043
:104340000000007E0202021A26404042221C0000A9
:10435000000000382402021A2642424224180000BB
:104360000000007E2222101008080808080800003B
:104370000000003C4242422418244242423C0000D9
:10438000000000182442424264584040241C0000AF
:1043900000000000000018180000000018180000BD
:1043A00000000000000000080000000000080804F1
:1043B0000000004020100804020408102040000003
:1043C0000000000000007F0000007F0000000000EF
:1043D0000000000204081020402010080402000021
:1043E0000000003C42424640201010001818000017
:1043F0000000001C225A555555552D42221C000024
:104400000000000808181414243C224242E700006F
:104410000000001F2222221E22424242221F0000D0
:104420000000007C4242010101010142221C000007
:104430000000001F2242424242424242221F00002C
:104440000000003F4212121E12120242423F0000C0
:104450000000003F4212121E121202020207000068
:104460000000003C2222010101712122221C0000D7
:10447000000000E7424242427E42424242E70000E0
:104480000000003E0808080808080808083E000068
:104490000000007C10101010101010101010110FE0
:1044A0000000007722120A0E0A1212222277000060
:1044B000000000070202020202020202427F000024
:1044C00000000077363636362A2A2A2A2A6B000060
:1044D000000000E346464A4A5252526262470000D8
:1044E0000000001C2241414141414141221C000089
:1044F0000000003F424242423E0202020207000028
:104500000000001C2241414141414D53321C6000DA
:104510000000003F4242423E1212222242C70000E7
:104520000000007C4242020418204042423E00004B
:104530000000007F4908080808080808081C000057
:10454000000000E74242424242424242423C0000F6
:10455000000000E742422224241414180808000036
:104560000000006B49494949555536222222000076
:10457000000000E7422424181818242442E7000011
:10458000000000772222141408080808081C000004
:104590000000007E2120101008040442423F000069
:1045A00000780808080808080808080808087800BB
:1045B00000000202040408080810102020204040D7
:1045C000001E1010101010101010101010101E00EF
:1045D000003844000000000000000000000000005F
:1045E000000000000000000000000000000000FFCC
:1045F00000060800000000000000000000000000AD
:10460000000000000000003C4278444242FC0000F0
:10461000000000030202021A26424242261A00004B
:10462000000000000000003844020202443800008C
:1046300000000060404040784442424264D800009C
:10464000000000000000003C427E0202423C0000EC
:10465000000000F08808087E08080808083E0000EE
:10466000000000000000007C22221C023C42423C70
:10467000000000030202023A4642424242E70000C2
:104680000000000C0C00000E08080808083E00009E
:104690000000003030000038202020202020221E82
:1046A0000000000302020272120A161222770000B2
:1046B0000000000E0808080808080808083E000066
:1046C000000000000000007F9292929292B70000DA
:1046D000000000000000003B4642424242E700006A
:1046E000000000000000003C42424242423C000008
:1046F000000000000000001B26424242221E02076A
:10470000000000000000007844424242447840E04B
:1047100000000000000000774C040404041F0000A7
:10472000000000000000007C42023C40423E0000CD
:10473000000000000008083E0808080808300000D3
:1047400000000000000000634242424262DC0000C0
:1047500000000000000000E74224241408080000C4
:1047600000000000000000EB4949555522220000DE
:10477000000000000000007624181818246E0000C5
:1047800000000000000000E7422424141808080775
:10479000000000000000007E22100808447E000097
:1047A00000C0202020202010202020202020C00019
:1047B00010101010101010101010101010101010F9
:1047C0000006080808080810080808080808060075
:1047D0000C32C200000000000000000000000000D9
:1047E00000000000000000000000000000000000C9
:1047F00000000000000000000000000000000000B9
:1048000000000000000000000000000000000000A8
:104810000000000000000000600060006000600018
:1048200060006000600040002000200020000000C8
:104830000000000060006000600000000000000058
:104840000000000060066006300398018800440004
:104850000000000000000000000000000000000058
:104860000000000000000000000000000000000048
:1048700000000000000000001002100210021002F0
:10488000FE07FE0708020801080108010801FE07EB
:10489000FE070401040104010401000000000000FF
:1048A00000000000000040004000F00158034C03ED
:1048B000CC034C0058007000E000C001C001400370
:1048C0004C035C034C034801F00040004000000032
:1048D00000000000000000000E010A01910091009C
:1048E0009100510051003A00AE03A0025004500460
:1048F00048044804480484028403000000000000C7
:10490000000000000000000038006C006C006C002B
:104910006C006C002C0098071C011A013301330154
:104920006301E300C308C6093C0700000000000063
:10493000000000000C001C00100010000800040023
:104940000000000000000000000000000000000067
:104950000000000000000000000000000000000057
:104960000000000000040002000180008000400000
:104970004000200020002000200020002000200017
:1049800040004000800080000001000200040000A0
:1049900000000000020004000800100010002000C9
:1049A0002000400040004000400040004000400027
:1049B0002000200010001000080004000200000089
:1049C0000000000000000000000000004000C000E7
:1049D0004000460C4E0FD001F0015E0F460C400027
:1049E0004000400000000000000000000000000047
:1049F0000000000000000000000000000000400077
:104A00004000400040004000FE0F400040004000D9
:104A10004000400000000000000000000000000016
:104A20000000000000000000000000000000000086
:104A30000000000000000000000000000000000076
:104A4000000000000C001C00100010000800040012
:104A50000000000000000000000000000000000056
:104A60000000000000000000FE0700000000000041
:104A70000000000000000000000000000000000036
:104A80000000000000000000000000000000000026
:104A90000000000000000000000000000000000016
:104AA000000000001C001C001C00000000000000B2
:104AB00000000000000400060002000300010001E5
:104AC00080008000400040006000200020001000B6
:104AD0001000080008000C0004000600020000009E
:104AE00000000000000000000000F00098010C032E
:104AF0000C03060606060606060606060606060653
:104B000006060C030C039801F000000000000000F2
:104B10000000000000000000000040007C00600079
:104B20006000600060006000600060006000600085
:104B30006000600060006000FC03000000000000F6
:104B400000000000000000000000F80084010203E3
:104B500006030603000300018001C000600020007E
:104B60001000080204020602FE030000000000001C
:104B7000000000000000000000007800C600860170
:104B8000860180018001C0007000800100010003E7
:104B90000003060306038601F80000000000000081
:104BA0000000000000000000000080018001C00142
:104BB000A001A00190018801880184018201FE0FFB
:104BC0008001800180018001E007000000000000FA
:104BD00000000000000000000000FC0304000400CE
:104BE000040004000400F4008C010403000300032B
:104BF0000603060382018401F800000000000000A3
:104C000000000000000000000000E00118030C0399
:104C10000C0004000600E60116030E060606060652
:104C2000060604060C021803F00000000000000055
:104C300000000000000000000000F8070C0604025D
:104C4000040100010001800080004000400040009D
:104C50006000600060006000600000000000000074
:104C600000000000000000000000F8010C03060630
:104C7000060606060C021C03F000C8010C0306061B
:104C80000606060606060C03F00100000000000000
:104C900000000000000000000000F0000C010C0308
:104CA000060206060606060606078C0678060006B5
:104CB000000300030C018C017800000000000000DC
:104CC00000000000000000000000000000000000E4
:104CD00000000000E000E000E00000000000000034
:104CE00000000000E000E000E00000000000000024
:104CF00000000000000000000000000000000000B4
:104D000000000000600060000000000000000000E3
:104D10000000000000006000600040002000200053
:104D200000000000000000000004000200018000FC
:104D300040002000100008000400080010002000BF
:104D4000400080000001000200040000000000009C
:104D50000000000000000000000000000000000053
:104D600000000000FE07000000000000FE07000039
:104D70000000000000000000000000000000000033
:104D800000000000000000000400080010002000E7
:104D900040008000000100020004000200018000C9
:104DA0004000200010000800040000000000000087
:104DB00000000000000000000000E0031806040CE2
:104DC000040C0C0C0C0C000780014000400040005B
:104DD00000000000E000E000E00000000000000033
:104DE0000000000000000000E00018030C02CC05E9
:104DF00064056605A605B604B604B604B604B60294
:104E0000E4010C040C021803F00000000000000094
:104E10000000000000000000000060006000500082
:104E2000D00090009000880088010801F801040378
:104E300004030402020202060F0F0000000000003B
:104E400000000000000000000000FE008C030C03C6
:104E50000C030C030C038C01FC000C030C020C066D
:104E60000C060C060C060C03FE01000000000000FE
:104E700000000000000000000000E00318030C0622
:104E80000C040404060006000600060006000600E6
:104E900006040C040C021803F000000000000000DF
:104EA000000000000000000000007F008C010C03E7
:104EB0000C030C060C060C060C060C060C060C0665
:104EC0000C060C030C038C017F00000000000000A6
:104ED00000000000000000000000FF0306030604BD
:104EE0000604060086008600FE0086008600860016
:104EF0000600060406040602FF030000000000008E
:104F000000000000000000000000FF03060306048C
:104F10000604060086008600FE00860086008600E5
:104F200006000600060006001F000000000000004A
:104F300000000000000000000000F00018010C025A
:104F40000C0204020600060006000600C60F060357
:104F500006030C030C031803F0000000000000001F
:104F6000000000000000000000000F0F060606060B
:104F70000606060606060606FE07060606060606D8
:104F800006060606060606060F0F000000000000D3
:104F900000000000000000000000FC036000600052
:104FA0006000600060006000600060006000600001
:104FB0006000600060006000FC0300000000000072
:104FC00000000000000000000000F807C000C00062
:104FD000C000C000C000C000C000C000C000C000D1
:104FE000C000C000C000C000C000C60066003C0099
:104FF00000000000000000000000CF038601C60092
:1050000046002600160036002E006E004600C60040
:1050100086008601060106038F07000000000000DD
:10502000000000000000000000001F000600060055
:105030000600060006000600060006000600060040
:105040000600060406040602FF030000000000003C
:105050000000000000000000000007078603860330
:105060008E038E034E034E034A035A035A033A0338
:1050700032033203320312038707000000000000EE
:10508000000000000000000000008E0F0C021C0257
:105090001C0234023402640264024402C402840228
:1050A00084038403040304031F02000000000000C3
:1050B00000000000000000000000F00098010C0358
:1050C0000C0206060606060606060606060606067E
:1050D00006060C020C039801F0000000000000001E
:1050E00000000000000000000000FF0006030606AC
:1050F00006060606060606068603FE0006000600ED
:1051000006000600060006001F0000000000000068
:1051100000000000000000000000F00098010C03F7
:105120000C0206060606060606060606060606061D
:1051300076064C02CC039801F000800700030000C3
:1051400000000000000000000000FF01060306064A
:105150000606060606060603FE004600C600860092
:1051600086010603060306060F0E0000000000007D
:1051700000000000000000000000F8020C0306021E
:10518000060206000E003C00F800E0038003000762
:105190000206020606060C03F001000000000000F3
:1051A00000000000000000000000FE07620461082B
:1051B00061086000600060006000600060006000E6
:1051C0006000600060006000F80100000000000066
:1051D000000000000000000000001E070C020C028E
:1051E0000C020C020C020C020C020C020C020C024F
:1051F0000C020C020C021801F0000000000000007C
:10520000000000000000000000000F07060204017B
:1052100004010C010C0188008800980098005000DF
:10522000500070003000200020000000000000004E
:1052300000000000000000000000F70E62044204BD
:105240004604460464026402E402E4029C029C01F7
:105250009801980188018800880000000000000083
:10526000000000000000000000009E070C01080183
:1052700018019000B0006000200060006000D000C5
:1052800090008801080104038E0700000000000060
:10529000000000000000000000000F0F06040402E0
:1052A0000C0208011801B800B00070006000600036
:1052B0006000600060006000F80100000000000075
:1052C00000000000000000000000FC070C020603C4
:1052D00002018001800040004000200020001000FA
:1052E000180008040C040402FE0300000000000083
:1052F00000000000E003200020002000200020002B
:10530000200020002000200020002000200020009D
:10531000200020002000200020002000E0030000EA
:105320000000000000000000040004000800080065
:105330001000100010002000200040004000C000BD
:105340008000800000010001000200020002000451
:10535000000000007C004000400040004000400091
:10536000400040004000400040004000400040003D
:105370004000400040004000400040007C00000031
:105380000000600090000801000000000000000024
:10539000000000000000000000000000000000000D
:1053A00000000000000000000000000000000000FD
:1053B00000000000000000000000000000000000ED
:1053C00000000000000000000000000000000000DD
:1053D0000000000000000000000000000000FF0FBF
:1053E0000000000018006000000000000000000045
:1053F00000000000000000000000000000000000AD
:10540000000000000000000000000000000000009C
:10541000000000000000000000000000000000008C
:1054200000000000F0010C030C030003E0031C0368
:105430000E03060306038E0B7C0E00000000000026
:10544000000000000000000008000E000C000C002E
:105450000C000C00CC013C031C060C060C060C06D0
:105460000C060C060C021C03E40100000000000006
:10547000000000000000000000000000000000002C
:1054800000000000F0008C018C018601060006007F
:10549000060006020C020C01F000000000000000F3
:1054A00000000000000000000002C0030003000331
:1054B0000003000378038C030C03060306030603B2
:1054C0000603060304038C077801000000000000B7
:1054D00000000000000000000000000000000000CC
:1054E00000000000E001180308020C060C06FC078F
:1054F0000C000C0018041802E0010000000000007D
:1055000000000000000000000000C003600630063C
:1055100030003000FE01300030003000300030003C
:105520003000300030003000FC01000000000000BE
:10553000000000000000000000000000000000006B
:1055400000000000F007D8068C018C018C01980146
:10555000F8000C00FC00CC03060306038E03F800E1
:10556000000000000000000008000E000C000C000D
:105570000C000C00EC011C030C030C030C030C03CB
:105580000C030C030C030C039E070000000000003A
:10559000000000000000000000006000600000004B
:1055A000000040007C00600060006000600060005F
:1055B0006000600060006000FC030000000000006C
:1055C00000000000000000000000C001C001000059
:1055D00000000001F0018001800180018001800154
:1055E000800180018001800180018001CC007C006D
:1055F000000000000000000008000E000C000C007D
:105600000C000C008C038C008C004C006C005C00C7
:105610008C008C010C010C039E07000000000000B0
:10562000000000000000000040007C0060006000FE
:10563000600060006000600060006000600060006A
:105640006000600060006000FC03000000000000DB
:10565000000000000000000000000000000000004A
:10566000000000003707EE06660666066606660658
:105670006606660666066606FF0F0000000000006C
:10568000000000000000000000000000000000001A
:1056900000000000EE011C030C030C030C030C03C0
:1056A0000C030C030C030C039E0700000000000019
:1056B00000000000000000000000000000000000EA
:1056C00000000000F00098010C030606060606061E
:1056D000060606060C030C03F000000000000000A4
:1056E00000000000000000000000000000000000BA
:1056F00000000000EE011C030C060C060C060C0654
:105700000C060C060C031C03EC010C000C003E0004
:105710000000000000000000000000000000000089
:105720000000000078028C030C0306030603060346
:105730000603060304038C03780300030003C00779
:105740000000000000000000000000000000000059
:10575000000000009F0358063806180018001800C3
:105760001800180018001800FF00000000000000DA
:105770000000000000000000000000000000000029
:1057800000000000F0031C030C020C023800F000C3
:10579000C003040304038C03FC01000000000000AC
:1057A00000000000000000000000000020002000B9
:1057B00030003000FE01300030003000300030009A
:1057C0003000300030023002E00100000000000034
:1057D00000000000000000000000000000000000C9
:1057E000000008028E030C030C030C030C030C03D3
:1057F0000C030C030C039C07780100000000000060
:105800000000000000000000000000000000000098
:10581000000000001E070C0208010801180190009A
:10582000B000B00060006000200000000000000038
:105830000000000000000000000000000000000068
:1058400000000000F70E6204460464026402EC02E9
:105850009C019801980198010800000000000000D8
:105860000000000000000000000000000000000038
:1058700000000000BC0718011001B00060006000CB
:10588000E0009000080108039E07000000000000EF
:105890000000000000000000000000000000000008
:1058A000000000009E070801080108019000900018
:1058B000B0006000600060002000200024001C0098
:1058C00000000000000000000000000000000000D8
:1058D00000000000FC018401C400440060002000BE
:1058E0003000180208020C03FC0100000000000058
:1058F0000000000000038000800080008000800025
:105900008000800080004000200040008000800077
:105910008000800080008000800080000003000084
:105920004000400040004000400040004000400077
:105930004000400040004000400040004000400067
:105940004000400040004000400040004000400057
:10595000000000000C0010001000100010001000EB
:105960001000100010002000400020001000100067
:105970001000100010001000100010000C000000BB
:1059800000001C002204C20480030000000000008C
:105990000000000000000000000000000000000007
:1059A00000000000000000000000000000000000F7
:1059B00000000000000000000000000000000000E7
:1059C00000000000000000000000000000000000D7
:1059D00000000000000000000000000000000000C7
:1059E00000000000000000000000000000000000B7
:1059F00000000000000000000000C001C001C00164
:105A0000C001C001C001C001800080008000800092
:105A10008000800080000000000000000000800185
:105A2000C003C0038001000000000000000000006F
:105A3000000000000000E01CE01CF01E700E3807A3
:105A400018030801840000000000000000000000AE
:105A50000000000000000000000000000000000046
:105A60000000000000000000000000000000000036
:105A700000000000000000000000000020102010C6
:105A8000201020102010FE7FFE7F10081008100844
:105A90001008100810081008FE7FFE7F0804080494
:105AA00008040804080400000000000000000000D2
:105AB000000000000000000000010001C0076019A4
:105AC000103118311839183938017001E001C0035C
:105AD0008007000F001D003900311C311C310C31D2
