:020000040000FA
:10000000701B20206D0100007101000073010000D1
:1000100000000000000000000000000000000000E0
:10002000000000000000000000000000750100005A
:1000300000000000000000007701000079010000CE
:100040007B010000C50A00007B0100007B0100006D
:100050007B0100007B0100007B0100007B010000B0
:10006000000000007B0100007B0100000000000098
:10007000000000007B0100007B0100007B0100000C
:100080007B0100007B0100007B0100007B01000080
:10009000051100007B0100000000000000000000CE
:1000A0007B0100007B010000000000000000000058
:1000B0007B010000000000007B0100007B010000CC
:1000C00000F002F800F042F812A030C808382418F6
:1000D0002D18AC4201D100F039F80FCCA246AB4646
:1000E0000CA730CF2D1B083F3F197C427F1E544484
:1000F0002D090426F441641EAC4201D300F026F819
:100100000126334200D0FB1A3343984754465D46DC
:10011000DFE70000BC120000CC120000000000006D
:100120007047000000000000002300240025002686
:10013000103A01D378C1FBD8520700D330C100D5A3
:100140000B6070471FB51FBD10B510BD00F02EF835
:100150001146FFF7F7FF01F0BDF800F046F803B4D1
:10016000FFF7F2FF03BC00F049F800000648004723
:10017000FEE7FEE7FEE7FEE7FEE7FEE70348044989
:10018000044A054B70470000C100000070032020A6
:10019000701B2020700B2020700B202070477047B0
:1001A0007047000000487047000020207546FFF7A8
:1001B000F9FFAE46050069465346C008C0008546B3
:1001C00018B020B5FFF7DAFF60BCB646002600275E
:1001D000C0C5C0C5C0C5C0C5C0C5C0C5C0C5C0C5F7
:1001E000403D490849008D46704710B50446C04659
:1001F000C0462046FFF7B3FF10BD0000014918209C
:10020000ABBEFEE7260002007047811E091F00BF3B
:10021000FCD2704784B00390029101920398006869
:100220000090009801998843009000980299019AE3
:10023000114008430399086004B0704782B00190F0
:100240000091009B0199094A88581843885002B0D0
:100250007047C04682B001900091009B0199034A0B
:1002600088581843885002B07047C04648100000B4
:1002700082B0019000910098019995225201885016
:1002800002B0704782B001900091009B0199034A2F
:1002900088581843885002B07047C04628100000A4
:1002A00082B00190009100980199024A885002B0F2
:1002B0007047C046D012000081B000900099012024
:1002C000C2024E48885001B07047C04682B00190CB
:1002D00000910198024940580099084002B07047C7
:1002E0003810000010B584B0069C03900291019272
:1002F000009302980199084300990843069908431E
:100300000349084303998900194A885004B010BD75
:100310008100040081B0009000988100144A81207F
:10032000885001B07047C04681B0009000988100AD
:100330000F4A0020885001B07047C04682B001903B
:10034000009100980349084301998900084A8850A0
:1003500002B070478000040082B0019000910098C4
:100360008021084301998900014A885002B07047F2
:100370000480424082B00190009101982721C90178
:1003800040580099084002B07047000081B00090CA
:100390000099304A3048885001B0704782B00190CF
:1003A0000091009B0199034A88581843885002B075
:1003B0007047C0469013000082B001900091009BEE
:1003C00001999D20420188581843885002B0704717
:1003D00081B000900099034A88580123184388503F
:1003E00001B070470411000081B000900099012015
:1003F000C202B748885001B07047C04601000026CD
:10040000B0B51122120283580C4C1C400B894D8848
:100410001D438B792B430A4D1D402B1983508B882C
:10042000CC791C43097821435D239B001940801837
:1004300042689A4389184160B0BDC04680CCFFFF36
:100440007F33000081B000900099024A0248885032
:1004500001B0704704080000030000B180B582B00D
:100460000190009101988E4940180099024AFFF7C7
:10047000D1FE02B080BDC046FF03000010B50122CE
:10048000120383180C785C604978815010BD00001D
:1004900080B584B000920A4601460098039102A9F3
:1004A0000A7001AA10700398044BC01809781278DA
:1004B00011433F22FFF7AEFE04B080BD0C110000D7
:1004C000F0B584B001242202344B196803929143A1
:1004D00019606E490D686D04FCD5457E25409E6906
:1004E000A64374199C612024045D03252C40DE6919
:1004F000AE433419DC611F4C256805262660466A28
:1005000037681F6276685E6207262E402660C469DF
:100510007F252D02DE69AE436406640C3419DC616C
:100520000768456882680092C6680269019242695C
:1005300002929A69104C14403A07120B2D03ADB287
:10054000AA183243009D2D072D0D1543019A15431E
:10055000029A1543007E2843084A02401019986108
:100560001868039A1043186008688005FCD504B029
:10057000F0BDC046001340408D00F0FF72FF0F0039
:1005800006490868012290430860704703490868DB
:1005900001221202904308607047C04608010B40D8
:1005A0003949086801221203104308607047C046A9
:1005B00081B001466846017000780249086001B0C8
:1005C0007047C04608030B4080B582B0014601A8C1
:1005D000018001880F2002022B48FFF71BFE02B0AA
:1005E00080BDC046F0B5124B1D46083D2E68012463
:1005F000A6432E600326360330401F68B7433818E1
:1006000018601868FF26B043C9B2401818602868FF
:100610002043286018682107002A06D00843186084
:100620001A480168C905FCD5F0BD88431860F0BDC3
:1006300010010B4080B582B0014601A8017001781D
:1006400002480322FFF7E6FD02B080BD00010B4027
:1006500080B582B0014601A8017001780A483022B5
:10066000FFF7D8FD02B080BD0749886007480268DF
:100670009202FCD5012212040B6813430B6001683F
:10068000C906FCD57047C04604010B4004020B406C
:1006900081B000900099024A0120885001B0704753
:1006A0000811000082B001900091009B0199C74A97
:1006B00088581843885002B07047C04681B00090F7
:1006C00000990120C202C748885001B07047C04657
:1006D0000100002681B00090009881214901405816
:1006E000C0B201B070470000F0B5AA4A82183B4B77
:1006F000C31808794E793A4D774C002E23D0202824
:1007000004D00526F601002803D003E0354E00286A
:1007100000D18826576F2F4037435767976F2F4078
:1007200037439767566B26405663966B2640966311
:100730000026566596658F26F6435F6837405F60F2
:100740009F6837409F608E79096820280BD0002869
:1007500019D1491E5160D76E2F4088210F43D766AB
:100760001746703719E0491E5160D16E29401D4F60
:100770003943D166116F2940394311670121490777
:10078000194D174609E049085160D76E2F400521E1
:10079000C9010F43D766174670373C682C400C439D
:1007A0003C60D16A4C4C2140D162116B21401163F5
:1007B0000021D16411658F21C943D46F0C40D467E7
:1007C0001C680C401C600643BD2030401168074B7C
:1007D0000B40C018801C1060F0BDC046841800009B
:1007E00024493E0001040000FFFFFFCF4000FFCF7F
:1007F000B0B54A68364BC250664A80180A78222A39
:1008000058D8930001A4E3589F46C046AB080000A7
:10081000B5080000AB080000B5080000B5080000EE
:10082000B5080000B5080000B5080000B5080000D4
:10083000B5080000B5080000B5080000B5080000C4
:10084000B5080000B5080000B508000099080000D0
:10085000B508000099080000B5080000B5080000C0
:10086000B5080000B5080000B5080000B508000094
:10087000B5080000B5080000B5080000B508000084
:10088000B5080000B5080000B50800009908000090
:10089000B50800009908000003231B0704689C4367
:1008A00001235B07E318036004E003231B070468CC
:1008B0009C4304600B69C360CB68064C1C40C36A50
:1008C000054D1D402B19C362097A11430160B0BD6B
:1008D00008180000777702008888FDFF81B000903B
:1008E0000099574A5748885001B0704782B001902C
:1008F00000910098019911221202885002B07047AD
:1009000010B507239B04194092008018024A8458AE
:100910009C436118815010BD3018000010B5029C36
:10092000A400001911431943014A815010BDC0466B
:100930005018000092008018014A81507047C0464C
:100940001018000010B50122120383180C789C6067
:100950004B7883508978014A815010BD0C110000FA
:1009600010B586B001930B4601460198059104A984
:100970000B8003AB1A8002AA10800598054C001961
:1009800009881B88194312881143034AFFF742FC68
:1009900006B010BD0418000080FF000081B0009078
:1009A000009911200202885801231843885001B091
:1009B0007047000082B001900091009B0199034AAA
:1009C00088581843885002B07047C046281000006D
:1009D00081B0009000990120C2020248885001B005
:1009E0007047C04601000026B0B51122120283589C
:1009F0000124A34383500B888C781C438B882343AA
:100A0000094C1C408358094D1D40631983508B7954
:100A1000CC791C43097A21437E231940801842680F
:100A20009A4351184160B0BD18670000E798FDFF78
:100A300081B000900099024A0248885001B0704786
:100A400004080000030000B180B584B00390029157
:100A5000019203980B49401802990B4AFFF7DAFB01
:100A600003980A49401801993F22FFF7D3FB0399E5
:100A7000074A8818895801221140FFF7CBFB04B0C0
:100A800080BDC04610110000FFFF000014110000DF
:100A90000411000010B50122120383180C789C6029
:100AA0004978815010BD80B582B0019000910198C5
:100AB00011210902401800990322D203FFF7AAFB73
:100AC00002B080BD80B584B0002003900290032066
:100AD00001049B48FFF7FAFB0390039801214A04A5
:100AE0001040090488421BD1FFE70120010494480B
:100AF000FFF740FC002809D1FFE7464948680A682B
:100B00000023521E98410A60486008E04149486845
:100B10000A680023521C58410A604860FFE721E040
:100B200003A88078C00700281BD0FFE701204104FC
:100B30008348FFF71FFC002809D1FFE735494868C3
:100B40000A680023521C58410A60486008E0314995
:100B500048680A680023521E98410A604860FFE70F
:100B6000FFE7FFE70320010475480190FFF772FBE0
:100B7000019805214903FFF7A9FB02900298012182
:100B8000CA031040490388421BD1FFE701204103FB
:100B90006B48FFF7EFFB002809D1FFE71E494868C3
:100BA0000A680023521E98410A60486008E01A490A
:100BB00048680A680023521C58410A604860FFE7F1
:100BC00021E002A84078800600281BD5FFE701201D
:100BD000C1035B48FFF7CEFB002809D1FFE70E49B0
:100BE00048680A680023521C58410A60486008E0BF
:100BF000094948680A680023521E98410A60486003
:100C0000FFE7FFE7FFE7052041034D48FFF722FB21
:100C100004B080BD480320205803202080B58EB04A
:100C20000920FFF781FB0A20FFF77EFB312003211B
:100C30000391FFF791FB01200690810540480C903D
:100C4000FFF72EFB0D200821FFF786FB3D4807909C
:100C50008021FFF725FB242005210A91FFF77CFB6B
:100C600006990798C903FFF71BFB00200490022197
:100C70000291FFF771FB02990698FFF75FFB03995A
:100C80001920FFF769FB03991820FFF765FB1A206D
:100C9000FFF740FB1B20FFF73DFB1E20FFF73AFB51
:100CA0003820FFF737FB2B20FFF734FB2120FFF71D
:100CB00031FB049A06980092C30405932A2011463A
:100CC000FFF710FB049A059B009220201146FFF7C6
:100CD00009FB049A059B00921F201146FFF702FBB7
:100CE000049A059B00921D200B901146FFF7FAFA1B
:100CF0000699079809030891FFF7BAFA0798089927
:100D0000FFF7CEFA0C9810490991FFF7B1FA09994B
:100D10000C98FFF7C5FA0C9811218906FFF73EFBE6
:100D20000A990C98FFF748FB0B990C9849030D9111
:100D3000FFF784FA0C980D99FFF7A4FA0EB080BD66
:100D400000200A4000000A40004C040480B584B032
:100D50001649E5480390FFF7F5FD03981449FFF79E
:100D6000C3FC039801220292510392028023FFF7F1
:100D7000F7FD0299039800910023019319461A4642
:100D8000FFF7CCFD0199029A0398FFF7B9FD029A8B
:100D900003987D21C900FFF7CDFD0398FFF778FC8C
:100DA00003980221FFF7A2FD04B080BD22130000CA
:100DB0002813000080B584B01649CC480390FFF793
:100DC000C1FD03981449FFF78FFC0398012202929A
:100DD000510392028023FFF7C3FD0299039800910B
:100DE0000023019319461A46FFF798FD0199029ACC
:100DF0000398FFF785FD0199029A0398FFF79AFD82
:100E00000398FFF745FC03980221FFF76FFD04B03C
:100E100080BDC046301300003413000080B584B09C
:100E20001449B3480390FFF78DFD03981249FFF76B
:100E30005BFC03980023029319461A46FFF790FDC6
:100E4000029B0398009319461A46FFF767FD029A22
:100E500003981146FFF754FD029A03986421FFF7A7
:100E600069FD0398FFF714FC03980121FFF73EFD8D
:100E700004B080BD3C1300004013000080B582B078
:100E80000B499F480190FFF7F9FA01980949FFF7CC
:100E9000B7FA01980021FFF7E1FA01981021022228
:100EA000FFF7F6FA0198FFF793FA02B080BDC0464B
:100EB000481300004A13000080B582B00020019062
:100EC000FFF776FB012000904002FFF77DFB0198C1
:100ED000FFF7B0FBFFF754FBFFF758FB019A032025
:100EE00000033221FFF77EFB0848FFF7E9FA1020E4
:100EF000FFF7AEFBFFF754FB0198FFF7B5FB009837
:100F0000019900F061F902B080BDC04654130000A1
:100F100080B582B0084977480190FFF713FD01982A
:100F20000649FFF765FC01980121FFF7BBFB01981B
:100F3000FFF7AEFB02B080BD7C1300008013000001
:100F400080B582B006496C480190FFF7FBFC019820
:100F50000449FFF74DFC0198FFF79AFB02B080BDF2
:100F6000941300009813000080B582B00A496B48C2
:100F70000190FFF7E7FC01980849FFF739FC019859
:100F80000121FFF78FFB1420032100F01DF90198C8
:100F9000FFF77EFB02B080BDAC130000B013000071
:100FA00080B582B00D4955480190FFF773FD019857
:100FB0000B49FFF719FD01980021FFF774FD019817
:100FC00002210B22FFF740FD019801218902FFF762
:100FD000F1FC0198FFF7E2FC02B080BDC4130000F1
:100FE000C613000080B500F02DF8FFF717FEFFF7DD
:100FF00063FFFFF7ABFEFFF7DDFEFFF70FFFFFF725
:1010000087FFFFF79DFFFFF7AFFFFFF7C9FFFFF770
:1010100035FF0749B82200208854064988540649FC
:101020009C2288540549885405492422885480BD4F
:10103000600020201C01202000022020A00220208F
:10104000D801202080B58AB025480090FFF79EF98E
:1010500024480190FFF79AF923480290FFF73EFCDD
:1010600022480390FFF73AFC21480490FFF736FC32
:1010700020480590FFF732FC1F480690FFF72EFC32
:1010800026480790FFF72AFC1C480890FFF7D0FC81
:101090001B480990FFF7D6F90098FFF70DF9019862
:1010A000FFF70AF90298FFF709FB0398FFF706FB21
:1010B0000498FFF703FB0598FFF700FB0698FFF77E
:1010C000FDFA0798FFF7FAFA0898FFF781FC0998EC
:1010D000FFF78AF91020FFF798F80AB080BDC046E4
:1010E00000000A4000200A4000000940000086403D
:1010F000002086400040084000808640008010406C
:1011000000A0464080B50548FFF7E4FA012803D166
:10111000FFE700F0BBF8FFE780BDC04600A08640B7
:1011200081B001466846017000214056002809D46C
:10113000FFE7684601781F200140012088400C49E4
:101140000860FFE701B0704781B001466846017052
:1011500000214056002809D4FFE7684601781F2087
:1011600001400120884002490860FFE701B0704754
:1011700080E200E081B001466846017000214056DF
:10118000002809D4FFE7684601781F2001400120AC
:1011900088400C490860FFE701B0704781B0014604
:1011A0006846017000214056002809D4FFE76846D0
:1011B00001781F2001400120884002490860FFE7B4
:1011C00001B0704700E100E070B582B0024601A8AE
:1011D0000270009100214056002816D4FFE7002439
:1011E00001A908570322D3431840174A80580957CA
:1011F0008C07E50EFF24AC40A043009CA401E4B2A0
:10120000AC402043194088501AE001A908780F2407
:10121000204008380322D34318400A4A805800254A
:1012200049578D07EE0EFF25B540A843009DAD013F
:10123000EDB2B54028432140083919408850FFE7F6
:1012400002B070BD1CED00E000E400E082B001904F
:1012500000200090FFE70098019A7D214901514349
:10126000884206D2FFE700BFFFE70098401C0090CD
:10127000F1E702B0704780B582B001200190FFF71E
:1012800063FF0198FFF78AFF02B080BD0D494868EF
:101290000A688868801888608868C00F0873002012
:1012A000486008600A494A680B688A68D2188A60F0
:1012B0008A68D20F0A7348600860704701488068E6
:1012C0007047C04648032020014880687047C046E8
:1012D0005803202080B582B000200190FFF782FEE5
:1012E000FFF7C9FF00F012F8FFE7FFF7E7FF054936
:1012F0000860FFF7E9FF044908606420FFF7A6FFD4
:10130000F3E7C046400320206803202080B582B068
:1013100014200190FFF704FF0198FFF72BFF02B0A4
:1013200080BD080700000000E80300000000010085
:101330000807040064000000000101000807040021
:10134000640000000000010008000400000000002C
:101350000710000001000000000000000000000075
:10136000000000000000000010000000000100006C
:1013700003000000000000003400C44108076300BF
:10138000020000004FC30000010000000000000048
:101390000000000008000000000000000000000045
:1013A0000000000000000000000000000807090025
:1013B000020000001F4E00000100000000000000BD
:1013C00000000000040000001800000000300000D1
:1013D000E013000000002020701B00002801000026
:04000005000000C136
:00000001FF
