:020000040000FA
:10000000001A20206D010000710100007301000042
:1000100000000000000000000000000000000000E0
:10002000000000000000000000000000750100005A
:1000300000000000000000007701000079010000CE
:100040007B0100007B0100007B0100007B010000C0
:100050007B0100007B0100007B0100007B010000B0
:10006000000000007B0100007B0100000000000098
:10007000000000007B0100007B0100007B0100000C
:100080007B0100007B0100007B0100007B01000080
:100090007B0100007B010000000000000000000068
:1000A0007B0100007B010000000000000000000058
:1000B0007B010000000000007B0100007B010000CC
:1000C00000F002F800F042F812A030C808382418F6
:1000D0002D18AC4201D100F039F80FCCA246AB4646
:1000E0000CA730CF2D1B083F3F197C427F1E544484
:1000F0002D090426F441641EAC4201D300F026F819
:100100000126334200D0FB1A3343984754465D46DC
:10011000DFE700006C0E00007C0E00000000000015
:100120007047000000000000002300240025002686
:10013000103A01D378C1FBD8520700D330C100D5A3
:100140000B6070471FB51FBD10B510BD00F02EF835
:100150001146FFF7F7FF00F09AFE00F046F803B4EF
:10016000FFF7F2FF03BC00F049F800000648004723
:10017000FEE7FEE7FEE7FEE7FEE7FEE70348044989
:10018000044A054B70470000C10000000002202017
:10019000001A2020000A2020000A20207047704703
:1001A0007047000000487047000020207546FFF7A8
:1001B000F9FFAE46050069465346C008C0008546B3
:1001C00018B020B5FFF7DAFF60BCB646002600275E
:1001D000C0C5C0C5C0C5C0C5C0C5C0C5C0C5C0C5F7
:1001E000403D490849008D46704710B50446C04659
:1001F000C0462046FFF7B3FF10BD0000014918209C
:10020000ABBEFEE7260002007047811E091F00BF3B
:10021000FCD2704784B00390029101920398006869
:100220000090009801998843009000980299019AE3
:10023000114008430399086004B0704782B00190F0
:1002400000910098019995225201885002B07047A0
:1002500082B0019000910098019995225201885036
:1002600002B0704782B00190009100980199024A53
:10027000885002B07047C046D012000081B0009094
:1002800000990120C202E348885001B07047C0467F
:1002900081B0009000988100144A8120885001B0FC
:1002A0007047C04681B00090009881000F4A00203E
:1002B000885001B07047C04682B00190009100980C
:1002C0000349084301998900084A885002B07047E1
:1002D0008000040082B001900091009880210843C2
:1002E00001998900014A885002B070470480424059
:1002F00081B000900099284A2848885001B0704782
:1003000082B00190009100980199024A885002B091
:100310007047C0469012000081B000900099034AD7
:10032000885801231843885001B070470411000019
:1003300081B0009000990120C202B648885001B0F7
:100340007047C046B0B51122120283580C4C1C40B5
:100350000B894D881D438B792B430A4D1D402B196A
:1003600083508B88CC791C43097821435D239B0003
:100370001940801842689A4389184160B0BDC04650
:1003800080CCFFFF7F33000081B000900099024ACB
:100390000248885001B0704704080000030000B113
:1003A00080B582B00190009101988E494018009963
:1003B000024AFFF72FFF02B080BDC046FF030000D6
:1003C00010B50122120383180C785C6049788150C3
:1003D00010BD000080B584B000920A460146009826
:1003E000039102A90A7001AA10700398044BC01867
:1003F0000978127811433F22FFF70CFF04B080BD4B
:100400000C110000F0B584B001242202344B1968AD
:100410000392914319606E490D686D04FCD5457EC9
:1004200025409E69A64374199C612024045D032520
:100430002C40DE69AE433419DC611F4C256805266B
:100440002660466A37681F6276685E6207262E401D
:100450002660C4697F252D02DE69AE436406640C04
:100460003419DC610768456882680092C6680269D1
:100470000192426902929A69104C14403A07120B99
:100480002D03ADB2AA183243009D2D072D0D154343
:10049000019A1543029A1543007E2843084A0240F8
:1004A000101998611868039A10431860086880054D
:1004B000FCD504B0F0BDC046001340408D00F0FFF5
:1004C00072FF0F00064908680122904308607047D8
:1004D0000349086801221202904308607047C04631
:1004E00008010B40394908680122120310430860D3
:1004F0007047C04681B001466846017000780249E5
:10050000086001B07047C04608030B4080B582B058
:10051000014601A8018001880F2002022B48FFF745
:1005200079FE02B080BDC046F0B5124B1D46083DB5
:100530002E680124A6432E600326360330401F6830
:10054000B743381818601868FF26B043C9B240187E
:10055000186028682043286018682107002A06D000
:10056000084318601A480168C905FCD5F0BD8843E6
:100570001860F0BD10010B4080B582B0014601A8A3
:100580000170017802480322FFF744FE02B080BDEB
:1005900000010B4080B582B0014601A801700178CE
:1005A0000A483022FFF736FE02B080BD0749886056
:1005B000074802689202FCD5012212040B6813431B
:1005C0000B600168C906FCD57047C04604010B40AA
:1005D00004020B4081B000900099024A012088502B
:1005E00001B070470811000082B001900091009B9B
:1005F0000199C24A88581843885002B07047C046D3
:1006000081B0009000990120C202C248885001B018
:100610007047C04601000026F0B5AA4A82183B4B3D
:10062000C31808794E793A4D774C002E23D02028F4
:1006300004D00526F601002803D003E0354E00283B
:1006400000D18826576F2F4037435767976F2F4049
:1006500037439767566B26405663966B26409663E2
:100660000026566596658F26F6435F6837405F60C3
:100670009F6837409F608E79096820280BD000283A
:1006800019D1491E5160D76E2F4088210F43D7667C
:100690001746703719E0491E5160D16E29401D4F31
:1006A0003943D166116F2940394311670121490748
:1006B000194D174609E049085160D76E2F400521B2
:1006C000C9010F43D766174670373C682C400C436E
:1006D0003C60D16A4C4C2140D162116B21401163C6
:1006E0000021D16411658F21C943D46F0C40D467B8
:1006F0001C680C401C600643BD2030401168074B4D
:100700000B40C018801C1060F0BDC046841800006B
:1007100024493E0001040000FFFFFFCF4000FFCF4F
:10072000B0B54A68364BC250664A80180A78222A09
:1007300058D8930001A4E3589F46C046DB07000049
:10074000E5070000DB070000E5070000E507000003
:10075000E5070000E5070000E5070000E5070000E9
:10076000E5070000E5070000E5070000E5070000D9
:10077000E5070000E5070000E5070000C9070000E5
:10078000E5070000C9070000E5070000E5070000D5
:10079000E5070000E5070000E5070000E5070000A9
:1007A000E5070000E5070000E5070000E507000099
:1007B000E5070000E5070000E5070000C9070000A5
:1007C000E5070000C907000003231B0704689C43DA
:1007D00001235B07E318036004E003231B0704689D
:1007E0009C4304600B69C360CB68064C1C40C36A21
:1007F000054D1D402B19C362097A11430160B0BD3C
:1008000008180000777702008888FDFF81B000900B
:100810000099574A5748885001B0704782B00190FC
:1008200000910098019911221202885002B070477D
:1008300010B507239B04194092008018024A84587F
:100840009C436118815010BD3018000010B5029C07
:10085000A400001911431943014A815010BDC0463C
:100860005018000092008018014A81507047C0461D
:100870001018000010B50122120383180C789C6038
:100880004B7883508978014A815010BD0C110000CB
:1008900010B586B001930B4601460198059104A955
:1008A0000B8003AB1A8002AA10800598054C001932
:1008B00009881B88194312881143034AFFF7AAFCD1
:1008C00006B010BD0418000080FF000081B0009049
:1008D000009911200202885801231843885001B062
:1008E0007047000082B001900091009B0199034A7B
:1008F00088581843885002B07047C046281000003E
:1009000081B0009000990120C2020248885001B0D5
:100910007047C04601000026B0B51122120283586C
:100920000124A34383500B888C781C438B8823437A
:10093000094C1C408358094D1D40631983508B7925
:10094000CC791C43097A21437E23194080184268E0
:100950009A4351184160B0BD18670000E798FDFF49
:1009600081B000900099024A0248885001B0704757
:1009700004080000030000B180B584B00390029128
:10098000019203980B49401802990B4AFFF742FC69
:1009900003980A49401801993F22FFF73BFC03994D
:1009A000074A8818895801221140FFF733FC04B028
:1009B00080BDC04610110000FFFF000014110000B0
:1009C0000411000010B50122120383180C789C60FA
:1009D0004978815010BD80B582B001900091019896
:1009E00011210902401800990322D203FFF712FCDB
:1009F00002B080BD80B584B0024603A8027002AA8E
:100A0000117002994942117000214056012810DBF3
:100A1000FFE70120019041034948FFF719FC019AC3
:100A2000002103A841566420411A7A48FFF71AFFB3
:100A30000EE00120009041034148FFF761FC009A5D
:100A4000002103A8405641427248FFF70BFFFFE721
:100A5000002102A8405601280EDBFFE70120C10358
:100A60003748FFF7F5FB002202A881566420411A9F
:100A70008148FFF7F7FE0CE00120C103F248FFF7C1
:100A80003FFC002202A880564142F248FFF7EAFEEE
:100A9000FFE704B080BDC04680B586B00920FFF7EF
:100AA00001FC0A20FFF7FEFB312003210391FFF731
:100AB00011FC012001908105E3480490FFF7D2FB6F
:100AC0000D200821FFF706FCDE4800908021FFF78B
:100AD000C9FB24200521FFF7FDFB00980199C903FC
:100AE000FFF7C0FB002002210291FFF7F3FB019802
:100AF0000299FFF7E1FB03991920FFF7EBFB03993C
:100B00001820FFF7E7FB1A20FFF7C2FB1B20FFF7B7
:100B1000BFFB1E20FFF7BCFB3820FFF7B9FB1D20F1
:100B2000FFF7B6FB1F20FFF7B3FB049805490591BB
:100B3000FFF784FB04980599FFF794FB06B080BD8E
:100B400000200A4000EC000480B584B01649BF487C
:100B50000390FFF78FFE03981449FFF75DFD03989C
:100B600001220292510392028023FFF791FE029923
:100B7000039800910023019319461A46FFF766FE79
:100B80000199029A0398FFF753FE029A03987D2178
:100B9000C900FFF767FE0398FFF71CFD03980221C9
:100BA000FFF73CFE04B080BDFE0E0000040F000005
:100BB00080B584B01649A6480390FFF75BFE039802
:100BC0001549FFF729FD0398012202925103920271
:100BD0008023FFF75DFE02990398009100230193A3
:100BE00019461A46FFF732FE0199029A0398FFF759
:100BF0001FFE029A03986421FFF734FE0398FFF763
:100C0000E9FC03980221FFF709FE04B080BDC0464D
:100C10000C0F000000008640100F000080B584B06B
:100C200014498C480390FFF725FE03981349FFF7FA
:100C3000F3FC03980023029319461A46FFF728FE97
:100C4000029B0398009319461A46FFF7FFFD029A8C
:100C500003981146FFF7ECFD029A03986421FFF711
:100C600001FE0398FFF7B6FC03980121FFF7D6FDBC
:100C700004B080BD180F0000002086401C0F00004B
:100C800080B582B00B4976480190FFF799FB019837
:100C90000949FFF757FB01980021FFF781FB0198F5
:100CA00010210222FFF796FB0198FFF735FB02B0F7
:100CB00080BDC046240F0000260F000080B582B022
:100CC00000200190FFF716FC01204002FFF71EFCF8
:100CD0000198FFF751FCFFF7F5FBFFF7F9FB019ACD
:100CE000032000033221FFF71FFC0648FFF78AFBB1
:100CF0001020FFF74FFCFFF7F5FB0198FFF756FCBC
:100D000002B080BD300F000080B582B00849524863
:100D10000190FFF7AFFD01980649FFF701FD01982B
:100D20000121FFF761FC0198FFF754FC02B080BD80
:100D3000580F00005C0F000080B582B00D49474895
:100D40000190FFF73FFE01980B49FFF7E5FD019881
:100D50000021FFF740FE019802210B22FFF70CFE55
:100D6000019801218902FFF7BDFD0198FFF7AEFD53
:100D700002B080BD700F0000720F000080B500F05F
:100D800021F8FFF789FEFFF799FFFFF7DDFEFFF778
:100D90000FFFFFF743FFFFF7B7FFFFF7CDFFFFF7A9
:100DA0006FFF0549B822002088540449885404493B
:100DB0002422885480BDC046600020201C012020D1
:100DC000D801202080B588B01E480090FFF790FA27
:100DD0001D480190FFF78CFA1C480290FFF716FDA2
:100DE0001B480390FFF712FD1A480490FFF70EFD11
:100DF00019480590FFF70AFD18480690FFF7B0FD67
:100E000017480790FFF7C0FA0098FFF737FA0198E4
:100E1000FFF734FA0298FFF7F3FB0398FFF7F0FBB4
:100E20000498FFF7EDFB0598FFF7EAFB0698FFF73C
:100E300067FD0798FFF77CFA1020FFF7E6F908B086
:100E400080BDC04600000A4000200A400000094062
:100E5000000086400020864000400840008010408E
:100E600000A0464082B0019000200090FFE700986B
:100E7000019A7D2149015143884206D2FFE700BF14
:100E8000FFE70098401C0090F1E702B0704780B582
:100E900084B000200390FFF771FFFFE70A20009065
:100EA00000210191FFF7A6FD7D20C0000290FFF711
:100EB000D9FF01991420FFF79DFD0298FFF7D2FF9B
:100EC00000980199FFF796FD0298FFF7CBFF019973
:100ED0000920C043FFF78EFD0298FFF7C3FF019979
:100EE0003120C043FFF786FD0298FFF7BBFF019951
:100EF0000846FFF77FFD0298FFF7B4FFCEE708072B
:100F000000000000E80300000000010008070400E2
:100F100064000000000101000807040064000000F4
:100F2000000001000800040000000000071000009D
:100F300001000000000000000000000000000000B0
:100F4000000000001000000000010000030000008D
:100F5000000000003400C4410807630002000000E4
:100F60004FC300000100000000000000000000006E
:100F70000400000018000000003000000000000025
:100F8000900F000000002020001A0000280100003F
:04000005000000C136
:00000001FF
