:020000040000FA
:10000000881B2020890200008D0200008F02000062
:1000100000000000000000000000000000000000E0
:10002000000000000000000000000000910200003D
:100030000000000000000000930200009502000094
:10004000970200003128000097020000970200008C
:10005000970200009702000097020000970200003C
:10006000000000009702000097020000000000005E
:1000700000000000970200009702000097020000B5
:10008000970200009702000097020000970200000C
:100090005D34000097020000000000000000000036
:1000A000970200009702000000000000000000001E
:1000B0009702000000000000970200009702000075
:1000C00000F002F800F0D1F812A030C80838241867
:1000D0002D18AC4201D100F0C8F80FCCA246AB46B7
:1000E0000CA730CF2D1B083F3F197C427F1E544484
:1000F0002D090426F441641EAC4201D300F0B5F88A
:100100000126334200D0FB1A3343984754465D46DC
:10011000DFE70000FC7200001C730000000000001C
:10012000103A02D378C878C1FAD8520701D330C840
:1001300030C101D504680C60704700000000000069
:100140007047000000000000002300240025002666
:10015000103A01D378C1FBD8520700D330C100D583
:100160000B60704710B56E2902D100F0A5FB10BDE1
:10017000702902D100F0DFFC10BD662902D103F026
:100180003DFE10BD652902D103F038FE10BD672980
:1001900002D103F033FE10BD612902D103F036FE17
:1001A00010BD03681B0A01D380231943692902D1BA
:1001B00000F04CFB10BD642902D100F047FB10BDDC
:1001C000752902D100F042FB10BD6F2902D100F069
:1001D0005DFC10BD782902D100F09AFC10BDE92920
:1001E00002D100F0F9FB10BDE42902D100F0F4FBCC
:1001F00010BDF52902D100F0EFFB10BDEF2902D1AF
:1002000000F050FC10BDF82902D100F08FFC10BDA9
:100210000368DB0901D380231943632902D101F06C
:1002200072F910BD732902D101F075F910BDE329EF
:1002300002D101F07FF910BDF32902D101F082F95A
:1002400010BD002010BD1FB501F014FA04000020FD
:10025000002103F039FC401C60600020002103F005
:100260001DFCE0601FBD10B510BD01F0DBF91146AB
:10027000FFF7E9FF03F0F2FA01F070FD03B4FFF7B6
:10028000F2FF03BC01F01AFE06480047FEE7FEE756
:10029000FEE7FEE7FEE7FEE703480449044A054B94
:1002A00070470000C100000088032020881B202028
:1002B000880B2020880B20200FB41CB5084B06AA01
:1002C0007B4469460090059800F00FFB044600202F
:1002D000694600F01DFB20461CBC08BC04B0184752
:1002E0004D06000030B5441C03E00178401C002995
:1002F0000DD08107F9D10B4BDD0104C8D11A914310
:100300002940FAD0001B0A0603D0C01E30BD001BD6
:1003100030BD0A0401D0801E30BD0902FCD0401E51
:1003200030BD000001010101002203098B4273D39B
:10033000030A8B4258D3030B8B423CD3030C8B42F2
:1003400021D312E003460B437FD4002243088B42A3
:1003500074D303098B425FD3030A8B4244D3030B4C
:100360008B4228D3030C8B420DD30902FF2212BA11
:10037000030C8B4202D31212090265D0030B8B428D
:1003800019D300E0090AC30B8B4201D3CB03C01A77
:100390005241830B8B4201D38B03C01A5241430B52
:1003A0008B4201D34B03C01A5241030B8B4201D342
:1003B0000B03C01A5241C30A8B4201D3CB02C01AAD
:1003C0005241830A8B4201D38B02C01A5241430A25
:1003D0008B4201D34B02C01A5241030A8B4201D314
:1003E0000B02C01A5241CDD2C3098B4201D3CB01BB
:1003F000C01A524183098B4201D38B01C01A52416A
:1004000043098B4201D34B01C01A524103098B426D
:1004100001D30B01C01A5241C3088B4201D3CB0058
:10042000C01A524183088B4201D38B00C01A52413B
:1004300043088B4201D34B00C01A5241411A00D2EB
:1004400001465241104670475DE0CA0F00D0494254
:10045000031000D3404253409C46002203098B42C4
:100460002DD3030A8B4212D38901FC2212BA030A4C
:100470008B420CD3890192118B4208D389019211CE
:100480008B4204D389013AD0921100E08909C30953
:100490008B4201D3CB01C01A524183098B4201D355
:1004A0008B01C01A524143098B4201D34B01C01A40
:1004B000524103098B4201D30B01C01A5241C308B8
:1004C0008B4201D3CB00C01A524183088B4201D327
:1004D0008B00C01A5241D9D243088B4201D34B0042
:1004E000C01A5241411A00D2014652411046634699
:1004F0005B1001D34042002B00D549427047634650
:100500005B1000D3404201B50449002802DC491CBD
:10051000084000E00846C046C04602BDFFFFFF7F1E
:1005200070477047704700000121C9050123411839
:1005300042001B06D3185B0E0AD0C1100722D20658
:10054000891840075242D14201D55200891870479C
:10055000090208D50146002A03D0C10FC9070020AF
:10056000704710467047420202D00020024970478F
:10057000072109050143F4E70000F87FF0B5FF25E6
:100580002D04C609C209FF2704462E400137CB09B6
:100590003E4348402A402B400746002A6BD0002BA0
:1005A00069D0AA4267D0AB4265D0002800DA324653
:1005B0000125ED0529432C4309022002090AD21A1C
:1005C0004B0C7F24E31A434C000A7C44E35C7D24FB
:1005D0002404121914145B00A218884201D3521C7F
:1005E00000E0400049420C465C4324115C43DB01BF
:1005F0006415E318040A5C43C502200D0C4644430D
:100600006419250A5D432303EC0C0D466543000382
:100610000019EB184C42A34201D35B18401CD405CF
:100620002018002B07D05B00C91804D3401C0029F8
:1006300001D1400840003F2189048A4209D3002AA1
:1006400008DC1106090F04D0032149074018C00F28
:10065000C007F0BD01224100120689187F22520610
:100660009142F6D205214907C84201D59010F0BD4C
:10067000FF20C005F0BD002F00DA32461648AA421E
:1006800007D2AB4205D21902090E17D0F80FC007E6
:10069000F0BDFF2563002D06AB42F9D84900A94201
:1006A000F6D8AB4201D1A942F2D0A94201D1002132
:1006B00001E061004908D0050843F0BD1102090EB0
:1006C000FBD0FF200243D005F0BD0A46014610468C
:1006D00054E700004E3800000000C07F10B501460E
:1006E0009E240002CA15A307002A02D01843002A3C
:1006F00004DBA21A002A0CDDD04010BD1206120E37
:1007000001D140004008A21A03D4D0404042002842
:10071000F3DDFF2248001206904201D9002010BDEF
:10072000C817C043584010BD1F22030C02D10F222E
:1007300000041CD0030E01D10002083A030F01D1BE
:100740000001121F830F01D18000921E002801DBDF
:100750004000521ED2055118021251181922904021
:1007600004D3491C002801D14908490008467047B4
:10077000C10FC90700D04042012292071143D3E7BD
:1007800001218907D0E770B5044685690068C10674
:1007900001D5302600E02026C00707D070BD626872
:1007A0003046A1689047206A401C20626D1EF6D535
:1007B00070BD70B5044685690078C00707D170BD6B
:1007C0006268A16820209047206A401C20626D1E4C
:1007D000F6D570BD09684A0501D540B27047C90514
:1007E000FCD500B2704709684A0501D5C0B2704710
:1007F000C905FCD580B2704770B50C460546012A84
:1008000005D02878800600D5EA69002302E001239C
:1008100005E05B1C934202D2E05C0028F9D1A86994
:10082000E618C01AA861286AC01828622846FFF78F
:10083000AAFF04E06A682078A968641C9047B44263
:10084000F8D32846FFF7B5FF70BD0000F7B50025C7
:1008500075291068009914A611D0FFF7BBFF002876
:1008600002DA404211A608E0009909688A0701D51A
:100870000FA602E0490704D50EA6012501E0FFF707
:10088000B2FF009F0024243704E000F080FE3031E6
:100890003955641C0028F8D12B4632462146009871
:1008A00000F057FAFEBD0000000000002D0000001F
:1008B0002B0000002000000011680268006A530548
:1008C00001D5087009E0D30501D5088005E01306BD
:1008D00002D5C21705C100E0086001207047000082
:1008E00001694A1C02610878704700B58FB0029117
:1008F0000021059105490193794403911146049023
:10090000684600F025F90FB000BD0000E5FFFFFFCD
:100910000A681070521C0A6070470000F7B5044660
:10092000154686B02B487844002703C83E46009001
:10093000019111E007986A467100415A02A800F03F
:1009400005FE411C07D02178890603D5E2693918D4
:1009500091420ED83F18761C2078800602D5E069B7
:10096000B84206DDAE42E5DB07987100405A002828
:10097000E0D1A069C01BA0612046FFF704FF154825
:1009800078445A3803C800900020019116E04100D5
:100990006A460798415A02A800F0D8FD0590401C0D
:1009A0000AD0002505E0626802A8A168405D904772
:1009B0006D1C05988542F6D30498401CB042049003
:1009C000E5DB206AC01920622046FFF7F2FE09B07D
:1009D000F0BD000032350000F7B5D21D0025D20869
:1009E00015A6D200F52905CA11D0002A05DA002182
:1009F0004042914111A60A4608E0009909688B0718
:100A000001D50FA602E0490701D50EA60125114622
:100A1000009F0024243704E000F05EF930323A559C
:100A2000641C02460A43F7D12B4632462146009801
:100A300000F08FF9FEBD0000000000002D00000056
:100A40002B0000002000000070B504460021243473
:100A500008E05507D2086D0F303565545D072A430D
:100A6000DB08491C15461D43F3D10468002310A27E
:100A7000250708D520252C400C4304D0C469012348
:100A80000CA2641EC46100F064F970BD10B5044688
:100A900021461068FFF7A7FE002302462046FFF715
:100AA000D3FF10BDD21DD108C9000CC9CCE700008E
:100AB0000000000030000000F8B50F46018809056D
:100AC00002D5224C7C4402E0204C7C440E34054686
:100AD0000021243508E016071209360FA65D6E5472
:100AE0001E0732431B09491C16461E43F3D12246FA
:100AF00004780023240705D5702F06D0002901D0E3
:100B00000223113200F025F9F8BD01231032F9E774
:100B100070B504460D4621461068FFF764FE0023B9
:100B2000024629462046FFF7C7FF70BDD21DD308F5
:100B3000DB000CCBC0E730B40368202412682343E9
:100B400003600823C36130BC0023B5E79C33000079
:100B5000F3B50446002081B020622046E168884752
:100B6000002872D0252802D06268A168ABE0594FF6
:100B700000267F442046E16888472028054608DB98
:100B8000312D06D2781920380078002801D006438C
:100B9000F0E7B00701D5042086430020E061074656
:100BA000A0612A2D0AD0284602F071FF002827D024
:100BB000B8000019303D0090856119E00298BA0034
:100BC000121902C8916102902046E1688847012FFE
:100BD000054617D1E06900281FDA202086431CE073
:100BE00000980A218069484300994019303888618B
:100BF0002046E1688847054602F049FF0028EFD10A
:100C0000012F0AD02E2D08D12046E16888470546DD
:100C1000202006437F1C022FC3DBA069002803DAD3
:100C20004042A06101200643F00701D01020864316
:100C30006C2D0BD0682D09D04C2D3CD06A2D38D0AE
:100C4000742D38D07A2D36D016E040E0E1682F467A
:100C500020468847B842054609D16C2F29D001208B
:100C60008002E168064320468847054604E06C2F71
:100C70001DD0FF2001300643002D28D028464138E2
:100C8000192803D80120C0020643203520462660DB
:100C90002946029A1646FFF765FA002810D0012867
:100CA0000BD0F61DF008C0000830029055E7402038
:100CB000E1E78020D5E70020D3E7361D02964CE718
:100CC00062682846A1689047206A401C44E7206A71
:100CD000FEBD0000163300000B4670B502468907C2
:100CE0008008084319469D08141AA94125090807D8
:100CF000054308092C194841250A01060D43010A3C
:100D00002C194141200C0D0428430D0C00194D41B4
:100D1000002140194D41C00869070843E908840FC4
:100D20008D002543840024184D4124196D41121B68
:100D3000AB4107E00925ED432C1152196341002412
:100D4000401C61411C460A250026551BB441F1D2C6
:100D500070BDFFB504460D4681B024300090216877
:100D6000880604D51022E0699143216000E001204B
:100D7000A84201DD471B00E000270498A1697A1909
:100D80001018081AA0612078C00602D42046FFF788
:100D9000FAFC002608E003986268A168805D90472D
:100DA000206A401C761C206204988642F3DB20787F
:100DB000C0060AD52046FFF7E6FC06E06268A16897
:100DC00030209047206A401C206238467F1E002851
:100DD000F4DC07E000986268A168405D9047206AF3
:100DE000401C206228466D1E0028F3DC2046FFF7D9
:100DF000E0FC2078000602D5022005B0F0BD0120FD
:100E0000FBE70000FFB50C461E468FB003CA0890F2
:100E100009914F007D0D00D16D1E00210846002074
:100E2000C0460321099A89050840002A03DA820096
:100E3000801840080840800D01280A9002DD00203B
:100E4000C0430A90089807430DD0F048F04928188D
:100E500048430714189800281DD07542291E1DDD2F
:100E60000A9842421BE01898012802D00020302145
:100E700004E00020F24305E02154401CB042FBDBBB
:100E800030460022189B002121540F998B600A6084
:100E9000486013B0F0BDBD1B6D1CDFE70A9A002946
:100EA00000DA69420BA800F02DFC0BAB07CB03ABBB
:100EB00007C30899099800F091FC6B4607C30146E7
:100EC000D4480918002D00910BDDD24903980A9AE5
:100ED00049424018002303A90390684600F0EEFE43
:100EE00008E003990A9A0023081803A903906846AA
:100EF00000F08EFE6B4607C30004000C03D00020F8
:100F0000C043410800E01046189A002A03D000228E
:100F1000009215461EE0751E05D4FFF7DDFE303247
:100F200062556D1EF9D501220843079602D00022B2
:100F30007F1C04E02078302801D100227F1E002A87
:100F4000069787D01EE0112D07DAFFF7C5FE303275
:100F500062556D1C02460A43F5D1084303D0009840
:100F6000002819D00EE00021681E05E0235C625CB9
:100F700063542254401E491C8142F7DBA81B401ECB
:100F800007950690079A18990020A0540F98079B80
:100F9000069A81600CC07CE711260020189059E762
:100FA000D21DF0B50D460446D10893B0C90003C95F
:100FB0000C900D9102F032FD02460D98C00F01D049
:100FC0002D2007E02068810701D52B2002E0400793
:100FD000C00F4001032A0F9001D0072A05DB03460A
:100FE0002946204600F04AFB0EE12078800601D514
:100FF000E76900E006272846652D04D0662814D04E
:10100000672D69D12DE00020112F009001DB112305
:1010100000E07B1C0CAA03A910A8FFF7F3FE1199AE
:10102000002610987D1C0E9142E001203B460CAA40
:10103000C0070B900120009003A910A8FFF7E2FE63
:10104000119D12981099002600280E9501D1781C48
:101050000D18781B02D446427D1C761EE81B0090BA
:101060003AE0012F00DA01270020112F009001DD66
:10107000112300E03B460CAA03A910A8FFF7C2FE0B
:1010800011993D46109800260E91217809070BD43E
:101090000E99A94200DA0D4603A9012D04DD4A1973
:1010A000203AD27F302A06D0B84201DA011D04DA94
:1010B000012100910FE06D1EEFE7002802DC861988
:1010C0002D1A03E0411CA94200DD0D46801B401C87
:1010D00000900120C0070B902078000705D40098ED
:1010E000A84202DB0020C043009069460020C8727D
:1010F0000B98012102AF0337C907884225D002208F
:1011000010902B2011900B9800280BDA40420B9086
:101110002D20119006E00B9800F039FA30317F1E37
:101120000B9039701099481E00291090F3DC0B9831
:101130000028F0D111987F1E38702088000501D555
:10114000452000E065207F1E387001A8C01BC01D2F
:101150000B900F98002800D0012041190098C0176B
:1011600009180B980818A169081A401EA061207878
:10117000C00602D42046FFF706FB0F98002805D0D2
:101180006268A1689047206A401C20622078C006EF
:1011900025D52046FFF7F7FA21E0002E07DB0E9851
:1011A000B04204DD03A86268805DA16802E0626865
:1011B000A16830209047206A761C401C206200986D
:1011C000401E002800900AD100F054FAC0686268FE
:1011D0000168405CA1689047206A401C2062284654
:1011E0006D1E0028D9DC07E062683878A1687F1C92
:1011F0009047206A401C20620B99481E00290B90E2
:10120000F2DC2046FFF7D5FA032042E601FCFFFF9F
:10121000104D0000E1DFFFFFD21DF0B504460D4682
:10122000D0088DB0C000466807683146384602F0E5
:10123000F5FB0246F00F01D02D2307E0206881075F
:1012400001D52B2302E04007C00F43016846002B65
:10125000037001D0012000E00020032A0A9001D091
:10126000072A04DB2946204600F008FA2DE1207801
:10127000800601D40D2500E0E5697000400D0D2DBC
:1012800001904BDA300D00210B9008460020C0463B
:10129000032189050840002E05DA82008018C20F5C
:1012A0001018401008408015012801DD0020C043BF
:1012B000A9000023182906D39C460A460123183AA0
:1012C0001B07D34003E001221205CA4094460C31AB
:1012D000202902D33A46203900E032468A400028CD
:1012E00002DD002A06D119E0002817D10121C90723
:1012F0008A4213D3194663467F185E41002806D1FF
:101300000120C007824202D1084687439E430B98C2
:10131000310D814202D00198401C019020880005C7
:1013200002D57149794402E06F49794419396B4615
:101330000A9830221A540A980A7C401C1A54401CFD
:101340000A900198002801DC302000E0312018725A
:10135000019A0120002A02D0644BD21804E07200E6
:101360003A4302D0614A521C0192002D02DC2278DD
:10137000120703D56A462E205072022000228646AC
:1013800094460CE032033601120F6D1E8B5C02AAEC
:1013900013546246521C401C9446052A01DA002D63
:1013A000F0DC002202AE08E03B0F3F01CB5C521C98
:1013B0006D1E3354401C082A01DA002DF4DC23682A
:1013C0009A0601D511E0401E704504DD3218203A1E
:1013D000D27F302AF7D0002807DD3218203AD27F9A
:1013E0002E2A02D11A0700D4401E002D03DD3E2212
:1013F0003254401C6D1E497C31540199401C002917
:1014000006DA2D21471C315401984042019003E037
:101410002B21471C315401987D21C900884206DBED
:10142000FEF790FF3030F0557F1C019101E06428F9
:1014300008DB01986421FEF785FF3030F0557F1CF2
:10144000019101E00A2806DB01980A21FEF77AFFE4
:101450003030F0557F1C01980A21FEF773FF3031C0
:10146000F1550A98A1697F1C7A191018081AA06111
:101470002078C00602D42046FFF785F9216A6E461F
:101480000A980818206204E062683078A168761C27
:1014900090470A98401E0A90401CF5D12078C0065B
:1014A00002D52046FFF76FF902AE09E03078761CCE
:1014B0003E280DD06268A1689047206A401C2062D7
:1014C0007F1EF3D22046FFF774F90DB00320F0BD64
:1014D000206A4019206203E06268A16830209047CA
:1014E0006D1EEDD3F8E70000882B000001FCFFFF24
:1014F00010B54369002B02D0C046C04601E0FFF79B
:101500007BF9012010BD1278014624310A700022B7
:101510004A700122ECE711680022D243E8E710B5D7
:101520004369002B02D0C046C04601E0FFF7F6F940
:10153000012010BD12880146243182840022C28419
:101540000122ECE711680022D243E8E7F8B516461D
:101550000C46054600F086F80368FF200230C05CA8
:10156000012807D0FF2C0FD8185D00280CD00120CF
:101570002C70F8BDFF333246214608331868C7186F
:1015800028460023B847F8BD0020C043F8BD0146F7
:101590008008081A02091018020A1018020C101804
:1015A000C008820012185200891A01E0401C0A3952
:1015B0000A29FBD27047000010B5FF231B06440028
:1015C0009C421DD84C009C421AD80346124A0B4339
:1015D00007D4401A02D3EFF3008010BDEFF3008070
:1015E00010BD081A03D3EFF30080904305E0EFF33A
:1015F000008001219043C907084380F3008810BD93
:101600000D231B041A4204D01146002000F0AEFB4B
:1016100010BD00F0C3FB10BD0000009000487047F3
:10162000080020207546FFF7F9FFAE460500694621
:101630005346C008C000854618B020B5FEF72CFE02
:1016400060BCB64600260027C0C5C0C5C0C5C0C521
:10165000C0C5C0C5C0C5C0C5403D490849008D468C
:101660007047000010B500F005F8001D10BD00BF68
:10167000592400000048704728002020F8B51F4674
:10168000044601230068DB02032601461840072AAE
:1016900005DB002801D017A506E017A504E0002807
:1016A00001D016A500E016A5102081432160A06995
:1016B000C01E002FA06101D0401EA0612046FFF790
:1016C00062F8002F09D038466268A1689047206A06
:1016D000401C2062C01C206206E0206AFAE76268B3
:1016E0002878A1686D1C9047761EF8D22046FFF737
:1016F00060F8F8BD4E414E006E616E00494E4600E6
:10170000696E6600F7B516468AB0334878446C4671
:1017100003467C33C06F5A689B680DC42E487844DA
:10172000763003AC0DC80DC43720C001081837212E
:101730001B30FEF707FE05460C46803D1B3C02D5DC
:101740006442012000E000200027099010E0E0073B
:101750000CD00C2020497843794432464C3941184A
:101760006846012300F054FA6B4607C364107F1CDF
:10177000002CECD1184F7F442E3F16E0E80712D022
:101780002001C0190EC80691089307920068F04224
:1017900001D1981908903246012306A903A800F048
:1017A00037FA03AB07C36D10641C002DE6D109980E
:1017B000002806D032466946012303A800F07EFACD
:1017C00005E001233246694603A800F021FA0A9B8E
:1017D00007C30DB0F0BD0000B42700000346400071
:1017E0000A4610B5400D0BD00121C9070F24A402F1
:1017F00000191C0364082143540D2143D20207E061
:1018000000210120F2E7D40F490021435200401E7D
:101810000029F8DADB0FDB07184310BDFFB50D46D2
:10182000144685B04868516802F0DFF800910190D5
:10183000A868A16802F0D9F802910390A8686168CD
:1018400002F0D3F8029A12188242029201D20120C9
:1018500000E00020019A0B18D2180028019202D053
:101860008A4202D903E08A4201D2012000E000202E
:101870000099081800906868A16802F0B6F8029A0A
:1018800012188242029201D2012000E00020019A47
:101890000B18D2180028019202D08A4202D903E024
:1018A0008A4201D2012000E000200099081800902F
:1018B0002868216840004900400849084018FA4952
:1018C000471814E001994000C90F0843009001989F
:1018D00002994000C90F0843019002980399400003
:1018E000C90F08430290039840007F1E03900098A0
:1018F0000028E7DA0898002801D0EC4E00E0002626
:10190000B74201DA012000E00020002804902AD02C
:10191000F71BF806C00E15D0029B2021091A039A66
:101920008B401A430392029A019BC2408B401A4398
:101930000292019A009BC2408B4000991A43019287
:10194000C14000917B110DD06F460320C11A03D511
:1019500000218200B95003E08A008100BA587A5011
:10196000401EF3D5374603980299002800D0012085
:10197000014308980291002808460CD0002800D0A6
:1019800001200199019A490508430121D20AC9029F
:10199000D202019200E001210E9B0122D207012B0D
:1019A00002D0002B03D013E0002807D120E09042A2
:1019B00004D890420CD1019B0B4209D0019B5918CD
:1019C000019105D10099491C009101D17F1C009221
:1019D00000280DD0102108460020C0460498002899
:1019E00006D00F98002803D0082108460020C046E2
:1019F00028682168019B009A4840C10F0598C907D3
:101A000039430EC009B0F0BDFFB587B0099A0898F8
:101A10000899536892684068896896460022039343
:101A200017469446089A12685300099A5B08126890
:101A3000520052089A1A9E4BD4180A9A002A01D0D2
:101A4000352200E04022069200220123154604922E
:101A5000DB07059324E0002D05D175460346039E60
:101A60004D1BB34109D375466646039B491B049D34
:101A70009841059B7519AC465F4163463B4308D0CE
:101A8000059B049EDD0776082E435B0804960593AC
:101A900001E0521E641EC50FED0749184041521C5B
:101AA000069B9A42D7DB002D04D17546039A6B1A28
:101AB000824101D203200CE0039A0B466B40424066
:101AC000134303D0014303D0012002E0022000E0D1
:101AD0000020614601910021009702910A99002996
:101AE00005D0614640020143704B019102E080073E
:101AF000002302909C4201DA012000E00020070050
:101B00003AD01A1BD006C00E15D0029D2021019C90
:101B1000091AC5408C402543029C8C4000D001240A
:101B20002543019C0295009DC4408D4000992C43A3
:101B30000194C140009154111DD06D460221002234
:101B400002290CD10320001B07E0002804DB8600DB
:101B5000AE59002E00D00122401C0328F5DB081BE3
:101B600002D588002A5004E08000285810438A00DB
:101B7000A850491EE3D51C460A98002802980CD0AC
:101B8000002800D001200199019A4905084301214C
:101B9000D20AC902D202019200E00121109B012267
:101BA000D207012B02D0002B03D013E0002807D16D
:101BB0001FE0904204D890420CD1019B0B4209D007
:101BC000019B5918019105D10099491C009101D13F
:101BD000641C009200280CD0102108460020C0464A
:101BE000002F06D01198002803D0082108460020B5
:101BF000C04608980999019A009B00680968484006
:101C0000C10F0798C907214382600AC00BB0F0BD1D
:101C100000B585B0019300920A460146002302A850
:101C2000FFF7FCFD02A807C805B000BDFFB50A46D6
:101C30001F4685B00799019301230091014602A830
:101C4000FFF7ECFD02990398049ECA0F4900D207E2
:101C500000920F22490892028C1A0021002800DB12
:101C60000C46450013486D08844214D3079A002A95
:101C700004DA441E0026104DF64302E004460D46E9
:101C80000E46102108460020C046002F03D0042134
:101C900008460020C0462005E90A08430099084389
:101CA0006905F20A1143ADE602C0FFFF013C0000E6
:101CB000FF3F0000FF070000FFFFFF7F00B585B07A
:101CC000019300920A460146002302A8FFF79CFEFA
:101CD00002A807C8A8E7FFB50A461F4685B00799BE
:101CE000019301230091014602A8FFF78DFE02999E
:101CF0000398049ECA0F4900D20700920F22490898
:101D000092028C1A0021002800DB0C464500114885
:101D10006D08844214D3079A002A04DA441E002670
:101D20000D4DF64302E004460D460E4610210846CE
:101D30000020C046002F03D0042108460020C046E2
:101D40002005E90A0843009908436905F20A11438E
:101D500058E60000FF070000FFFFFF7F10B50446B4
:101D6000C046C0462046FEF789FA10BDC80212D50B
:101D70004803400F002804D0C803C0430121884015
:101D80007047EFF3008000010009032109070843B1
:101D900080F30088704700207047000010B50248AB
:101DA00000F05CF810BD00000000C07F82078B07C8
:101DB0009A423FD170B5920F0AD0032402780B7873
:101DC000401C491C002A33D09A4231D12042F5D11F
:101DD000214EF40104C808C9951B9543254018D12C
:101DE0009A420FD104C808C9951B9543254010D1CC
:101DF0009A4207D104C808C9951B9543254008D1CC
:101E00009A42E7D012BA1BBA01209A4200D240424D
:101E100070BD12BA1BBA2DBA18241000E040190088
:101E2000E140401A05D12E00E64002D1083CF4D131
:101E3000D01A70BD02780B78401C491C002A09D0CA
:101E40009A4207D102780B78401C491C002A01D025
:101E50009A42EFD0D01A70470101010110B50C462B
:101E60001107090F092904D00A290AD008290CD121
:101E700004E011460820FFF779FF06E0510606D579
:101E800001E0510601D50120C007214610BDD10651
:101E900007D501010909CC084907000E00060443D3
:101EA00009E0410F20024907000A0143200E000605
:101EB0001D22D14101430846E7E7000001491820EF
:101EC000ABBEFEE7260002007047811E091F00BF5F
:101ED000FCD2704784B0039002910192039800688D
:101EE0000090009801998843009000980299019A07
:101EF000114008430399086004B0704782B0019014
:101F00000091009B0199094A88581843885002B0F3
:101F10007047C04682B001900091009B0199034A2E
:101F200088581843885002B07047C04648100000D7
:101F300082B0019000910098019995225201885039
:101F400002B0704782B001900091009801999522EB
:101F50005201885002B0704782B001900091009801
:101F6000019995225201885002B0704782B00190C9
:101F70000091009B0199034A88581843885002B089
:101F80007047C0462810000082B001900091009870
:101F90000199024A885002B07047C046D012000032
:101FA00081B0009000990120C2026348885001B0BE
:101FB0007047C04682B00190009101980249405894
:101FC0000099084002B070473810000010B584B086
:101FD000069C039002910192009302980199084394
:101FE0000099084306990843034908430399890067
:101FF000194A885004B010BD8100040081B00090DF
:1020000000988100144A8120885001B07047C04672
:1020100081B00090009881000F4A0020885001B0E4
:102020007047C04682B00190009100980349084370
:1020300001998900084A885002B070478000040066
:1020400082B0019000910098802108430199890095
:10205000014A885002B070470480424082B001902B
:10206000009101982721C90140580099084002B009
:102070007047000081B0009000994B4A4B4888504F
:1020800001B0704782B001900091009B0199034A12
:1020900088581843885002B07047C046901300001B
:1020A00082B00190009100980199114A885002B0C5
:1020B0007047C04682B001900091009801990C4A87
:1020C000885002B07047C04682B0019000910098DD
:1020D0000199074A885002B07047C04682B001900B
:1020E000009100980199024A885002B07047C0469A
:1020F0009012000082B001900091009B01999D20F8
:10210000420188581843885002B0704781B000904F
:102110000099034A885801231843885001B070473A
:102120000411000081B0009000990120C202C34850
:10213000885001B07047C04601000026B0B511229A
:10214000120283580C4C1C400B894D881D438B791F
:102150002B430A4D1D402B1983508B88CC791C438F
:10216000097821435D239B001940801842689A43F7
:1021700089184160B0BDC04680CCFFFF7F330000AE
:1021800081B0009000980349405810210840000990
:1021900001B070471011000081B000900099024A10
:1021A0000248885001B0704704080000030000B1E5
:1021B00080B582B00190009101989449401800992F
:1021C000024AFFF787FE02B080BDC046FF03000051
:1021D00010B50122120383180C785C604978815095
:1021E00010BD000080B584B000920A4601460098F8
:1021F000039102A90A7001AA10700398044BC01839
:102200000978127811433F22FFF764FE04B080BDC5
:102210000C11000082B001906846017000780199AD
:1022200045229201885002B070470000F0B584B09A
:1022300001242202344B19680392914319606E49BC
:102240000D686D04FCD5457E25409E69A643741932
:102250009C612024045D03252C40DE69AE433419C3
:10226000DC611F4C256805262660466A37681F62B8
:1022700076685E6207262E402660C4697F252D029F
:10228000DE69AE436406640C3419DC610768456896
:1022900082680092C66802690192426902929A6954
:1022A000104C14403A07120B2D03ADB2AA1832435A
:1022B000009D2D072D0D1543019A1543029A1543D4
:1022C000007E2843084A0240101998611868039A52
:1022D0001043186008688005FCD504B0F0BDC04606
:1022E000001340408D00F0FF72FF0F0006490868A0
:1022F00001229043086070470349086801221202D6
:10230000904308607047C04608010B40394908688F
:1023100001221203104308607047C04681B0014695
:102320006846017000780249086001B07047C046F5
:1023300008030B4080B582B0014601A801800188E6
:102340000F2002022B48FFF7C5FD02B080BDC0463A
:10235000F0B5124B1D46083D2E680124A6432E60A1
:102360000326360330401F68B743381818601868D2
:10237000FF26B043C9B2401818602868204328607F
:1023800018682107002A06D0084318601A48016817
:10239000C905FCD5F0BD88431860F0BD10010B40A5
:1023A00080B582B0014601A801700178024803227D
:1023B000FFF790FD02B080BD00010B4080B582B0F8
:1023C000014601A8017001780A483022FFF782FD1A
:1023D00002B080BD07498860074802689202FCD5B8
:1023E000012212040B6813430B600168C906FCD577
:1023F0007047C04604010B4004020B4081B00090BE
:102400000099024A0120885001B07047081100006D
:1024100082B001900091009B0199C74A88581843E7
:10242000885002B07047C04681B0009000990120EA
:10243000C202C748885001B07047C046010000265C
:1024400081B000900098812149014058C0B201B08C
:1024500070470000F0B5AA4A82183B4BC3180879B0
:102460004E793A4D774C002E23D0202804D00526F3
:10247000F601002803D003E0354E002800D188265D
:10248000576F2F4037435767976F2F4037439767F2
:10249000566B26405663966B26409663002656651B
:1024A00096658F26F6435F6837405F609F683740C8
:1024B0009F608E79096820280BD0002819D1491E09
:1024C0005160D76E2F4088210F43D766174670376B
:1024D00019E0491E5160D16E29401D4F3943D16624
:1024E000116F29403943116701214907194D1746DA
:1024F00009E049085160D76E2F400521C9010F43FB
:10250000D766174670373C682C400C433C60D16A54
:102510004C4C2140D162116B214011630021D164E8
:1025200011658F21C943D46F0C40D4671C680C40DF
:102530001C600643BD2030401168074B0B40C0189B
:10254000801C1060F0BDC0468418000024493E0085
:1025500001040000FFFFFFCF4000FFCFB0B54A6885
:10256000364BC250664A80180A78222A58D89300FF
:1025700001A4E3589F46C04617260000212600000C
:102580001726000021260000212600002126000039
:10259000212600002126000021260000212600001F
:1025A000212600002126000021260000212600000F
:1025B000212600002126000005260000212600001B
:1025C000052600002126000021260000212600000B
:1025D00021260000212600002126000021260000DF
:1025E00021260000212600002126000021260000CF
:1025F00021260000212600000526000021260000DB
:102600000526000003231B0704689C4301235B0786
:10261000E318036004E003231B0704689C43046081
:102620000B69C360CB68064C1C40C36A054D1D4056
:102630002B19C362097A11430160B0BD081800006C
:10264000777702008888FDFF81B000900099574A93
:102650005748885001B0704782B0019000910098AF
:10266000019911221202885002B0704710B5072359
:102670009B04194092008018024A84589C436118B8
:10268000815010BD3018000010B5029CA400001944
:1026900011431943014A815010BDC0465018000033
:1026A00092008018014A81507047C04610180000FF
:1026B00010B50122120383180C789C604B7883506C
:1026C0008978014A815010BD0C11000010B586B008
:1026D00001930B4601460198059104A90B8003ABB9
:1026E0001A8002AA10800598054C001909881B88D9
:1026F000194312881143034AFFF7ECFB06B010BDE3
:102700000418000080FF000081B0009000991120A3
:102710000202885801231843885001B07047000016
:1027200082B001900091009B0199034A8858184398
:10273000885002B07047C0462810000081B0009059
:1027400000990120C2020248885001B07047C0467B
:1027500001000026B0B51122120283580124A343C0
:1027600083500B888C781C438B882343094C1C4076
:102770008358094D1D40631983508B79CC791C43D4
:10278000097A21437E231940801842689A435118E0
:102790004160B0BD18670000E798FDFF81B0009070
:1027A0000099024A0248885001B0704704080000AE
:1027B000030000B180B584B00390029101920398A8
:1027C0000B49401802990B4AFFF784FB03980A490A
:1027D000401801993F22FFF77DFB0399074A8818AB
:1027E000895801221140FFF775FB04B080BDC04637
:1027F00010110000FFFF0000141100000411000080
:1028000010B50122120383180C789C60497881501E
:1028100010BD80B582B0019000910198112109028C
:10282000401800990322D203FFF754FB02B080BD89
:1028300080B584B00020039002900320010450482A
:10284000FFF7B8FB0390039801214A0410400904E4
:1028500088421BD1FFE7012001044948FFF7FEFB36
:10286000002809D1FFE7474948680A680023521E3B
:1028700098410A60486008E0424948680A680023B5
:10288000521C58410A604860FFE721E003A88078A5
:10289000C00700281BD0FFE7012041043848FFF79C
:1028A000DDFB002809D1FFE7364948680A680023A4
:1028B000521C58410A60486008E0324948680A687A
:1028C0000023521E98410A604860FFE7FFE7FFE7D8
:1028D000032001042A480190FFF71CFB0198052101
:1028E0004903FFF767FB029002980121CA031040D9
:1028F000490388421BD1FFE7012041032048FFF72D
:10290000ADFB002809D1FFE71F4948680A6800238A
:10291000521E98410A60486008E01B4948680A68EE
:102920000023521C58410A604860FFE721E002A8DA
:102930004078800600281BD5FFE70120C10310481E
:10294000FFF78CFB002809D1FFE70F4948680A68A8
:102950000023521C58410A60486008E00A49486850
:102960000A680023521E98410A604860FFE7FFE7AB
:10297000FFE705204103F648FFF7CCFA04B080BD1D
:1029800000200A40600320207003202080B584B01E
:1029900003900291019200932A2000F0C3F903985A
:1029A00000F0A7F9019800F0A4F92B2000F0BAF983
:1029B0000298233000F09DF90098233000F099F937
:1029C0002C2000F0AFF904B080BD80B584B0039036
:1029D00002910192039A029B10461946FFF7D6FF17
:1029E000019800F086F904B080BD10B586B0089C4F
:1029F000059004910392029305980499039A521E3C
:102A0000029B5B1EFFF7C2FF04980190FFE701984D
:102A10000299884215D2FFE705980090FFE70098D9
:102A20000399884208D2FFE7089800F062F9FFE7AF
:102A30000098401C0090F2E7FFE70198401C0190CD
:102A4000E5E706B010BD000070B594B000920C46EA
:102A5000054600981A99199A189E1395129411AC6C
:102A60000194207010930FA8029002700EAA1170AA
:102A70000AAA002103911170139907910078410867
:102A80000CA8049001700178C80805904907401C03
:102A90000029069001D105980690029B049A01999D
:102AA000069C187860430890119820380870139895
:102AB000129912788218521E1B78CB185B1EFFF7F2
:102AC00065FF03980990FFE709980899884200D3A9
:102AD0009DE00FA800780C280BD1FFE711A8007823
:102AE0000C2141434E4840180999405C0DA90870DB
:102AF00031E00FA8007810280AD1FFE711A800786C
:102B00000101464840180999405C0DA9087021E070
:102B10000FA8007818280BD1FFE711A80078302102
:102B200041433D4840180999405C0DA9087010E0E8
:102B30000FA8007820280AD1FFE711A800788101AA
:102B4000344840180999405C0DA9087000E05EE027
:102B5000FFE7FFE7FFE70BA900200870FFE70BA8DE
:102B6000007807284EDCFFE70EA80078002822D165
:102B7000FFE70DA800780BA90978C840C007002816
:102B800004D0FFE7109800F0B4F803E0189800F0C4
:102B9000B0F8FFE70A98411C0AA8017000780CA958
:102BA0000978FDF7C1FB002904D1FFE70AA900203D
:102BB000087027E020E00DA800780BA90978C8402C
:102BC000C007002806D0FFE713981299109AFFF764
:102BD000FCFEFFE71398401C139013980799401AC6
:102BE0000CA90978884206D1FFE70798139012983C
:102BF000401C129006E0FFE7FFE70B98401C0BA972
:102C00000870ACE7FFE70998401C09905CE714B036
:102C100070BDC0468C5B0000BC490000CC43000086
:102C2000583F0000B0B58EB00D900C910B920A93F6
:102C30000B98FDF757FB09900A98C00008901024E4
:102C400007940998C00006900D980899069A891A69
:102C5000CA0F89184910401805900C9804900D98D7
:102C60000C99089A8218079BCB18002503950095AC
:102C7000FFF7BBFE039B059804990B9A02930194FE
:102C80000093024B00F004F80EB0B0BDFFFF00004F
:102C900070B58AB00C46054610980F990E9E09959E
:102CA00008940792069305AA117004A90870FFE71B
:102CB0000798007800281AD0FFE709980899079A22
:102CC0001278069B0E9C05AD03952D7804AE3678E0
:102CD000029601950094FFF7B7FE0398007841082B
:102CE0000998401809900798401C0790E0E70AB03F
:102CF00070BD80B582B0019001A80090407800F0CE
:102D000029F80098007800F025F802B080BD80B561
:102D100082B0014601A80170007800F01BF802B0F3
:102D200080BD000080B584B003A900910870012027
:102D3000C1020291D5480190FFF704F9009800788C
:102D400000F008F801980299FFF7BEF904B080BDC1
:102D500000200A4080B584B003A9009108700120CA
:102D600081030291C9480190FFF7ECF800980078C0
:102D700000F01AFE01980299FFF7A6F904B080BD91
:102D800080B584B0024603A8027002AA11700299AD
:102D90004942117000214056012810DBFFE7012055
:102DA00001908104B948FFF7D7F8019A002103A8E0
:102DB00041566420411AEC48FFF772FC0EE00120F6
:102DC00000908104B148FFF789F9009A002103A817
:102DD00040564142E448FFF763FCFFE7002102A8A8
:102DE000405601280EDBFFE701200103A848FFF74A
:102DF000B3F8002202A881566420411AF348FFF775
:102E00004FFC0CE001200103A148FFF767F9002205
:102E100002A880564142ED48FFF742FCFFE704B0AC
:102E200080BDC04680B58AB0099008910998C068F5
:102E3000089900F07BFF07900799099805900069B1
:102E400000F058FE0599086109990869096A00F0BF
:102E500011FE002804D1FFE70999086A086112E011
:102E600009990869096A0122D207514000F0F7FD6B
:102E7000002807D1FFE70999086A0122D2075040CC
:102E80000861FFE7FFE707980999496900F04EFFDD
:102E90000690099904910868019007980090486885
:102EA000096900F0EBFE009902460198029200F0D9
:102EB000E5FE029900F01EFE014604980391806829
:102EC000069900F0DBFE039900F014FE0499886176
:102ED00009998869C96900F0CDFD002804D1FFE790
:102EE0000999C869886112E009998869C96901224C
:102EF000D207514000F0B3FD002807D1FFE7099940
:102F0000C8690122D20750408861FFE7FFE70798B0
:102F100009994861099880690AB080BD10B584B0EC
:102F2000079C069C039002910192009302980399DA
:102F30000860019803994860009803998860039994
:102F40000020C8600399086103994861039988616A
:102F500006980399C86107980399086204B010BDE8
:102F600080B58CB00920FFF753F80A20FFF750F81E
:102F7000312003210291FFF763F8012007908105BA
:102F800042480A90FFF700F80D200821FFF758F893
:102F90003F4805908021FEF7F7FF24200521089186
:102FA000FFF74EF805980799C903FEF7EDFF0020DB
:102FB000039002210191FFF743F801990798FFF769
:102FC00031F802991920FFF73BF802991820FFF712
:102FD00037F81A20FFF712F81B20FFF70FF81E2012
:102FE000FFF70CF83820FFF709F82B20FFF706F859
:102FF0002120FFF703F8039A07980092C304049373
:103000002A201146FEF7E2FF039A049B009220203B
:103010001146FEF7DBFF039A049B00921F20114626
:10302000FEF7D4FF039A049B00921D2009901146DD
:10303000FEF7CCFF0598079909030691FFF73AF8C8
:1030400005980699FEF7A0FF0A981249FEF770FF4F
:1030500007990A988904FFF72DF80A980E49FEF798
:1030600093FF0A9811218906FFF70CF808990A982E
:10307000FFF740F809990A9849030B91FEF73EFFC4
:103080000A980B99FEF772FF0CB080BD00200A4031
:1030900000000A40004C0004004C040480B584B0D9
:1030A0001649E7480390FFF703FB03981449FFF71D
:1030B000D1F9039801220292510392028023FFF773
:1030C00005FB0299039800910023019319461A46C3
:1030D000FFF7DAFA0199029A0398FFF7C7FA029A02
:1030E00003987D21C900FFF7DBFA0398FFF786F903
:1030F00003980221FFF7B0FA04B080BD4C730000C2
:103100005073000080B584B01649CE480390FFF795
:10311000CFFA03981549FFF79DF90398012202920F
:10312000510392028023FFF7D1FA0299039800918C
:103130000023019319461A46FFF7A6FA0199029A4D
:103140000398FFF793FA0199029A0398FFF7A8FAF8
:103150000398FFF753F903980221FFF77DFA04B0B3
:1031600080BDC04658730000000086405C730000BC
:1031700080B584B01449B4480390FFF799FA0398D6
:103180001349FFF767F903980023029319461A467B
:10319000FFF79CFA029B0398009319461A46FFF723
:1031A00073FA029A03981146FFF760FA029A03989D
:1031B0006421FFF775FA0398FFF720F903980121BE
:1031C000FFF74AFA04B080BD647300000020864017
:1031D0006873000080B582B00B499F480190FEF7EC
:1031E000F7FF01980949FEF7A9FF01980021FEF7B2
:1031F000DFFF019810210222FEF7F4FF0198FEF78D
:1032000085FF02B080BDC04670730000727300007D
:1032100080B582B000200190FFF780F80120009077
:103220004002FFF787F80198FFF7BAF8FFF75EF85A
:10323000FFF762F8019A032000033221FFF788F8B4
:103240000848FEF7F3FF1020FFF7B8F8FFF75EF825
:103250000198FFF7BFF80098019900F061F902B0FA
:1032600080BDC0467C73000080B582B008497748B5
:103270000190FFF71DFA01980649FFF76FF90198D1
:103280000121FFF7C5F80198FFF7B8F802B080BD3B
:10329000A4730000A873000080B582B006496C4892
:1032A0000190FFF705FA01980449FFF757F90198D3
:1032B000FFF7A4F802B080BDBC730000C07300002B
:1032C00080B582B00A496B480190FFF7F1F9019887
:1032D0000849FFF743F901980121FFF799F81420F5
:1032E000032100F01DF90198FFF788F802B080BDB6
:1032F000D4730000D873000080B582B00D495548E2
:103300000190FFF77DFA01980B49FFF723FA019826
:103310000021FFF77EFA019802210B22FFF74AFAFB
:10332000019801218902FFF7FBF90198FFF7ECF9F9
:1033300002B080BDEC730000EE73000080B500F0B9
:103340002DF8FFF70DFEFFF763FFFFF7A7FEFFF76E
:10335000D9FEFFF70DFFFFF787FFFFF79DFFFFF790
:10336000AFFFFFF7C9FFFFF735FF0749B82200207D
:1033700088540649885406499C2288540549885433
:1033800005492422885480BD680020202401202083
:1033900008022020A8022020E001202080B58AB069
:1033A00025480090FEF766FE24480190FEF762FE75
:1033B00023480290FFF748F922480390FFF744F9A9
:1033C00021480490FFF740F920480590FFF73CF9A9
:1033D0001F480690FFF738F926480790FFF734F9A1
:1033E0001C480890FFF7DAF91B480990FEF7D4FE55
:1033F0000098FEF7D5FD0198FEF7D2FD0298FFF781
:1034000013F80398FFF710F80498FFF70DF80598E4
:10341000FFF70AF80698FFF707F80798FFF704F890
:103420000898FFF78BF90998FEF77CFE1020FEF74D
:103430004CFD0AB080BDC04600000A4000200A4092
:1034400000000940000086400020864000400840FF
:10345000008086400080104000A0464080B50548AE
:10346000FEF7EEFF012803D1FFE700F0BBF8FFE70E
:1034700080BDC04600A0864081B00146684601700C
:1034800000214056002809D4FFE7684601781F2034
:103490000140012088400C490860FFE701B07047F7
:1034A00081B001466846017000214056002809D4C9
:1034B000FFE7684601781F2001400120884002494B
:1034C0000860FFE701B0704780E200E081B001468C
:1034D0006846017000214056002809D4FFE768467D
:1034E00001781F200140012088400C490860FFE757
:1034F00001B0704781B00146684601700021405616
:10350000002809D4FFE7684601781F200140012008
:10351000884002490860FFE701B0704700E100E021
:1035200070B582B0024601A8027000910021405699
:10353000002816D4FFE7002401A908570322D3432B
:103540001840174A805809578C07E50EFF24AC40F5
:10355000A043009CA401E4B2AC4020431940885031
:103560001AE001A908780F24204008380322D34329
:1035700018400A4A8058002549578D07EE0EFF254E
:10358000B540A843009DAD01EDB2B54028432140B0
:10359000083919408850FFE702B070BD1CED00E00B
:1035A00000E400E082B0019000200090FFE7009866
:1035B000019A7D2149015143884206D2FFE700BFAD
:1035C000FFE70098401C0090F1E702B0704780B51B
:1035D00082B001200190FFF763FF0198FFF78AFF97
:1035E00002B080BD0B494868086888608868C00FD1
:1035F000087300204860086009494A680A688A60C0
:103600008A68D20F0A734860086070470148806872
:103610007047C04660032020014880687047C0465C
:103620007003202080B584B0FFF7F0FF039003986B
:10363000FDF79EF81349FCF7A1FF134900F01EFBAC
:10364000029002981149FCF799FF0190019804B08B
:1036500080BDC04680B584B0FFF7DEFF03900398BD
:10366000FDF786F80749FCF789FF074900F006FBDC
:10367000029002980549FCF781FF0190019804B07F
:1036800080BDC0460000304100803B450000F04155
:1036900080B592B00120039081020191B64800905C
:1036A000FEF750FC6A48FEF710FC00980199FEF7FF
:1036B0000BFD6848FEF709FC11201090FFF732FB64
:1036C00036200E90FFF72EFB7020FFF720FB3A20EC
:1036D000FFF728FB05200690FFF719FBB220FFF744
:1036E00021FB0C200290FFF712FB0298FFF70FFB63
:1036F00000200490FFF70BFB33200C90FFF707FB33
:103700000C98FFF704FBB720FFF70CFB3520FFF701
:10371000FEFABB20FFF706FB1A20FFF7F8FAC020DD
:10372000FFF700FB2C20FFF7F2FAC220FFF7FAFAAE
:103730000398FFF7ECFAC320FFF7F4FA0B20099087
:10374000FFF7E5FAC420FFF7EDFA2020FFF7DFFAD4
:10375000C620FFF7E7FA0F20FFF7D9FAD020FFF7CE
:10376000E1FAA420FFF7D3FAA120FFF7D0FA212035
:10377000FFF7D8FAE020FFF7D5FAF0200890FFF71E
:10378000C6FA0498FFF7C3FA04200590FFF7BFFAC2
:103790000598FFF7BCFA0598FFF7B9FA0698FFF706
:1037A000B6FA29201190FFF7B2FA0C98FFF7AFFA9A
:1037B0003E200D90FFF7ABFA3820FFF7A8FA122051
:1037C0000790FFF7A4FA0798FFF7A1FA28200B90BB
:1037D000FFF79DFA3020FFF79AFAE120FFF7A2FAEF
:1037E0000898FFF794FA07200A90FFF790FA0A204A
:1037F000FFF78DFA0D20FFF78AFA0998FFF787FA8D
:103800000A98FFF784FA0B98FFF781FA0C98FFF7F4
:103810007EFA0D98FFF77BFA0E98FFF778FA1420DE
:103820000F90FFF774FA0F98FFF771FA1198FFF7EE
:103830006EFA3220FFF76BFA1098FFF773FA06481A
:10384000FEF743FB1198FFF76DFA12B080BDC0463A
:10385000009F240000127A00007C920010B5A2B0F4
:1038600000200B902190FFF769FDFFF7B0FE00F0FC
:10387000B1F8FFF70DFF012081063F48FEF710FC6D
:103880000B99009105208201AA230846FFF7ADF8A5
:103890000B9B3A4C01943A480A90009018A8394979
:1038A0000891394A0992FFF739FB0899099A0A9851
:1038B0000B9B019400900FA8FFF730FB0A990B981F
:1038C0001B9112910E90FFE7FFF7ACFE0D90FFF7F2
:1038D000C1FE0C900D9918A8FFF7A4FA2B490860B7
:1038E0000C990FA8FFF79EFA29490860294800683B
:1038F0002949096800F0A8F8002829D1FFE70D98A8
:10390000FCF712FE02460B46244804902449FCF7BB
:10391000D3FC049A202106910F2305930846FFF754
:1039200081F905200790FFF73DFE0C98FCF7FCFDA0
:10393000024604980B461B49FCF7BEFC049A059B03
:1039400006984021FFF76EF90798FFF72BFEFFE777
:103950000E480068FCF7C2FE03900D480068FCF7B3
:10396000BDFE0146039840B249B2FFF709FA28208C
:10397000FFF718FEA8E7C04600200A4000007A447E
:103980000000C8429A99993ECDCCCC3D80032020BE
:1039900084032020580320200000202048032020FA
:1039A000F87300000474000080B582B0014601A8DD
:1039B000017001780648FEF72DFCFFE70448FEF78A
:1039C000DFFB002801D0FFE7F8E702B080BDC0466A
:1039D00000A0464080B582B014200190FFF74CFD56
:1039E0000198FFF773FD02B080BDF8B5040C8BB2EF
:1039F000264682B25E43104658430D0C370C3604FF
:103A000000218019164679416E43370C360480191F
:103A1000264679416E438919F8BD00004900CA0263
:103A20000243100000D004204A0D01D001221043AF
:103A3000044A490D914201D102210843012800D1D5
:103A400005207047FF07000010B500F099F8EFF36C
:103A50000080400001D5012010BD002010BD10B530
:103A600000F0B8F8EFF30080800001D5012010BD10
:103A7000002010BD10B500F0D7F8EFF30080400033
:103A8000800F012801D0012010BD002010BD30386A
:103A90000A2801D2012070470020704710B5002984
:103AA0000AD00878002807D005487844FEF77EF948
:103AB000002801D0002010BD0248784410BD00004D
:103AC000863900007E39000010B500290AD0087838
:103AD000002807D005487844FEF768F9002801D08F
:103AE000002010BD0248784410BD00007639000067
:103AF0006E39000070B50125ED0704004C4020D45C
:103B0000441A01D2001B0919C60D4B00F2B2FF2A5C
:103B100029D01B0E2CD000020C0228432C43D31AB0
:103B2000DC40051910D2280A02D3401C6D0611D0C2
:103B3000761EF6058019FF2A00DA70BDC00DC0059B
:103B400070BD694000F0F8F801200543C541521CE2
:103B5000761CE8E764089C40C90161408900E7D110
:103B60000124A043E4E71B0E440200D0034870BDCB
:103B7000002AFCD1C00FC00770BD00BF0000C07F8D
:103B80000123DB0502000A430DD4DA4203D49A4232
:103B900007D488427047D84214D4D94212D48842FC
:103BA000704780427047DA4203D59A42F9D5814284
:103BB00070475B004200DA4204D24A00DA4201D286
:103BC0008142704710B5024AFDF7F6FC10BD00BFF8
:103BD000090012040123DB0502000A430DD4DA4276
:103BE00003D49A4207D488427047D84214D4D942A9
:103BF00012D48842704780427047DA4203D59A4215
:103C0000F9D5814270475B004200DA4204D24A0093
:103C1000DA4201D28142704710B5024AFDF7CCFC6E
:103C200010BD00BF090013040123DB0502000A4395
:103C30000DD4DA4203D49A4207D488427047D8425E
:103C400014D4D94212D48842704780427047DA4275
:103C500003D59A42F9D5814270475B004200DA42AF
:103C600004D24A00DA4201D28142704710B5024ABA
:103C7000FDF7A2FC10BD00BF0900160470B542009C
:103C800064414B005C41120E39D01B0E38D0FF2A24
:103C90003CD0FF2B3AD0D2187F3A40024902400A6A
:103CA000490A4518ED0106004E43000A090A484337
:103CB0000104731A4019190C4318990F04D05B08BA
:103CC000012149075B1A521CD80904D3401CF50393
:103CD00001D19D0607D0FF2A08D2D50506D0E407FA
:103CE0002043401970BD0125A843F4E7002A01DCF8
:103CF000E00770BD2402FF202043C00570BD1B0EED
:103D0000FF2A03D0FF2B01D0E00770BDFF26360647
:103D10004500B54206D84D00B54203D8D218FF2A57
:103D200000D0E7E7004870BD0000C07F70B50125F6
:103D3000ED0704004C4022D4441A02D26C40001B10
:103D40000919C60D4B00F2B2FF2A4BD01B0E50D002
:103D500000020C02A8432C43D31ADC40051B05D5F6
:103D6000AD0019D36D08761E521E37D0F605280A0D
:103D700001D2801970BD70416D0603D070BD6940DD
:103D8000FFF7BEFE9C4009026140490001D0401E81
:103D900070BD0124A04370BD6D081DD001202B0C07
:103DA00001D12D0410302B0E01D12D0208302B0F24
:103DB00001D12D01001DAB0F01D1AD00801CEB0F17
:103DC00001D16D00401C361A121A6D00680AF50503
:103DD0004019012A02DB70BD002070BDC036300AD8
:103DE000C00770BD1B0E440201D1FF2B00D1024859
:103DF00070BD002AF0D070BD0000C07F03B402483F
:103E00007844844603BC60479DD1FFFF03B4024859
:103E10007844844603BC604705D4FFFF81828384D5
:103E200085868788898B8C8D8E8F919293959697B6
:103E3000999A9C9D9FA0A2A3A5A7A8AAACAEB0B238
:103E4000B3B5B7B9BCBEC0C2C5C7C9CCCED1D4D733
:103E5000D9DCDFE2E6E9ECF0F3F7FAFE000000005F
:103E600000000000303132333435363738394142C2
:103E700043444546403058003031323334353637CC
:103E80003839616263646566403078000400000878
:103E9000000000000000000200010000103031327C
:103EA000333435363738396162636465667870005B
:103EB0003031323334353637383941424344454660
:103EC0005850000002400000000000A00000000068
:103ED00005400000000000C8000000000C40000089
:103EE0000000409C00000000194000000020BCBE03
:103EF0000000000034400000BFC91B8E0000000419
:103F0000B5400000504BCFD06607E2CF0100000063
:103F10006C4100003E8251AADFEEA7340100000090
:103F2000D9420000DCB5A0E23A301F97FFFFFFFF47
:103F3000B4450000FD25A0C8E9A3C14FFFFFFFFF66
:103F4000FF3F00000000008000000000FF3F000075
:103F500000000080000000000000000000000000E1
:103F60000000000000000404040404000004000039
:103F700014140A00000000000000000000000A0AFB
:103F80001F0A0A1F0A0A000000040E1505060C1479
:103F9000150E0400000012150D152E2C2A1200001B
:103FA0000000040A0A361515291600000202010055
:103FB00000000000000000001008080404040404CD
:103FC0000808100002040408080808080404020095
:103FD00000000004150E0E1504000000000000088B
:103FE000083E08080000000000000000000000007B
:103FF0000202010000000000003F0000000000007D
:10400000000000000000000000020000002010106E
:10401000080804040202010000000E111111111120
:10402000110E00000000040604040404040E000045
:1040300000000E1111080402011F000000000E1103
:10404000100C1010110E00000000080C0C0A091FC3
:10405000081C000000001F01010F1110110E0000CC
:1040600000000C12010D1311110E000000001E10B3
:10407000080804040404000000000E11110E1111C0
:10408000110E000000000E11111916100906000093
:104090000000000004000000000400000000000018
:1040A00000040000000404000000100804020204E0
:1040B00008100000000000003F003F00000000006A
:1040C00000000204081010080402000000000E1195
:1040D000110804040004000000001C22292D2D1DDD
:1040E000221C0000000004040C0A0A1E1233000007
:1040F00000000F12120E1212120F000000001E110B
:1041000001010101110E000000000F121212121223
:10411000120F000000001F120A0E0A02121F0000F8
:1041200000001F120A0E0A020207000000001C1203
:1041300001013911120C000000003312121E12127C
:104140001233000000001F0404040404041F0000D4
:1041500000003E0808080808080809070000371290
:104160000A060A12123700000000070202020202C9
:10417000223F000000003B1B1B1B151515350000DE
:1041800000003B1216161A1A1217000000000E113A
:1041900011111111110E000000000F12120E020277
:1041A0000207000000000E1111111117190E18005E
:1041B00000000F12120E0A121237000000001E112A
:1041C00001060810110F000000001F15040404046C
:1041D000040E00000000331212121212120C000022
:1041E00000003312120A0A0C040400000000151526
:1041F00015150E0A0A0A000000001B0A0A04040A28
:104200000A1B000000001B0A0A0A0404040E000036
:1042100000001F0908040402121F00001C0404040B
:104220000404040404041C0000020204040408083A
:10423000081010000E0808080808080808080E00F2
:10424000040A000000000000000000000000000060
:10425000000000000000003F020400000000000019
:104260000000000000000000000C121C123C0000C6
:1042700000030202020E1212120E000000000000E3
:10428000001C1202120C000000181010101C121258
:10429000123C000000000000000C121E021C000076
:1042A00000182404041E0404041E00000000000082
:1042B000003C120C021C221C00030202020E12120D
:1042C000123700000004040000060404040E00007D
:1042D00000080800000C080808080807000302028C
:1042E000021A0A060A130000000704040404040466
:1042F000041F000000000000000F15151515000038
:1043000000000000000F1212123700000000000031
:10431000000C1212120C000000000000000F12121C
:10432000120E020700000000001C1212121C1038AE
:1043300000000000001B0602020700000000000051
:10434000001E020C101E000000000004041E0404E5
:10435000041C000000000000001B1212123C0000B0
:1043600000000000001B0A0A040400000000000016
:104370000015150E0A0A000000000000001B0A04C8
:104380000A1B000000000000003312120C08040396
:1043900000000000001E0804041E000018080808A1
:1043A000080C080808081800080808080808080881
:1043B00008080808060404040408040404040600A9
:1043C00016090000000000000000000000000000CE
:1043D00000000000000000000000000000000008D5
:1043E00008080808080800001818000000486C2495
:1043F0001200000000000000000000000000002487
:1044000024247F1212127F12121200000000081CD6
:104410002A2A0A0C1828282A2A1C08080000002228
:10442000251515152A585454542200000000000C7C
:104430001212120A76252911916E00000006060458
:1044400003000000000000000000000000402010F9
:10445000100808080808081010204000000204088E
:1044600008101010101010080804020000000000CE
:1044700008086B1C1C6B080800000000000000000E
:10448000080808087F08080808000000000000006D
:104490000000000000000000060604030000000009
:1044A00000000000FE00000000000000000000000E
:1044B0000000000000000000060600000000804030
:1044C0004020201010080804040202000000001818
:1044D00024424242424242422418000000000008A6
:1044E0000E08080808080808083E00000000003C04
:1044F0004242422020100804427E00000000003C9E
:104500004242201820404042221C000000000020AF
:104510003028242422227E20207800000000007E03
:104520000202021A26404042221C0000000000380D
:104530002402021A26424242241800000000007E93
:104540002222101008080808080800000000003C9B
:104550004242422418244242423C0000000000181B
:104560002442424264584040241C000000000000E5
:1045700000001818000000001818000000000000DB
:1045800000000008000000000008080400000040CF
:104590002010080402040810204000000000000061
:1045A00000007F0000007F0000000000000000020B
:1045B0000408102040201008040200000000003C05
:1045C0004242464020101000181800000000001C55
:1045D000225A555555552D42221C00000000000856
:1045E00008181414243C224242E700000000001F77
:1045F0002222221E22424242221F00000000007C92
:104600004242010101010142221C00000000001F82
:104610002242424242424242221F00000000003F2A
:104620004212121E12120242423F00000000003FDE
:104630004212121E12120202020700000000003C89
:104640002222010101712122221C0000000000E74A
:10465000424242427E42424242E700000000003EA7
:104660000808080808080808083E00000000007C48
:1046700010101010101010101010110F0000007703
:1046800022120A0E0A1212222277000000000007EE
:104690000202020202020202427F000000000077D2
:1046A000363636362A2A2A2A2A6B0000000000E312
:1046B00046464A4A52525262624700000000001CBD
:1046C0002241414141414141221C00000000003F84
:1046D000424242423E020202020700000000001C69
:1046E0002241414141414D53321C60000000003FD6
:1046F0004242423E1212222242C700000000007CC9
:104700004242020418204042423E00000000007F66
:104710004908080808080808081C0000000000E70D
:104720004242424242424242423C0000000000E714
:104730004242222424141418080800000000006BD0
:10474000494949495555362222220000000000E718
:10475000422424181818242442E70000000000779F
:104760002222141408080808081C00000000007E1B
:104770002120101008040442423F0000007808087D
:10478000080808080808080808087800000002025D
:10479000040408080810102020204040001E1010BB
:1047A000101010101010101010101E0000384400CF
:1047B00000000000000000000000000000000000F9
:1047C0000000000000000000000000FF00060800DC
:1047D00000000000000000000000000000000000D9
:1047E0000000003C4278444242FC0000000000030C
:1047F0000202021A26424242261A0000000000006D
:10480000000000384402020244380000000000604A
:10481000404040784442424264D80000000000001A
:104820000000003C427E0202423C0000000000F01A
:104830008808087E08080808083E000000000000FC
:104840000000007C22221C023C42423C000000038B
:104850000202023A4642424242E700000000000CD7
:104860000C00000E08080808083E00000000003098
:1048700030000038202020202020221E00000003CD
:1048800002020272120A1612227700000000000EC5
:104890000808080808080808083E00000000000092
:1048A0000000007F9292929292B7000000000000F8
:1048B0000000003B4642424242E700000000000088
:1048C0000000003C42424242423C00000000000026
:1048D0000000001B26424242221E02070000000088
:1048E0000000007844424242447840E0000000006A
:1048F000000000774C040404041F000000000000C6
:104900000000007C42023C40423E000000000000EB
:104910000008083E080808080830000000000000F1
:10492000000000634242424262DC000000000000DE
:10493000000000E7422424140808000000000000E2
:10494000000000EB494955552222000000000000FC
:104950000000007624181818246E000000000000E3
:10496000000000E742242414180808070000000093
:104970000000007E22100808447E000000C02020B5
:1049800020202010202020202020C00010101010F7
:104990001010101010101010101010100006080841
:1049A0000808081008080808080806000C32C200A9
:1049B00000000000000000000000000000000000F7
:1049C00000000000000000000000000000000000E7
:1049D00000000000000000000000000000000000D7
:1049E00000000000000000000000000000000000C7
:1049F0000000000060006000600060006000600077
:104A000060004000200020002000000000000000A6
:104A10006000600060000000000000000000000076
:104A20006006600630039801880044000000000022
:104A30000000000000000000000000000000000076
:104A40000000000000000000000000000000000066
:104A5000000000001002100210021002FE07FE0704
:104A600008020801080108010801FE07FE07040109
:104A70000401040104010000000000000000000027
:104A8000000040004000F00158034C03CC034C00F0
:104A900058007000E000C001C00140034C035C03FB
:104AA0004C034801F00040004000000000000000FE
:104AB000000000000E010A019100910091005100D8
:104AC00051003A00AE03A0025004500448044804C8
:104AD000480484028403000000000000000000007D
:104AE0000000000038006C006C006C006C006C0072
:104AF0002C0098071C011A01330133016301E30004
:104B0000C308C6093C0700000000000000000000C8
:104B10000C001C0010001000080004000000000041
:104B20000000000000000000000000000000000085
:104B30000000000000000000000000000000000075
:104B400000040002000180008000400040002000BE
:104B50002000200020002000200020004000400015
:104B6000800080000001000200040000000000003E
:104B70000200040008001000100020002000400087
:104B80004000400040004000400040002000200065
:104B900010001000080004000200000000000000E7
:104BA00000000000000000004000C0004000460C73
:104BB0004E0FD001F0015E0F460C40004000400057
:104BC00000000000000000000000000000000000E5
:104BD0000000000000000000000040004000400015
:104BE00040004000FE0F40004000400040004000F8
:104BF00000000000000000000000000000000000B5
:104C000000000000000000000000000000000000A4
:104C10000000000000000000000000000000000094
:104C20000C001C0010001000080004000000000030
:104C30000000000000000000000000000000000074
:104C400000000000FE07000000000000000000005F
:104C50000000000000000000000000000000000054
:104C60000000000000000000000000000000000044
:104C70000000000000000000000000000000000034
:104C80001C001C001C0000000000000000000000D0
:104C90000004000600020003000100018000800003
:104CA00040004000600020002000100010000800BC
:104CB00008000C00040006000200000000000000D4
:104CC000000000000000F00098010C030C03060631
:104CD00006060606060606060606060606060C0371
:104CE0000C039801F000000000000000000000002C
:104CF00000000000000040007C00600060006000D8
:104D000060006000600060006000600060006000A3
:104D100060006000FC0300000000000000000000D4
:104D2000000000000000F8008401020306030603EF
:104D3000000300018001C000600020001000080294
:104D400004020602FE030000000000000000000054
:104D50000000000000007800C60086018601800186
:104D60008001C00070008001000100030003060301
:104D700006038601F80000000000000000000000AB
:104D800000000000000080018001C001A001A0011E
:104D900090018801880184018201FE0F8001800159
:104DA00080018001E007000000000000000000001A
:104DB000000000000000FC030400040004000400E4
:104DC0000400F4008C01040300030003060306033F
:104DD00082018401F80000000000000000000000D3
:104DE000000000000000E00118030C030C000400A8
:104DF0000600E60116030E0606060606060604066B
:104E00000C021803F0000000000000000000000089
:104E1000000000000000F8070C0604020401000175
:104E20000001800080004000400040006000600001
:104E30006000600060000000000000000000000052
:104E4000000000000000F8010C0306060606060636
:104E50000C021C03F000C8010C0306060606060639
:104E600006060C03F0010000000000000000000036
:104E7000000000000000F0000C010C030602060612
:104E80000606060606078C067806000600030003E1
:104E90000C018C0178000000000000000000000000
:104EA0000000000000000000000000000000000002
:104EB000E000E000E0000000000000000000000052
:104EC000E000E000E0000000000000000000000042
:104ED00000000000000000000000000000000000D2
:104EE0006000600000000000000000000000000002
:104EF0000000600060004000200020000000000072
:104F000000000000000400020001800040002000BA
:104F1000100008000400080010002000400080007D
:104F2000000100020004000000000000000000007A
:104F30000000000000000000000000000000000071
:104F4000FE07000000000000FE0700000000000057
:104F50000000000000000000000000000000000051
:104F60000000000004000800100020004000800045
:104F70000001000200040002000180004000200047
:104F80001000080004000000000000000000000005
:104F9000000000000000E0031806040C040C0C0CD8
:104FA0000C0C0007800140004000400000000000A1
:104FB000E000E000E0000000000000000000000051
:104FC00000000000E00018030C02CC056405660533
:104FD000A605B604B604B604B604B602E4010C0491
:104FE0000C021803F00000000000000000000000A8
:104FF000000000000000600060005000D000900041
:105000009000880088010801F801040304030402E9
:10501000020202060F0F0000000000000000000066
:10502000000000000000FE008C030C030C030C03C6
:105030000C038C01FC000C030C020C060C060C0685
:105040000C060C03FE010000000000000000000040
:10505000000000000000E00318030C060C04040428
:1050600006000600060006000600060006040C0402
:105070000C021803F0000000000000000000000017
:105080000000000000007F008C010C030C030C06E4
:105090000C060C060C060C060C060C060C060C0383
:1050A0000C038C017F0000000000000000000000E5
:1050B000000000000000FF030603060406040600CB
:1050C00086008600FE008600860086000600060434
:1050D00006040602FF0300000000000000000000BC
:1050E000000000000000FF0306030604060406009B
:1050F00086008600FE008600860086000600060008
:10510000060006001F000000000000000000000074
:10511000000000000000F00018010C020C02040264
:105120000600060006000600C60F060306030C0371
:105130000C031803F0000000000000000000000055
:105140000000000000000F0F060606060606060611
:1051500006060606FE0706060606060606060606F6
:10516000060606060F0F0000000000000000000009
:10517000000000000000FC036000600060006000B0
:10518000600060006000600060006000600060001F
:1051900060006000FC030000000000000000000050
:1051A000000000000000F807C000C000C000C00000
:1051B000C000C000C000C000C000C000C000C000EF
:1051C000C000C000C000C60066003C000000000037
:1051D000000000000000CF038601C6004600260044
:1051E000160036002E006E004600C60086008601BE
:1051F000060106038F070000000000000000000009
:105200000000000000001F00060006000600060067
:10521000060006000600060006000600060006045A
:1052200006040602FF03000000000000000000006A
:105230000000000000000707860386038E038E032C
:105240004E034E034A035A035A033A03320332030E
:105250003203120387070000000000000000000076
:105260000000000000008E0F0C021C021C02340221
:105270003402640264024402C4028402840384038C
:10528000040304031F0200000000000000000000EF
:10529000000000000000F00098010C030C0206065C
:1052A00006060606060606060606060606060C029C
:1052B0000C039801F0000000000000000000000056
:1052C000000000000000FF000603060606060606B2
:1052D000060606068603FE00060006000600060017
:1052E000060006001F000000000000000000000093
:1052F000000000000000F00098010C030C020606FC
:1053000006060606060606060606060676064C028B
:10531000CC039801F00080070003000000000000AB
:10532000000000000000FF01060306060606060650
:1053300006060603FE004600C60086008601060338
:10534000060306060F0E000000000000000000002B
:10535000000000000000F8020C030602060206002E
:105360000E003C00F800E00380030007020602067E
:1053700006060C03F0010000000000000000000021
:10538000000000000000FE07620461086108600080
:10539000600060006000600060006000600060000D
:1053A00060006000F8010000000000000000000044
:1053B0000000000000001E070C020C020C020C0290
:1053C0000C020C020C020C020C020C020C020C026D
:1053D0000C021801F00000000000000000000000B6
:1053E0000000000000000F070602040104010C0188
:1053F0000C01880088009800980050005000700050
:10540000300020002000000000000000000000002C
:10541000000000000000F70E620442044604460447
:1054200064026402E402E4029C029C019801980177
:1054300088018800880000000000000000000000D3
:105440000000000000009E070C01080118019000F8
:10545000B0006000200060006000D0009000880173
:10546000080104038E070000000000000000000097
:105470000000000000000F0F060404020C020801E7
:105480001801B800B00070006000600060006000AB
:1054900060006000F8010000000000000000000053
:1054A000000000000000FC070C020603020180015E
:1054B0008000400040002000200010001800080478
:1054C0000C040402FE0300000000000000000000C5
:1054D000E003200020002000200020002000200009
:1054E00020002000200020002000200020002000BC
:1054F0002000200020002000E00300000000000049
:105500000000000004000400080008001000100063
:1055100010002000200040004000C00080008000FB
:10552000000100010002000200020004000000006F
:105530007C0040004000400040004000400040002F
:10554000400040004000400040004000400040005B
:1055500040004000400040007C000000000060006F
:1055600090000801000000000000000000000000A2
:10557000000000000000000000000000000000002B
:10558000000000000000000000000000000000001B
:10559000000000000000000000000000000000000B
:1055A00000000000000000000000000000000000FB
:1055B00000000000000000000000FF0F00000000DD
:1055C0001800600000000000000000000000000063
:1055D00000000000000000000000000000000000CB
:1055E00000000000000000000000000000000000BB
:1055F00000000000000000000000000000000000AB
:10560000F0010C030C030003E0031C030E0306036C
:1056100006038E0B7C0E000000000000000000005E
:105620000000000008000E000C000C000C000C0034
:10563000CC013C031C060C060C060C060C060C06E2
:105640000C021C03E4010000000000000000000048
:10565000000000000000000000000000000000004A
:10566000F0008C018C01860106000600060006028F
:105670000C020C01F000000000000000000000001F
:10568000000000000002C003000300030003000349
:1056900078038C030C0306030603060306030603C4
:1056A00004038C07780100000000000000000000E7
:1056B00000000000000000000000000000000000EA
:1056C000E001180308020C060C06FC070C000C0095
:1056D00018041802E00100000000000000000000B3
:1056E000000000000000C0036006300630003000FB
:1056F000FE0130003000300030003000300030005B
:1057000030003000FC01000000000000000000003C
:105710000000000000000000000000000000000089
:10572000F007D8068C018C018C019801F8000C0060
:10573000FC00CC03060306038E03F8000000000003
:105740000000000008000E000C000C000C000C0013
:10575000EC011C030C030C030C030C030C030C03E3
:105760000C030C039E070000000000000000000076
:105770000000000000006000600000000000400029
:105780007C006000600060006000600060006000FD
:1057900060006000FC03000000000000000000004A
:1057A000000000000000C001C00100000000000176
:1057B000F001800180018001800180018001800171
:1057C0008001800180018001CC007C00000000008D
:1057D0000000000008000E000C000C000C000C0083
:1057E0008C038C008C004C006C005C008C008C01E5
:1057F0000C010C039E0700000000000000000000E8
:105800000000000040007C0060006000600060005C
:105810006000600060006000600060006000600088
:1058200060006000FC0300000000000000000000B9
:105830000000000000000000000000000000000068
:105840003707EE066606660666066606660666069E
:1058500066066606FF0F0000000000000000000062
:105860000000000000000000000000000000000038
:10587000EE011C030C030C030C030C030C030C03C0
:105880000C030C039E070000000000000000000055
:105890000000000000000000000000000000000008
:1058A000F00098010C030606060606060606060624
:1058B0000C030C03F00000000000000000000000DA
:1058C00000000000000000000000000000000000D8
:1058D000EE011C030C060C060C060C060C060C064E
:1058E0000C031C03EC010C000C003E000000000047
:1058F00000000000000000000000000000000000A8
:1059000078028C030C030603060306030603060352
:1059100004038C03780300030003C00700000000A9
:105920000000000000000000000000000000000077
:105930009F035806380618001800180018001800B1
:1059400018001800FF000000000000000000000028
:105950000000000000000000000000000000000047
:10596000F0031C030C020C023800F000C003040317
:1059700004038C03FC010000000000000000000094
:105980000000000000000000200020003000300077
:10599000FE013000300030003000300030003000B8
:1059A00030023002E00100000000000000000000B2
:1059B00000000000000000000000000000000802DD
:1059C0008E030C030C030C030C030C030C030C03DD
:1059D0000C039C077801000000000000000000009C
:1059E00000000000000000000000000000000000B7
:1059F0001E070C020801080118019000B000B00059
:105A000060006000200000000000000000000000B6
:105A10000000000000000000000000000000000086
:105A2000F70E6204460464026402EC029C019801D1
:105A3000980198010800000000000000000000002C
:105A40000000000000000000000000000000000056
:105A5000BC0718011001B00060006000E000900079
:105A6000080108039E07000000000000000000007D
:105A70000000000000000000000000000000000026
:105A80009E0708010801080190009000B000600026
:105A9000600060002000200024001C0000000000C6
:105AA00000000000000000000000000000000000F6
:105AB000FC018401C4004400600020003000180292
:105AC00008020C03FC0100000000000000000000C0
:105AD0000003800080008000800080008000800043
