:020000040000FA
:1000000018072020D5000000D9000000DB00000008
:1000100000000000000000000000000000000000E0
:10002000000000000000000000000000DD000000F3
:100030000000000000000000DF000000E100000000
:10004000E3000000AD150000E3000000E300000045
:10005000E3000000E3000000E3000000E300000014
:1000600000000000E3000000E300000000000000CA
:1000700000000000E3000000E3000000F1270000A2
:10008000E3000000E3000000C5270000E3000000DB
:10009000E3000000E300000000000000000000009A
:1000A000E3000000E300000000000000000000008A
:1000B000E300000000000000E3000000E300000097
:1000C0000348854600F0F0FC00480047713A000004
:1000D0001807202003480047FEE7FEE7FEE7FEE79B
:1000E000FEE7FEE7C1000000D2B201E00270401C52
:1000F000491EFBD270470022F6E710B513460A46A8
:1001000004461946FFF7F0FF204610BD421C017857
:10011000401C0029FBD1801A7047F8B502464A40BE
:10012000D40F42004B0052085B089A4202D20246AA
:10013000084611464A0023D0C30D4A00DDB2120E14
:10014000AD1A202D35DA49020126490AF6058A1929
:10015000002C00D0524220214F1B1146B9402A41A9
:100160001018C20D9A4221D0002C17D0012D08DCA6
:10017000DA05801AD20F8019D207DBB200F00BFB30
:10018000F8BDDA05801A012340001B06C01880184C
:100190005A428018CA0F1043490007E04908C207B5
:1001A0001143DA05801A80194008801800F0EBFA34
:1001B000F8BD61000122511A001BF7E70122D207A6
:1001C0005140AAE70122D2075040A6E7024670B587
:1001D0004A40D30FDB0740002DD04A002AD0010E41
:1001E000140E000212020919400A520A8418E5018D
:1001F00004465443000A120A2E045043A41942191B
:10020000200CC543AA18120C0125AD03521C52192B
:1002100012047F39240400D0521C104301D4400042
:10022000491EC2B20C06C0092018401C4008802A92
:1002300002D003E0002070BD40084000002900DA31
:100240000020184370BD0000F0B50746084658402E
:1002500087B0C00F049048000E4659004008490876
:10026000BC1A884105D2384631461E4617460B4611
:1002700002465800400810434CD0300D0390400512
:100280005900400D490D0590401A0290402872DA3D
:1002900018030121000B09050843019004980092FE
:1002A000002805D001995242002088410092019017
:1002B000029840210A1A0199009800F030FA054688
:1002C0000C466B4607CB00F04BFAC0197141039AFC
:1002D0000E0D0023D71756401A467A40164344D0D5
:1002E000049A002A2DD0029A012A039A15DC1205DD
:1002F000C01A914101263605001C7141D20F059E9E
:10030000D2070093019202962A46234600F089FA0A
:1003100007B0F0BD38463146FAE71605224A0F46C7
:10032000B218C01AB74101210905001C4F4100183D
:100330007F41114618187941E20F10436D1964414D
:1003400013E0E2076D0815436408C2071443039ADB
:1003500001261205C01A91413605001C7141CE07D5
:10036000400830434908C01851412A46234600F04E
:100370004BFACDE7FFE7049801224000C117121A9B
:1003800000238B4104983146C417381AA141EEE787
:1003900030B40124E407634030BC55E730B4012495
:1003A000E407614030BC4FE70000E0FFF0B50C46C9
:1003B0005C4085B0E40FE40703944C000026640819
:1003C00059009446490802460296224321D06246CB
:1003D0000A431ED06200570D4A000E032303550D39
:1003E000012402462C492405781B1B0B360B4018B0
:1003F00023432643614600901C46501AB44103D360
:100400000098401C009002E0921800985B41002880
:1004100003DA0020014605B0F0BD002001210905E6
:100420000746864611E064461D46141BB54106D3B7
:100430006546521BB341744607430C43A646CD079D
:1004400040084908284392185B4105460D43EAD10C
:100450001046184313D06046194650407140084377
:1004600006D06046101AB34106D20122002306E0EE
:1004700000220123DB0702E00122D243531000983F
:1004800074460105381C6141029C039D00196941B5
:1004900000F0BAF9BFE70000FD0300000122D20717
:1004A000002800DB101A002900DB511A814201D814
:1004B00001207047002070470122D207002800DB8E
:1004C000101A002900DB511A814201D30120704724
:1004D000002070470122D207002800DB101A0029F3
:1004E00000DB511A814201D901207047002070477A
:1004F0000122D207002800DB101A002900DB511A64
:10050000814201D10120704700207047C217C10FFE
:10051000504010B54018CA079623002100F03BF95F
:1005200010BD00000EB5C217C10F5040CA074018D9
:100530000021054B0293019200910A460B4600F000
:1005400070F903B000BD0000330400000EB505498A
:100550000291002100910A460B46019100F061F9D9
:1005600003B000BD33040000C20F4100400201236C
:10057000400ADB05D207090EC0187F2901DA0020E6
:100580007047962903DC9623591AC84001E0963932
:100590008840002AF4D040427047000070B5CD0F6B
:1005A0004A0009030123090B1B0519430B4BED07F7
:1005B0000024520D9A4201DA002070BD074B3433FB
:1005C0009A4203DC9A1A00F0BAF802E00449511882
:1005D00088402C43F1D0404270BD0000FF03000072
:1005E000CDFBFFFF4A0009030123090B1B0519433B
:1005F000094B10B5520D9A4201DA002010BD064B8E
:1006000034339A4203DC9A1A00F099F810BD03497A
:100610005118884010BD0000FF030000CDFBFFFF14
:10062000C20FD207400040080BD0C10D0723DB01E9
:10063000C91840020905400A1143C2084007114386
:100640007047002001467047CB0FDB07490010B50B
:10065000490802460A4307D00A0D07240903E401AA
:10066000090B121B002A01DC002010BDC900440F39
:100670000C43C100E018D205801800F084F810BDCA
:1006800070B50446002903D000202022012310E089
:10069000002801D00020C043C046C0460DE02546DA
:1006A000D5408D4205D30D469540641B1D469540AF
:1006B00040191546521E002DF1DC214670BDF0B5E3
:1006C0001FB40646002082B00546402401910090E8
:1006D0001BE0019922460F46304600F030F8049A9C
:1006E000059B801A994110D310461946224600F006
:1006F00016F8361A8F410197224601200021009FEB
:1007000000F00DF838184D4100902046641E002876
:10071000DFDC019B00982946324607B0F0BD10B5DA
:10072000202A04DB0146203A9140002010BD914070
:1007300020239C1A0346E3401943904010BD10B596
:10074000202A04DB0846203AD040002110BD0B4689
:10075000D340D0402024A21A91400843194610BD2E
:1007600010B5202A06DBCB170846203A1041C117E6
:100770000B4306E00B461341D0402024A21A9140BF
:100780000843194610BD002904DA401C490001D174
:1007900040084000704770B40024050C05D11024B7
:1007A000000402D1002921D01124050E01D100023C
:1007B0000834050F01D10001241D850F01D18000EF
:1007C000A41C002801DB4000641C002908D020255F
:1007D0002E1B0D46F540A14000D0012129430843BE
:1007E00001061B1B000ADB1D02D5002070BC7047F0
:1007F000DB05181880180029F8DA401C4900F5D1EB
:1008000070BC40084000704710B5002B08DA002487
:10081000401C614192185B411A4301D140084000DD
:1008200010BDF0B51FB482B005460C0003D00846D9
:1008300004F058FB02E004F055FB20300246009023
:1008400021462846FFF76BFF049B059A04460F4696
:1008500018431143084314D0184610431BD0009886
:1008600040210A1A18460599FFF769FF05460E460A
:10087000009A05990498FFF752FF084305D001201C
:1008800004E02046394607B0F0BD0020C1170543FB
:100890000E432C43374300990E986305401A79059F
:1008A000E40A00220C43FD0A0A3002D5002001466A
:1008B000E9E70105101969410C9C0D9D001969417A
:1008C000FFF7A2FFDFE70000F0B51FB488B00B9977
:1008D0000998002448400999C00F49004908099126
:1008E000C0070B990090490049080B910999089895
:1008F000A64608431CD00B990A98084318D00998BB
:1009000001244000420D4800410D099824050003D0
:10091000000B204309900B980003000B20430B9021
:1009200050181C494018002201901446104605E05A
:10093000002001460DB0F0BD032801DA034600E0B7
:1009400003239C46C11A0AAE0AE05F0008ADED5BC6
:100950004F00F75B7D430027AA187C41491C5B1EB2
:100960006145F2DD410004AB5A522104120C0A43E6
:10097000240C401C0828DFDB019802900099704687
:1009800001910090059B049A07990698FFF749FF8B
:10099000D0E700000DFCFFFFFEB500231A461B1A2E
:1009A0008A4103DB0020014603B0F0BD4A000D037D
:1009B00001212D0B0905520D0D43D10702D100185D
:1009C0006D41521E5110FF31FF31013100270446A5
:1009D0003E46384600970191024601210020090554
:1009E000FFF7ADFEC3197141F818324684468E46B2
:1009F0004A4161462846611A904104D36046241A50
:100A0000954176461F46241900986D41401C009080
:100A10003428E1DDF91930467041091BA84103D2A1
:100A20000022D243134601E000221346019801053B
:100A3000381C7141FFF7E8FEB6E700004A000903E1
:100A40000123090B1B0519430A4B10B5520D9A429D
:100A500002DA0020014610BD064B34339A4203DC13
:100A60009A1AFFF76CFE10BD034BD218FFF757FE22
:100A700010BD0000FF030000CDFBFFFF10B50029F3
:100A800004DB0124E40740428C412146002B04DBB7
:100A90001C460123DB075242A341994200D19042F8
:100AA00010BD0000000000001CB509480090094876
:100AB000019005460126009C05E0E36807CC33431E
:100AC0000C3C98471034AC42F7D3FFF7FDFA000016
:100AD0004890000068900000811E091F00BFFCD2F2
:100AE000704784B0039002910192039800680090CF
:100AF000009801998843009000980299019A11404A
:100B000008430399086004B07047000082B0019068
:100B10000091009B0199094A88581843885002B0F7
:100B20007047C04682B001900091009B0199034A32
:100B300088581843885002B07047C04648100000DB
:100B400082B001900091009801999522520188503D
:100B500002B0704782B001900091009801999522EF
:100B60005201885002B0704782B001900091009805
:100B7000019995225201885002B0704782B00190CD
:100B80000091009B0199034A88581843885002B08D
:100B90007047C0462810000082B001900091009874
:100BA0000199024A885002B07047C046D012000036
:100BB00081B0009000990120C2026348885001B0C2
:100BC0007047C04682B00190009101980249405898
:100BD0000099084002B070473810000010B584B08A
:100BE000069C039002910192009302980199084398
:100BF000009908430699084303490843039989006B
:100C0000244A885004B010BD8100040081B00090D7
:100C1000009881001F4A8120885001B07047C0466B
:100C200010B584B0069C0390029101920093029843
:100C30000199084300990843069908438121084314
:100C400003998900134A885004B010BD81B0009008
:100C5000009881000F4A0020885001B07047C046BC
:100C600082B00190009100980349084301998900DE
:100C7000084A885002B070478000040082B001909A
:100C8000009100988021084301998900014A885009
:100C900002B070470480424082B0019000910198F8
:100CA0002721C90140580099084002B0704782B01E
:100CB0000190009101982721C901405800990840EE
:100CC00002B0704781B0009000993B4A3B48885081
:100CD00001B0704782B001900091009B0199034AD6
:100CE00088581843885002B07047C04690130000DF
:100CF00082B00190009100980199074A885002B093
:100D00007047C04682B00190009100980199024A54
:100D1000885002B07047C0469012000081B0009029
:100D20000099034A885801231843885001B070473E
:100D30000411000081B0009000990120C202BF4858
:100D4000885001B07047C04601000026B0B511229E
:100D5000120283580C4C1C400B894D881D438B7923
:100D60002B430A4D1D402B1983508B88CC791C4393
:100D7000097821435D239B001940801842689A43FB
:100D800089184160B0BDC04680CCFFFF7F330000B2
:100D900081B0009000980349405810210840000994
:100DA00001B070471011000081B000900099024A14
:100DB0000248885001B0704704080000030000B1E9
:100DC00080B582B001900091019890494018009937
:100DD000024AFFF786FE02B080BDC046FF03000056
:100DE00010B50122120383180C785C604978815099
:100DF00010BD000080B584B000920A4601460098FC
:100E0000039102A90A7001AA10700398044BC0183C
:100E10000978127811433F22FFF763FE04B080BDCA
:100E20000C11000082B001906846017000780199B1
:100E300045229201885002B070470000F0B584B09E
:100E400001242202344B19680392914319606A49C4
:100E50000D686D04FCD5457E25409E69A643741936
:100E60009C612024045D03252C40DE69AE433419C7
:100E7000DC611F4C256805262660466A37681F62BC
:100E800076685E6207262E402660C4697F252D02A3
:100E9000DE69AE436406640C3419DC61076845689A
:100EA00082680092C66802690192426902929A6958
:100EB000104C14403A07120B2D03ADB2AA1832435E
:100EC000009D2D072D0D1543019A1543029A1543D8
:100ED000007E2843084A0240101998611868039A56
:100EE0001043186008688005FCD504B0F0BDC0460A
:100EF000001340408D00F0FF72FF0F0006490868A4
:100F000001229043086070470349086801221202D9
:100F1000904308607047C04608010B4081B001460D
:100F20006846017000780249086001B07047C04609
:100F300008030B4080B582B0014601A801800188FA
:100F40000F2002022B48FFF7CCFD02B080BDC04647
:100F5000F0B5124B1D46083D2E680124A6432E60B5
:100F60000326360330401F68B743381818601868E6
:100F7000FF26B043C9B24018186028682043286093
:100F800018682107002A06D0084318601A4801682B
:100F9000C905FCD5F0BD88431860F0BD10010B40B9
:100FA00080B582B0014601A8017001780248032291
:100FB000FFF797FD02B080BD00010B4080B582B005
:100FC000014601A8017001780A483022FFF789FD27
:100FD00002B080BD07498860074802689202FCD5CC
:100FE000012212040B6813430B600168C906FCD58B
:100FF0007047C04604010B4004020B4081B00090D2
:101000000099024A0120885001B070470811000081
:1010100082B001900091009B0199C74A88581843FB
:10102000885002B07047C04681B0009000990120FE
:10103000C202C748885001B07047C0460100002670
:1010400081B000900098812149014058C0B201B0A0
:1010500070470000F0B5AA4A82183B4BC3180879C4
:101060004E793A4D774C002E23D0202804D0052607
:10107000F601002803D003E0354E002800D1882671
:10108000576F2F4037435767976F2F403743976706
:10109000566B26405663966B26409663002656652F
:1010A00096658F26F6435F6837405F609F683740DC
:1010B0009F608E79096820280BD0002819D1491E1D
:1010C0005160D76E2F4088210F43D766174670377F
:1010D00019E0491E5160D16E29401D4F3943D16638
:1010E000116F29403943116701214907194D1746EE
:1010F00009E049085160D76E2F400521C9010F430F
:10110000D766174670373C682C400C433C60D16A68
:101110004C4C2140D162116B214011630021D164FC
:1011200011658F21C943D46F0C40D4671C680C40F3
:101130001C600643BD2030401168074B0B40C018AF
:10114000801C1060F0BDC0468418000024493E0099
:1011500001040000FFFFFFCF4000FFCFB0B54A6899
:10116000364BC250664A80180A78222A58D8930013
:1011700001A4E3589F46C046171200002112000048
:10118000171200002112000021120000211200009D
:101190002112000021120000211200002112000083
:1011A0002112000021120000211200002112000073
:1011B000211200002112000005120000211200007F
:1011C000051200002112000021120000211200006F
:1011D0002112000021120000211200002112000043
:1011E0002112000021120000211200002112000033
:1011F000211200002112000005120000211200003F
:101200000512000003231B0704689C4301235B07AE
:10121000E318036004E003231B0704689C43046095
:101220000B69C360CB68064C1C40C36A054D1D406A
:101230002B19C362097A11430160B0BD0818000080
:10124000777702008888FDFF81B000900099614A9D
:101250006148885001B0704782B0019000910098B9
:10126000019911221202885002B0704710B507236D
:101270009B04194092008018024A84589C436118CC
:10128000815010BD3018000010B5029CA400001958
:1012900011431943014A815010BDC0465018000047
:1012A00092008018014A81507047C0461018000013
:1012B00010B50122120383180C789C604B78835080
:1012C0008978014A815010BD0C11000010B586B01C
:1012D00001930B4601460198059104A90B8003ABCD
:1012E0001A8002AA10800598054C001909881B88ED
:1012F000194312881143034AFFF7F3FB06B010BDF0
:101300000418000080FF000081B0009000991120B7
:101310000202885801231843885001B0704700002A
:1013200082B001900091009B0199034A88581843AC
:10133000885002B07047C0462810000081B000906D
:1013400000990120C2020248885001B07047C0468F
:101350000100002681B00090009881214901405889
:10136000C0B201B070470000B0B51122120283581C
:101370000124A34383500B888C781C438B88234320
:10138000094C1C408358094D1D40631983508B79CB
:10139000CC791C43097A21437E2319408018426886
:1013A0009A4351184160B0BD18670000E798FDFFEF
:1013B00081B00090009802494058C0B201B0704717
:1013C0002411000081B000900099024A0248885020
:1013D00001B0704704080000030000B180B584B07C
:1013E00003900291019203980B49401802990B4A0D
:1013F000FFF777FB03980A49401801993F22FFF74E
:1014000070FB0399074A8818895801221140FFF799
:1014100068FB04B080BDC04610110000FFFF000053
:10142000141100000411000010B5012212038318EA
:101430000C789C604978815010BD80B582B00190D5
:101440000091019811210902401800990322D2034A
:10145000FFF747FB02B080BD10B58AB00D9C0C9C15
:10146000099008910792069300200590FFE70598E0
:101470000C99884231D8FFE70C98404305994943BD
:10148000401AFFF763F804F0BDF9FFF787F80490FE
:1014900005980290FFE7029805994942884217DBB8
:1014A000FFE70998029940180899049A891A0D9A39
:1014B00000F018FA0998029940180899049A8918B6
:1014C0000D9A00F00FFAFFE70298401E0290E2E743
:1014D000FFE70598401C0590C9E70C9841000320E0
:1014E000401A0390FFE70598049988425BDDFFE707
:1014F0000398002807D5FFE7059880000399401856
:10150000801D03900BE005980499401A8000039910
:1015100040180A3003900498401C0490FFE7059897
:10152000401E0590059840420190FFE701980599FB
:10153000884217DCFFE70998019940180899049A36
:10154000891A0D9A00F0CEF9099801994018089966
:10155000049A89180D9A00F0C5F9FFE70198401C1C
:101560000190E3E7049840420090FFE70098049957
:10157000884217DCFFE70998059940180899009AF6
:1015800089180D9A00F0AEF909980599401A089942
:10159000009A89180D9A00F0A5F9FFE70098401C01
:1015A0000090E3E79FE70AB010BD000080B582B06D
:1015B00025480321FFF706FB019001A80078C0072A
:1015C00000281AD0FFE720480221FFF770FB00280F
:1015D00009D1FFE71D4948680A680023521E984157
:1015E0000A60486008E0194948680A680023521CEC
:1015F00058410A604860FFE720E001A800788007B2
:1016000000281AD5FFE710480121FFF750FB0028FA
:1016100009D1FFE70D4948680A680023521C584168
:101620000A60486008E0094948680A680023521EB9
:1016300098410A604860FFE7FFE7FFE7024803219F
:10164000FFF770FA02B080BD00200A402802202077
:1016500080B584B003900291019200932A2000F09B
:10166000CDFE039800F0B1FE019800F0AEFE2B20F5
:1016700000F0C4FE0298233000F0A7FE009823304B
:1016800000F0A3FE2C2000F0B9FE04B080BD10B520
:101690008AB00C9C0990089107920693042005904B
:1016A0000998059A8018089B07998A1A0C99009145
:1016B000194600F091F8099A0898059BC1180698F8
:1016C000C31A0C980090104600F086F80998059A05
:1016D0008018069B07998A1A0C990091194600F008
:1016E0007BF8079A0898059BC1180698C31A0C98AE
:1016F0000090104600F070F80998059A8018089933
:1017000089180C9B019300925A220292B4230393EE
:10171000FFF7A2FE029B0798059A801A089989187C
:101720000C9C019400920022FFF796FE039A099800
:10173000059BC0180699C91A0C9C01940093872335
:101740005B000493FFF788FE049A0798059BC01A74
:101750000699C91A0C9C019400932D23DB00FFF716
:101760007BFE0998059BC0180899079AD21ACB18D6
:101770000C9C009400F010F9079A059C101B089926
:101780000919069B1B1B0C9C009400F005F9099895
:10179000059C0019069B191B079A121B0C9C0094B0
:1017A00000F0FAF809980899059C09190219069B96
:1017B0001B1B0C9C009400F0EFF80998059C001985
:1017C00008990919079A121B069B1B1B0C9C009475
:1017D00000F0E2F80AB010BD10B58EB0109C0D906C
:1017E0000C910B920A930020089007900B980D998A
:1017F000401A06900A980C99401A05900D9801908D
:101800000C9800900698012803DBFFE70120039065
:101810000EE00698002803D1FFE70020039006E0C1
:101820000020C0430390069840420690FFE7FFE780
:101830000598012803DBFFE7012002900EE00598E0
:10184000002803D1FFE70020029006E00020C043FB
:101850000290059840420590FFE7FFE7069805993A
:10186000884203DDFFE70698049002E005980490A3
:10187000FFE700200990FFE709980499491C884276
:101880002ED2FFE701980099109A00F02BF80699E4
:1018900008984018089005990798401807900898EC
:1018A0000499884209DDFFE704990898401A0890D6
:1018B0000399019840180190FFE70798049988421E
:1018C00009DDFFE704990798401A079002990098EC
:1018D00040180090FFE7FFE70998401C0990CBE70C
:1018E0000EB010BD80B584B0039002910192039AAE
:1018F000029B10461946FFF7ABFE019800F065FD0C
:1019000004B080BD10B586B0089C05900491039288
:1019100002930598049B039A089900911946FFF7D2
:101920005BFF059A0499029B089800901046FFF708
:1019300053FF0598029B039A089900911946FFF7F7
:101940004BFF039A0499029B089800901046FFF7FA
:1019500043FF06B010BD80B586B005900491039298
:101960000293059A049903980B181046FFF770FE2E
:1019700004980190FFE701980499039A8918884216
:1019800008DCFFE7029800F020FDFFE70198401C0B
:101990000190F0E706B080BD10B586B0089C0590B8
:1019A00004910392029305980499039A521E029B94
:1019B0005B1EFFF74DFE04980190FFE70198029926
:1019C000884215D2FFE705980090FFE70098039939
:1019D000884208D2FFE7089800F0F7FCFFE700987C
:1019E000401C0090F2E7FFE70198401C0190E5E7FA
:1019F00006B010BD70B594B000920C460546009834
:101A00001A99199A189E1395129411AC019420708A
:101A100010930FA8029002700EAA11700AAA00215A
:101A20000391117013990791007841080CA8049054
:101A300001700178C80805904907401C00290690EC
:101A400001D105980690029B049A0199069C18788A
:101A500060430890119820380870139812991278F2
:101A60008218521E1B78CB185B1EFFF7F1FD0398FE
:101A70000990FFE709980899884200D39DE00FA8D4
:101A800000780C280BD1FFE711A800780C21414306
:101A90004E4840180999405C0DA9087031E00FA824
:101AA000007810280AD1FFE711A800780101464804
:101AB00040180999405C0DA9087021E00FA8007832
:101AC00018280BD1FFE711A80078302141433D4889
:101AD00040180999405C0DA9087010E00FA8007823
:101AE00020280AD1FFE711A8007881013448401866
:101AF0000999405C0DA9087000E05EE0FFE7FFE790
:101B0000FFE70BA900200870FFE70BA80078072863
:101B10004EDCFFE70EA80078002822D1FFE70DA8D1
:101B200000780BA90978C840C007002804D0FFE757
:101B3000109800F04AFC03E0189800F046FCFFE71C
:101B40000A98411C0AA8017000780CA90978FEF7D0
:101B500097FD002904D1FFE70AA90020087027E0BB
:101B600020E00DA800780BA90978C840C00700281C
:101B700006D0FFE713981299109AFFF7B3FEFFE71C
:101B80001398401C139013980799401A0CA90978D0
:101B9000884206D1FFE7079813901298401C1290D4
:101BA00006E0FFE7FFE70B98401C0BA90870ACE7C5
:101BB000FFE70998401C09905CE714B070BDC0466F
:101BC00080740000B0620000C05C00004C5800004F
:101BD00070B58AB00C46054610980F990E9E09956F
:101BE00008940792069305AA117004A90870FFE7EC
:101BF0000798007800287DD0FFE7079800788028B4
:101C00005DDBFFE705A800780C280FD1FFE70998F6
:101C10000899079A069B0E9C05AD2D7804AE367880
:101C200002960195009400F067F83FE005A800785F
:101C300010280FD1FFE709980899079A069B0E9C78
:101C400005AD2D7804AE367802960195009400F02B
:101C500021F92AE005A8007818280FD1FFE7099894
:101C60000899079A069B0E9C05AD2D7804AE367830
:101C700002960195009400F0DBF915E005A80078C4
:101C800020280FD1FFE709980899079A069B0E9C18
:101C900005AD2D7804AE367802960195009400F0DB
:101CA00095FA00E026E0FFE7FFE7FFE70798801CD2
:101CB000079005A8017809984018099019E009983B
:101CC0000899079A1278069B0E9C05AD03952D780E
:101CD00004AE3678029601950094FFF78BFE0398C8
:101CE0000799491C07910078410809984018099004
:101CF000FFE77DE70AB070BD70B592B000920C4668
:101D0000054600981899179A169E119510940F90F1
:101D10000E930DA802700CAA117009AA002101915E
:101D200011701199059101780291C8080390490733
:101D3000401C0029049001D1039804900198029955
:101D4000049A51430691052107910890FFE70898EE
:101D50000799884200D399E008981A2141434C48DA
:101D6000405C0F990978884200D08AE008981A21CF
:101D700041434748401840780F994978884200D03D
:101D80007FE0119810990DAA1378C218521ECB1833
:101D90005B1EFFF75DFC0BA900200870FFE70BA896
:101DA0000078069988426BD2FFE70AA900200870E4
:101DB000FFE70AA8007807285CDCFFE70CA800789A
:101DC000002829D1FFE708981A21414330484018DC
:101DD0000BA90978401880780AA90978C840C0077B
:101DE000002804D0FFE70E9800F0EFFA03E0169801
:101DF00000F0EBFAFFE70998411C09A80170007890
:101E00000DA90978FEF73CFC002904D1FFE709A9D8
:101E1000002008702EE027E008981A2141431C4852
:101E200040180BA90978401880780AA90978C84099
:101E3000C007002806D0FFE7119810990E9AFFF707
:101E400051FDFFE71198401C119011980599401A17
:101E50000DA90978884206D1FFE7059811901098DE
:101E6000401C109006E0FFE7FFE70A98401C0AA913
:101E700008709EE7FFE70B98401C0BA908708EE7DF
:101E8000FFE7FFE70898401C089060E712B070BDBC
:101E9000ED8C000070B592B000920C46054600989B
:101EA0001899179A169E119510940F900E930DA8DD
:101EB00002700CAA117009AA0021019111701199E8
:101EC000059101780291C80803904907401C002938
:101ED000049001D10398049001980299049A514307
:101EE00006910B2107910890FFE70898079988420F
:101EF00000D399E00898222141434C48405C0F9957
:101F00000978884200D08AE0089822214143474856
:101F1000401840780F994978884200D07FE01198A6
:101F200010990DAA1378C218521ECB185B1EFFF72A
:101F30008FFB0BA900200870FFE70BA8007806991B
:101F400088426BD2FFE70AA900200870FFE70AA8C1
:101F5000007807285CDCFFE70CA80078002829D16E
:101F6000FFE7089822214143304840180BA909781F
:101F7000401880780AA90978C840C007002804D012
:101F8000FFE70E9800F021FA03E0169800F01DFA22
:101F9000FFE70998411C09A8017000780DA909788C
:101FA000FEF76EFB002904D1FFE709A900200870A5
:101FB0002EE027E00898222141431C4840180BA935
:101FC0000978401880780AA90978C840C007002815
:101FD00006D0FFE7119810990E9AFFF783FCFFE7F0
:101FE0001198401C119011980599401A0DA9097873
:101FF000884206D1FFE7059811901098401C109078
:1020000006E0FFE7FFE70A98401C0AA908709EE770
:10201000FFE70B98401C0BA908708EE7FFE7FFE76E
:102020000898401C089060E712B070BD6F8D0000EA
:1020300070B592B000920C46054600981899179A10
:10204000169E119510940F900E930DA802700CAA75
:10205000117009AA0021019111701199059101785F
:102060000291C80803904907401C0029049001D13F
:102070000398049001980299049A51430691032110
:1020800007910890FFE708980799884200D399E0E4
:1020900008984A2141434C48405C0F99097888428E
:1020A00000D08AE008984A214143474840184078C8
:1020B0000F994978884200D07FE0119810990DAAB5
:1020C0001378C218521ECB185B1EFFF7C1FA0BA97A
:1020D00000200870FFE70BA80078069988426BD2B1
:1020E000FFE70AA900200870FFE70AA80078072880
:1020F0005CDCFFE70CA80078002829D1FFE70898EE
:102100004A214143304840180BA90978401880788B
:102110000AA90978C840C007002804D0FFE70E9834
:1021200000F053F903E0169800F04FF9FFE7099823
:10213000411C09A8017000780DA90978FEF7A0FAE2
:10214000002904D1FFE709A9002008702EE027E04C
:1021500008984A2141431C4840180BA909784018A7
:1021600080780AA90978C840C007002806D0FFE790
:10217000119810990E9AFFF7B5FBFFE71198401CD4
:10218000119011980599401A0DA90978884206D135
:10219000FFE7059811901098401C109006E0FFE7AB
:1021A000FFE70A98401C0AA908709EE7FFE70B9812
:1021B000401C0BA908708EE7FFE7FFE70898401C5A
:1021C000089060E712B070BDE58E000070B592B067
:1021D00000920C46054600981899179A169E11957C
:1021E00010940F900E930DA802700CAA117009AAFA
:1021F0000021019111701199059101780291C8088F
:1022000003904907401C0029049001D103980490D1
:1022100001980299049A514306910121079108906F
:10222000FFE708980799884200D399E0089882212F
:1022300041434C48405C0F990978884200D08AE0BD
:102240000898822141434748401840780F994978BF
:10225000884200D07FE0119810990DAA1378C21817
:10226000521ECB185B1EFFF7F3F90BA90020087074
:10227000FFE70BA80078069988426BD2FFE70AA90E
:1022800000200870FFE70AA8007807285CDCFFE759
:102290000CA80078002829D1FFE708988221414343
:1022A000304840180BA90978401880780AA90978A5
:1022B000C840C007002804D0FFE70E9800F085F85A
:1022C00003E0169800F081F8FFE70998411C09A87F
:1022D000017000780DA90978FEF7D2F9002904D120
:1022E000FFE709A9002008702EE027E00898822166
:1022F00041431C4840180BA90978401880780AA966
:102300000978C840C007002806D0FFE71198109947
:102310000E9AFFF7E7FAFFE71198401C1190119809
:102320000599401A0DA90978884206D1FFE705985A
:1023300011901098401C109006E0FFE7FFE70A9804
:10234000401C0AA908709EE7FFE70B98401C0BA9E8
:1023500008708EE7FFE7FFE70898401C089060E7E9
:1023600012B070BDC38F000070B58AB00C46054630
:1023700010980F990E9E099508940792069305AA46
:10238000117004A90870FFE70798007800281AD098
:10239000FFE709980899079A1278069B0E9C05ADED
:1023A00003952D7804AE3678029601950094FFF7D8
:1023B00021FB039800784108099840180990079874
:1023C000401C0790E0E70AB070BD80B582B0019074
:1023D00001A80090407800F027F80098007800F0FD
:1023E00023F802B080BD80B582B0014601A801701B
:1023F000007800F019F802B080BD000080B584B00C
:1024000003A9009108700120C1020291EA480190DD
:10241000FEF7A0FB0098007800F006F801980299FA
:10242000FEF766FC04B080BD80B584B003A90091BE
:102430000870012081030291DF480190FEF78AFBBA
:102440000098007801F0CEFD01980299FEF750FC4B
:1024500004B080BD80B58CB00920FEF7F7FB0A20E0
:10246000FEF7F4FB3A2007210191FEF707FC01205B
:1024700003908106CF480290FEF78EFB01993B2026
:10248000FEF7FCFB02980399C906FEF785FB1420B2
:1024900002210491FEF7F2FB04991520FEF7E0FB00
:1024A000192003210B91FEF7E9FB0B991820FEF789
:1024B000E5FB03980023069300930204312019469C
:1024C000FEF7AEFB1A20FEF7A1FB1B20FEF79EFBDA
:1024D0001E20FEF79BFB3820FEF798FB0398069919
:1024E000009142040592C30407931320FEF776FB84
:1024F000059A0699079B00911220FEF76FFB059A3B
:102500000699079B009105200990FEF767FB049848
:10251000059A0699079B0091FEF760FB069A079BB8
:1025200000920B201146FEF759FB069A079B00927A
:102530000C201146FEF752FB9F480A900A49089169
:10254000FEF7FEFA08990A98FEF726FB09990A9801
:10255000FEF7C0FB0A980B99FEF7D8FA0A980B9978
:10256000FEF70CFB0CB080BD004C400480B586B07B
:102570001E4992480590FEF79BFE05981C49FEF700
:1025800069FD05980023029319461A46FEF79EFE40
:10259000029B0598009319461A46FEF775FE029AAB
:1025A00005981146FEF762FE029A059811490391BB
:1025B000FEF776FE029B05980121049100911946D1
:1025C0001A46FEF761FE0299049A0598FEF74EFE40
:1025D0000399049A0598FEF763FE0598FEF70EFD31
:1025E00005980321FEF738FE06B080BD408C000040
:1025F000448C00001027000080B582B00B49704861
:102600000190FEF7EDFB01980949FEF79FFB019849
:102610000021FEF7D5FB019810210222FEF7EAFB0C
:102620000198FEF77BFB02B080BDC0464C8C0000D9
:102630004E8C000080B582B000200190FEF76EFC49
:10264000012000904002FEF775FC0198FEF7A8FCFF
:10265000FEF754FCFEF758FC009A032000030A2101
:10266000FEF776FC0748FEF7E9FB1020FEF7A6FC14
:102670000198FEF7AFFC0098019900F04DF902B007
:1026800080BDC046588C000080B582B00A495748CA
:102690000190FEF70DFE01980849FEF75FFD0198D5
:1026A0000121FEF7B5FC1220032100F035F9019855
:1026B000FEF7A4FC02B080BD808C0000848C00007A
:1026C00080B582B0104954480190FEF7ADFE0198E4
:1026D0000E49FEF749FE01980021FEF7AEFE019873
:1026E000412189001B22FEF779FE01980121890210
:1026F000FEF716FE0F20032100F00EF90198FEF7F9
:1027000003FE02B080BDC046988C00009A8C000089
:1027100080B500F01DF8FFF79DFEFFF78BFFFFF778
:1027200025FFFFF7B1FFFFF7CBFFFFF765FF054977
:102730009C22002088540449B8228854034924224A
:10274000885480BDA0002020680120204001202066
:1027500080B586B017480090FEF7B4FA164801908D
:10276000FEF7B0FA15480290FEF76EFD1F48039081
:10277000FEF76AFD28480490FEF724FE10480590F5
:10278000FEF712FB0098FEF713FA0198FEF710FA15
:102790000298FEF749FC0398FEF746FC0498FEF702
:1027A000CDFD0598FEF7C6FA1020FEF795F906B0A4
:1027B00080BDC04600000A4000200A4000A08640BC
:1027C00000A0464080B50948FEF73AFC01280BD12D
:1027D000FFE700F07FFC01F017F8012803D1FFE7C5
:1027E00000F0E6FFFFE7FFE780BDC046000086403F
:1027F00010B50948FEF7AEFD0B280CD1FFE70648DF
:10280000FEF7D6FD054980240A59531C0B51885404
:1028100000F0B0FAFFE710BD008010401800202043
:1028200081B001466846017000214056002809D455
:10283000FFE7684601781F200140012088401649C3
:102840000860FFE701B0704781B00146684601703B
:1028500000214056002809D4FFE7684601781F2070
:102860000140012088400C490860FFE701B0704733
:1028700081B001466846017000214056002809D405
:10288000FFE7684601781F20014001208840024987
:102890000860FFE701B0704780E200E081B00146C8
:1028A0006846017000214056002809D4FFE76846B9
:1028B00001781F2001400120884016490860FFE789
:1028C00001B0704781B00146684601700021405652
:1028D000002809D4FFE7684601781F200140012045
:1028E00088400C490860FFE701B0704781B001469D
:1028F0006846017000214056002809D4FFE7684669
:1029000001781F2001400120884002490860FFE74C
:1029100001B0704700E100E070B582B0024601A846
:102920000270009100214056002816D4FFE70024D1
:1029300001A908570322D3431840174A8058095762
:102940008C07E50EFF24AC40A043009CA401E4B238
:10295000AC402043194088501AE001A908780F24A0
:10296000204008380322D34318400A4A80580025E3
:1029700049578D07EE0EFF25B540A843009DAD01D8
:10298000EDB2B54028432140083919408850FFE78F
:1029900002B070BD1CED00E000E400E080B584B042
:1029A000039003980078C006000F0290012808D019
:1029B000FFE70298082851D0FFE70298092852D073
:1029C00056E000F015FF002811D1FFE7C948416823
:1029D000491E41604068002804D5FFE7C549012031
:1029E0004860FFE7C348406801F08CFDFFE700F056
:1029F000FFFE03280ED1FFE7BE488168491CCA17B5
:102A0000920F8A1803239A43891A8160806801F023
:102A1000C5FFFFE700F0ECFE04281ED1FFE700F041
:102A2000D7FE012808D1FFE700F0E8FEB149896828
:102A3000012201F0C7F90FE000F0CAFE02280AD116
:102A4000FFE7002001905A230093AB48AB49AC4A02
:102A500001F0A4FBFFE7FFE7FFE70AE0A548052137
:102A600000F046FB05E0A348062100F041FB00E032
:102A7000FFE704B080BDC04680B582B001900198E8
:102A80000078C006000F012835D1FFE700F0B0FE46
:102A9000012805D0FFE700F0ABFE02280ED1FFE7CA
:102AA0000220009001F018FE002001F083F901F0EF
:102AB000AFFA00998F4800F01BFBFFE700F098FE8B
:102AC000032808D1FFE78B48022100F011FB042006
:102AD00001F064FFFFE700F08BFE04280AD1FFE756
:102AE0008448022100F004FB00F07EFE001D01F08E
:102AF0005BFDFFE700E0FFE702B080BDB0B58AB044
:102B0000099009980078C006000F0890012804D0A9
:102B1000FFE70898062866D07DE000F069FE0028EF
:102B20003BD1FFE77348012100F0E2FA00F046FED6
:102B3000C0B201F0D1FD00F05BFE01281DD1FFE71E
:102B400000F05CFE0068079000F058FE40680490BA
:102B500000F054FE8068059000F034FE069000F00E
:102B60004DFE0499059A069B04460798E46A0025E1
:102B70000195009402F010F8FFE700F039FE0228FA
:102B80000AD1FFE7002001905A2300935A485B497D
:102B90005B4A01F003FBFFE724E000F029FE012877
:102BA00005D0FFE700F024FE02280AD1FFE75148D4
:102BB0000390012100F09CFA0398806801F0EEFE7A
:102BC0000FE000F015FE03280AD1FFE74948029004
:102BD000012100F08DFA0298806801F0E5FCFFE722
:102BE000FFE7FFE718E000F003FE012805D0FFE74C
:102BF00000F0FEFD02280DD1FFE73E48032100F062
:102C000077FA00F0EDFD002803D1FFE701F000FAAC
:102C1000FFE7FFE700E0FFE70AB0B0BD80B584B092
:102C2000039003980078C006000F0290012808D096
:102C3000FFE70298082850D0FFE70298092851D0F2
:102C400055E000F0D5FD00280DD1FFE72948416887
:102C5000491CCA0F8A1801239A43891A41604068A7
:102C600001F050FCFFE700F0C3FD032811D1FFE79E
:102C700020488168491E81608068002804D5FFE7EC
:102C80001C4903208860FFE71A48806801F086FE2F
:102C9000FFE700F0ADFD04281ED1FFE700F098FD2E
:102CA000012808D1FFE700F0A9FD12498968002238
:102CB00001F088F80FE000F08BFD02280AD1FFE751
:102CC000002001905A2300930B480C490C4A01F054
:102CD00065FAFFE7FFE7FFE70AE00648042100F096
:102CE00007FA05E00348062100F002FA00E0FFE7DA
:102CF00004B080BD6802202085EB4141CFF731410F
:102D0000448B9C3F80B582B000F084FD019001A807
:102D100000780007C00F02B080BD80B582B000F01F
:102D200079FD019001A800788007C00F02B080BD36
:102D300080B582B000F06EFD019001A800784007D8
:102D4000C00F02B080BD80B582B000F063FD01907D
:102D500001A800780121084002B080BD80B582B092
:102D60000F200190FFF770FD0198FFF7ABFD02B057
:102D700080BD000081B00948802140587F2806DBD3
:102D8000FFE70649802200208850009002E00120E1
:102D90000090FFE7009801B07047C046180020205F
:102DA000C54900200870704710B586B00A9C099C80
:102DB000089C059004910392029305980999401A82
:102DC00005900498099949184018049003980999A6
:102DD000401A0390029809994918401802900598E2
:102DE000039B089942180A9900911946FEF7F4FCD2
:102DF000059A039908980B180A9800901046FEF758
:102E0000EBFC059804994018039B0899421A0A990B
:102E100000911946FEF7E0FC0598049942180399C1
:102E200008980B180A9800901046FEF7D5FC0598F4
:102E30000399029A8B18089942180A990091194629
:102E4000FEF7CAFC059A03980299411808980B1AD4
:102E50000A9800901046FEF7BFFC059804994018A8
:102E60000399029A8B180899421A0A9900911946F7
:102E7000FEF7B2FC0598049942180398029941188C
:102E800008980B1A0A9800901046FEF7A5FC06B0A9
:102E900010BD0000B0B58CB0139C129C119C109C0E
:102EA0000B900A9109920893119910984843C10F09
:102EB0004018401007900B980A99CA0F89184910BA
:102EC000401806901198C10F4018401005900998BD
:102ED0000899CA0F89184910401804900B9809994D
:102EE0000A9A8218089BCB18139C0094FEF7CFFB1C
:102EF00006980799401A0499059A891A129A139B01
:102F000011AC24780125029501940093674BFEF7DC
:102F10005FFE0CB0B0BDC046B0B58AB00E9C099043
:102F2000089107AD03952A8006AC23702178089894
:102F30004843C10F40184010059020784008049085
:102F4000059A9620801A0999AA3223785B182D8851
:102F50000095FEF79CFB039B0599A020401A099958
:102F60000E9A1B88247801250295019400934F4BFB
:102F7000FEF72EFE0AB0B0BDB0B58EB00491044687
:102F800004981499139D129D0C940B900A92099326
:102F900008A8018007AA0021118006AA118005AAAD
:102FA0001180405E0999884204DBFFE7099808A96F
:102FB0000880FFE7002108A8405E002804DCFFE746
:102FC00008A900200880FFE70B9809994018089984
:102FD000401A06A9088032480078002812D0FFE77E
:102FE0000C9806A90988129AFEF77CFC0C982D49CA
:102FF000088006982C4908802949002008700DA9EE
:10300000088048E027480088411C07A80180008804
:103010000A99884227DAFFE707A8019000880B99F0
:10302000099A8A18139BFEF796FC019A1D48029094
:1030300000881D4903910988128806AB1B88129CE1
:103040000094FEF7C9FB01980088401C0B99099A6F
:103050008A18164BFEF77FFC029A03990798108096
:103060000698088013E00C980B99099A8A18139B0C
:10307000FEF771FC0C9806A90988129AFEF732FC3B
:103080000C9808490880069807490880FFE70798C8
:103090000DA90880FFE70DA800880EB0B0BDC0469E
:1030A000040020209C0020209E002020FFFF000024
:1030B00001490120087070470A00202080B582B0C5
:1030C00001200190FFF7ACFB0198FFF7E7FB02B08E
:1030D00080BD000005494868086888608868C00F9E
:1030E00008730020486008607047C046280220200E
:1030F00083B0029001A801700078401E009005285E
:1031000000D999E00098810001A040588746C04648
:103110002931000097310000053200002132000003
:10312000293200003132000002980078002818D1BE
:10313000FFE702984068002806D1FFE702990120C6
:103140000870029948730BE002984068012806D184
:10315000FFE702990220087002994873FFE7FFE732
:1031600018E002980078012805D0FFE7029800785F
:10317000022804D1FFE702990320087009E00298B1
:103180000078032804D1FFE7029904200870FFE7C4
:10319000FFE7FFE751E002980078032814D1FFE72A
:1031A0000298407B012804D1FFE7029901200870B2
:1031B00009E00298407B022804D1FFE7029902202F
:1031C0000870FFE7FFE71CE002980078012805D0AF
:1031D000FFE702980078022808D1FFE70299002053
:1031E0000870029908730299487309E00298007800
:1031F000042804D1FFE7029903200870FFE7FFE7E6
:10320000FFE71AE00298007B002804D1FFE702994B
:103210000120087303E0029900200873FFE70CE027
:1032200002990120487008E002990220487004E0E9
:1032300002990020487000E0FFE703B070470000EB
:1032400080B584B003A900200870FB4A126802927E
:103250000870FFE70298002800D1EBE1029800789F
:103260004009012805DBFFE702994888401C488097
:10327000FFE70298007840090190062800D9D0E1C4
:103280000198810001A040588746C046A93200003D
:10329000013300006B330000E734000037350000D5
:1032A000A1350000FF350000E5480088002203A991
:1032B0008956C840C00700281AD0FFE702990020AD
:1032C000488002998880029908781F221040203097
:1032D000087002990878E12210400870029840694D
:1032E000002804D0FFE7029841698847FFE706E01D
:1032F00002990878E122104016300870FFE790E14B
:10330000CE480088002203A98956C840C00700287B
:1033100007D1FFE7029908781F221040403008705B
:1033200022E002994888498988421CDBFFE702991C
:1033300048888989884216DAFFE7029908781F22AF
:1033400010408030087002990878E122104008305F
:10335000087002984069002804D0FFE7029841698C
:103360008847FFE7FFE7FFE75BE1029948880989A3
:10337000884229DAFFE702998888401C88800298F1
:103380008088012807D1FFE7029908781F221040A2
:103390006030087017E00299002088800299087850
:1033A0001F221040087002990878E1221040001D89
:1033B000087002984069002804D0FFE7029841692C
:1033C0008847FFE7FFE78DE002994888098988422E
:1033D0001EDBFFE7029948884989884218DAFFE72F
:1033E000029900208880029908781F2210400870F6
:1033F00002990878E1221040801C08700298406908
:10340000002804D0FFE7029841698847FFE768E099
:1034100002994888498988421EDBFFE7029948885B
:103420008989884218DAFFE702990020888002998A
:1034300008781F221040087002990878E122104095
:103440000A30087002984069002804D0FFE702980B
:1034500041698847FFE743E00299488889898842A3
:103460001EDBFFE702994888C989884218DAFFE71E
:10347000029900208880029908781F221040087065
:1034800002990878E12210400E30087002984069D5
:10349000002804D0FFE7029841698847FFE71EE053
:1034A00002994888C989884218DBFFE70299002001
:1034B0008880029908781F221040087002990878C5
:1034C000E12210401230087002984069002804D0B0
:1034D000FFE7029841698847FFE7FFE7FFE7FFE75B
:1034E000FFE7FFE79DE088480088002203A989568E
:1034F000C840C00700280FD0FFE702998888401C09
:103500008880029908781F22104040300870029984
:103510004888401E48800DE0029948880989884201
:1035200007DBFFE7029908781F221040403008703F
:10353000FFE7FFE775E073480088002203A989567A
:10354000C840C007002807D1FFE7029908781F226A
:1035500010404030087022E00299488889898842EA
:103560001CDBFFE702994888C989884216DAFFE721
:10357000029908781F221040A0300870029908783C
:10358000E12210400C30087002984069002804D0F5
:10359000FFE7029841698847FFE7FFE7FFE740E060
:1035A00058480088002203A98956C840C00700284F
:1035B00007D1FFE7029908781F22104040300870B9
:1035C0001CE002994888C989884216DBFFE7029906
:1035D00008781F221040C030087002990878E12254
:1035E00010401030087002984069002804D0FFE7AE
:1035F000029841698847FFE7FFE7FFE711E041488C
:103600000088002203A98956C840C007002807D1B6
:10361000FFE7029908781F22104040300870FFE74A
:10362000FFE7FFE70298806902900398401C03A916
:1036300008700FE604B080BD100020201600202086
:103640007802202080B586B004A900200880574960
:1036500009882B4A118003A90870524A1268059202
:103660000870FFE7059900200029029006D0FFE7C7
:1036700005980069411E88410290FFE70298C00743
:1036800000282BD0FFE71E4800880190059800789D
:10369000C00700280BD0FFE705980069804741422A
:1036A0004841002203A989568840009008E0059807
:1036B00000698047002203A9895688400090FFE7EF
:1036C0000198009908430E490880FFE70598806932
:1036D00005900398401C03A90870C3E708480088B8
:1036E000C14304A80180008806490B8802465A405D
:1036F0001040054A10800498088006B080BDC0467E
:1037000008002020160020207802202083B001909D
:103710002448006800900198002805D0FFE722485F
:103720000078112804DBFFE702A9FF20087033E0CE
:10373000FFE7009800280DD0FFE700980199884224
:1037400004D1FFE702A9FF20087025E000988069F6
:103750000090EEE713490868019A9061019A107889
:103760001F2318401070019A1078E123184016307A
:103770001070019A00205080019A90800198086092
:103780000A4908884000088007480178491C0170F0
:10379000007802A90870FFE7002102A8405603B094
:1037A0007047C04610002020140020200600202072
:1037B00080B5FFF747FFFFF743FD80BD0E48406827
:1037C0007047C046014880687047C04628022020E4
:1037D0000948407B7047C046074840787047C0465C
:1037E0000548007B7047C046034880687047C04664
:1037F000014800787047C04668022020F5487047AD
:10380000F448C06A7047C046014800787047C04617
:103810000A002020B0B584B00120009041021F486A
:103820000190FDF739FA009904460198621E94410F
:1038300003AB02931A78FE252A4012191A70090266
:10384000FDF72AFA0099029B04460198621E9441F2
:103850001A786400FD252A4012191A70C907FDF76D
:103860001BFA0099029B04460198621E94411A7843
:10387000A400FB252A4012191A700907FDF70CFA5B
:1038800002990246501E82410878D200F723184060
:1038900080180870039804B0B0BDC04600000A400C
:1038A00080B592B001200390810201916C48009094
:1038B000FDF750F96B48FDF70FF900980199FDF7F6
:1038C00017FA6948FDF708F911201090FEF796FDE8
:1038D00036200E90FEF792FD7020FEF784FD3A2010
:1038E000FEF78CFD05200690FEF77DFDB220FEF769
:1038F00085FD0C200290FEF776FD0298FEF773FD21
:1039000000200490FEF76FFD33200C90FEF76BFD56
:103910000C98FEF768FDB720FEF770FD3520FEF726
:1039200062FDBB20FEF76AFD1A20FEF75CFDC02099
:10393000FEF764FD2C20FEF756FDC220FEF75EFD6B
:103940000398FEF750FDC320FEF758FD0B200990A9
:10395000FEF749FDC420FEF751FD2020FEF743FD90
:10396000C620FEF74BFD0F20FEF73DFDD020FEF7F1
:1039700045FDA420FEF737FDA120FEF734FD2120F0
:10398000FEF73CFDE020FEF739FDF0200890FEF741
:103990002AFD0498FEF727FD04200590FEF723FD7D
:1039A0000598FEF720FD0598FEF71DFD0698FEF729
:1039B0001AFD29201190FEF716FD0C98FEF713FD55
:1039C0003E200D90FEF70FFD3820FEF70CFD122073
:1039D0000790FEF708FD0798FEF705FD28200B90DD
:1039E000FEF701FD3020FEF7FEFCE120FEF706FDAC
:1039F0000898FEF7F8FC07200A90FEF7F4FC0A206E
:103A0000FEF7F1FC0D20FEF7EEFC0998FEF7EBFC4B
:103A10000A98FEF7E8FC0B98FEF7E5FC0C98FEF719
:103A2000E2FC0D98FEF7DFFC0E98FEF7DCFC14209C
:103A30000F90FEF7D8FC0F98FEF7D5FC1198FEF713
:103A4000D2FC3220FEF7CFFC1098FEF7D7FC0748D7
:103A5000FDF742F81198FEF7D1FC12B080BDC046C8
:103A600000200A40009F240000127A00007C92008F
:103A7000B0B596B0002015901490FEF749FEFFF700
:103A80006DF901F0BDF9FFF719FB00F0CFFA00F076
:103A9000C5FA00F08DFAFFF703FF00F0B3FCFFE773
:103AA000FFF79EFE012833D1FFE7FFF791FE0146A5
:103AB0000791012804D0FFE7079802281CD01CE0DA
:103AC000FFF79EFE014608A800F04AF8FFF788FEBF
:103AD000012803D1FFE700F01DFE0CE0FFF780FE98
:103AE000002807D1FFE700F093FAFFF787FE00F008
:103AF000F5F8FFE7FFE70AE009E0FFF7D9FAFFF77B
:103B00007DFE00F0EBF8002000F054F9FFE7FFE73E
:103B1000FFF76EFE042821D1FFE7FFF75DFE00F0FE
:103B200059FEFFF76BFE00680690FFF767FE4068DE
:103B30000390FFF763FE80680490FFF743FE059053
:103B4000FFF75CFE0399049A059B04460698E46A15
:103B500001250195009401F01FF8FFE7A0E70000A0
:103B6000B0B584B0009003910398FCF7CFFC0190AE
:103B7000FFF728FEFCF7CAFC01990246154800F041
:103B80002DF8FCF7F1FC02901348FCF7A5FF029812
:103B9000012806DBFFE702A80188002000F0F2F808
:103BA0000DE00298002809D5FFE7029840420290F4
:103BB00002A80088002100F0E5F8FFE7FFE7009881
:103BC00004493CC93CC03CC93CC03CC93CC004B0F1
:103BD000B0BDC04638022020801A060080B58CB0E7
:103BE0000B900A9109920B998869C8610A98099902
:103BF000FCF7E4FA0B9988610B98806908900B98A0
:103C0000069081690069FCF788FA069908610B99AA
:103C10008869C969FCF7D2FA07900B990869096AA3
:103C2000FCF73CFC002804D1FFE70B99086A086107
:103C300012E00B990869096A0122D2075140FCF78A
:103C40003BFC002807D1FFE70B99086A0122D20745
:103C500050400861FFE7FFE70B9905910868029063
:103C60000898019048680969FCF7B0FA0199024682
:103C700002980392FCF7AAFA0399FCF74EFA014660
:103C80000598049180680799FCF7A0FA0499FCF75D
:103C900044FA059948620B99486A896AFCF7FEFB69
:103CA000002804D1FFE70B99886A486212E00B995B
:103CB000486A896A0122D2075140FCF7FDFB0028BF
:103CC00007D1FFE70B99886A0122D207504048626A
:103CD000FFE7FFE70B98406A0CB080BD81B0009011
:103CE00000990020C860009908610099486101B0FE
:103CF000704710B584B0089C079C069C0390029105
:103D00000192009302980399086001980399486012
:103D100000980399886006980399086207980399A8
:103D2000886208980399C86204B010BD81B0009001
:103D3000009800880449884204DBFFE700990348A3
:103D40000880FFE701B07047102700000F27000030
:103D500080B582B0014601A8018001880848002290
:103D6000FDF79EFA02B080BD80B582B0014601A881
:103D70000180018802480122FDF792FA02B080BD5D
:103D800000A0864080B584B0024603A8009002805F
:103D900002AA01921180FFF7C9FF0198FFF7C6FF41
:103DA00000980088FFF7E0FF01980088FFF7D0FF38
:103DB00004B080BD81B06946087000989A490873C4
:103DC00001B0704780B58EB00D900C910B920B989E
:103DD000002847D1FFE70C980A90032841D80A9899
:103DE000810001A040588746F93D0000153E0000C3
:103DF000313E00004D3E00000D9809900068FCF730
:103E00000FFC684A694BFCF71FFAFCF71DFC099987
:103E1000086026E00D9808904068FCF701FC614AB4
:103E2000624BFCF711FAFCF70FFC0899486018E0A8
:103E30000D9807908068FCF7F3FB5A4A5B4BFCF740
:103E400003FAFCF701FC079988600AE00D98C06A44
:103E5000632805DCFFE70D99C86A401CC862FFE7CC
:103E6000FFE79DE00C980690032800D997E006989C
:103E7000810001A040588746893E0000DD3E0000D9
:103E8000313F0000853F00000D9800680021FCF7DD
:103E900005FB00280ED1FFE70D9805900068FCF7A0
:103EA000BFFB404A404BFCF7CFF9FCF7CDFB05992F
:103EB0000860FFE70D9800680121C907FCF70AFBBD
:103EC000002803D1FFE70020049003E00D9800686C
:103ED0000490FFE704980D99086060E00D98406831
:103EE0000021FCF7DBFA00280ED1FFE70D980390C4
:103EF0004068FCF795FB2B4A2B4BFCF7A5F9FCF728
:103F0000A3FB03994860FFE70D9840680121C907AA
:103F1000FCF7E0FA002803D1FFE70020029003E05D
:103F20000D9840680290FFE702980D99486036E0CE
:103F30000D9880680021FCF7B1FA00280ED1FFE748
:103F40000D9801908068FCF76BFB164A164BFCF746
:103F50007BF9FCF779FB01998860FFE70D98806891
:103F60000121C907FCF7B6FA002803D1FFE70020BA
:103F7000009003E00D9880680090FFE700980D998D
:103F800088600CE00D98C06A6221C943884205DB55
:103F9000FFE70D99C86A401EC862FFE7FFE7FFE729
:103FA0000EB080BD9A9999999999B9BF9999B93FDD
:103FB00080B584B0622002900548019000900548C9
:103FC0000549064A064BFFF794FE04B080BDC04683
:103FD000003C1C463802202000000C420000C0407B
:103FE0000000204180B582B0014601A8017001782F
:103FF0000648FCF717FFFFE70448FCF7C9FE002856
:1040000001D0FFE7F8E702B080BDC04600A04640FF
:1040100080B500210846FFF7B5FE80BD02490020AB
:1040200008704860886070476802202080B582B0C0
:1040300012200190FEF71CFC0198FEF757FC02B01D
:1040400080BD000070B59EB0002003901D901C90B4
:104050001B901A9019901890179016901590149024
:1040600013901290119010900F900125A9060D91B8
:1040700047480C90FCF778FD0399009105208201D8
:10408000AA2309930846FDF787FC0C200E900E9991
:104090004C20401A02951021049101911F2408948C
:1040A0000094572105915022D24B0B93FDF7A2FCAF
:1040B000049A05990B9B0E9EA020801B02950192ED
:1040C00000944922FDF796FC049A05990B9B0E9EDD
:1040D000F420801B0295019200944422FDF78AFC93
:1040E0000E992E20401A1990682006901A900E9969
:1040F0007420401A1B90802007901C9019981A99E0
:104100001B9A1C9B0094FDF7C2FA069907980E9B18
:104110008222D21A149215910E9AC821891A1691E8
:10412000179014981599169A179B0094FDF7AFFAFB
:10413000069907980E9BD622D21A0F9210910E9ACA
:1041400047218900891A119112900F981099119A9C
:10415000129B0094FDF79BFA08980B9B029518247C
:10416000019400900B4A142088210A91FEF7FCF874
:10417000089A09980A990B9B029501940092064AA5
:10418000FEF7F2F80C980D99FCF7BCFD1EB070BD5F
:1041900000200A40AC8C0000B48C000010B5B0B018
:1041A000339C329C2F902E912D922C931FA832215C
:1041B000FBF7A1FF002009901E901D901C901B9002
:1041C0001A901990189017901690159014901390BB
:1041D0001290119010900F9008200E9046200D9094
:1041E00018200C9022200B9054200A90339801281C
:1041F0000DD0FFE77A497B4808607B4908607B491E
:1042000008607B49E74808607B490860FFE774481D
:1042100000682F99FCF76CF9002831D1FFE72F983F
:104220006F4908602F98FCF7FBF902460B4673496B
:104230001FA8089000F042FE0898FBF767FF089A55
:1042400001460E9848430F900B980D990F9BC91A81
:10425000CB0FC918491040181A900C981038C10F8C
:104260004018401068301B901A981B990023029345
:10427000102301931F230093CA4BFEF775F8FFE745
:10428000594800682E99FCF733F9002833D1FFE72D
:104290002E98554908602E98FCF7C2F902460B4645
:1042A00056491FA8079000F009FE0798FBF72EFF5C
:1042B000079A01460E9848430F900B980A994018A8
:1042C0000D990F9BC91ACB0FC918491040181590AA
:1042D0000C981038C10F401840106830169015988F
:1042E000169900230293102301931F230093F94B87
:1042F000FEF73AF8FFE73D4800682D99FCF7F8F81B
:10430000002834D1FFE72D98384908602D98FCF734
:1043100087F902460B4639491FA8069000F0CEFDEA
:104320000698FBF7F3FE069A01460E9848430F9055
:104330000B980A99401840180D990F9BC91ACB0F7A
:10434000C9184910401810900C981038C10F401827
:104350004010683011901098119900230293102397
:1043600001931F230093DB4BFDF7FEFFFFE720487F
:1043700000682C99884215D0FFE72C981C490860EA
:104380002C9A1F491FA8059000F098FD059A00205F
:1043900002901821019100905C208821CD4BFDF7FF
:1043A000E3FFFFE7144800683299884215D0FFE721
:1043B000329811490860329A11491FA8049000F000
:1043C0007DFD049A00200290182101910090FE20AA
:1043D0008821C04BFDF7C8FFFFE730B010BDC046D5
:1043E0008802202000FF7F47840220207C022020BA
:1043F00080022020FFFF00008C022020C18C0000E2
:10440000BD8C000070B592B0012081063848FCF7E1
:10441000ABFB00210091052005908201AA230846EC
:10442000FDF7BAFA05993348009003201F261023A0
:1044300006933246FEF770FD069B2F48009016202B
:1044400008213246FEF768FD282011905020089080
:104450001090412107910F910E90119810990F9A89
:104460000E9B0396254C0294182501950224009476
:10447000FEF710FD07990898C8220D920C900B9139
:104480000A900D980C990B9A0A9B03961C4E029663
:1044900001950094FEF7FEFCFFF790F901460991A3
:1044A000002804D0FFE7099801280DD019E08948B9
:1044B0000290052001900A200090282041225023DC
:1044C0001946FEF771FC0CE082480290052001902D
:1044D0000A200090C820412250231946FEF764FCB0
:1044E000FFE7012081060248FCF70CFC12B070BD0A
:1044F00000200A40D28C0000DD8C0000C88C000037
:10450000CD8C000010B58EB00D900CA90520087060
:104510000D980B90002804D0FFE70B9801281FD0BE
:104520003DE00CA8079000786A49029101900A20AA
:104530000890009028204122099250230A9319469E
:10454000FEF732FC07990898099A0A9B097800241B
:10455000029401910090C8201946FEF725FC1EE048
:104560000CA8039000780021029101900A20049089
:104570000090282041220592502306931946FEF709
:1045800013FC03990498059A069B0978514C0294F0
:1045900001910090C8201946FEF706FCFFE70EB017
:1045A00010BDC046FFFF000010B584B0039002A903
:1045B0000320087003980190072800D988E001982B
:1045C000810001A040588746E945000005460000EB
:1045D000214600003F4600005D460000794600008D
:1045E00095460000B346000002A803782320C01AB5
:1045F0006921C91A1A4667327F33E54C0094FDF7EA
:1046000081F965E002A803787720C01A6921C91AE8
:104610001A46BB327F33DE4C0094FDF773F957E046
:1046200002A80378CB20C01A6921C91AFF221032D0
:104630009A187F33D64C0094FDF764F948E002A83D
:104640000378AB20C01A8921C91AFF223C329A187C
:10465000A533CF4C0094FDF755F939E002A8037853
:104660002320C01A6921C91A1A4667327F330024F1
:104670000094FDF747F92BE002A803787720C01AD1
:104680006921C91A1A46BB327F3300240094FDF712
:1046900039F91DE002A80378CB20C01A6921C91A94
:1046A000FF2210329A187F3300240094FDF72AF974
:1046B0000EE002A80378AB20C01A8921C91AFF2294
:1046C0003C329A18A53300240094FDF71BF9FFE74C
:1046D00004B010BDFFFF000080B582B0014601A804
:1046E00001700078022803D1FFE7FFF78BFEFFE798
:1046F00001A80078002803D1FFE700F0A1F8FFE748
:1047000001A80078012803D1FFE7FFF79BFCFFE732
:1047100002B080BDB0B58CB0FEF742FBFFF76EF87B
:1047200000680690FFF76AF840680390FFF766F8A4
:1047300080680490FFF746F80590FFF75FF803994B
:10474000049A059B04460698E46A012501950094A5
:1047500000F022FA002009900B90FFF733F8643044
:10476000FBF7E0FE184A0792184B0893FBF71EFE72
:10477000FBF714FF099901913F2252010092029028
:10478000FF22403258230846FEF7F6FB0B900B98A9
:104790000A90FFF735F86430FBF7C4FE079A089BD0
:1047A000FBF704FE024609980B460949FBF7F0FDAA
:1047B000FBF718FF01460A981F22D202FDF792F874
:1047C000FEF776FC0CB0B0BD6666666666660240B3
:1047D0000000564080B582B0014601A80170007803
:1047E000002801D1FFE726E001A8007801280ED1BA
:1047F000FFE7FEF7EDFF012808D1FFE7FEF7FEFF18
:104800000E4989680022FFF7DDFAFFE713E001A8EF
:10481000007802280ED1FFE7FEF7DAFF012808D161
:10482000FFE7FEF7EBFF054989680122FFF7CAFAA7
:10483000FFE7FFE7FFE702B080BDC0466802202027
:1048400070B59EB0002003901D901C901B901A9094
:10485000199018901790169015901490139012902C
:10486000119010900F900125A9060D9147480C90CA
:10487000FCF77AF90399009105208201AA23099394
:104880000846FDF789F80C200E900E994C20401A2E
:1048900002951021049101911F240894009457213E
:1048A00005915022BB4B0B93FDF7A4F8049A059990
:1048B0000B9B0E9EA020801B029501920094492222
:1048C000FDF798F8049A05990B9B0E9EF420801B27
:1048D0000295019200944422FDF78CF80E992E2047
:1048E000401A1990682006901A900E997420401A68
:1048F0001B90802007901C9019981A991B9A1C9B5A
:104900000094FCF7C4FE069907980E9B8222D21AE7
:10491000149215910E9AC821891A1691179014981D
:104920001599169A179B0094FCF7B1FE0699079803
:104930000E9BD622D21A0F9210910E9A472189000F
:10494000891A119112900F981099119A129B009444
:10495000FCF79DFE08980B9B02951824019400908B
:104960000C4A142088210A91FDF7FEFC089A099848
:104970000A990B9B029501940092074AFDF7F4FCFB
:104980000C980D99FCF7BEF91EB070BD00200A40CE
:10499000FFFF0000A48C0000B48C000070B59EB036
:1049A0001D901CA9032008701D981B90042800D995
:1049B000EDE01B98810001A040588746D1490000D6
:1049C0002B4A00007D4A0000CF4A0000214B000026
:1049D0001CAC189420786F49029101900A201A901B
:1049E00000902220462115916822169218231793D1
:1049F000FEF7DAF91599169A179B1A98247800256C
:104A000019950295019400907620FEF7CDF918993A
:104A1000199A1A980978029201910090AA2092217D
:104A200088221E23FEF7C0F9B1E01CAC2078F049C3
:104A3000029101900A201190009076204621129157
:104A40006822139218231493FEF7AEF91198129965
:104A5000139A149B26780025029501960090CA208F
:104A6000FEF7A2F911981299139A149B24780295D3
:104A7000019400902220FEF797F988E01CAC207882
:104A8000DB49029101900A200D900090CA20462136
:104A90000E9168220F9218231093FEF785F90D9856
:104AA00021780025029501910090AA209221882268
:104AB0001E23FEF779F90D980E990F9A109B247812
:104AC0000295019400907620FEF76EF95FE01CAC31
:104AD0002078C749029101900A2009900090AA20ED
:104AE000922188221E23FEF75FF90998217800257C
:104AF000029501910090222046210A9168220B9292
:104B000018230C93FEF750F909980A990B9A0C9BFD
:104B10002478029501940090CA20FEF745F936E00A
:104B20001CAC0694207800250795029501900A2078
:104B300008900090222046210391682204921823B5
:104B40000593FEF731F90399049A059B0898267896
:104B50000295019600907620FEF726F90399049AB3
:104B6000059B08982478029501940090CA20FEF7CE
:104B70001BF90699079A089809780292019100900A
:104B8000AA20922188221E23FEF70EF9FFE71EB00D
:104B900070BDC046FFFF000010B5B0B0339C329C22
:104BA0002F902E912D922C931FA83221FBF7A3FA60
:104BB000002009901E901D901C901B901A90199037
:104BC00018901790169015901490139012901190C1
:104BD00010900F9008200E9046200D9018200C90F9
:104BE00022200B9054200A90339801280DD0FFE723
:104BF0007A497B4808607B4908607B4908607B49AB
:104C00007B4808607B490860FFE7744800682F997B
:104C1000FBF76EFC002831D1FFE72F986F49086041
:104C20002F98FBF7FDFC02460B4673491FA808901E
:104C300000F044F90898FBF769FA089A01460E98C3
:104C400048430F900B980D990F9BC91ACB0FC918A9
:104C5000491040181A900C981038C10F4018401095
:104C600068301B901A981B9900230293102301931C
:104C70001F2300935E4BFDF777FBFFE75948006861
:104C80002E99FBF735FC002833D1FFE72E985549C4
:104C900008602E98FBF7C4FC02460B4656491FA835
:104CA000079000F00BF90798FBF730FA079A0146D6
:104CB0000E9848430F900B980A9940180D990F9B36
:104CC000C91ACB0FC9184910401815900C98103804
:104CD000C10F40184010683016901598169900239F
:104CE0000293102301931F230093414BFDF73CFBDC
:104CF000FFE73D4800682D99FBF7FAFB002834D107
:104D0000FFE72D98384908602D98FBF789FC02468B
:104D10000B4639491FA8069000F0D0F80698FBF71B
:104D2000F5F9069A01460E9848430F900B980A9998
:104D3000401840180D990F9BC91ACB0FC91849107C
:104D4000401810900C981038C10F4018401068306F
:104D500011901098119900230293102301931F239F
:104D60000093234BFDF700FBFFE7204800682C99D8
:104D7000884215D0FFE72C981C4908602C9A1F49DF
:104D80001FA8059000F09AF8059A002002901821BB
:104D9000019100905C208821154BFDF7E5FAFFE7B3
:104DA000144800683299884215D0FFE732981149BB
:104DB0000860329A11491FA8049000F07FF8049A05
:104DC00000200290182101910090FE208821084BBC
:104DD000FDF7CAFAFFE730B010BDC04698022020A8
:104DE00000FF7F4794022020900220209C02202078
:104DF000FFFF0000A0022020C18C0000BD8C00003D
:104E000010B582B0244800907021FBF774F9009926
:104E100022480861224848612248C8622248086343
:104E2000224888642248C864224848662248886626
:104E300000200190FFE7019803282BDCFFE7019891
:104E40001C210B4643431448C25CFE242240C2543A
:104E5000019B0A465A43831807221A81019B0A467E
:104E60005A4383180C225A81019B0A465A438318DD
:104E70001B229A81019B0A465A4383182022DA8119
:104E8000019A51434018FEF741FCFFE70198401C8E
:104E90000190D0E702B010BDA4022020472D0000F1
:104EA0001D2C00001B2D0000792A0000312D000070
:104EB000FD2A0000052D00009D2900000FB410B54B
:104EC00004A9074B02AA039800F0FAF8044602A9C5
:104ED000002000F091FC204610BC08BC04B018472C
:104EE000F95700002021020C01D010211046020ABF
:104EF00001D010460839020901D01046091F820866
:104F000001D01046891E420801D0881E7047081A39
:104F1000704700000000000002E008C8121F08C12E
:104F2000002AFAD17047000070470000000000001E
:104F3000002001E001C1121F002AFBD170470000D0
:104F4000014908607047000000002020F0B51FB440
:104F500086B00998089A030D0021024314D05148E5
:104F6000514A1818504305141198012810981AD066
:104F7000281A401C00264D4F4D490096019104907F
:104F8000002812DA444211E01198012449A30128B3
:104F900001D11098C1430698119A84600360C260E1
:104FA00041600BB0F0BD4042E4E70446210500201B
:104FB0003F4A001C51410391029012E0E00707D0E4
:104FC00032463B4601990098FBF77EFC0191009028
:104FD00032463B4610461946FBF776FC06460F461E
:104FE0006410002CEAD10498039B0028029A0999C6
:104FF000089806DAFBF768FC019B009AFBF764FC53
:1050000005E0FBF7D3F9019B009AFBF7CFF90446C3
:105010000E460022284BFBF731FD03D80020C04389
:10502000014607E00022254B20463146FBF70CF9EC
:10503000FBF704FD102409E0002C0ADB0A22002300
:10504000FBF73DFB079B30321A55641E02460A43AC
:10505000F2D11122641C079B121B1C19119B012BFE
:1050600003D0012308430ED10AE0084304D01120E5
:1050700010900020119077E71098151A6D1E0BE024
:105080001098824202DD00236D1C03E0824201DAA7
:1050900000236D1E002BEED0069811998260C1602E
:1050A00030C07EE701FCFFFF104D000000001440FF
:1050B0000000F03F300000000000F0430000E03F3F
:1050C000FFB597B00646002518E2252877D10024C1
:1050D0002746FD49049400E00443761C3278012001
:1050E000203A90400842F7D130782A280ED0022288
:1050F000307801463039092916D804990A235943D2
:10510000303940181443761C0490F1E7189802C80F
:1051100004911890002904DA012040030443484216
:10512000049002200443761C30782E2814D10420E9
:1051300004437078761C2A2809D11898761C80C8F8
:10514000189009E00A214F43303FC719761C307888
:10515000014630390929F5D930786C2810D006DCA1
:105160004C281AD068280ED06A2817D104E0742879
:1051700013D07A2812D110E00120400504430CE03E
:105180000121090501E0032109050C4371788142E1
:1051900003D1012000052418761C761C307811906C
:1051A00066280BD013DC58287DD009DC00287BD082
:1051B0004528F6D04628F4D047281AD1A5E118E0B2
:1051C000632835D0642870D0652812D19DE17028FD
:1051D0006CD008DC6728F1D069287BD06E280DD010
:1051E0006F2806D1BAE073282ED0752871D07828A0
:1051F00059D01A9A199990476D1C7EE16002400FB0
:10520000022809D003280DD00428189801680DD071
:105210000D60001D189070E11898EA1701680D6084
:105220004A60F6E7189801680D80F2E70D70F0E724
:1052300018986A4601781172001D1890002050726B
:1052400002A80090012005E0189802C818900020DC
:105250000091C04361070DD5002101E00199491C6F
:105260000191B94212DA8142F8DB009A515C0029BF
:10527000F4D10BE0002101E00199491C0191814228
:10528000FADB019A0099895C0029F5D1019904980B
:105290001A9B471A21463846199A00F097FA019945
:1052A000401945180BE04FE02CE113E04EE0009868
:1052B00000990078491C00911A9A19999047019811
:1052C000401E0190401CF2D1214638461A9B199A83
:1052D00010E137E00A200021009001916002410FA7
:1052E000022907D0189A01CA1892C21794460329B6
:1052F00008D00AE01898C01DC108C90005C9189156
:10530000944607E000B2C2179446042902D140B285
:10531000C1178C4600226146944506DA0A460021F0
:10532000404291418C462D2102E0210504D52B21DC
:105330006A461173012103E0E10701D02021F7E75C
:10534000029155E00A200AE0102008E010200090A9
:105350000021042004430191082703E008200021D4
:10536000019100906002410F022907D0189A01CAEA
:10537000189200229446032908D008E01898C01D0E
:10538000C108C90005C91891944603E080B20429F8
:1053900000D1C0B200210291210729D511997029AD
:1053A00006D0009A1021019B4A401A4305D00EE016
:1053B00040216A461173012108E06146014306D08D
:1053C00030216A4611731199517302210291009A9A
:1053D0000821019B4A401A430AD16146014301D189
:1053E000610705D530216A46117301217F1E0291A4
:1053F0001199582904D035A10E910DA90D910DE0F8
:1054000037A1F9E76146019B009AFBF758F90E9B1B
:105410008C469B5C0D9A521E0D921370614601439F
:10542000F0D10D9805A9081A20300190600703D526
:1054300001200004844300E001270198874201DD38
:10544000381A00E0002001990090411802980918CC
:105450000498401A0490E00306D421461A9B199A36
:10546000049800F0B3F94519002706E003A81A9A3A
:10547000C05D199990476D1C7F1C02988742F5DB2F
:10548000E0030CD521461A9B199A049800F09EF966
:10549000451904E01A9A3020199990476D1C00991B
:1054A000481E00900029F5DC08E00D980D99007861
:1054B000491C0D911A9A199990476D1C0199481E23
:1054C00001900029F1DC63E1092801003031323319
:1054D0003435363738396162636465660000000030
:1054E000303132333435363738394142434445461A
:1054F0000000000000F05AF94519761C30780028A9
:1055000000D0E2E528461BB0F0BD600700D40627B6
:105510001898C01DC108C90048680A680831C30F3F
:10552000DB071891190001D09CA108E0210501D5E5
:105530009BA104E0E10701D09AA100E09AA14300F9
:1055400011985B08109165280CD006DC452809D01D
:1055500046281DD0472841D141E0662818D0672849
:105560003CD13CE00021112F01DB112000E0781C30
:105570000191009008A911A8FFF7E8FC1399059183
:105580000021119A15927F1C12980197009150E00A
:105590000120C00703900120019008A9009711A8DD
:1055A000FFF7D4FC139A149905920022119B0092E4
:1055B00012981593059A0192002901D0104602E035
:1055C000791C40180190381A01D5019804E0404236
:1055D000401E0090781C0190C01B029043E0012FF8
:1055E00000DA01270021112F01DD112000E03846EB
:1055F0000191009008A911A8FFF7A8FC1399059143
:10560000119A0021129815920091019721070CD44C
:105610000599B94201DB019900E00191012904DDFE
:10562000159A491E515C302906D0B84201DA011D95
:1056300005DA0121029115E00199491EEDE70028E4
:1056400005DC0099411800910199091A03E0019ABB
:10565000411C914200DD01910099401A401C0290CA
:105660000120C0070390200706D4029901988142C7
:1056700002DB0020C043029000206946C87707AFD4
:10568000012103980337C907884224D002201190D2
:105690002B201290039800280CDA404203902D2012
:1056A000129007E00A210398FAF7EAFF30317F1ED3
:1056B000039039701199481E11900029F2DC03986B
:1056C0000028EFD1791E1298087030782021084008
:1056D0004530BF1E387006A8C01BC01D039010982F
:1056E0000078002800D00120019941180298C017C5
:1056F0000918039809180498401A401E0490E00302
:1057000006D421461A9B199A049800F05FF84519AF
:1057100010980078002803D01A9A199990476D1CA8
:10572000E00324D521461A9B199A049800F04EF8FC
:1057300045191CE00098002807DB0099059888426D
:1057400003DD1598405C199901E0199930201A9AE7
:10575000904700986D1C401C00900298401E0290DB
:10576000002804D11A9A2E20199990476D1C01998E
:10577000481E01900029DDDC05E038781A9A7F1C6C
:10578000199990476D1C0399481E03900029F4DC79
:1057900021461A9B199A0498ACE600002D000000DF
:1057A0002B0000002000000000000000F8B50446B7
:1057B00000251E461746880404D405E039462020FB
:1057C000B0476D1C641EF9D52846F8BDFFB50446E8
:1057D000002581B01E46C80301D5302700E02027F0
:1057E000880404D505E038460399B0476D1C641E53
:1057F000F9D5284605B0F0BD0A68531C0B6010703F
:1058000070470000F8B506460C46FBF7C5F8051EC4
:105810000F4600D00120014349000B484908411AB6
:10582000C90F0DD0002E01D0012100E000210C4352
:1058300061004908401AC00F02D10120FFF780FB28
:1058400028463946F8BD00000000F07F0000000047
:105850000000000000000000000004040404040034
:105860000004000014140A00000000000000000002
:1058700000000A0A1F0A0A1F0A0A000000040E1587
:1058800005060C14150E0400000012150D152E2C23
:105890002A1200000000040A0A3615152916000015
:1058A00002020100000000000000000010080804CF
:1058B0000404040408081000020404080808080886
:1058C0000404020000000004150E0E150400000080
:1058D00000000008083E080800000000000000006A
:1058E000000000000202010000000000003F000074
:1058F00000000000000000000000000000020000A6
:1059000000201010080804040202010000000E111B
:1059100011111111110E000000000406040404040A
:10592000040E000000000E1111080402011F000007
:1059300000000E11100C1010110E00000000080CD9
:105940000C0A091F081C000000001F01010F1110A4
:10595000110E000000000C12010D1311110E0000B9
:1059600000001E10080804040404000000000E11CA
:10597000110E1111110E000000000E111119161058
:105980000906000000000000040000000004000000
:1059900000000000000400000004040000001008E3
:1059A0000402020408100000000000003F003F0055
:1059B00000000000000002040810100804020000AB
:1059C00000000E11110804040004000000001C2255
:1059D000292D2D1D221C0000000004040C0A0A1EA3
:1059E0001233000000000F12120E1212120F0000EC
:1059F00000001E1101010101110E000000000F1234
:105A000012121212120F000000001F120A0E0A02D8
:105A1000121F000000001F120A0E0A0202070000F7
:105A200000001C1201013911120C00000000331299
:105A3000121E12121233000000001F04040404049A
:105A4000041F000000003E080808080808080907AD
:105A5000000037120A060A1212370000000007027F
:105A600002020202223F000000003B1B1B1B151517
:105A70001535000000003B1216161A1A1217000006
:105A800000000E1111111111110E000000000F1273
:105A9000120E02020207000000000E111111111770
:105AA000190E180000000F12120E0A121237000011
:105AB00000001E1101060810110F000000001F1544
:105AC00004040404040E0000000033121212121227
:105AD000120C000000003312120A0A0C0404000029
