:020000040800F2
:10000000C0500020E90200080D190008431700083D
:100010002518000831060008911D000800000000A6
:10002000000000000000000000000000290200089D
:1000300033060008000000008502000817190008B8
:100040000303000803030008030300080303000878
:100050000303000803030008030300080303000868
:100060000303000803030008030300080303000858
:100070000303000803030008030300080303000848
:100080000303000803030008030300080303000838
:100090000303000803030008030300080303000828
:1000A0000303000803030008030300080303000818
:1000B0000303000803030008030300080303000808
:1000C00003030008030300080303000803030008F8
:1000D0000303000803030008851D0008030300084C
:1000E00003030008030300080303000803030008D8
:1000F00003030008030300080303000803030008C8
:1001000003030008030300080303000803030008B7
:100110000303000803030008D519000803030008BF
:100120000303000803030008030300080303000897
:100130000303000803030008030300080303000887
:100140000303000803030008030300080303000877
:100150000303000803030008030300080303000867
:100160000303000803030008030300080303000857
:100170000303000803030008030300080000000055
:10018000030300080303000800F002F800F03CF845
:100190000AA090E8000C82448344AAF10107DA45E2
:1001A00001D100F031F8AFF2090EBAE80F0013F0F8
:1001B000010F18BFFB1A43F0010318478C370000EA
:1001C000AC370000103A24BF78C878C1FAD852077B
:1001D00024BF30C830C144BF04680C6070470000C1
:1001E0000023002400250026103A28BF78C1FBD840
:1001F000520728BF30C148BF0B6070471FB503F0DE
:1002000049FB1FBD10B510BD00F0D0F91146FFF736
:10021000F5FF01F0CFFD00F0EEF903B4FFF7F2FFB8
:1002200003BC00F0F5F900002C4B19680868B0E831
:10023000F04F80F30988BFF36F8F4FF0000080F319
:10024000118870470000000008480068006880F3CB
:1002500008884FF0000080F3148862B661B6BFF3DF
:100260004F8FBFF36F8F00DF00BF00BF08ED00E0CE
:10027000DFF80C00016841F470010160704700BFB5
:1002800088ED00E0EFF30980BFF36F8F134B1A681E
:100290001EF0100F08BF20ED108A20E9F04F10600B
:1002A00009B44FF0500080F31188BFF34F8FBFF3B4
:1002B0006F8F02F055FD4FF0000080F3118809BCEC
:1002C00019680868B0E8F04F1EF0100F08BFB0ECD6
:1002D000108A80F30988BFF36F8F70471C000020DD
:1002E000EFF3058070470000094880470948004740
:1002F000FEE7FEE7FEE7FEE7FEE7FEE7FEE7FEE7D6
:10030000FEE7FEE704480549054A064B7047000032
:10031000C519000889010008C04A0020C05000200B
:10032000C04C0020C04C002053EA020C00F0698051
:100330002DE9F04B4FF00006002B1FBFB3FA83F5F9
:1003400003FA05F424FA05F65E4012BF1643B2FA2A
:1003500082F502FA05F4C5F120051EBF22FA05FC5C
:1003600044EA0C04203556EA044C4FEA144418BF02
:10037000641C4FF000084FF00009904271EB030C31
:1003800039D3002919BFB1FA81F701FA07F6B0FA9B
:1003900080F700FA07F6C7F120071EBF20FA07FC16
:1003A00046EA0C062037B6FBF4FCA7EB0507103F26
:1003B00007F01F0BCBF120060CFA0BFB2CFA06F60C
:1003C00044BFB3460026202FA4BF5E464FF0000B6B
:1003D0005BEA060C08BF4FF0010B19EB0B09ABFBF6
:1003E000027C48EB0608C01B06FB02CC0BFB03CCCF
:1003F00071EB0C01C1E70B46024641464846BDE899
:10040000F08B13B54FF000004FF00001AFF3008008
:10041000BDE81C407047032A40F2308010F0030C06
:1004200000F0158011F8013BBCF1020F624498BF47
:1004300011F801CB00F8013B38BF11F8013BA2F1E4
:10044000040298BF00F801CB38BF00F8013B11F05F
:10045000030300F05780083AC0F0088051F8043BCD
:10046000083A51F804CBA0E80810F5E7121D5CBF6C
:1004700051F8043B40F8043BAFF30080D20724BF9F
:1004800011F8013B11F801CB48BF11F8012B24BF33
:1004900000F8013B00F801CB48BF00F8012B704782
:1004A00002F0FF0343EA032242EA024200F05EB890
:1004B0004FF0000200B5134694469646203922BFFD
:1004C000A0E80C50A0E80C50B1F12001BFF4F7AF48
:1004D000090728BFA0E80C5048BF0CC05DF804EB2A
:1004E000890028BF40F8042B08BF704748BF20F898
:1004F000022B11F0804F18BF00F8012B7047704796
:100500007047704710B5203AC0F00B80B1E8185022
:10051000203AA0E81850B1E81850A0E81850BFF4ED
:10052000F5AF5FEA027C24BFB1E81850A0E818508C
:1005300044BF18C918C0BDE810405FEA827C24BFE0
:1005400051F8043B40F8043B08BF7047D20728BF6E
:1005500031F8023B48BF11F8012B28BF20F8023BBD
:1005600048BF00F8012B70474FF000020429C0F08B
:10057000128010F0030C3FF49DAFCCF1040CBCF1E1
:10058000020F18BF00F8012BA8BF20F8022BA1EB27
:100590000C01FFF78FBF5FEAC17C24BF00F8012B7D
:1005A00000F8012B48BF00F8012B7047754600F09A
:1005B0002BF8AE4605006946534620F007008546F5
:1005C00018B020B5FFF79EFEBDE820404FF00006B2
:1005D0004FF000074FF000084FF0000B21F007012B
:1005E000AC46ACE8C009ACE8C009ACE8C009ACE86E
:1005F000C0098D46704710B50446AFF30080204611
:10060000BDE81040FFF709BE00487047604A00206F
:1006100001491820ABBEFEE7260002007047704774
:1006200013B54FF0FF33012201A901F039F81CBDC9
:10063000FEE7704772B6FEE710B5002210210820D1
:1006400001F044FC0149086010BD00009C0000203E
:10065000194C86B0206820B34FF0FF33002201A967
:1006600001F002FCE8B99DF8050020B101280CD08A
:1006700002281DD116E0BDF906109DF80820CB0F09
:100680009DF8040002F05CF912E09DF81000009063
:100690009DF80820BDF906109DF80400039B02F0A8
:1006A00013F905E09DF811109DF8040002F062F9BD
:1006B000012001F09DFBCDE79C0000202DE9F041D9
:1006C0000446876D00F03EF9054694F83500002693
:1006D000022806D08020606584F834600120BDE8DF
:1006E000F0812068016821F01601016020684169ED
:1006F00021F080014161206C08B9A06C20B1206814
:10070000016821F0080101602068016821F0010101
:1007100001600CE000F016F9401B052807D92020E5
:100720006065032084F8350084F83460D7E72068DA
:100730000068C007EED194F85C103F208840B86094
:10074000012084F8350084F834600020C7E790F871
:100750003510022903D08021416501207047052111
:1007600080F835100068016821F001010160002067
:10077000704700002DE9F84FDFF89C910022A9F1A5
:10078000040B03274FF00F0C09F1040AABF1040E20
:1007900001250B6895402B40AB426ED10C7904F0DB
:1007A0000304012C01D0022C15D18668540007FAED
:1007B00004F826EA0806D1F80C8008FA04F848EA9A
:1007C0000608C0F808804468AC430D79C5F30015ED
:1007D0009540254345600C79E443A40708D0C568DB
:1007E000540007FA04F6B5438E68A6402E43C6604F
:1007F0000C7904F00304022C11D1D40800EB840618
:10080000356A5407E40E0CFA04F825EA0805D1F815
:10081000108008FA04F848EA0508C6F82080056840
:10082000540007FA04F6B5430E7906F00306A64015
:100830002E4306604C6814F4403F66D0374C256860
:1008400045F480452560246822F0030504F48044C3
:100850000094334C05EB0408D8F808589407260F89
:100860000CFA06F4A5432F4CA04201D1002424E049
:100870002D4CA04202D101241FE046E02B4CA042A7
:1008800001D1022419E02A4CA04201D1032414E032
:10089000284CA04201D104240FE0274CA04201D1F2
:1008A00005240AE0254CA04201D1062405E0244C91
:1008B000A04201D1072400E00824B4402C43C8F82A
:1008C0000848D9F800404D464E689C43F60200D5D2
:1008D0001C432C60DAF8004055464E689C43B60233
:1008E00000D51C432C60DBF800405D464E689C43FD
:1008F000B60300D51C432C60DEF8004075464E68F8
:100900009C43F60300D51C432C60521C102AFFF4B4
:100910003FAFBDE8F88F0000083C0140443802407A
:100920000030014000000240000402400008024084
:10093000000C024000100240001402400018024067
:10094000001C024001488068704700000C00002035
:100950000248816802781144816070470C000020D1
:100960000B4810B5016841F400710160016841F461
:1009700080610160016841F480710160032000F032
:100980009FF80F2000F006F800F050F8002010BD8E
:10099000003C024030B505461F4887B0002401687E
:1009A00041F010010160006806A900F010000590F8
:1009B000684600F031F90398A8B100F04DF9400005
:1009C0001649174AB0FBF1F11648491E026040F281
:1009D000E732C0E90324C0E90114846100F03CFB64
:1009E000040003D015E000F037F9E9E70D4800F006
:1009F00061FB04000DD1362000F034F8102D07D231
:100A000000222946362000F03BF80748056000E048
:100A1000012407B0204630BD4038024040420F005C
:100A20000010004044010020100000200C4882B05B
:100A3000016841F480410160006800F4804000904A
:100A40000748001F016841F08051016000680022E2
:100A500000F0805000900F21901E02B000F010B8FE
:100A600044380240002809DB00F01F0201219140B8
:100A70004009800000F1E020C0F80011704700003C
:100A8000F0B40E4B1B68C3F30223C3F10704042C1C
:100A900000D904241D1D072D01D2002300E0DB1E18
:100AA000012606FA04F56D1E0D409D409E40761EFF
:100AB000164045EA0601F0BC01F06BB90CED00E010
:100AC000064A00F0070110684FF6FF03184040EA9D
:100AD0000120034908431060704700000CED00E05E
:100AE0000000FA052DE9F0470D46040065D0DFF857
:100AF0001491D9F80000EFB200F00700A84207D225
:100B000089F80070D9F8000000F00700A84254D11D
:100B100020683D4E810712D5400703D5306840F468
:100B2000E05030602078000703D5306840F4604022
:100B300030603068A16820F0F00008433060207811
:100B4000C0072DD0304960680839012812D002282A
:100B500013D0032811D00968890700292DDA3168DC
:100B600021F0030101433160FFF7ECFE804641F2C2
:100B7000883A0EE009688903EFE709688901ECE724
:100B8000FFF7E0FEA0EB0801514502D90320BDE8C4
:100B9000F0873068616800F00C00B0EB810FEFD196
:100BA000D9F80010484601F00701A94207D907709B
:100BB000006800F00700A84201D00120E7E7207894
:100BC000400705D53068E16820F4E0500843306004
:100BD0002078000706D53068216920F4604040EA9B
:100BE000C100306000F058F83168084AC1F30311C1
:100BF000515CC8400649086006480068FFF7CAFE15
:100C00000020C4E7003C0240083802400C390008CC
:100C100018000020100000200F2202600C4A136808
:100C200003F003034360136803F0F0038360136869
:100C300003F4E053C36012684FF4E05303EAD202B6
:100C400002610448006800F0070008607047000077
:100C500008380240003C0240044805490068096821
:100C6000044AC1F38221515CC8407047180000203B
:100C7000083802401C390008044805490068096822
:100C8000044AC1F34231515CC8407047180000204B
:100C9000083802401C390008154810B5006810F0EB
:100CA0000C01144813D0144B04290FD008290ED17D
:100CB0000F4C241F216801F03F022168490207D52B
:100CC0002068C0F38810A0FB030106E0184610BDA1
:100CD0002168C1F38811A1FB00010023FFF724FB69
:100CE0002168C1F30141491C4900B0FBF1F010BD7E
:100CF000083802400024F40040787D012DE9F84FC7
:100D0000040075D02078DFF838A3C007AAF10405E5
:100D100048D00AF104000168C1F38101012908D01B
:100D20000068C0F3810002280AD1DAF8000040020E
:100D300006D52868800335D560680028E1D031E009
:100D40006068B0F5803F10D0B0F5A02F286810D0B3
:100D500020F480302860286820F4802028606068B3
:100D6000A0B1FFF7EFFD06460CE0286840F48030A4
:100D7000F4E740F480202860F7E7FFF7E3FD801BED
:100D8000642871D828688003F7D50BE0FFF7DAFDF7
:100D9000064604E0FFF7D6FD801B6428F1D82868DA
:100DA0008003F7D42078DFF89C9280074FF0000B87
:100DB0003DD5A348001D016811F00C0F08D0006854
:100DC000C0F3810002280AD1DAF80000400206D4FC
:100DD0002868800715D5E068012809D111E0E0688E
:100DE000B8B10120C9F80000FFF7ACFD064605E0E8
:100DF00022E1FFF7A7FD801B0228C2D828688007E0
:100E0000F7D52868216920F0F80040EAC100286081
:100E10000DE0C9F800B0FFF795FD064604E0FFF7C6
:100E200091FD801B02281FD828688007F7D42078FE
:100E3000000722D5824F84486169703771B1012162
:100E40000160FFF77FFD064604E0FFF77BFD801B96
:100E5000022809D838688007F7D50EE0C0F800B03E
:100E6000FFF770FD064605E082E0FFF76BFD801B93
:100E700002287DD838688007F7D42078400765D5E8
:100E80006F484FF000083C300068C0000BD46C483D
:100E90003C30016841F08051016000684FF001086A
:100EA00000F080500090694F3868C0050FD4386852
:100EB00040F480703860FFF745FD064604E0FFF718
:100EC00041FD801B022853D83868C005F7D55C4F18
:100ED000A0686C3701280FD00528386810D020F0A2
:100EE00001003860386820F004003860A068B0B1B4
:100EF000FFF728FD06460EE0386840F00100F4E7F1
:100F000040F004003860F7E7FFF71CFD811B41F259
:100F10008830814263D838688007F5D50DE0FFF747
:100F200011FD064606E0FFF70DFD811B41F28830FA
:100F3000814254D838688007F5D4B8F1000F05D045
:100F40003F483C30016821F080510160A069B8B38E
:100F50003B49091D0968C1F38101022946D00228D5
:100F6000584606D0C9F86000FFF7ECFC044639E0AB
:100F700035E04F46C9F86000FFF7E4FC064604E0A0
:100F8000FFF7E0FC801B022829D828688001F7D4ED
:100F9000D4E907010843A16A2D4A490802EB01413F
:100FA000626A41EA8211084394F82C1040EA016118
:100FB000CAF8001001203866FFF7C4FC044605E0BB
:100FC0003CE0FFF7BFFC001B022808D8286880011E
:100FD000F7D533E0FFF7B6FC001B022802D9032047
:100FE000BDE8F88F28688001F4D427E00128F7D005
:100FF000DAF80000E26900F4800191421CD1226A13
:1010000000F03F01914217D147F6C071626A01407A
:10101000B1EB821F10D1A26A4FF0FF3300F44031D0
:1010200003EB5202B1EB024F06D194F82C1000F002
:101030007060B0EB016F01D00120D1E70020CFE755
:101040000438024000004742800E474200700040D2
:101050000000FFFF7047704710B5040003D094F8FC
:101060003D0010B107E0012010BD002084F83C00D5
:10107000204600F01EF8022084F83D00211D206863
:1010800000F0AEFC012084F8460084F83E0084F8AD
:101090003F0084F8400084F8410084F8420084F85E
:1010A000430084F8440084F8450084F83D000020A3
:1010B00010BD704790F83D10012901D00120704704
:1010C000022180F83D100168CA6842F00102CA603E
:1010D00000681149884214D0B0F1804F11D00F49F7
:1010E00088420ED00E4988420BD00E49884208D063
:1010F0000D49884205D00D49884202D00C498842EA
:1011000004D1816801F00701062903D0016841F08C
:101110000101016000207047000001400004004010
:1011200000080040000C0040000401400040014065
:101130000018004070472DE9F04104460068C66879
:1011400005694FF00007A90713D5B10711D5F91E9E
:10115000016101202077206880698007204602D045
:10116000FFF7E8FF04E000F07EF8204600F07CF88E
:101170002777680716D5700714D521686FF004002B
:101180000861022020772068806910F4407F2046A3
:1011900002D0FFF7CFFF04E000F065F8204600F032
:1011A00063F82777280715D5300713D521686FF026
:1011B00008000861042020772068C0698007204665
:1011C00002D0FFF7B7FF04E000F04DF8204600F032
:1011D0004BF82777E80616D5F00614D521686FF08E
:1011E00010000861082020772068C06910F4407F53
:1011F000204602D0FFF79EFF04E000F034F82046BE
:1012000000F032F82777E80708D0F00706D0216809
:101210006FF001000861204600F028F8280608D584
:10122000300606D521686FF0800008612046FFF780
:1012300011FF680608D5700606D521686FF04000DA
:101240000861204600F01CF8A8060AD5B00608D5AB
:1012500021686FF0200008612046BDE8F041FFF7EB
:10126000FABEBDE8F081704770470000006803498E
:10127000884201D1FFF76CBB7047000000100040AE
:101280007047704770470000F8B501680446086869
:10129000CA684B6910F00F0F4FF0000559D003F0EA
:1012A000010602F49077374365D0C10705D0D10518
:1012B00003D5616C41F001016164410705D5D9078F
:1012C00003D0616C41F002016164810705D5D90743
:1012D00003D0616C41F004016164010707D502F09D
:1012E0002001314303D0616C41F008016164616CFD
:1012F00000293AD0800604D5900602D5204600F099
:1013000005FC20684069616CC0F38010090700D4B7
:1013100060B3204600F0D3FB20684069400621D529
:101320002068143050E8001F21F0400140E800120E
:10133000002AF5D1E06BA8B172490165E06BFFF7B7
:1013400006FA002811D0E06B016D01B0BDE8F04055
:10135000084783060FD593060DD52046BDE8F84013
:1013600000F0D4BB2046FFF78DFFF8BD2046FFF705
:1013700089FF6564F8BD266B2023012E7ED1C60649
:101380007CD5D6067AD508684868009048694FF041
:10139000020640064DD5E26B106840684FF4807736
:1013A0000004000C3AD0A18D814237D9E085D06984
:1013B000B8422DD020680C3050E8001F21F4807115
:1013C00040E80012002AF5D12068143050E8001FD0
:1013D00021F0010140E80012002AF5D12068143004
:1013E00050E8001F21F0400140E80012002AF5D12A
:1013F00084F84230256320680C3050E8001F21F04B
:10140000100140E80012002AF5D1E06BFFF756F911
:101410006663A08DE18D401A81B206E0A18D814204
:10142000A8D1D069B842A5D166632046FFF729FF4D
:10143000F8BDA08DE18D401A81B2E08D0028F7D073
:101440000029F5D020680C3050E8002F22F490726B
:1014500040E80027002FF5D12068143050E8002F15
:1014600022F0010240E80027002FF5D184F8423035
:10147000256320680C3050E8002F00E006E022F0E1
:10148000100240E80023002BF3D1CDE705062BD551
:10149000150629D594F841002128C9D1A068B0F5D6
:1014A000805F01D12069B0B1206A411C21622168AE
:1014B00000784860E08C401E0004000CE084B7D146
:1014C0002068C16821F08001C1602068C16841F0D6
:1014D0004001C160F8BD206A0088C0F30800486080
:1014E000206A801C2062E5E74006F3D55006F1D55E
:1014F000CA68204622F04002CA6084F8413000F0F9
:101500001FF9F8BDB11A000870B5040004D094F8B2
:101510004100002510B106E0012070BD84F8405064
:10152000204600F023F8242084F841002068C16898
:1015300021F40051C160204600F04AFB2068016997
:1015400021F4904101612068416921F02A01416143
:101550002068C16841F40051C1606564202084F8AE
:10156000410084F842006563002070BDF0B587B08B
:10157000044614216846FEF79BFF264F216800268B
:10158000254A0223032407252448B9421BD12249B6
:1015900014310F6847F010070F60096801F010015F
:1015A0000591116841F001011160116801F001011C
:1015B000059161028DE84A006946CDE90345FFF7D0
:1015C000D9F807B0F0BD164FB942FAD1124910311F
:1015D0000F6847F400370F60096801F40031059186
:1015E000116841F001011160116801F001010591DC
:1015F0000C218DE84A006946CDE90345FFF7BAF8AA
:10160000002205212620FFF73BFA2620FFF72AFAC1
:10161000D7E70000001001403038024000000240CF
:101620000044004090F84230202B01D00220704747
:1016300021B11AB10023036300F050BB01207047B1
:1016400000681449884223D1134A02F10C01107832
:1016500053780B54401CC0B21070072812D308787E
:10166000AA280DD1887955280AD14978D2F80E00D8
:10167000012902D0022902D002E0506000E090600F
:101680000020107004490122491C0448FFF7CABF1A
:101690007047000000440040A0000020FC00002033
:1016A0002DE9F843044690F841001F4615460E46C2
:1016B000202802D00220BDE8F8838EB185B1002039
:1016C0006064212084F84100FFF73CF9A58481463D
:1016D000E584A0684FF02008B0F5805F02D003E0F9
:1016E0000120E8E7206910B1354600260EE000250C
:1016F0000CE08021204600F00CFBA0B9BDB115F82C
:10170000010B21684860E08C401EE084E08C4B4671
:101710004FF0000200970028EBD14FF04001204627
:1017200000F0F7FA40B184F841800320C3E736F8AF
:10173000020BC0F30800E4E784F841800020BAE718
:101740007047FEE710B50B4A00210B4800F01EFC65
:101750000A4C084A002120602432094800F016FC97
:10176000044A606048320021064800F00FFCA06087
:1017700010BD0000A03800080F190008000000206C
:101780005106000829180008094808B5016841F009
:1017900080010160016801F080010091016841F061
:1017A00001010160006800F00100009008BD000028
:1017B000303802400C4810B50A4901604FF4E1315D
:1017C0004160002181600C22C160C0E90412816186
:1017D000C161FFF799FE002803D0BDE81040FEF775
:1017E00029BF10BD00100140B40000200C4810B506
:1017F0000A4901604FF4E1314160002181600C220F
:10180000C160C0E904128161C161FFF77DFE00285B
:1018100003D0BDE81040FEF70DBF10BD00440040EE
:10182000FC000020FEE700001FB540F2DC5000F095
:10183000DFFA0121084601F070F84FF4FA7000F069
:10184000D7FA0024009401258DF800502E4E019403
:101850008DF801404FF0C8080A2702940394ADF8B0
:1018600002808DF80470234622466946306800F0F5
:1018700059FB41F28839484600F0BAFA00948DF8D5
:10188000005001948DF8014002940394ADF8024099
:101890008DF8047000231A466946306800F042FB58
:1018A000484600F0A5FA00948DF800500194039486
:1018B0008DF801504FF4FA40ADF802808DF80470B5
:1018C00002908DF80C4000231A466946306800F0FB
:1018D00029FB42F2107000F08BFA009403948DF80B
:1018E00000500220019402948DF801008DF80D4003
:1018F00000231A466946306800F014FB4FF47A74EE
:10190000204600F075FAFBE79C000020FEE701206E
:1019100000F06EFAFBE710B54FF0E020006901F02F
:1019200009FE012803D0BDE8104001F0C5BA10BD82
:1019300030B593B030216846FEF7BAFD14210CA8EB
:10194000FEF7B6FD1D480025016841F08051016099
:10195000006800F0805011901948016841F48041FE
:1019600001600068022400F480401190012003907F
:1019700010200490009406940820CDE90750A82078
:10198000CDE9090404200B906846FFF7B7F908B1C8
:1019900072B6FEE70CA90F2081E831004FF4A05089
:1019A0000F904FF48050109005210CA8FFF79AF883
:1019B000002801D072B6FEE713B030BD40380240B7
:1019C000007000400248016841F4700101607047F6
:1019D00088ED00E00148FFF7AEBB000044010020A5
:1019E000F0B50268274D284E284FDFF8A4C0294BD8
:1019F0004FF0804EA84209D0704507D0B04205D0C4
:101A0000B84203D0604501D0984203D122F070045F
:101A10004A682243A8421BD0704519D0B04217D063
:101A2000B84215D0604513D0984211D01A4CA0424C
:101A30000ED01A4CA0420BD0194CA04208D0194C21
:101A4000A04205D0184CA04202D0184CA04203D1AD
:101A500022F44074CA6822434C6922F08002224377
:101A60008C68C4620C688462A84201D0984201D19B
:101A700009690163016841F00401016001214161CC
:101A80000260F0BD0000014000040040000800407A
:101A9000000C0040000401400040014000440140AF
:101AA0000048014000180040001C00400020004099
:101AB00010B5806B0021C185FFF7E4FB10BD016804
:101AC0000C3151E8002F22F4907241E80023002BE2
:101AD000F5D10168143151E8002F22F0010241E8EC
:101AE0000023002BF5D1016B012909D101680C31CC
:101AF00051E8002F22F0100241E80023002BF5D11D
:101B0000202180F8421000210163704708B590F849
:101B10004210222901D0022008BD81684FF4805371
:101B2000994201D1026922B1826A99421BD049B11E
:101B30000AE00268816A5268C2F308020A80816A78
:101B4000891C08E0016971B10168496801F07F01F1
:101B50001170816A491C8162C18D491E0904090CFA
:101B6000C18503D01BE001684968F1E70168CA68D4
:101B700022F02002CA600168CA6822F48072CA603A
:101B800001684A6922F001024A61202180F842106E
:101B900000214163026B012A03D0FFF751FD0020B1
:101BA00008BD016301680C3151E8002F22F01002DA
:101BB00041E80023002BF5D101680A68D20602D55E
:101BC0000A6849680091818DFFF75BFBE7E7000039
:101BD00070B5044600680169E26821F44051114380
:101BE0000161A1682069E269014360691043014312
:101BF0002068C26849F20C639A430A43C2602068B5
:101C00004169A26921F44071114341613149206861
:101C1000884202D03049884202D1FFF72DF801E016
:101C2000FFF71AF8E2690023192164253226B2F57C
:101C3000004F626828D0A0FB0101930F9200FEF7CD
:101C400073FB0146B0FBF5F06FF01802504301EB57
:101C5000800006EB0010B0FBF5F000F0F002B1FBE5
:101C6000F5F002EB0012B1FBF5F06FF018035843EA
:101C700001EB800006EB0010B0FBF5F000F00F0068
:101C800021681044886070BDA0FB010192185B417F
:101C9000FEF74AFB0146B0FBF5F00201B1FBF5F09F
:101CA0006FF01803584301EB800006EBC000B0FB57
:101CB000F5F000F0F80002EB4002B1FBF5F05843FC
:101CC00001EB800006EBC000B0FBF5F000F0070070
:101CD000D6E70000001001400014014081628285B7
:101CE000C28500214164222180F84210016921B19E
:101CF0000168CA6842F48072CA6001684A6942F0A9
:101D000001024A610068C16841F02001C160002001
:101D100070472DE9F8431F4690460D460446089E3D
:101D200023E0701C21D0FEF70DFEC01BB0421AD874
:101D3000CEB12068C168490717D5802D15D0402D38
:101D400013D00168C94309070FD401680025406812
:101D500000902046FFF7B3FE0820606484F84050EE
:101D60000120BDE8F8830320FBE72068006835EA1E
:101D7000000004D000204045D3D00020F1E701202E
:101D8000F9E700000148FFF77FBA0000FC000020DF
:101D9000FEE70907090E002804DB00F1E02080F8C7
:101DA0000014704700F00F0000F1E02080F8141DCF
:101DB00070470000FEF7D4FDFFF7BAFDFFF7E4FC23
:101DC000FFF7F8FCFFF712FDFEF729FCFEF734FCE5
:101DD000012205490548FFF725FC00F017F8FFF739
:101DE000B1FC00F025F8FEE7A1000020FC00002077
:101DF00010B5EFF3058111B16FF0050403E0002485
:101E000008B100F0FBFE204610BD0000EFF3058096
:101E100010B16FF0050070470448016811B14FF030
:101E2000FF30704701210160002070476C000020E6
:101E300010B5EFF3058010B16FF0050010BD084834
:101E40000168012902D04FF0FF3010BD054A002182
:101E500082F8141D0221016000F038FF002010BD3F
:101E60006C0000200BE000E0F8B51D466FF00303A6
:101E70006FF002064FF00004EFF30582A2B1F0B15B
:101E8000E9B1E5B9002200926A4601F071FA012831
:101E900017D10098B0B10C494FF080500860BFF3E3
:101EA0004F8FBFF36F8F0DE048B141B12A4601F06B
:101EB000C3F9012806D025B16FF0010402E01C46E9
:101EC00000E034462046F8BD04ED00E0F8B51446C5
:101ED0004FF00005EFF3058212BB08B301B3A4B1C4
:101EE000D4E9023263B1502A1AD32269C2B16769B8
:101EF00000FB01F6B74213D3009501F014F807E098
:101F000072B9226962B9626952B9002200F0EAFF2F
:101F1000050005D00CB1216800E0002100F03AFE78
:101F20002846F8BDF8B51D466FF003036FF00206B2
:101F30004FF00004EFF30582AAB100B3F9B1F5B98F
:101F40000022134600926A4601F016F9012818D1C2
:101F50000098B8B10C494FF080500860BFF34F8F24
:101F6000BFF36F8F0EE050B149B100232A4601F054
:101F700051F8012806D025B16FF0010402E01C469B
:101F800000E034462046F8BD04ED00E02DE9FF41B5
:101F90000B464FF00005EFF30581039549BB40B3B5
:101FA0008026182100244AB3176807B13C46976978
:101FB00007B139464F1E382F02D21779FF0703D0D9
:101FC000002004B0BDE8F081576907B1BE08D2F81F
:101FD00008C0BCF1000F0DD0D5685C2D18D3126974
:101FE0003AB137B18DE806103246214601F075FA54
:101FF00003900DE0D7685FB912694AB903AACDE929
:102000000012B2B2214601F03BFA012800D003953C
:102010000398D6E72DE9F041134E0F460446F568C4
:102020003068001D00F0B9FC601C07D137B1316881
:10203000BDE8F0410D48091D00F0FEBC30682C449D
:10204000AC424460316805D2B06BBDE8F041091D77
:1020500000F0DABC706B091D00F0D6FCB06A844257
:1020600000D2B462BDE8F0811C0000207C06002094
:102070002DE9F041054600F0EBFC2D4EB068401C08
:10208000B06030682B4F10B1706930B32BE0356011
:10209000B068012827D1002404EB840007EB8000FE
:1020A00000F0A4FC641C382CF6D3234800F09EFCFE
:1020B0002148143000F09AFC1F48283000F096FCAC
:1020C0001D483C3000F092FC1B48503000F08EFC64
:1020D000194870631430B06305E03068E96AC06A7B
:1020E000884200D83560706A401C70626864E86A93
:1020F0003169884200D9306100EB800007EB800035
:10210000291D00F099FC00F0C3FC706900280CD078
:102110003068E96AC06A884207D208494FF08050A7
:102120000860BFF34F8FBFF36F8FBDE8F0810000F1
:102130001C000020CC0100202C06002004ED00E053
:1021400038B500F085FC104C2068C8B90F4800F085
:102150004DFC0E48143000F049FC0C48E06014308F
:1021600020610A4B0020F03B009003F15002102147
:102170000A2000F0D8FE206010B105A100F00AFD91
:10218000BDE8384000F084BC5800002080070020E3
:10219000546D72510000000030B4026C0B46002AEE
:1021A0000BD0C1681144C1608468A14201D30168A9
:1021B000C16030BC1846FEF72EB930BC70472DE91F
:1021C000F041856B174604460026026C82B1C7B108
:1021D000E068FEF720F9E168206C091AE1602268E6
:1021E000914202D2A168081AE060022F16D017E0CF
:1021F0002068A8B9A06801F015FA06460020A06082
:102200000EE06068FEF707F9216C606808446060C2
:10221000A168884204D32068606001E005B16D1EAA
:102220006D1CA5633046BDE8F08110B5044690F8FA
:10223000590058B101280CD002280FD0502080F34B
:102240001188BFF34F8FBFF36F8FFEE7206B00F055
:1022500033FC2046BDE8104000F02EBC10BD00004D
:1022600010484FF47051420706D0C01D0D4920F0B0
:102270000700411AC1F570510B4A00230144C2E91D
:1022800000030839183A21F0070111604B600B6018
:102290000B1AC0E9001393604FF000405360506187
:1022A00070470000600E002088000020134E144D7F
:1022B000A6F29C474FF08058DFF8489011E000F0FC
:1022C000C7FBF068C468201D00F067FBA868401ECB
:1022D000A8606868401E686000F0DAFB2046FFF7DF
:1022E000A4FF68680028EAD138680128F9D9C9F83C
:1022F0000080BFF34F8FBFF36F8FF2E768060020B7
:102300001C00002004ED00E070B51D46049C49B19E
:102310002260C4E90F010121204600F037FE84F855
:102320004C5070BD2460F4E72DE9F05F0E46DDE906
:102330000B941746834691009A460A9DA522206B6E
:10234000FEF7AEF86FF00301206B01EB8701084444
:1023500020F00707780707D0502080F31188BFF3DB
:102360004F8FBFF36F8FFEE74FF0000866B100207C
:102370002218315C82F83410315C11B1401C1028F5
:10238000F6D384F8438001E084F83480382D00D3FC
:102390003725E562C4E91358201D00F032FB04F133
:1023A000180000F02EFB2461C5F138006462A061C2
:1023B000C4F8548084F8588052465946384600F094
:1023C0005DFA2060B9F1000F01D0C9F80040BDE806
:1023D000F09F000030B5114900E011460A688242C2
:1023E000FBD34B685C18844203D1406818444860B2
:1023F000084643681C18944209D1084C183C2468CC
:10240000A24209D052681A4442600A681268026007
:10241000814200D0086030BD0460F9E788000020E8
:1024200070B5002441600B4D0061914206D8D11A6D
:102430008269914206D2011D286907E09A4203D2BF
:10244000994201D3012403E0011DE86800F0DCFAA1
:10245000204670BD5800002010B5044600F0F8FA80
:10246000A06B20B1002400F013FB204610BD012416
:10247000F9E7000030B587B03C4D6EE001980028C8
:1024800006DADDE90301029A90470198002864DB2F
:10249000039C606910B1201D00F07FFA05A800F0D0
:1024A000D7F8024601980A2857D2DFE800F0050560
:1024B000052D334A05052D3394F8280040F001001E
:1024C00084F828000298A169034601442046FFF7DA
:1024D000A7FF68B3216A2046884794F82800400780
:1024E0003BD5002000900298A169002342181946AC
:1024F000204601F09DF9D8B9502080F31188BFF330
:102500004F8FBFF36F8FFEE714F8280F20F0010004
:10251000207022E094F8280040F0010084F82800A0
:102520000298A06128B1811813462046FFF778FF72
:1025300013E0502080F31188BFF34F8FBFF36F8FEC
:10254000FEE794F82800810703D4204600F0B4FA8F
:1025500003E020F0010084F82800002201A9286887
:1025600000F06AFE002889D107B030BD5800002075
:102570002DE9FC410F46054600F0EAFB01A800F0FA
:1025800067F80446019818B101F0C2F8BDE8FC8173
:10259000254EAFB130690068D0B30027291B3A46F9
:1025A000306800F009FB01F0B3F80028EED11F49B4
:1025B0004FF080500860BFF34F8FBFF36F8FE5E798
:1025C000A542EBD801F0A4F8F0682746C068C468BB
:1025D000201D00F0E2F994F82800410719D5A06900
:1025E0002B4641193A462046FFF71AFFA8B10020B2
:1025F0000346014600902A46204601F019F960B9C9
:10260000502080F31188BFF34F8FBFF36F8FFEE729
:1026100007E020F0010084F82800216A204688475E
:10262000B4E70127BAE700005800002004ED00E0FD
:102630000648416B096829B1416BC968C968496896
:10264000816270474FF0FF31FAE700001C00002064
:1026500070B5054600F07CFF064E0446B068844223
:1026600003D200F009F8012000E000202860204695
:10267000B46070BD58000020F8B5194E20E0C06865
:10268000C4680568201D00F088F9216A2046884743
:1026900094F82800400713D5A0692844A84206D919
:1026A00024616060211DF06800F0AEF908E00020B0
:1026B0000346014600902A46204601F0B9F838B199
:1026C000F06801680029DAD13169C6E90310F8BD64
:1026D000502080F31188BFF34F8FBFF36F8FFEE759
:1026E0005800002008484068401C4FF0500080F31C
:1026F000118804D0BFF34F8FBFF36F8FFEE7BFF396
:102700004F8FBFF36F8FFEE790000020084CE0680A
:10271000016839B1002139B10020FFF729FFFFF727
:10272000A9FEF4E70121F6E7C0680068F5E70000BC
:10273000580000202DE9F041044600F089F994F991
:10274000455004F1240609E0606A48B1304600F0C3
:10275000A7FF08B100F080FA6D1E6DB2002DF3DC0A
:102760004FF0FF3684F8456000F092F900F070F900
:1027700094F9445004F1100709E0206948B1384643
:1027800000F08EFF08B100F067FA6D1E6DB2002DEB
:10279000F3DC84F84460BDE8F04100F079B9000052
:1027A0002DE9F0410546002600F0D2FA324F386894
:1027B00008B9FFF755FD786905424ED1C5B3083514
:1027C00068070ED005F00700C0F10800054468074F
:1027D00007D0502080F31188BFF34F8FBFF36F8F66
:1027E000FEE72DB37868854237D82349183108466B
:1027F000046801E0214604466068A84202D22068CD
:102800000028F7D13868844227D00E682068086015
:1028100060680836411B10290FD96019420708D09B
:10282000502080F31188BFF34F8FBFF36F8FFEE707
:1028300013E041606560FFF7CDFD61687868401A7C
:102840007860BA68904200D2B8607869014300208D
:10285000C4E90001F868401CF86000F059FF7007F7
:1028600007D0502080F31188BFF34F8FBFF36F8FD5
:10287000FEE73046BDE8F0817000002010B5031F70
:102880004FF080741C601B1F21F001011960191F9B
:10289000044B0B6014390A60091F6FF002024438C0
:1028A0000A6010BDE526000870B50D4606460024F6
:1028B00005E0315D0348FDF7B3FE641CE4B2AC42B1
:1028C000F7D370BDB40000201FB58DF80000FD20C7
:1028D0008DF80100C80F8DF80200069C080A8DF8DB
:1028E00004108DF803008DF80520180E8DF80600F1
:1028F000180C8DF80700180A8DF808008DF80930BB
:102900008DF80A4000208DF80B006B208DF80C002C
:102910000D216846FFF7C8FF1FBD1CB58DF80000EC
:1029200093208DF8010088208DF802006B208DF82F
:1029300003108DF8040005216846FFF7B5FF1CBDA4
:102940001CB58DF80000F6208DF80100080A8DF8FE
:1029500002308DF804108DF803008DF8052000205A
:102960008DF806006B208DF8070008216846FFF7F8
:102970009BFF1CBD1CB58DF800009A208DF801004E
:102980008DF8021000208DF803006B208DF80400F4
:1029900005216846FFF788FF1CBDD0E901320169B7
:1029A0009A60D0E901235A604A68824201D1826864
:1029B0004A60002202610868401E0860086870478B
:1029C000034B036003F15C000860802010607047D7
:1029D000A8070020044B036003F15C0008604FF47B
:1029E0008070106070470000040A002000F10801A8
:1029F0004FF0FF32C0E90112C160016100210160A6
:102A0000704700210161704730B50C68621C02D02C
:102A100000F1080202E0026904E01A4653681D68EA
:102A2000A542FAD953684B6099608A605160086189
:102A30000168491C016030BD42684A6093688B6040
:102A400093685960916008610168491C0160704792
:102A5000502080F31188BFF34F8FBFF36F8F0A4967
:102A60004868401C486001280CD10848006810F0F4
:102A7000FF0F07D0502080F31188BFF34F8FBFF3B3
:102A80006F8FFEE7704700009000002004ED00E02B
:102A90000849486828B1401E486001D180F3118878
:102AA0007047502080F31188BFF34F8FBFF36F8FB3
:102AB000FEE700009000002070B500282AD0164DD7
:102AC000A0F1080460686969084207D1502080F3CA
:102AD0001188BFF34F8FBFF36F8FFEE722683AB1C3
:102AE000502080F31188BFF34F8FBFF36F8FFEE745
:102AF0008843606000F02CF9606869680844686089
:102B00002046FFF767FC2869401C2861BDE870403B
:102B100000F0FEBD70BD0000700000204FF0E0200E
:102B200000210161816105494FF47A720968B1FBA6
:102B3000F2F1491E41610721016170471800002030
:102B400010B5FDF7CDFB114910280ED300F1E020A0
:102B500090F8F0030A78904207D2502080F3118851
:102B6000BFF34F8FBFF36F8FFEE709480068896896
:102B700000F4E060884207D9502080F31188BFF349
:102B80004F8FBFF36F8FFEE710BD00009000002055
:102B90000CED00E010B5074B002253F832401CB199
:102BA000521C082AF9D310BD43F8321003EBC201BE
:102BB000486010BD8C01002070B515460E460446D5
:102BC000FFF746FF94F944100020491C01D184F816
:102BD000440094F94510491C01D184F84500FFF7E1
:102BE00057FFA06B28B92A46314604F1240000F0B3
:102BF00051F82046BDE87040FFF79CBD10B50200BB
:102C000014D00F48006B38B1502080F31188BFF307
:102C10004F8FBFF36F8FFEE700F09AF80021104648
:102C2000FFF7F8F900F074FD002807D105494FF0CF
:102C300080500860BFF34F8FBFF36F8F10BD00004F
:102C40001C00002004ED00E002490A6A0260C96825
:102C5000416070471C00002001490120C861704795
:102C60001C00002010B50C4650B109490968183104
:102C7000FFF7CAFE2046BDE810400121FFF7CAB9A0
:102C8000502080F31188BFF34F8FBFF36F8FFEE7A3
:102C90001C00002070B514460D4668B10A49096849
:102CA0001831FFF7C9FE0CB14FF0FF352146284619
:102CB000BDE87040FFF7AEB9502080F31188BFF334
:102CC0004F8FBFF36F8FFEE71C00002030B587B039
:102CD0000025039505AA04A903A80495FFF770FE33
:102CE000DDE903010095CDE90110002314A1164888
:102CF000059A00F0F2FB154CE06218B100F068FD97
:102D0000012809D0401C19D1502080F31188BFF34D
:102D10004F8FBFF36F8FFEE7502080F31188BFF312
:102D20004F8FBFF36F8F4FF0FF30A06201206061C3
:102D3000E56007B0BDE8304000F044B807B030BDF2
:102D400049444C4500000000AD2200081C00002052
:102D50000248016B491C0163704700001C00002001
:102D6000164B10B5186B10B10120D86110BD0020B2
:102D7000D8611869124901E0B8B1401E00EB800229
:102D800051F82220002AF7D000EB800201EB8201EB
:102D900001F108044A6852684A60A24201D15268AF
:102DA0004A60D1681960186110BD502080F3118805
:102DB000BFF34F8FBFF36F8FFEE700001C000020B2
:102DC000CC0100201CB537480168374A914207D131
:102DD000502080F31188BFF34F8FBFF36F8FFEE752
:102DE00000683149491E884207D1502080F311887C
:102DF000BFF34F8FBFF36F8FFEE72C490878019028
:102E0000FF20087008788DF800009DF800009DF8FC
:102E1000002000F0F000904207D0502080F311888D
:102E2000BFF34F8FBFF36F8FFEE79DF80000204C7C
:102E300000F0500020700720A06006E0401EA06057
:102E40009DF8000040008DF800009DF8000000068D
:102E5000A068F3D4032807D0502080F31188BFF373
:102E60004F8FBFF36F8FFEE74FF44070A060019863
:102E700008700C482030016841F47001016001685D
:102E800041F070410160FFF749FE00206060FDF7EE
:102E9000EFF90848016841F040410160FDF7D4F9BD
:102EA00000201CBD00ED00E071C20F4100E400E015
:102EB0009000002034EF00E010B5502080F311881E
:102EC000BFF34F8FBFF36F8F00F048FB18B1044979
:102ED0004FF080500860002080F3118810BD000082
:102EE00004ED00E0F8B517460E46050013D005FBCB
:102EF00006F05030FFF754FC04000AD0002084F89C
:102F0000460004F150023B46314628460094FFF744
:102F1000FBF92046F8BD502080F31188BFF34F8F96
:102F2000BFF36F8FFEE738B5049D18B153B1CAB136
:102F300081B120E0502080F31188BFF34F8FBFF3A1
:102F40006F8FFEE7502080F31188BFF34F8FBFF3E0
:102F50006F8FFEE7502080F31188BFF34F8FBFF3D0
:102F60006F8FFEE739B1502080F31188BFF34F8F88
:102F7000BFF36F8FFEE750241C46012384F84630D0
:102F80002B460094FFF7C0F9204638BD70B50D46BA
:102F9000040025D0FFF75CFDD4E90F20216802FB77
:102FA0000011A1600021A163216861600A46D4E993
:102FB0000F01401E00FB0121E16021464FF0FF3070
:102FC00001F8440F487004F110008DB1FFF70EFDB9
:102FD00004F12400FFF70AFDFFF75AFD012070BD40
:102FE000502080F31188BFF34F8FBFF36F8FFEE740
:102FF00021690029F0D000F053FB0028ECD00449EF
:103000004FF080500860BFF34F8FBFF36F8FE3E73F
:1030100004ED00E02DE9FF4F83B01F468B4604000E
:103020004FF0000603D0BBF1000F08D011E0502094
:1030300080F31188BFF34F8FBFF36F8FFEE7206CD3
:1030400038B1502080F31188BFF34F8FBFF36F8FDB
:10305000FEE7022F0AD1E06B012807D0502080F351
:103060001188BFF34F8FBFF36F8FFEE700F062FA56
:10307000DFF800914FF0000A4FF0805848B90598EA
:1030800038B1502080F31188BFF34F8FBFF36F8F9B
:10309000FEE7FFF7DDFCA06BE16B884205D3022F52
:1030A00003D00598C8B1DEB11EE03A465946204625
:1030B000FFF785F8616A19B104F1240000F0F0FA15
:1030C00028B1C9F80080BFF34F8FBFF36F8FFFF7B0
:1030D000DFFC012007B0BDE8F08FFFF7D9FC21E04D
:1030E0006846FFF7B1FD0126FFF7D2FCFFF730FE7F
:1030F000FFF7AEFC94F94400401C01D184F844A0D1
:1031000094F94500401C01D184F845A0FFF7C0FCAC
:1031100005A9684600F07AF930B12046FFF70AFBAE
:1031200000F0F6FA0020D5E7FFF792FCA06BE16B08
:10313000884201D1012500E00025FFF7A9FC95B1E7
:1031400004F110000599FFF78DFD2046FFF7F2FA14
:1031500000F0DEFA00289CD1C9F80080BFF34F8F41
:10316000BFF36F8F95E72046FFF7E4FA00F0D0FA3F
:103170008FE7000004ED00E02DE9F0471F46904680
:103180008946040003D0B9F1000F08D011E05020A7
:1031900080F31188BFF34F8FBFF36F8FFEE7206C72
:1031A00038B1502080F31188BFF34F8FBFF36F8F7A
:1031B000FEE7022F0AD1E06B012807D0502080F3F0
:1031C0001188BFF34F8FBFF36F8FFEE7FFF7B8FC97
:1031D0005020EFF3118680F31188BFF34F8FBFF3B8
:1031E0006F8FA06BE16B884206D3022F04D00020C2
:1031F00086F31188BDE8F08794F94550A06B3A46F4
:1032000049462046FEF7DBFF681C04D06D1C84F89D
:1032100045500120ECE7606A0028FAD004F1240050
:1032200000F03EFA0028F4D0B8F1000FF1D00121EF
:10323000C8F80010EDE700002DE9F74783B08A4693
:1032400004004FF0000603D0BAF1000F08D011E0DF
:10325000502080F31188BFF34F8FBFF36F8FFEE7CD
:10326000206C38B1502080F31188BFF34F8FBFF32B
:103270006F8FFEE700F05EF9DFF8F09000274FF067
:10328000805848B9059838B1502080F31188BFF3B1
:103290004F8FBFF36F8FFEE7FFF7DAFBA56BC5B16A
:1032A00051462046FEF778FF6D1EA563206950B198
:1032B00004F1100000F0F4F928B1C9F80080BFF360
:1032C0004F8FBFF36F8FFFF7E3FB012006B0BDE820
:1032D000F087059808B11EB106E0FFF7D9FB27E09B
:1032E0006846FFF7B1FC0126FFF7D2FBFFF730FD80
:1032F000FFF7AEFB94F94400401C01D184F8447000
:1033000094F94500401C01D184F84570FFF7C0FBDB
:1033100005A9684600F07AF8002820460AD0FFF791
:1033200009FA00F0F5F92046FFF796F80028B3D027
:103330000020CBE7FFF790F890B104F12400059945
:10334000FFF790FC2046FFF7F5F900F0E1F90028BF
:10335000A2D1C9F80080BFF34F8FBFF36F8F9BE7F7
:103360002046FFF7E7F900F0D3F995E704ED00E018
:103370002DE9F04790468946040003D0B9F1000FCB
:1033800008D011E0502080F31188BFF34F8FBFF3B6
:103390006F8FFEE7206C38B1502080F31188BFF3A7
:1033A0004F8FBFF36F8FFEE7FFF7CAFB5020EFF39D
:1033B000118780F31188BFF34F8FBFF36F8FA66B18
:1033C000F6B194F9445049462046FEF7E5FE761ED4
:1033D000A663681C04D06D1C84F84450012010E0E2
:1033E00020690028FAD004F1100000F059F90028F3
:1033F000F4D0B8F1000FF1D00121C8F80010EDE7CA
:10340000002087F31188BDE8F08700002DE9F04126
:103410000C46050011D0C4B1FFF71AFB174EF16836
:103420006B682268C81A571C17D02F68366AB742D3
:1034300019D08B4217D8012410E0502080F3118856
:10344000BFF34F8FBFF36F8FFEE7502080F31188DB
:10345000BFF34F8FBFF36F8FFEE70024FFF718FB1A
:103460002046BDE8F081824205D9101A2060284626
:10347000FFF7EAFBF1E700202060DCE71C000020FA
:103480002DE9FF5F8346DDE90E87994616468A4699
:103490009000FFF785F905001CD05C20FFF780F94C
:1034A000040014D00020256384F85900CDE90240BF
:1034B000CDE900874B46324651465846FEF734FF69
:1034C0002046FEF7D5FD012004B0BDE8F09F284658
:1034D000FFF7F2FA4FF0FF30F6E7F0B585B005469A
:1034E000DDE90B040A9EA8B1E4B15C2700972063D4
:1034F000022084F859000020CDE9024004AF28469C
:10350000CDE90067FEF710FF2046FEF7B1FD0498F5
:1035100005B0F0BD502080F31188BFF34F8FBFF38B
:103520006F8FFEE7502080F31188BFF34F8FBFF3FA
:103530006F8FFEE70548416919B1006B18B1002093
:103540007047012070470220704700001C000020D7
:103550000148C068704700001C0000202DE9F041C0
:103560002E4F0026386B28B1B869401CB861304630
:10357000BDE8F081FD686D1CFD6013D1786B0068BB
:1035800038B1502080F31188BFF34F8FBFF36F8F96
:10359000FEE7786BB96B7963B863386A401C3862B0
:1035A000FFF746F8B86ADFF87880854209D3786B70
:1035B0000068A0B1786BC068C4686068854211D2A9
:1035C000B8623868C06A00EB800158F82100012811
:1035D00000D90126F8690028C9D00126C7E74FF0B5
:1035E000FF30EDE7201DFFF7D8F9A06A18B104F10C
:1035F0001800FFF7D2F9E06A3969884200D93861CA
:1036000000EB800108EB8100211DFFF715FAE06A4D
:103610003968C96A8842CAD30126C8E71C0000205D
:10362000CC01002070B504004FF000002BD01A4DE3
:1036300029688C4207D0502080F31188BFF34F8F48
:10364000BFF36F8FFEE7216DF1B1491E2165E36C79
:10365000E26A9A4217D0002915D1201DFFF79DF983
:10366000E06CE062C0F13800A061E06A296988423C
:1036700000D92861094900EB800001EB8000211D81
:10368000FFF7DAF9012070BD502080F31188BFF3F5
:103690004F8FBFF36F8FFEE71C000020CC0100208E
:1036A00070B5C068C46854B104F118000646FFF74D
:1036B00074F9144D286B50B13146134815E0502071
:1036C00080F31188BFF34F8FBFF36F8FFEE7201D8C
:1036D000FFF763F9E06A2969884200D928610B493C
:1036E00000EB800001EB8000211DFFF7A5F9E06AE7
:1036F0002968C96A884202D90120E86170BD0020AA
:1037000070BD00001C00002054060020CC010020E9
:103710002DE9F0472B4D00242746286B38B1FFF7E1
:1037200097F9286B401E2863286B40B145E0502074
:1037300080F31188BFF34F8FBFF36F8FFEE7A86848
:1037400021490126C8B3A1F591698846D8F800102F
:10375000E1B1D8F80C00C46804F11800FFF71DF9B6
:10376000201DFFF71AF9E06A2969884200D928610B
:1037700000EB800109EB8100211DFFF75DF9E06A94
:103780002968C96A8842E1D3EE61DFE70CB1FEF730
:103790004FFFAC693CB1FFF7E1FE00B1EE61641E82
:1037A000F9D10020A861E86938B108490127380734
:1037B0000860BFF34F8FBFF36F8FFFF769F938468B
:1037C000BDE8F0871C0000205406002004ED00E056
:1037D00010B586B0FEF7B4FC114C2068B8B10020DB
:1037E0000390049005AA04A903A8FFF7F3F8DDE904
:1037F000032102208DE8070000230AA10B48059A47
:10380000FFF76BFE606010B106B0012010BD5020C4
:1038100080F31188BFF34F8FBFF36F8FFEE7000077
:1038200058000020546D7220537663000D27000865
:103830002DE9FF411F4603000A9E4FF0000015D0FE
:10384000134D2C68002C0ED08DE80E00062917DAD7
:10385000FFF770FE02284FF000030FD000226946E8
:103860002868FFF7D7FB04B0BDE8F081502080F353
:103870001188BFF34F8FBFF36F8FFEE73246EEE73D
:1038800000233A4669462046FFF776FCEBE7000046
:10389000580000204FF04070E1EE100A7047000021
:1038A00030390008000000000000000000000000A7
:1038B00000000000000200001800000000000000EE
:1038C000000000003C39000800000000000000007B
:1038D00000000000000000000008000018000000C8
:1038E0000000000000000000243900080000000073
:1038F00000000000000000000000000000080000C0
:10390000180000000000000000000000000000009F
:10391000000000000102030406070809000000007F
:1039200001020304436F6E74726F6C5461736B0019
:1039300064656661756C745461736B0047696D6290
:10394000616C4D6F746F72006839000800000020D0
:10395000B4000000C40100081C3A0008B4000020B4
:103960000C500000E0010008000000000000000012
:103970000000000001000000100000000000000036
:103980000024F4000000000000000000000000001F
:103990000000000000000000000000000000000027
:1039A0000000000000000000000000000000000017
:1039B0000000000000000000000000000000000007
:1039C00000000000000000000000000000000000F7
:1039D00000000000000000000000000000000000E7
:1039E00000000000000000000000000000000000D7
:1039F000000000000000000000000000AAAAAAAA1F
:103A000000000000000000000000000000000000B6
:0C3A1000000000000000000000000000AA
:040000050800018965
:00000001FF
