:020000040800F2
:10000000209A0020610200084132000847280008B9
:10001000AD300008C90A0008693D00080000000072
:10002000000000000000000000000000A101000826
:10003000CB0A000800000000FD010008113600088E
:100040007B0200087B0200087B0200087B0200089C
:100050007B0200087B0200087B0200087B0200088C
:100060007B0200087B0200087B0200087B0200087C
:100070007B0200087B0200087B0200087B0200086C
:100080007B0200087B0200087B0200087B0200085C
:100090007B0200087B0200087B0200087B0200084C
:1000A0007B0200087B0200087B020008D5360008AE
:1000B0007B0200087B0200087B0200087B0200082C
:1000C0007B0200087B0200087B0200087B0200081C
:1000D0007B0200087B0200087B0200085D3D0008EF
:1000E0007B0200087B0200087B0200087B020008FC
:1000F0007B0200087B0200087B0200087B020008EC
:100100007B0200087B0200087B0200087B020008DB
:100110007B0200087B0200087B020008E136000831
:100120007B0200087B0200087B0200087B020008BB
:100130007B0200087B0200087B0200087B020008AB
:100140007B0200087B0200087B0200087B0200089B
:100150007B0200087B0200087B0200087B0200088B
:100160007B0200087B0200087B0200087B0200087B
:100170007B0200087B0200087B02000800000000F0
:100180007B0200087B020008DFF810D000F046FB7D
:100190000048004729480008AFF30080209A00205B
:1001A0002C4B19680868B0E8F04F80F30988BFF35A
:1001B0006F8F4FF0000080F311887047000000003F
:1001C00008480068006880F308884FF0000080F35A
:1001D000148862B661B6BFF34F8FBFF36F8F00DF35
:1001E00000BF00BF08ED00E0DFF80C00016841F43B
:1001F00070010160704700BF88ED00E0EFF30980F7
:10020000BFF36F8F134B1A681EF0100F08BF20ED5D
:10021000108A20E9F04F106009B44FF0500080F3CD
:100220001188BFF34F8FBFF36F8F05F0C7FB4FF0FF
:10023000000080F3118809BC19680868B0E8F04F25
:100240001EF0100F08BFB0EC108A80F30988BFF3CE
:100250006F8F7047F4000020EFF3058070470000B7
:100260000648804706480047FEE7FEE7FEE7FEE750
:10027000FEE7FEE7FEE7FEE7FEE7FEE7C53600081D
:10028000890100082DE9F05F0546002092469B4653
:1002900088460646814640241BE02846414647469C
:1002A000224600F09CF953465A46C01A914110D399
:1002B00011461846224600F083F92D1A67EB010813
:1002C0004F4622460120002100F07AF917EB000981
:1002D0004E41201EA4F10104DFDC484631462A4687
:1002E0004346BDE8F09F40EA01039B0703D009E0C5
:1002F00008C9121F08C0042AFAD203E011F8013B12
:1003000000F8013B521EF9D27047D2B201E000F86A
:10031000012B491EFBD270470022F6E710B51346A9
:100320000A4604461946FFF7F0FF204610BD421C5E
:1003300010F8011B0029FBD1801A70472DE9FE4FF0
:10034000804681EA0300C00F0C46009021F0004176
:1003500023F00045B8EB0200A94105D240462146F2
:1003600090461C460B46024623F00040104347D0FF
:10037000270DC7F30A00C3F30A510290401A0190F7
:1003800040286BDAC3F3130040F4801B00989246B8
:1003900020B10023D2EB030A63EB0B0B0198594603
:1003A000C0F14002504600F00BF906460D4650469B
:1003B0005946019A00F023F910EB0800614100242E
:1003C00087EA115284EAE7731A4340D0009A62B375
:1003D000019A012A4FEA075215DC001B61EB02016A
:1003E0004FF0004202EA0752CDE90042001C41F5FD
:1003F000801132462B4600F023F903B0BDE8F08FA0
:1004000040462146F9E7001B61EB0201001C41F563
:10041000801300185B412018A2F5001747EB030179
:1004200040EAD570B6196D4111E06D084FEA360605
:1004300045EAC0754FEA0752001B61EB0201001C40
:1004400041F5801149084FEA300000195141324608
:100450002B4603B0BDE8F04F00F0E3B8009801224E
:1004600040000023D0EB020263EBE07300982146CA
:100470004FEAE074B8EB000061EB0401E9E783F0B8
:1004800000435BE781F0004158E72DE9FE4F81EA28
:10049000030404F0004421F0004100944FF0000BED
:1004A00023F0004350EA01045ED052EA03045BD01B
:1004B000C3F30A54C1F30A552C44A4F2F334019453
:1004C000A0FB0254C1F3130141F48011C3F31303E1
:1004D00043F4801301FB024400FB034E840A970A95
:1004E00044EA815447EA8357A4FB076802958D0AC2
:1004F00005FB07854FEA932C04FB0C542705029D4E
:100500004FEA065847EA1637B5EB08056EEB070CBD
:10051000870E920E47EA811742EA8312A7FB020177
:10052000B6EB0B0164EB00042B0D43EA0C335E18B1
:1005300044EB1C50DA465146E7FB0201C5F31304B5
:100540004FEA0B3343EA14534FEA0432019C43EA67
:100550000603A4F10C040294009CCDE900B400F061
:100560006FF803B0BDE8F08F00200146F9E700F016
:10057000004230F000400AD0C10D01F56071C0F3B7
:10058000160042EA0151C20840071143704700209B
:100590000146704730B50B46014600202022012459
:1005A00009E021FA02F59D4205D303FA02F5491B41
:1005B00004FA02F52844151EA2F10102F1DC30BD57
:1005C000202A04DB203A00FA02F100207047914013
:1005D000C2F1200320FA03F3194390407047202A08
:1005E00004DB203A21FA02F00021704721FA02F3DD
:1005F000D040C2F120029140084319467047202A9A
:1006000006DBCB17203A41FA02F043EAE07306E03A
:1006100041FA02F3D040C2F120029140084319464A
:10062000704710B5141E73F1000408DA401C41F144
:10063000000192185B411A4301D120F0010010BD66
:100640002DE9F04D92469B4611B1B1FA81F202E0DC
:10065000B0FA80F220329046FFF7B2FF04460F4610
:1006600040EA0A0041EA0B0153465A46084313D0B8
:10067000114653EA010019D0C8F140025046FFF775
:10068000AEFF05460E46504659464246FFF798FFD4
:10069000084305D0012004E020463946BDE8F08D2E
:1006A0000020054346EAE0762C4337430A98630569
:1006B000E40AA0EB08000022FD0A44EA47540A308D
:1006C00002D500200146E9E7010510196941DDE97D
:1006D000084500196941BDE8F04DA2E72DE9F04D4C
:1006E00081EA030404F0004B21F0004514464FF06A
:1006F000000A23F0004150EA050220D054EA01022A
:100700001DD0C5F30A570246C5F31303C1F3130006
:10071000C1F30A5640F4801543F48013A7EB060892
:10072000101BD64608F2FD3873EB050002D308F122
:10073000010801E092185B41B8F1000F03DA0020D4
:100740000146BDE8F08D00204FF480110646844636
:100750000EE0171B73EB050705D3121B63EB0503B4
:1007600006434CEA010C49084FEA300092185B41FD
:1007700050EA0107EDD152EA030012D082EA0400E8
:1007800083EA0501084305D0101BAB4106D20122C4
:10079000002306E000224FF0004302E06FF0010268
:1007A00053101AEB06004CEB085110EB0A0041EB1A
:1007B0000B01BDE8F04DFFF734BFC1F30A52C1F39E
:1007C000130140F2FF3341F480119A4202DA002013
:1007D0000146704740F233439A42A2F2334202DCB0
:1007E0005242FFF7FCBEFFF7EBBE000030B5041E1F
:1007F00071F1000404DB4FF00044404264EB01015E
:10080000141E73F1000405DB1C464FF000435242F6
:1008100063EB0403994208BF904230BD064C074D7C
:1008200006E0E06840F0010394E8070098471034C0
:10083000AC42F6D3FFF7ACFC0C7100082C71000839
:1008400030B58C1810F8012B12F00F0301D110F8FD
:10085000013B120906D110F8012B03E010F8015BEF
:1008600001F8015B5B1EF9D101E001F8013B521E6A
:10087000FBD1A142E6D3002030BD00002DED068B58
:10088000DFED819A4FF47A7004F00EF87F4F804DBF
:10089000804C4FF4A566386801287DD07E480088DA
:1008A00000EE100A7D48F8EE408A90ED000AF8EE5E
:1008B000C00A90ED010AB8EEC00A30EE800AF6EEEA
:1008C000000A20EE209A03F003FFDFED750A386876
:1008D00030EEC08A01280BD01D21B0EE680AD1206D
:1008E00004F0D2FD2D21B0EE490AD22004F0CCFD57
:1008F00018EE100A20F00040C0F1FF40C00F65D193
:1009000018EE100A6749884204D218EE100A6649A8
:1009100088425BDBB5EEC08AF1EE10FA28DD28686C
:10092000D4ED050A00EE100AB8EEC00AF4EE400A53
:10093000F1EE10FA02D06168091A616000EE100A47
:100940003D21B8EEC00A84ED050A606890FBF6F020
:1009500000EE100AD320B8EEC00A60EE298AB0EE8D
:10096000480A04F091FD4D21B0EE680AD4202BE036
:100970000120E0602868D4ED060A00EE100AB8EE07
:10098000C00AF4EE400AF1EE10FA02D0A168091A8A
:10099000A16000EE100A00E01CE0B8EEC00A8D2154
:1009A00084ED060AA06890FBF6F000EE100AD8204D
:1009B000B8EEC00A60EE298AB0EE480A04F064FD81
:1009C0009D21B0EE680AD92004F05EFD642003F09A
:1009D0006BFF60E7354E364D9FED369ADFED369A68
:1009E0009FED36AA364F308800EE100A2888B8EE00
:1009F000400A00EE900A6888F8EE600A70EEC90AB4
:100A000060EEA90AC0EE8A8A00EE900AF8EE600A4B
:100A100070EEC90A60EEA90A80EE8A8AD4ED040A53
:100A2000B4EE608AF1EE10FA01D0012000E000205F
:100A300010EE101AB94201DA012100E0002108424B
:100A40001ED05D21DFED1F0AD52030EE200A04F014
:100A50001BFD1E2003F028FF6D21B0EE680AD62092
:100A600004F012FD1E2003F01FFF7D21B0EE480AA6
:100A7000D72004F009FD1E2003F016FF84ED048A40
:100A80000A2003F011FFAEE739344C4390000020F8
:100A9000380000207000002058000020B808002016
:100AA0006666F6400000A0C00000A040760100206D
:100AB000640000200000FA43000034430000FA44C0
:100AC0000000AF4300007042FEE7704772B6FEE7D9
:100AD0002DE9F0410446876D00F056F9054694F87B
:100AE00035000026022806D08020606584F8346036
:100AF0000120BDE8F0812068016821F01601016045
:100B00002068416921F080014161206C08B9A06C26
:100B100020B12068016821F00801016020680168A7
:100B200021F0010101600CE000F02EF9401B0528C6
:100B300007D920206065032084F8350084F83460EC
:100B4000D7E720680068C007EED194F85C103F201A
:100B50008840B860012084F8350084F834600020B3
:100B6000C7E790F83510022903D0802141650120A4
:100B70007047052180F835100068016821F00101F7
:100B8000016000207047000070B5044600F0FCF8DA
:100B90000546601C02D004480078044400F0F4F8D4
:100BA000401BA042FAD370BD180000202DE9F84F79
:100BB000DFF89C910022A9F1040B03274FF00F0CE2
:100BC00009F1040AABF1040E01250B6895402B4096
:100BD000AB426ED10C7904F00304012C01D0022C3D
:100BE00015D18668540007FA04F826EA0806D1F8F9
:100BF0000C8008FA04F848EA0608C0F8088044683F
:100C0000AC430D79C5F300159540254345600C793B
:100C1000E443A40708D0C568540007FA04F6B543B6
:100C20008E68A6402E43C6600C7904F00304022CA3
:100C300011D1D40800EB8406356A5407E40E0CFA8F
:100C400004F825EA0805D1F8108008FA04F848EA03
:100C50000508C6F820800568540007FA04F6B54375
:100C60000E7906F00306A6402E4306604C6814F485
:100C7000403F66D0374C256845F4804525602468A0
:100C800022F0030504F480440094334C05EB04087F
:100C9000D8F808589407260F0CFA06F4A5432F4CF1
:100CA000A04201D1002424E02D4CA04202D1012415
:100CB0001FE046E02B4CA04201D1022419E02A4C4F
:100CC000A04201D1032414E0284CA04201D1042405
:100CD0000FE0274CA04201D105240AE0254CA04298
:100CE00001D1062405E0244CA04201D1072400E0F4
:100CF0000824B4402C43C8F80848D9F800404D46B1
:100D00004E689C43F60200D51C432C60DAF8004084
:100D100055464E689C43B60200D51C432C60DBF858
:100D200000405D464E689C43B60300D51C432C60D2
:100D3000DEF8004075464E689C43F60300D51C4320
:100D40002C60521C102AFFF43FAFBDE8F88F000062
:100D5000083C01404438024000300140000002409D
:100D60000004024000080240000C02400010024053
:100D70000014024000180240001C02400AB18161C8
:100D800070470904FBE700000148806870470000D5
:100D90001800002070B5040025D094F83D0000250F
:100DA00020B984F83C50204600F04EF9242084F805
:100DB0003D002068016821F00101016020680168A0
:100DC00041F4004101602068016821F400410160A4
:100DD00000F020FB4D4B6168994201D84C4900E07E
:100DE0004C49884201D2012070BD4B492268B0FBBA
:100DF000F1F1566826F03F060E43566062689A424B
:100E000006D94FF4967251434FF47A72B1FBF2F166
:100E10002268491C166A26F03F0631431162616858
:100E2000994210D84900401EB0FBF1F2521CC2F3A7
:100E30000B02042A01D2042022E0B0FBF1F0401C96
:100E4000C0F30B001CE0A268F2B301EBC10303EB9B
:100E50000116431EB3FBF6F35B1C43F480431B05F2
:100E600049D092B301EBC10202EB0111401EB0FB6D
:100E7000F1F0401CC0F30B0040F4804040F400400F
:100E80002168CA694CF6FF739A431043C861D4E9DC
:100E9000071001432068026822F0C002114301607C
:100EA000D4E9030101432068826848F2FF339A4382
:100EB00011438160D4E9051001432068C26822F023
:100EC000FF021143C16001E00EE016E020680168F6
:100ED00041F0010101602564202084F83D00256374
:100EE00084F83E50002070BD01EB4106431EB3FB69
:100EF000F6F35B1CB3E70120C2E701EB4101401EA2
:100F0000B0FBF1F0401CC0F30B00B7E7A086010076
:100F100080841E0000093D0040420F002DE9F84F7B
:100F20001F4690468A460446DDF82890FFF72CFFBE
:100F3000054694F83D0020287FD11923012240491D
:100F40002046009501F011FD002876D194F83C0070
:100F5000012872D0012084F83C0020680168C9078C
:100F600003D1016841F0010101602068016821F4AA
:100F700000610160212084F83D00102084F83E00CB
:100F800000262664C4F824806785608D20852D485E
:100F9000E0622B464A465146204601F06DFC90B96E
:100FA000206841698069009036E02A46494620461B
:100FB00001F07CFD50B1206C042804D12068016848
:100FC00041F4007101600120BDE8F88F606A21687A
:100FD00000780861626A521C6262608D401E608502
:100FE000208D401E80B2208521684B69DB435B0762
:100FF0000BD450B110780861606A401C6062608D4B
:10100000401E6085208D401E20852A464946204688
:1010100001F080FC0028CED1208D0028C5D154F8E5
:101020003D0B016841F400710160202004F81E09A5
:10103000E67766770020C7E7FFE70220C4E70000F5
:10104000020010000000FFFFF0B587B00446142135
:101050006846FFF761F92068204C1F4F00261F49A2
:101060001225032204231034B84218D1086840F036
:10107000020008600868694600F002000590C02080
:101080008DE861001648CDE90323FFF78FFD206846
:1010900040F400102060206800F4001019E0114FA7
:1010A000B84217D1086840F02000086008688DE851
:1010B000640000F02000CDE90430694603920A483C
:1010C000FFF774FD206840F480002060206800F481
:1010D0008000059007B0F0BD005400403038024059
:1010E0000004024000580040001402401CB50223D6
:1010F0008DF804000A208DF80510009001AA7821CF
:101100000148FFF70BFF1CBDCC010020024881689D
:101110000278114481607047180000200B4810B518
:10112000016841F400710160016841F4806101606F
:10113000016841F480710160032000F09FF80F20E6
:1011400000F006F800F050F8002010BD003C02400E
:1011500030B505461F4887B00024016841F02001E2
:101160000160006806A900F020000590684600F0C4
:1011700031F90398A8B100F04DF940001649174A1B
:10118000B0FBF1F11648491E026040F2E732C0E9B7
:101190000324C0E90114846100F082FB040003D041
:1011A00015E000F037F9E9E70D4800F0FFFB040017
:1011B0000DD1372000F034F8102D07D20022294637
:1011C000372000F03BF80748056000E0012407B035
:1011D000204630BD4038024040420F00001400401D
:1011E000600400201C0000200C4882B0016841F41B
:1011F00080410160006800F4804000900748001FB3
:10120000016841F0805101600068002200F08050C8
:1012100000900F21901E02B000F010B84438024038
:10122000002809DB00F01F020121914040098000E5
:1012300000F1E020C0F8001170470000F0B40E4B40
:101240001B68C3F30223C3F10704042C00D9042450
:101250001D1D072D01D2002300E0DB1E012606FA2A
:1012600004F56D1E0D409D409E40761E164045EAD9
:101270000601F0BC02F0B6BD0CED00E0064A00F03D
:10128000070110684FF6FF03184040EA01200349A8
:1012900008431060704700000CED00E00000FA0504
:1012A0002DE9F0470D46040065D0DFF81491D9F818
:1012B0000000EFB200F00700A84207D289F80070E2
:1012C000D9F8000000F00700A84254D120683D4E34
:1012D000810712D5400703D5306840F4E0503060F4
:1012E0002078000703D5306840F4604030603068F3
:1012F000A16820F0F000084330602078C0072DD0AE
:10130000304960680839012812D0022813D0032818
:1013100011D00968890700292DDA316821F003010D
:1013200001433160FFF730FD804641F2883A0EE01C
:1013300009688903EFE709688901ECE7FFF724FDF5
:10134000A0EB0801514502D90320BDE8F0873068C1
:10135000616800F00C00B0EB810FEFD1D9F80010FC
:10136000484601F00701A94207D90770006800F05C
:101370000700A84201D00120E7E72078400705D503
:101380003068E16820F4E0500843306020780007BE
:1013900006D53068216920F4604040EAC100306021
:1013A00000F058F83168084AC1F30311515CC84095
:1013B0000649086006480068FFF7CAFE0020C4E737
:1013C000003C024008380240506800082400002019
:1013D0001C0000200F2202600C4A136803F0030374
:1013E0004360136803F0F0038360136803F4E05371
:1013F000C36012684FF4E05303EAD202026104486A
:10140000006800F0070008607047000008380240DC
:10141000003C02400448054900680968044AC1F3D9
:101420008221515CC84070472400002008380240E7
:10143000606800080448054900680968044AC1F367
:101440004231515CC84070472400002008380240F7
:1014500060680008154810B5006810F00C011448C9
:1014600013D0431004290FD008290ED10F4C241F8C
:10147000216801F03F022168490207D52068C0F3C6
:101480008810A0FB030106E0184610BD2168C1F3D7
:101490008811A1FB00010023FEF7F4FE2168C1F3CF
:1014A0000141491C4900B0FBF1F010BD0838024071
:1014B0000024F4002DE9F84F040075D02078DFF8FF
:1014C00038A3C007AAF1040548D00AF10400016856
:1014D000C1F38101012908D00068C0F3810002280E
:1014E0000AD1DAF80000400206D52868800335D515
:1014F00060680028E1D031E06068B0F5803F10D02E
:10150000B0F5A02F286810D020F48030286028681B
:1015100020F4802028606068A0B1FFF735FC064603
:101520000CE0286840F48030F4E740F48020286024
:10153000F7E7FFF729FC801B642871D8286880032F
:10154000F7D50BE0FFF720FC064604E0FFF71CFC94
:10155000801B6428F1D828688003F7D42078DFF84E
:101560009C9280074FF0000B3DD5A348001D0168F9
:1015700011F00C0F08D00068C0F3810002280AD1D6
:10158000DAF80000400206D42868800715D5E06824
:10159000012809D111E0E068B8B10120C9F80000C4
:1015A000FFF7F2FB064605E022E1FFF7EDFB801BAB
:1015B0000228C2D828688007F7D52868216920F05A
:1015C000F80040EAC10028600DE0C9F800B0FFF75C
:1015D000DBFB064604E0FFF7D7FB801B02281FD881
:1015E00028688007F7D42078000722D5824F8448E6
:1015F0006169703771B101210160FFF7C5FB0646D3
:1016000004E0FFF7C1FB801B022809D83868800777
:10161000F7D50EE0C0F800B0FFF7B6FB064605E0D0
:1016200082E0FFF7B1FB801B02287DD83868800775
:10163000F7D42078400765D56F484FF000083C305C
:101640000068C0000BD46C483C30016841F0805108
:10165000016000684FF0010800F080500090694F71
:101660003868C0050FD4386840F480703860FFF7E0
:101670008BFB064604E0FFF787FB801B022853D84C
:101680003868C005F7D55C4FA0686C3701280FD0CB
:101690000528386810D020F001003860386820F044
:1016A00004003860A068B0B1FFF76EFB06460EE09C
:1016B000386840F00100F4E740F004003860F7E7D4
:1016C000FFF762FB811B41F28830814263D83868A2
:1016D0008007F5D50DE0FFF757FB064606E0FFF75C
:1016E00053FB811B41F28830814254D8386880070F
:1016F000F5D4B8F1000F05D03F483C30016821F027
:1017000080510160A069B8B33B49091D0968C1F364
:101710008101022946D00228584606D0C9F8600047
:10172000FFF732FB044639E035E04F46C9F8600068
:10173000FFF72AFB064604E0FFF726FB801B022882
:1017400029D828688001F7D4D4E907010843A16AA1
:101750002D4A490802EB0141626A41EA82110843BD
:1017600094F82C1040EA0161CAF800100120386694
:10177000FFF70AFB044605E03CE0FFF705FB001B12
:10178000022808D828688001F7D533E0FFF7FCFA73
:10179000001B022802D90320BDE8F88F28688001C9
:1017A000F4D427E00128F7D0DAF80000E26900F469
:1017B000800191421CD1226A00F03F01914217D171
:1017C00047F6C071626A0140B1EB821F10D1A26A74
:1017D0004FF0FF3300F4403103EB5202B1EB024F04
:1017E00006D194F82C1000F07060B0EB016F01D0BE
:1017F0000120D1E70020CFE7043802400000474233
:10180000800E4742007000400000FFFF70477047A5
:1018100070B590F83C20012A32D0012580F83C5068
:10182000022280F83D2002685368946823F0700615
:101830000B6833435360134B02689A4214D0B2F1E1
:10184000804F11D0104B9A420ED0104B9A420BD0C1
:101850000F4B9A4208D00F4B9A4205D00E4B9A423A
:1018600002D00E4B9A4204D1496824F080031943F8
:10187000916080F83D50002180F83C10084670BD12
:10188000022070BD0000014000040040000800403C
:10189000000C0040000401400040014000180040DE
:1018A00010B5040003D094F83D0010B107E001200A
:1018B00010BD002084F83C00204600F01FF80220F4
:1018C00084F83D00211D206801F010FF012084F8FC
:1018D000460084F83E0084F83F0084F8400084F815
:1018E000410084F8420084F8430084F8440084F8FE
:1018F000450084F83D00002010BD000010B586B002
:10190000044614216846FEF707FD244A206800219A
:10191000904229D12248026842F001020260006828
:1019200000F0010005901E481438026842F01002D1
:101930000260006800F0100005904FF40050009025
:101940000220CDE901010120CDE9031069461548C7
:10195000FFF72CF9002205211B20FFF76FFC1B204D
:10196000FFF75EFC06B010BD0D49091FB0F1804FB6
:101970000BD00D4A9042F5D1086840F0080008608D
:10198000086800F008000590ECE7086840F00100E6
:101990000860086800F00100F5E700000000014061
:1019A0004438024000100240000C004090F83D1006
:1019B000012901D001207047022180F83D10016803
:1019C000CA6842F00102CA6000681149884214D016
:1019D000B0F1804F11D00F4988420ED00E49884295
:1019E0000BD00E49884208D00D49884205D00D49D8
:1019F000884202D00C49884204D1816801F0070175
:101A0000062903D0016841F0010101600020704700
:101A1000000001400004004000080040000C0040AD
:101A200000040140004001400018004070B5044629
:101A300090F83C000025012817D0012684F83C606E
:101A4000022084F83D002068826822F0770222F4A8
:101A50007F4282600868502838D00DDC20284FD0A3
:101A600005DC90B3102811D14AE0022070BD302867
:101A700046D040280AD13BE060282FD070280DD0F6
:101A8000B0F5805F03D0B0F5005F12D0012584F877
:101A90003D60002084F83C00284670BDCB68D1E949
:101AA0000121206801F09BFE2068816841F07701E8
:101AB00009E0CB68D1E90121206801F090FE20689F
:101AC000816841F480418160E1E719E0CA684968B2
:101AD000206801F059FF5021206806E0CA68496873
:101AE000206801F0A3FF6021206801F082FECEE7AC
:101AF000CA684968206801F047FF40212068F4E780
:101B0000226801461046F0E72DE9F0410D46040039
:101B100003D094F83D0018B108E00120BDE8F08141
:101B2000002084F83C00204600F040F8022084F8B1
:101B30003D002068816844F2070291438160211DC5
:101B4000206801F0D3FD206881688269066A2B68ED
:101B5000AF690B4340F203318A4342EA0722A96886
:101B6000EF6911434FF6FC429143EA6841EA0721CD
:101B70000A4329692F6A090141EA073111436A685A
:101B80006D6926F0AA0646EA05152A438360206897
:101B9000816154F8460B0262012004F81F09E075C8
:101BA0002076E0762077A0750020B7E730B587B0C3
:101BB000044614216846FEF7AFFB20491E4D2068FD
:101BC00000241E4A10390223A84215D1106840F0A3
:101BD00002001060106800F002000590086840F0F4
:101BE000010008600868694600F001000590C02007
:101BF0008DE81900124818E0124DA84219D110685A
:101C000040F004001060106800F0040005900868BF
:101C100040F0080008600868694600F00800059078
:101C20004FF440508DE819000748CDE90343FEF713
:101C3000BDFF07B030BD0000000400404038024046
:101C40000000024000080040000C024070B504464D
:101C500000681749884219D1207F042816D1154DF4
:101C600028784FF008010028204610D000F06EFBC5
:101C7000114908602068016A21F42061016220682E
:101C8000016A41F4007101620020287070BD00F00B
:101C90005DFB0A4908602068016A21F42061016245
:101CA0002068016A0162012028700549087070BD32
:101CB000000001405C000020500000205400002083
:101CC0004C0000202DE9F041054690F83C0000262C
:101CD0000C46012810D0012085F83C0072B1042A7E
:101CE0001CD0082A2CD00C2A50D00126002085F8C0
:101CF0003C003046BDE8F0810220FBE7D4E9001249
:101D0000E368286801F052FE2868816921F00C011F
:101D1000816128688169A26811430FE0D4E900124B
:101D2000E368286801F094FE2868816921F4406125
:101D3000816128688169A26841EA02218161D5E751
:101D40002868D4E9002C277B036A016A21F480719A
:101D50000162C16923F4206321F0030141EA0C010F
:101D600021F0F00C39074FF420674CEA116107EAC3
:101D700002221A43C16102622868C16921F00C0184
:101D8000C1612868C169A26811432AE02868D4E9C2
:101D90000032E168076AD0F820C02CF4805CC0F8FB
:101DA00020C0D0F81CC02CF4407C4CEA02224FF634
:101DB000FF7C22F470420CEA0131114327F42042E7
:101DC0004FF4204707EA03331343C16103622868D5
:101DD000C16921F44061C1612868C169A26841EA12
:101DE0000221C16182E710B5040003D094F83D00E0
:101DF00010B107E0012010BD002084F83C0020460F
:101E000000F01EF8022084F83D00211D206801F03A
:101E10006DFC012084F8460084F83E0084F83F0001
:101E200084F8400084F8410084F8420084F84300BC
:101E300084F8440084F8450084F83D00002010BD7B
:101E40007047000030B50446002579B1042910D050
:101E5000082911D094F8410089B1042912D0082929
:101E600013D094F84520012814D111E094F83E00D5
:101E7000F2E794F83F00EFE794F84000ECE794F8BD
:101E80004220F0E794F84320EDE794F84420EAE795
:101E9000012A01D0012030BD022081B1042913D0D4
:101EA000082916D084F8410084F84500B1B104290E
:101EB00019D0082944D00C2947D001253EE084F8E8
:101EC0003E0084F84200F1E784F83F0084F84300C4
:101ED000ECE784F8400084F84400E7E72068C26833
:101EE00042F0020203E02068C26842F00402C260CD
:101EF0000122206801F066FC16492068884214D04F
:101F0000B0F1804F11D0144988420ED01349884255
:101F10000BD01349884208D01249884205D0124993
:101F2000884202D01149884204D1816801F007013A
:101F3000062903D0016841F001010160284630BD47
:101F40002068C26842F00802D1E72068C26842F007
:101F50001002CCE7000001400004004000080040EF
:101F6000000C004000040140004001400018004007
:101F70002DE9F04104460068C66805694FF0000786
:101F8000A90713D5B10711D5F91E016101202077EA
:101F9000206880698007204602D0FFF757FE04E0E2
:101FA00000F0CCF8204600F05EF92777680716D5D8
:101FB000700714D521686FF00400086102202077B3
:101FC0002068806910F4407F204602D0FFF73EFE73
:101FD00004E000F0B3F8204600F045F92777280721
:101FE00015D5300713D521686FF00800086104206B
:101FF00020772068C0698007204602D0FFF726FEC0
:1020000004E000F09BF8204600F02DF92777E80661
:1020100016D5F00614D521686FF01000086108206D
:1020200020772068C06910F4407F204602D0FFF777
:102030000DFE04E000F082F8204600F014F9277746
:10204000E80708D0F00706D021686FF001000861AA
:10205000204600F071F9280608D5300606D521681B
:102060006FF0800008612046FFF7D0FB680608D5B6
:10207000700606D521686FF040000861204600F028
:102080007AF9A8060AD5B00608D521686FF02000B5
:1020900008612046BDE8F041FFF7B9BBBDE8F0811B
:1020A00070B586B0044614216846FEF735F92268FB
:1020B00000241E4902251E48B2F1804F14D01D4B4A
:1020C0009A420FD10A6842F001020A60096800953D
:1020D000CDE9015401F00101CDE9045103946946B1
:1020E000FEF764FD06B070BD0A6842F001020A60A6
:1020F0000A6802F0010205920A6842F002020A60D0
:10210000096801260096CDE9015401F00201CDE9EC
:10211000046103946946FEF749FDB0020090CDE9E1
:102120000154CDE9034669460348D9E730380240F7
:1021300000000240000C004000040240704770B5EF
:10214000044690F83C0000260D4601280FD00120DF
:1021500084F83C006AB1042A1DD0082A2FD00C2A2A
:102160003FD00126002084F83C00304670BD02209C
:1021700070BD206801F046FB2068816941F00801CC
:1021800081612068816921F0040181612068816991
:102190002A69114311E0206801F064FB206881691D
:1021A00041F4006181612068816921F4806181616D
:1021B000206881692A6941EA02218161D2E72068A9
:1021C00001F086FB2068C16941F00801C161206807
:1021D000C16921F00401C1612068C1692A69114304
:1021E00011E0206801F0A8FB2068C16941F400619A
:1021F000C1612068C16921F48061C1612068C16941
:102200002A6941EA0221C161ACE710B5040003D09C
:1022100094F83D0010B107E0012010BD002084F8C3
:102220003C00204600F01EF8022084F83D00211DED
:10223000206801F05BFA012084F8460084F83E0033
:1022400084F83F0084F8400084F8410084F842009C
:1022500084F8430084F8440084F8450084F83D0085
:10226000002010BD7047704710B5044649B10429DD
:102270000AD008290BD094F8410001280AD0012087
:1022800010BD94F83E00F8E794F83F00F5E794F8A5
:102290004000F2E70220B1B3042938D0082939D030
:1022A00084F841000122206801F08CFA1B49206863
:1022B0001B4A884201D0904203D1436C43F400434F
:1022C00043642068884213D0B0F1804F10D0154984
:1022D00088420DD0144988420AD01449884207D058
:1022E000904205D01249884202D01249884204D156
:1022F000816801F00701062903D0016841F001015E
:102300000160002010BDFFE784F83E00CAE784F8B2
:102310003F00C7E784F84000C4E700000000014028
:10232000000401400004004000080040000C004090
:10233000004001400018004000680349884201D174
:10234000FEF7E4BE70470000001400400246002083
:1023500041B1042909D008290AD00C2901D11068FB
:10236000006C70471068406B70471068806B704756
:102370001068C06B7047704770477047F8B50168C8
:1023800004460868CA684B6910F00F0F4FF000054B
:1023900059D003F0010602F49077374365D0C107A6
:1023A00005D0D10503D5616C41F00101616441079D
:1023B00005D5D90703D0616C41F002016164810742
:1023C00005D5D90703D0616C41F0040161640107B0
:1023D00007D502F02001314303D0616C41F00801C0
:1023E0006164616C00293AD0800604D5900602D55C
:1023F000204601F077FB20684069616CC0F38010D3
:10240000090700D460B3204601F045FB206840690D
:10241000400621D52068143050E8001F21F040010B
:1024200040E80012002AF5D1E06BA8B16E490165C1
:10243000E06BFEF796FB002811D0E06B016D01B058
:10244000BDE8F040084783060FD593060DD520461A
:10245000BDE8F84001F046BB2046FFF78EFFF8BD0F
:102460002046FFF78AFF6564F8BD266B2023012E06
:102470007DD1C6067BD5D60679D508684868009018
:1024800048694FF00206400641D5E16B0868406894
:102490000004000CE8D0A28D8242E5D9E085C8692D
:1024A000B0F5807F2DD020680C3050E8001F21F45B
:1024B000807140E80012002AF5D12068143050E8FD
:1024C000001F21F0010140E80012002AF5D1206828
:1024D000143050E8001F21F0400140E80012002AAB
:1024E000F5D184F84230256320680C3050E8001F95
:1024F00021F0100140E80012002AF5D1E06BFEF750
:10250000E7FA6663A08DE18D401A81B22AE0A08DC2
:10251000E18D401A81B2E08D0028A5D00029A3D01A
:1025200020680C3050E8002F22F4907240E8002719
:10253000002FF5D12068143050E8002F22F001025E
:1025400040E80027002FF5D184F842302563206849
:102550000C3050E8002F22F0100240E80023002B3E
:10256000F5D166632046FFF707FFF8BDFFE70506D4
:102570002BD5150629D594F841002128F5D1A0685E
:10258000B0F5805F01D12069B0B1206A411C2162A1
:10259000216800784860E08C401E0004000CE08454
:1025A000E3D12068C16821F08001C1602068C16862
:1025B00041F04001C160D8E7206A0088C0F30800FC
:1025C0004860206A801C2062E5E74006CDD55006B1
:1025D000CBD5CA68204622F04002CA6084F8413058
:1025E00000F030F9C1E70000873A000870B5040038
:1025F00004D094F84100002510B106E0012070BD20
:1026000084F84050204600F023F8242084F841004C
:102610002068C16821F40051C160204601F0C4FA6D
:102620002068016921F4904101612068416921F02D
:102630002A0141612068C16841F40051C1606564AC
:10264000202084F8410084F842006563002070BDBA
:10265000F0B587B0044614216846FDF75DFE3748A3
:1026600021680024364A02250326072781421AD111
:1026700033481430016841F010010160006800F037
:1026800010000590106840F001001060106802AB67
:1026900000F0010005907002CDE9000583E8D0004C
:1026A000694628481EE0264BDFF89CC010332748B7
:1026B00061451BD1196841F400311960196801F4B2
:1026C00000310591116841F00801116011680DF1A8
:1026D000080C01F0080105916021CDE900158CE896
:1026E000D0006946FEF762FA07B0F0BDDFF860C0BF
:1026F0006145F9D1196841F480211960196801F424
:1027000080210591116841F00801116011680DF1F7
:10271000080C01F0080105914FF44071CDE9001556
:102720008CE8D0006946FEF741FA002205212720F7
:10273000FEF784FD2720FEF773FDD5E7001001406A
:10274000303802400000024000440040000C0240CB
:102750000048004090F84230202B01D00220704702
:1027600021B11AB10023036301F0A4BA012070471C
:1027700010B50068084988420DD108480121017050
:10278000007901F0D3FF05490122BDE81040091D81
:102790000348FFF7DFBF10BD0048004044000020A1
:1027A000180400202DE9F843044690F841001F4624
:1027B00015460E46202802D00220BDE8F8838EB1CF
:1027C00085B100206064212084F84100FEF7DCFA26
:1027D000A5848146E584A0684FF02008B0F5805FAD
:1027E00002D003E00120E8E7206910B13546002659
:1027F0000EE000250CE08021204601F076FAA0B919
:10280000BDB115F8010B21684860E08C401EE084E2
:10281000E08C4B464FF0000200970028EBD14FF0C0
:102820004001204601F061FA40B184F84180032064
:10283000C3E736F8020BC0F30800E4E784F84180F0
:102840000020BAE77047FEE701684A69D2435205A3
:102850000FD46FF480624A61002140F8301F2022BB
:1028600042738173026942F0040202610173012024
:102870007047002070470000F8B50446C06A1E4645
:102880000D461746082807D0012805D010F5803FCF
:1028900002D0206B122804D12068016841F48071B5
:1028A0000160134600224FF001112046009600F00F
:1028B0005CF840B120680068C00502D54FF4007094
:1028C00020640320F8BD2069B0F5804F0ED00620AB
:1028D000216800EAD51040F0F000086133463A461E
:1028E0000B49204600F085F878B902E005F0FE00BB
:1028F00000E0E8B221680861054933463A46891F7D
:10290000204600F076F80028DCD00120F8BD000059
:102910000800010070B516460D4604461EE020462C
:10292000FFF792FF08B1012070BD681C16D0FEF7BA
:102930002BFA801BA84200D885B920684069C043A3
:1029400040070BD5002044F8300F20216173A0739D
:10295000216941F0200121612073E4E7206840698A
:10296000C0434007DBD4002070BD2DE9F0471E4670
:1029700090460D460446C1F30747DDF8209026E057
:10298000701C24D0FEF700FAA0EB0900B04200D87A
:10299000EEB92068012F16D0806925EA00000004F6
:1029A000000C12D00020404511D1002044F8300F17
:1029B00020216173A073216941F0200121612073FE
:1029C0000120BDE8F0874069E7E70120EBE72068D8
:1029D000012F0AD0806925EA00000004000C06D00F
:1029E00000204045CCD00020EBE74069F3E7012010
:1029F000F7E72DE9F047984616460D4604464FF096
:102A000000094FF0200AC1F3074723E0206840691E
:102A1000C043400515D42068016841F4007101608D
:102A200021686FF480604861C4F8309084F83DA05C
:102A300084F83E90216C41F00401216484F83C90BC
:102A400020E0701C06D0FEF79FF9A0EB0800B04212
:102A500003D816B1012F1ED020E02068012F14D01A
:102A6000806925EA00000004000C17D044F8309F6C
:102A700084F80DA084F80E90216941F020012161B5
:102A800084F80C900120BDE8F087406925EA000039
:102A90000004000CEAD12068406901E020688069E8
:102AA00025EA00000004000CB0D1ECE770B5164632
:102AB0000D4604461EE02046FFF7C6FE08B1012081
:102AC00070BD681C16D0FEF75FF9801BA84200D8C5
:102AD00085B920684069C04300060BD5002044F842
:102AE000300F20216173A073216941F02001216121
:102AF0002073E4E720684069C0430006DBD400206F
:102B000070BD000010B5012003F01AF8044900223E
:102B100048600421082001F035FF0249086010BD1B
:102B20003C0000200000002010B5124A002112488D
:102B300002F006F8114C0F4A0021206024321048A0
:102B400001F0FEFF0B4A6060483200210D4801F0A1
:102B5000F7FF084AA0606C3200210B4801F0F0FF3B
:102B6000044AE06090320021084801F0E9FF20614A
:102B700010BD00009C670008093600080400002012
:102B8000413500087D08000891340008B130000884
:102B90002DE9F04186B014216846FDF7BDFB484899
:102BA0000024016841F020010160016801F020016A
:102BB0000591016841F080010160016801F0800128
:102BC0000591016841F004010160016801F0040110
:102BD0000591016841F001010160016801F0010106
:102BE0000591016841F040010160016801F0400178
:102BF0000591016841F010010160016801F01001C8
:102C00000591016841F002010160016801F00201D3
:102C10000591016841F0080101600068294E00F04B
:102C200008000590002208213046FEF7A7F8264F3D
:102C300000224FF410413846FEF7A0F8DFF88C80F0
:102C4000002220214046FEF799F808200090012537
:102C5000CDE90154694630460394FDF7A7FF4FF4D0
:102C60006040CDE90004694619480294FDF79EFFD3
:102C70000320CDE90004694616480294FDF796FF4B
:102C80002803CDE900050220CDE902406946384617
:102C9000FDF78CFFE8030090CDE901546946384602
:102CA0000394FDF783FF20200090CDE9015469468D
:102CB00040460394FDF77AFF06B0BDE8F0810000BE
:102CC0003038024000080240001002400004024078
:102CD00000140240001802400D4810B50B49016075
:102CE0000C49416000214FF480428160C0E9031229
:102CF00041618161C1610162FEF74CF8002803D097
:102D0000BDE81040FDF7E2BE10BD000000540040D9
:102D100078010020801A06000D4810B50B490160AB
:102D20000C49416000214FF480428160C0E90312E8
:102D300041618161C1610162FEF72CF8002803D076
:102D4000BDE81040FDF7C2BE10BD000000580040B5
:102D5000CC010020801A060010B58AB00024234858
:102D600000940194029403940494059406940794A7
:102D700008941D4909940160A721C0E901144FF688
:102D8000FF71C0E9031444618461FEF789FD08B155
:102D9000FDF79CFE4FF48050009069461348FEF703
:102DA00045FE08B1FDF792FE1048FFF71CF808B188
:102DB000FDF78CFE049404A90C480594FEF728FD49
:102DC00008B1FDF783FE0120CDE9064008940822F2
:102DD00006A906480994FEF775FF002801D0FDF703
:102DE00075FE0AB010BD0000000001402002002066
:102DF00010B58EB000240794089409940A940B949B
:102E00001C2168460C94FDF787FA21484FF0804159
:102E10000160A721C0E901143121C0E903148461D4
:102E2000FEF73EFD08B1FDF751FE4FF480500790CC
:102E300007A91748FEF7FAFD08B1FDF747FE144849
:102E4000FFF7E3F908B1FDF741FE0B940BA9104819
:102E50000C94FEF7DDFC08B1FDF738FE6020CDE9EB
:102E6000000402940022694609480494FFF767F9B8
:102E700008B1FDF72BFE082269460548FFF75FF908
:102E800008B1FDF723FE0248FFF70AF90EB010BDA6
:102E90006802002010B58CB024216846FDF73CFA8A
:102EA00000241648099414490A94C0E900144FF606
:102EB000FF71C0E90241046184610320CDE900048F
:102EC0000120CDE902040494CDE905400794694648
:102ED0000A480894FEF718FE08B1FDF7F7FD0994BB
:102EE00009A906480A94FEF793FC002801D0FDF7D3
:102EF000EDFD0CB010BD000000040040B002002049
:102F000010B58CB024216846FDF706FA0024164857
:102F1000099414490A94C0E900144FF6FF71C0E9FE
:102F20000241046184610320CDE900040120CDE960
:102F300002040494CDE90540079469460A480894C0
:102F4000FEF7E2FD08B1FDF7C1FD099409A90648A5
:102F50000A94FEF75DFC002801D0FDF7B7FD0CB028
:102F600010BD000000080040F802002010B58EB02F
:102F700000240794089409940A940B941C21684631
:102F80000C94FDF7C9F91E481C4901605321C0E9A2
:102F9000011444F61F61C0E903148461FEF780FC4C
:102FA00008B1FDF793FD4FF48050079007A914482E
:102FB000FEF73CFD08B1FDF789FD1148FFF725F943
:102FC00008B1FDF783FD0B940BA90D480C94FEF797
:102FD0001FFC08B1FDF77AFD6020CDE900040294E2
:102FE0000422694606480494FFF7A9F808B1FDF7E2
:102FF0006DFD0348FFF754F80EB010BD000C004003
:10300000400300200C4810B50A4901604FF4E1313B
:103010004160002181600C22C160C0E9041281611D
:10302000C161FFF7E3FA002803D0BDE81040FDF7C7
:103030004DBD10BD00100140880300200C4810B5A4
:103040000A4901604FF4E1314160002181600C22A6
:10305000C160C0E904128161C161FFF7C7FA0028AD
:1030600003D0BDE81040FDF731BD10BD0044004065
:10307000D00300200C4810B50A4901604FF4E1313B
:103080004160002181600C22C160C0E904128161AD
:10309000C161FFF7ABFA002803D0BDE81040FDF78F
:1030A00015BD10BD0048004018040020FEE70000D8
:1030B0002DED028B002186B0012343A2084600F0CB
:1030C0007FF9DFF81481DFF81491DFF814A1454E81
:1030D0004FF4FA679FED448A444644A101A8D8F80A
:1030E000002000F06BFE012301AA0221002000F065
:1030F00067F941A101A8626800F060FE012301AAFE
:103100000321002000F05CF9D9F80030BAF8002063
:103110003CA101A800F052FE012301AA04210020D5
:1031200000F04EF901F0D4FA10EE900A11EE104AB8
:103130003188F0EE408AB422A1F5FA71514391FB37
:10314000F7F5FDF714FA41EC110B33A153EC112BF9
:1031500001A8009500F032FE012301AA05210020FC
:1031600000F02EF97088B421A0F5FA70484390FB66
:10317000F7F538EEC80A10EE100AFDF7F8F941EC41
:10318000100B29A153EC102B01A8009500F016FE9E
:10319000012301AA0621002000F012F92046FDF7C4
:1031A000E6F941EC100B24A153EC102B01A800F020
:1031B00005FE012301AA0721002000F001F93220B9
:1031C00001F072FB88E7000044697669636573204B
:1031D0004D6F6E69746F7200B808002058000020AF
:1031E00076010020640000206666F64052504D31A2
:1031F0003A2534640000000052504D323A253464C0
:1032000000000000544F463A2534646D6D20483A62
:10321000253464636D000000503A25362E31662057
:1032200053303A2534640000523A25362E31662058
:1032300053313A2534640000593A25362E31660060
:10324000FEE7A82148430521B0FBF1F000E000BFF4
:10325000401EFCD27047000030B4094C002202EB43
:103260008213002104EB43035854491C89B282297C
:10327000FAD3521C92B2082AF1D330BC00F060B8E5
:10328000A804002010B54FF4FA70FDF77DFCAE20C5
:1032900000F06BFD202000F068FD102000F065FDBF
:1032A000B02000F062FD002000F05FFD102000F073
:1032B0005CFDC82000F059FD402000F056FD812043
:1032C00000F053FDFF2000F050FDA12000F04DFD67
:1032D000A62000F04AFDA82000F047FD3F2000F0A6
:1032E00044FDA42000F041FDD32000F03EFD00206D
:1032F00000F03BFDD52000F038FDF02000F035FD5A
:10330000D92000F032FD222000F02FFDDA2000F05D
:103310002CFD122000F029FDDB2000F026FD2020EE
:1033200000F023FD8D2000F020FD142000F01DFD95
:10333000AF2000F01AFDBDE810400020FFF78CBF61
:103340002DE9F0410F4F002505F1B000C0B200F0AB
:103350000CFD002000F009FD102000F006FD05EB3B
:103360008510002407EB4006305D00F008FD641C6A
:10337000A4B2822CF8D36D1CADB2082DE4D3BDE805
:10338000F0810000A804002010B50446B031C8B296
:1033900000F0EBFC0220FFF754FF102040EA14106D
:1033A00000F0E3FC0220FFF74CFF04F00F0040F0B8
:1033B000010000F0DAFCBDE810400220FFF741BF39
:1033C0002DE9F047002692460F460446012B22D0F5
:1033D000DFF8B490022B24D151E0203800F0FF0830
:1033E0007E2C02D900247F1CFFB239462046FFF70D
:1033F000CBFF08EB4800002509EB400818F8050052
:1034000000F0BDFC6D1CEDB2062DF7D3A41D761C9B
:10341000E4B2F6B201E0DFF874901AF80600002872
:10342000DBD1BDE8F087203800F0FF08782C02D906
:1034300000247F1CFFB239462046FFF7A5FF002578
:1034400005EB081119F8010000F099FC6D1CEDB2B4
:10345000082DF5D3781CC1B22046FFF795FF002553
:1034600005EB081101EB0900007A00F088FC6D1CE7
:10347000EDB2082DF4D30834761CE4B2F6B21AF893
:1034800006000028CFD1CCE7F06A0008C868000821
:103490002DE9F04740F2DC584FF47A773A4644463B
:1034A0004146002000F096F80A2001F0FDF93A4666
:1034B0002146012000F08EF80A2001F0F5F91F4C9A
:1034C0007D102168012903D0284601F0EDF9F8E7C5
:1034D0004FF4966540F24C4940F26C764FF4C86A5E
:1034E0004C46A9B26422002000F074F80A2001F0D2
:1034F000DBF9A1B26422012000F06CF86E2001F02B
:10350000D3F93234B442ECDD32355545E8DD3A4684
:1035100044464146002000F05DF80A2001F0C4F95D
:103520003A462146012000F055F80A2001F0BCF986
:10353000BDE8F047002002F025B90000900000200F
:103540001FB5144C4FF0FF352B46002202A9E0684E
:1035500001F0E6F90028F7D1BDF80C10BDF80A001B
:10356000CDE900019DF808300BA240210F4800F082
:103570000BFC2946A06801F065FA0C48FCF7D7FE61
:1035800082B22B4609490A48FFF70CF9A06801F0FE
:10359000B6FAD9E760000020232530336450253087
:1035A0003464542530346421000000000C090020EC
:1035B000D003002010B5002206210A2001F0E2F914
:1035C000034CE060002001F066FAA06010BD00002E
:1035D000600000207CB504468DF800000948ADF875
:1035E0000210ADF804200D4600231A466946C06853
:1035F00001F0F4F90348001D20F81450014900209F
:1036000008557CBD60000020012001F04DF9FBE76A
:1036100010B54FF0E020006902F0D2FE012803D07F
:10362000BDE8104002F076BA10BD000030B593B08E
:1036300030216846FCF770FE14210CA8FCF76CFEE4
:103640001E480025016841F080510160006800F0CB
:10365000805011901A48016841F48041016000686F
:10366000022400F480401190012000900004019099
:103670008001CDE90640082008904FF4A870CDE9FC
:10368000090404200B906846FDF714FF08B172B6D8
:10369000FEE70CA90F2081E831004FF4A0500F90F5
:1036A0004FF48050109005210CA8FDF7F9FD00287B
:1036B00001D072B6FEE713B030BD000040380240C2
:1036C000007000400248016841F4700101607047D9
:1036D00088ED00E00148FEF74BBC0000200200200E
:1036E0000148FEF745BC000060040020F0B5026808
:1036F000294D2A4E2A4FDFF8ACC02B4B4FF0804E9D
:10370000A84209D0704507D0B04205D0B84203D0D6
:10371000604501D0984203D122F070044A682243E8
:10372000A8421BD0704519D0B04217D0B84215D06E
:10373000604513D0984211D01C4CA0420ED01C4CB6
:10374000A0420BD01B4CA04208D01B4CA04205D07D
:103750001A4CA04202D01A4CA04203D122F4407469
:10376000CA6822434C6922F08002224302608A68C0
:10377000C2620A688262A84201D0984201D10969F6
:103780000163012141610169C90703D0016921F089
:1037900001010161F0BD0000000001400004004093
:1037A00000080040000C00400004014000400140BF
:1037B000004401400048014000180040001C004047
:1037C0000020004010B501F01F010123046A8B4066
:1037D0009C430462036A8A401343036210BD10B520
:1037E000846842EA032224F47F440A43224382602D
:1037F00010BD826822F070020A4342F00701816026
:1038000070470000F0B5026A036A23F00103036207
:1038100043688469114E24F073050C68104F2C43E3
:1038200022F002058A682A43B04201D0B84205D18D
:1038300022F00805CA682A4322F00402B04201D0EF
:10384000B84205D14D6923F440731D438B692B4366
:1038500043608461496841630262F0BD0000014039
:1038600000040140F0B5026A036A23F0100303620A
:10387000436884690D6824F4E64444EA05248D68AD
:1038800022F0200242EA05120F4D104EA84201D04C
:10389000B04206D1CF6822F0800242EA071222F03D
:1038A0004002A84201D0B04207D14D6923F44063E1
:1038B00043EA85038D6943EA85034360846149686F
:1038C00081630262F0BD000000000140000401407D
:1038D000F0B5026A036A23F4807303624368C46923
:1038E00022F4007224F073050C68124E2C438D688C
:1038F00042EA05220E4DA84201D0B04206D1CF685F
:1039000022F4006242EA072222F48062A84201D037
:10391000B04207D14D6923F4405343EA05138D6942
:1039200043EA05134360C4614968C1630262F0BDA4
:10393000000001400004014030B5036A026A22F42D
:10394000805202624268C4690D6824F4E64444EA85
:1039500005248D6823F4005343EA0533084DA8423B
:1039600002D0084DA84204D14D6922F4804242EAB7
:1039700085124260C46149680164036230BD000081
:10398000000001400004014010B5046A036A23F0FE
:1039900001030362836923F0F00343EA021324F076
:1039A0000A020A438361026210BD000070B5056A15
:1039B000046A24F0010404628469154EB04214D0F4
:1039C000B0F1804F11D0134EB0420ED0124EB04223
:1039D0000BD0124EB04208D0114EB04205D0114E5D
:1039E000B04202D0104EB04203D124F0030414437D
:1039F00001E044F001041A0724F0F00444EA1262E2
:103A000025F00A0301F00A0119438261016270BDC9
:103A1000000001400004004000080040000C00408D
:103A200000040140004001400018004010B5036A46
:103A3000046A24F010040462846923F0A00324F4CF
:103A4000704444EA023243EA01118261016210BD0E
:103A500030B5046A056A25F010050562856925F40C
:103A6000407545EA022222F470454FF6FF7202EAE1
:103A7000033224F0A0032A43A02404EA01111943CD
:103A80008261016230BD10B5806B0021C185C184A7
:103A9000FEF773FC10BD01680C3151E8002F22F4D1
:103AA000907241E80023002BF5D10168143151E8F0
:103AB000002F22F0010241E80023002BF5D1016B19
:103AC000012909D101680C3151E8002F22F01002C0
:103AD00041E80023002BF5D1202180F8421000217D
:103AE0000163704708B590F84210222901D00220E6
:103AF00008BD81684FF48053994201D1026922B117
:103B0000826A99421BD049B10AE00268816A526810
:103B1000C2F308020A80816A891C08E0016971B158
:103B20000168496801F07F011170816A491C816256
:103B3000C18D491E0904090CC18503D01BE0016831
:103B40004968F1E70168CA6822F02002CA6001688A
:103B5000CA6822F48072CA6001684A6922F00102D0
:103B60004A61202180F8421000214163026B012A42
:103B700003D0FEF7FDFD002008BD016301680C3194
:103B800051E8002F22F0100241E80023002BF5D16C
:103B900001680A68D20602D50A6849680091818DD9
:103BA000FEF7EAFBE7E7000070B50446006801692C
:103BB000E26821F4405111430161A1682069E26982
:103BC00001436069104301432068C26849F20C63F5
:103BD0009A430A43C26020684169A26921F4407196
:103BE0001143416131492068884202D030498842FE
:103BF00002D1FDF71FFC01E0FDF70CFCE269002398
:103C0000192164253226B2F5004F626828D0A0FB46
:103C10000101930F9200FCF735FB0146B0FBF5F074
:103C20006FF01802504301EB800006EB0010B0FB70
:103C3000F5F000F0F002B1FBF5F002EB0012B1FB81
:103C4000F5F06FF01803584301EB800006EB00100D
:103C5000B0FBF5F000F00F0021681044886070BDE3
:103C6000A0FB010192185B41FCF70CFB0146B0FB85
:103C7000F5F00201B1FBF5F06FF01803584301EBCA
:103C8000800006EBC000B0FBF5F000F0F80002EB9E
:103C90004002B1FBF5F0584301EB800006EBC00099
:103CA000B0FBF5F000F00700D6E70000001001407F
:103CB0000014014081628285C28500214164222175
:103CC00080F84210016921B10168CA6842F480722B
:103CD000CA6001684A6942F001024A610068C1682D
:103CE00041F02001C160002070472DE9F8431F46D4
:103CF00090460D460446089E23E0701C21D0FDF737
:103D000043F8C01BB0421AD8CEB12068C168490739
:103D100017D5802D15D0402D13D00168C943090750
:103D20000FD401680025406800902046FFF7B3FEDD
:103D30000820606484F840500120BDE8F883032027
:103D4000FBE72068006835EA000004D00020404509
:103D5000D3D00020F1E70120F9E700000148FEF789
:103D60000DBB000018040020FEE710B5014600203E
:103D7000FDF7BCF9BDE810400520FFF762BA014627
:103D80004020FDF7B3B900000FB47CB50C0009ADBD
:103D900001D0611E00E00021CDE90001064B6A461A
:103DA0002946089800F000F9002C02D0009A002162
:103DB00011707CBC5DF814FBAF4600080FB4084BD3
:103DC00010B504A902AA039800F0EEF8044602A96F
:103DD000002000F077FC204610BC5DF814FB0000CA
:103DE000C54600080907090E002804DB00F1E020A1
:103DF00080F80014704700F00F0000F1E02080F818
:103E0000141D704702E008C8121F08C1002AFAD129
:103E100070477047002001E001C1121F002AFBD14A
:103E2000704700002DE9FF5F82B00021DDE904301A
:103E3000020DDDF840B0034318D044F61050A2F252
:103E4000FF3242431514119801281FD0A5EB0B0037
:103E5000401C5FEA000A4FF000064E4FDFF8389131
:103E6000B046504615D5CAF1000413E0119801245C
:103E70004AA3012801D16FEA0B010298119AC0E907
:103E80000031C0E9024206B0BDE8F09FCBF100006E
:103E9000DFE704460021404A491842EB0450CDE9CF
:103EA000001012E0E00707D032463B464046494644
:103EB000FCF7EBFA8046894632463B4610461946E7
:103EC000FCF7E3FA06460F466410002CEAD1DDE960
:103ED0000401DDE90023BAF1000F06DAFCF7D5FA98
:103EE00042464B46FCF7D1FA05E0FCF7F7FB4246A9
:103EF0004B46FCF7F3FB04460E460022284BFCF72A
:103F000075FC03D84FF0FF30014607E00022254B37
:103F100020463146FCF712FAFCF74FFC102409E06A
:103F2000002C0ADB0A220023FCF7ACF9039B303299
:103F30001A55641E50EA0102F2D1641C039AC4F1BE
:103F400011031444119A012A03D0012208430DD110
:103F50000AE0084304D000204FF0110B119072E7E3
:103F6000A3EB0B056D1E0DE05B4504DD4FF0000279
:103F700005F1010504E003DA4FF00002A5F10105A7
:103F8000002AECD002981199C0E90231C0E900453D
:103F900079E70000000014400000F03F300000000E
:103FA0000000F0430000E03F2DE9FF4F95B09A4636
:103FB000884606460025EEE1252877D100242746CD
:103FC000F94A0121039400E0044316F8013F203B25
:103FD00001FA03F01042F7D130782A2811D06FF09F
:103FE0002F033078A0F13002092A16D8039A44F042
:103FF000020402EB820203EB42021044761C03909F
:10400000EFE758F8042B0392002A03DA504244F4F5
:104010000054039044F00204761C30782E2816D108
:1040200016F8010F44F004042A280DD06FF02F0277
:104030003078A0F13003092B09D807EB870302EB96
:104040004303C718761CF3E758F8047B761C3078D6
:104050006C280FD006DC4C2817D068280DD06A28B1
:1040600014D104E0742810D07A280FD10DE044F464
:1040700000140AE044F4801401E044F4401472781F
:10408000824202D104F58014761C761C30786628B2
:104090000BD013DC582877D009DC002875D04528D0
:1040A000F6D04628F4D047281AD193E118E06328C7
:1040B00035D0642879D0652812D18BE1702873D06F
:1040C00008DC6728F1D069286FD06E280DD06F28E2
:1040D00006D1ACE073282CD0752874D0782853D042
:1040E0005246179990476D1C54E1C4F302500228C0
:1040F00009D003280DD0D8F8001004280DD00D6089
:1041000008F1040846E1D8F80010EA17C1E90052A6
:10411000F6E7D8F800100D80F2E70D70F0E718F818
:10412000041B8DF8001000208DF80100EB460120E3
:1041300003E058F804BB4FF0FF3061074FF0000177
:1041400002D40DE009F101018946B9420FDA814537
:10415000F8DB1BF809100029F4D108E009F101018E
:1041600089468142FADB1BF809100029F6D1039831
:104170005346A0EB090721463846179A00F080FA0B
:10418000284400EB090507E044E008E10DE01BF8D6
:10419000010B524617999047B9F10109F7D25346DE
:1041A00021463846179AF2E039E00A21C4F3025258
:1041B0004FF0000B0091022A06D058F8040BC117EB
:1041C000032A09D00AE023E008F1070020F00702E3
:1041D000F2E80201904605E000B2C117042A01D1BD
:1041E00040B2C117002906DA0A460021404261EBBD
:1041F00002012D2202E0220504D52B228DF8042095
:10420000012203E0E20701D02022F7E7914657E0C0
:104210000A2100E010214FF0000B00910BE010216B
:104220004FF0000B44F004040827009103E008203D
:104230004FF0000B0090C4F30252022A05D058F848
:10424000040B0021032A08D008E008F1070020F041
:104250000702F2E80201904603E080B2042A00D18E
:10426000C0B24FF0000922072AD53278702A07D051
:10427000DDF800C08CF0100C5CEA0B0C05D00EE0F1
:1042800040228DF80420012208E050EA010306D004
:1042900030238DF804308DF8052002229146009BD2
:1042A00083F0080353EA0B030AD150EA010201D15B
:1042B000620705D530228DF804204FF001097F1EDA
:1042C0003278582A04D039A20C920CAA02920BE040
:1042D0003BA2F9E75B46009AFBF7D4FF0C9B9B5C83
:1042E000029A521E0292137050EA0102F2D1029811
:1042F00004A9081A00F1200B600702D524F48034C9
:1043000000E001275F4502DDA7EB0B0000E0002085
:1043100000EB0B01009003984944401A0390E0031E
:1043200006D453462146179A039800F0A9F905448C
:10433000002706E001A85246C05D179990476D1C02
:104340007F1C4F45F6DBE0030CD553462146179AF8
:10435000039800F095F9054404E03020524617997F
:1043600090476D1C0099481E00900029F5DC08E07C
:104370000298029952460078491C02911799904779
:104380006D1CBBF10001ABF1010BF1DC5BE100F056
:1043900065F90544761C307800287FF40DAE19B01D
:1043A0002846BDE8F08F0000092801003031323383
:1043B0003435363738396162636465660000000061
:1043C000303132333435363738394142434445464B
:1043D00000000000600700D4062708F1070020F065
:1043E0000700F0E80223804603F0004C5FEA0C006F
:1043F00001D097A009E0200501D596A005E0E007CF
:1044000001D095A001E0AFF24C001390307823F07A
:10441000004365280CD006DC452809D046281DD06D
:1044200047287FD13BE0662818D067287AD136E04C
:104430000021112F01DB112000E0781CCDE90001E3
:1044400004A90CA8FFF7EEFCDDE90D010C9A4FF072
:10445000000B07F10109109200914EE04FF000406F
:104460000097CDE9011004A90CA8FFF7DBFCDDE9FA
:104470000D020C9B0F994FF0000B91461093009288
:1044800011B9791C00EB0109B7EB090003D4C0F1A5
:10449000FF3B07F10109A9EB0700019042E0012F62
:1044A00000DA01270021112F01DD112000E038463C
:1044B000CDE9000104A90CA8FFF7B4FCDDE90D016A
:1044C0000C9A00914FF0000BB946109221070FD4BF
:1044D000009A4A4503DA914601E0A9F10109B9F1D0
:1044E000010F05DD109AA9F10101515C3029F4D0CA
:1044F000B84202DA10F1040F03DA0121CDE901100C
:1045000010E0002803DC8344A9EB000102E0411C19
:10451000494500DD8946A0EB0B00401C01904FF09F
:1045200000400290200705D40198484502DB4FF077
:10453000FF30019000208DF84B0002980DF14B07E1
:10454000B0F1004F25D002200C902B200D90029846
:1045500000280CDA404202902D200D9007E00A213D
:104560000298FCF717F83031029007F8011D0C99FA
:10457000481E0C900029F2DC02980028EFD1791E29
:104580000D980870307800F0200040F0450007F8E2
:10459000020D11A8C01BC01D02901398007800B135
:1045A000012000EB0901019801EBE0710298014440
:1045B0000398401A401E0390E00306D45346214658
:1045C000179A039800F05CF805441398007818B126
:1045D0005246179990476D1CE00323D55346214658
:1045E000179A039800F04CF805441BE0BBF1000F4C
:1045F00007DB0098584504DD1098179910F80B0058
:1046000001E0179930205246904701980BF1010BB9
:10461000401E05F10105019004D12E205246179944
:1046200090476D1CB9F10001A9F10109DEDC05E03C
:1046300017F8010B5246179990476D1C0299481EB6
:1046400002900029F4DC53462146179A03989EE60F
:104650002D0000002B000000200000002DE9F0419B
:10466000044600251E461746880404D405E0394652
:104670002020B0476D1C641EF9D52846BDE8F081A6
:104680002DE9F041044600251E469046C80301D599
:10469000302700E02027880404D505E0414638464D
:1046A000B0476D1C641EF9D52846BDE8F0814A6804
:1046B000002A06D00A68531C0B6010704868401E20
:1046C000486070470A68531C0B6010707047000008
:1046D00010B50F482DED048B007878B100F056FF2F
:1046E0000C4890EC038A00F071FFB0EE480AF0EE3F
:1046F000680AB0EE491ABDEC048B10BD9FED060AA6
:10470000F0EE408AB0EE408AB0EE409AEDE700004D
:10471000440000200009002000C00A440248002193
:1047200041708170C170704744000020F0B5354978
:1047300000250A464E78D278334C1318DBB2062E89
:1047400020D2DFE806F0030A1216212D552857D192
:1047500001224A702070C87052E0552812D10223FD
:104760004B7060705532CA704AE0A070CB70032065
:1047700006E0202806D8E070CB708D7070B1042060
:1047800048703DE04D703BE08A78A518521C2871B6
:10479000D0B28870CB70E278824231D10520EFE749
:1047A0008242EFD1A0780128ECD1A088E28800B243
:1047B00000EE100A14482389F8EEC00A9FED130A90
:1047C000283012B220EE801ADFED110A1BB221EE62
:1047D000201A80ED001A01EE102AB8EEC11A21EE5F
:1047E000001A21EE201A80ED011A01EE103AB8EEFF
:1047F000C11A21EE000A20EE200A80ED020AC1E76C
:104800000020F0BD44000020D80800200000344300
:1048100000000038012202490248FDF79BBF00005A
:104820004800002018040020FCF778FCFEF7FEFE8C
:10483000FEF7AEF9FEF750FAFEF76EFAFEF71AFC35
:10484000FEF78AFAFEF792FBFEF7F8FBFEF7DAFBBB
:10485000FEF7CEFAFEF71EFBFEF752FB08210E48CC
:10486000FDF7F0FA04210D48FDF7FEFCFEF70AFD06
:10487000FFF754FFFFF7CEFF012209490948FDF772
:1048800069FFFEF797FEFEF73DF900F01BF8FEF713
:104890004BF900F029F8FEE7200200204003002039
:1048A000480000201804002010B5EFF3058111B175
:1048B0006FF0050403E0002408B100F03DFF20463E
:1048C00010BD0000EFF3058010B16FF005007047D8
:1048D0000448016811B14FF0FF30704701210160B9
:1048E000002070474401002010B5EFF3058010B19F
:1048F0006FF0050010BD08480168012902D04FF093
:10490000FF3010BD054A002182F8141D022101600C
:1049100001F00AF8002010BD440100200BE000E087
:10492000F8B51D466FF003036FF002064FF0000468
:10493000EFF30582A2B1F0B1E9B1E5B9002200922E
:104940006A4601F079FB012817D10098B0B10C49F3
:104950004FF080500860BFF34F8FBFF36F8F0DE0B3
:1049600048B141B12A4601F0CBFA012806D025B161
:104970006FF0010402E01C4600E034462046F8BD1A
:1049800004ED00E0F8B514464FF00005EFF30582A2
:1049900012BB08B301B3A4B1D4E9023263B1502A07
:1049A0001AD32269C2B1676900FB01F6B74213D37B
:1049B000009501F0FEF807E072B9226962B96269F8
:1049C00052B9002201F0D4F8050005D00CB12168DD
:1049D00000E0002100F07CFE2846F8BDF8B51D4639
:1049E0006FF003036FF002064FF00004EFF305824F
:1049F000AAB100B3F9B1F5B90022134600926A4694
:104A000001F000FA012818D10098B8B10C494FF014
:104A100080500860BFF34F8FBFF36F8F0EE050B12F
:104A200049B100232A4601F03BF9012806D025B1FF
:104A30006FF0010402E01C4600E034462046F8BD59
:104A400004ED00E02DE9F0410D46014621F00100A2
:104A500001F001014FF00004EFF305820AB1A41F39
:104A600016E048B100296FF001066FF002072946F1
:104A700008D001F0EBFB07E06FF0030408E035B16C
:104A8000344605E001F026FB0128F8D100E03C4661
:104A90002046BDE8F08170B505464FF00004EFF305
:104AA000058050BB0DB1686800E00020C10701D04F
:104AB000012600E0002600071FD46DB1D5E90210E1
:104AC00021B1502819D31EB1042002E020B114E016
:104AD000012001F040F805E00EB1042000E00120C3
:104AE00001F02EF8040008D00DB1296800E0002183
:104AF00000F0EEFD0EB144F00104204670BD70B52B
:104B0000014621F0010001F001014FF00004EFF334
:104B100005820AB1A41F11E028B16FF0020529B186
:104B200001F0CFF907E06FF0030407E000231A4615
:104B3000194601F0B5F8012800D02C46204670BD7A
:104B40002DE9FF410B464FF00005EFF3058103957A
:104B500049BB40B38026182100244AB3176807B127
:104B60003C46976907B139464F1E382F02D2177954
:104B7000FF0703D0002004B0BDE8F081576907B1FA
:104B8000BE08D2F808C0BCF1000F0DD0D5685C2D6E
:104B900018D312693AB137B18DE806103246214672
:104BA00001F0DBFB03900DE0D7685FB912694AB9E9
:104BB00003AACDE90012B2B2214601F0A1FB0128FF
:104BC00000D003950398D6E72DE9F041134E0F4628
:104BD0000446F5683068001D00F07CFC601C07D1BD
:104BE00037B13168BDE8F0410D48091D00F0C2BC85
:104BF00030682C44AC424460316805D2B06BBDE8EB
:104C0000F041091D00F09EBC706B091D00F09AFC7C
:104C1000B06A844200D2B462BDE8F081F4000020A2
:104C20003C0E00202DE9F041054600F0AFFC2D4E72
:104C3000B068401CB06030682B4F10B1706930B361
:104C40002BE03560B068012827D1002404EB8400F4
:104C500007EB800000F068FC641C382CF6D3234876
:104C600000F062FC2148143000F05EFC1F48283040
:104C700000F05AFC1D483C3000F056FC1B485030F8
:104C800000F052FC194870631430B06305E03068DE
:104C9000E96AC06A884200D83560706A401C706258
:104CA0006864E86A3169884200D9306100EB8000AD
:104CB00007EB8000291D00F05DFC00F087FC7069A7
:104CC00000280CD03068E96AC06A884207D20849D7
:104CD0004FF080500860BFF34F8FBFF36F8FBDE878
:104CE000F0810000F40000208C090020EC0D002071
:104CF00004ED00E038B500F049FC104C2068C8B95C
:104D00000F4800F011FC0E48143000F00DFC0C4868
:104D1000E060143020610A4B0020F03B009003F16A
:104D2000500210210A2000F044FF206010B105A1BC
:104D300000F0CEFCBDE8384000F048BC3001002057
:104D4000400F0020546D72510000000030B4026C1E
:104D50000B46002A0BD0C1681144C1608468A1428F
:104D600001D30168C16030BC1846FBF7BCBA30BC47
:104D700070472DE9F041856B174604460026026C0A
:104D800082B1C7B1E068FBF7AEFAE168206C091A9E
:104D9000E1602268914202D2A168081AE060022F05
:104DA00016D017E02068A8B9A06801F081FB06467C
:104DB0000020A0600EE06068FBF795FA216C606847
:104DC00008446060A168884204D32068606001E004
:104DD00005B16D1E6D1CA5633046BDE8F08110B5B0
:104DE000044690F8590058B101280CD002280FD081
:104DF000502080F31188BFF34F8FBFF36F8FFEE712
:104E0000206B00F0F7FB2046BDE8104000F0F2BB3D
:104E100010BD000010484FF40041420706D0C01DED
:104E20000D4920F00700411AC1F500410B4A00234B
:104E30000144C2E900030839183A21F00701116062
:104E40004B600B600B1AC0E9001393604FF00040F9
:104E50005360506170470000201600206001002060
:104E6000134E144DA6F29C474FF08058DFF848903F
:104E700011E000F08BFBF068C468201D00F02AFBF5
:104E8000A868401EA8606868401E686000F09EFB2D
:104E90002046FFF7A4FF68680028EAD13868012897
:104EA000F9D9C9F80080BFF34F8FBFF36F8FF2E7D6
:104EB000280E0020F400002004ED00E0002807D0B8
:104EC0000021816001600B460A46C16000F0E8BE27
:104ED000704770B51D46049C49B12260C4E90F01BA
:104EE0000121204600F098FE84F84C5070BD2460EB
:104EF000F4E72DE9F05F0E46DDE90B941746834693
:104F000091009A460A9DA522206BFBF7FEF96FF0EF
:104F10000301206B01EB8701084420F007077807A5
:104F200007D0502080F31188BFF34F8FBFF36F8FEE
:104F3000FEE74FF0000866B100202218315C82F8CD
:104F40003410315C11B1401C1028F6D384F8438032
:104F500001E084F83480382D00D33725E562C4E9B8
:104F60001358201D00F0EBFA04F1180000F0E7FAE6
:104F70002461C5F138006462A061C4F8548084F8EB
:104F8000588052465946384600F068FA2060B9F118
:104F9000000F01D0C9F80040BDE8F09F30B51149BD
:104FA00000E011460A688242FBD34B685C188442D9
:104FB00003D1406818444860084643681C1894426E
:104FC00009D1084C183C2468A24209D052681A44FE
:104FD00042600A6812680260814200D0086030BDF9
:104FE0000460F9E76001002070B5002441600B4DBA
:104FF0000061914206D8D11A8269914206D2011D00
:10500000286907E09A4203D2994201D3012403E0C0
:10501000011DE86800F096FA204670BD30010020BE
:1050200010B5044600F0B2FAA06B20B1002400F0E5
:10503000CDFA204610BD0124F9E7000030B587B055
:105040003C4D6EE00198002806DADDE90301029A82
:1050500090470198002864DB039C606910B1201D13
:1050600000F038FA05A800F0D7F8024601980A289F
:1050700057D2DFE800F00505052D334A05052D332D
:1050800094F8280040F0010084F828000298A169F3
:10509000034601442046FFF7A7FF68B3216A204674
:1050A000884794F8280040073BD5002000900298DC
:1050B000A169002342181946204601F03DFBD8B9EA
:1050C000502080F31188BFF34F8FBFF36F8FFEE73F
:1050D00014F8280F20F00100207022E094F8280036
:1050E00040F0010084F828000298A06128B18118DE
:1050F00013462046FFF778FF13E0502080F3118815
:10510000BFF34F8FBFF36F8FFEE794F8280081073E
:1051100003D4204600F06EFA03E020F0010084F88A
:105120002800002201A9286800F0EAFE002889D1A1
:1051300007B030BD300100202DE9FC410F46054687
:1051400000F034FC01A800F067F80446019818B19B
:1051500001F062FABDE8FC81254EAFB1306900680C
:10516000D0B30027291B3A46306800F0C3FA01F09B
:1051700053FA0028EED11F494FF080500860BFF36A
:105180004F8FBFF36F8FE5E7A542EBD801F044FAEC
:10519000F0682746C068C468201D00F09BF994F8A9
:1051A0002800410719D5A0692B4641193A462046E7
:1051B000FFF71AFFA8B100200346014600902A46D7
:1051C000204601F0B9FA60B9502080F31188BFF38E
:1051D0004F8FBFF36F8FFEE707E020F0010084F8E8
:1051E0002800216A20468847B4E70127BAE7000073
:1051F0003001002004ED00E00648416B096829B148
:10520000416BC968C9684968816270474FF0FF31D6
:10521000FAE70000F400002070B5054601F0DEF862
:10522000064E0446B068844203D200F009F801201B
:1052300000E0002028602046B46070BD30010020EE
:10524000F8B5194E20E0C068C4680568201D00F05C
:1052500041F9216A2046884794F82800400713D571
:10526000A0692844A84206D924616060211DF06825
:1052700000F068F908E000200346014600902A4645
:10528000204601F059FA38B1F06801680029DAD1F6
:105290003169C6E90310F8BD502080F31188BFF3CF
:1052A0004F8FBFF36F8FFEE7300100200848406842
:1052B000401C4FF0500080F3118804D0BFF34F8F93
:1052C000BFF36F8FFEE7BFF34F8FBFF36F8FFEE724
:1052D00068010020084CE068016839B1002139B14B
:1052E0000020FFF729FFFFF7A9FEF4E70121F6E709
:1052F000C0680068F5E70000300100202DE9F041AA
:10530000044600F043F994F9455004F1240609E0FD
:10531000606A48B1304601F047F908B100F082FAFE
:105320006D1E6DB2002DF3DC4FF0FF3684F8456042
:1053300000F04CF900F02AF994F9445004F11007F8
:1053400009E0206948B1384601F02EF908B100F0B3
:1053500069FA6D1E6DB2002DF3DC84F84460BDE87F
:10536000F04100F033B900002DE9F0410546002678
:1053700000F01CFB324F386808B9FFF74BFD786925
:1053800005424ED1C5B3083568070ED005F00700B9
:10539000C0F108000544680707D0502080F3118849
:1053A000BFF34F8FBFF36F8FFEE72DB37868854251
:1053B00037D8234918310846046801E021460446DD
:1053C0006068A84202D220680028F7D13868844279
:1053D00027D00E682068086060680836411B1029D5
:1053E0000FD96019420708D0502080F31188BFF30D
:1053F0004F8FBFF36F8FFEE713E041606560FFF7EB
:10540000CDFD61687868401A7860BA68904200D231
:10541000B860786901430020C4E90001F868401CC5
:10542000F86001F0F9F8700707D0502080F3118878
:10543000BFF34F8FBFF36F8FFEE73046BDE8F081BB
:10544000480100200449086818B10868026D521C20
:105450000265086870470000F400002010B5031FC3
:105460004FF080741C601B1F21F001011960191F8F
:10547000044B0B6014390A60091F6FF002024438B4
:105480000A6010BDAD52000803B5A5222DED020B38
:1054900083B04FF0FF338DF800208DF801009DF8A8
:1054A0000F008DF802009DF80E008DF803009DF8A6
:1054B0000D008DF804009DF80C008DF805008DF8A6
:1054C0000610072269460248FDF76CF907B000BDD7
:1054D00088030020D0E9013201699A60D0E90123F4
:1054E0005A604A68824201D182684A6000220261A1
:1054F0000868401E0860086870470000034B03609E
:1055000003F15C000860802010607047680F002085
:10551000044B036003F15C0008604FF4807010607E
:1055200070470000C411002000F108014FF0FF3265
:10553000C0E90112C16001610021016070470021D2
:105540000161704730B50C68621C02D000F108029E
:1055500002E0026904E01A4653681D68A542FAD9C0
:1055600053684B6099608A60516008610168491C0A
:10557000016030BD42684A6093688B6093685960EF
:10558000916008610168491C01607047502080F3F8
:105590001188BFF34F8FBFF36F8F0A494868401CD3
:1055A000486001280CD10848006810F0FF0F07D0B0
:1055B000502080F31188BFF34F8FBFF36F8FFEE74A
:1055C000704700006801002004ED00E008494868C9
:1055D00028B1401E486001D180F3118870475020E7
:1055E00080F31188BFF34F8FBFF36F8FFEE700008A
:1055F0006801002070B500282AD0164DA0F10804DB
:1056000060686969084207D1502080F31188BFF3B0
:105610004F8FBFF36F8FFEE722683AB1502080F3BF
:105620001188BFF34F8FBFF36F8FFEE78843606031
:1056300000F0BCF960686968084468602046FFF7BC
:10564000ADFC2869401C2861BDE8704000F0E4BF53
:1056500070BD0000480100204FF0E02000210161F2
:10566000816105494FF47A720968B1FBF2F1491E74
:1056700041610721016170472400002010B5FAF74D
:10568000EBFD114910280ED300F1E02090F8F00353
:105690000A78904207D2502080F31188BFF34F8FD1
:1056A000BFF36F8FFEE709480068896800F4E06087
:1056B000884207D9502080F31188BFF34F8FBFF382
:1056C0006F8FFEE710BD0000680100200CED00E0C8
:1056D00010B5074B002253F832401CB1521C082A67
:1056E000F9D310BD43F8321003EBC201486010BD7E
:1056F0004C09002070B515460E460446FFF746FFDC
:1057000094F944100020491C01D184F8440094F914
:105710004510491C01D184F84500FFF757FFA06BE5
:1057200028B92A46314604F1240000F099F82046B1
:10573000BDE87040FFF7E2BD10B5020014D00F487D
:10574000006B38B1502080F31188BFF34F8FBFF347
:105750006F8FFEE700F02AF900211046FFF734FAB8
:1057600000F05AFF002807D105494FF0805008602B
:10577000BFF34F8FBFF36F8F10BD0000F400002008
:1057800004ED00E070B50446FFF700FF1E4D04B9BC
:105790002C68201DFFF79EFEA06A18B104F11800C6
:1057A000FFF798FE686A401C68622868844207D147
:1057B000211D1648FFF7DEFE6868401C686007E0A0
:1057C000A868401EA8602046FFF709FBFFF714FDFC
:1057D000FFF7FCFE6869002814D02868844211D1C4
:1057E000286B38B1502080F31188BFF34F8FBFF37F
:1057F0006F8FFEE706494FF080500860BFF34F8F70
:10580000BFF36F8F70BD0000F4000020280E002051
:1058100004ED00E002490A6A0260C968416070470D
:10582000F400002001490120C8617047F400002005
:1058300010B50C4650B1094909681831FFF782FECE
:105840002046BDE810400121FFF7BEB9502080F38B
:105850001188BFF34F8FBFF36F8FFEE7F400002076
:1058600070B514460D4668B10A4909681831FFF74A
:1058700081FE0CB14FF0FF3521462846BDE870404F
:10588000FFF7A2B9502080F31188BFF34F8FBFF309
:105890006F8FFEE7F400002070B50B4604003ED089
:1058A000226DA2B1E16C994200D21946E06A8842A9
:1058B00035D0012A33D11A4D2A6894420FD1502095
:1058C00080F31188BFF34F8FBFF36F8FFEE7502037
:1058D00080F31188BFF34F8FBFF36F8FFEE7E16254
:1058E000A269002A02DBC1F13801A1610D4E00EB73
:1058F0008000616906EB8000814210D1201DFFF716
:10590000E9FDE06A2969884200D9286100EB80003E
:1059100006EB8000211DBDE87040FFF72BBE70BD77
:10592000F40000208C09002030B587B000250395D5
:1059300005AA04A903A80495FFF7E0FDDDE903012A
:105940000095CDE90110002314A11648059A00F036
:1059500004FD154CE06218B100F0BEFE012809D02C
:10596000401C19D1502080F31188BFF34F8FBFF333
:105970006F8FFEE7502080F31188BFF34F8FBFF386
:105980006F8F4FF0FF30A06201206061E56007B0CB
:10599000BDE8304000F044B807B030BD49444C4544
:1059A00000000000614E0008F40000200248016B76
:1059B000491C016370470000F4000020164B10B52D
:1059C000186B10B10120D86110BD0020D861186992
:1059D000124901E0B8B1401E00EB800251F82220CC
:1059E000002AF7D000EB800201EB820101F10804EC
:1059F0004A6852684A60A24201D152684A60D1683E
:105A00001960186110BD502080F31188BFF34F8FCB
:105A1000BFF36F8FFEE70000F40000208C09002028
:105A20001CB537480168374A914207D1502080F3AE
:105A30001188BFF34F8FBFF36F8FFEE700683149C6
:105A4000491E884207D1502080F31188BFF34F8F41
:105A5000BFF36F8FFEE72C4908780190FF20087094
:105A600008788DF800009DF800009DF8002000F0F7
:105A7000F000904207D0502080F31188BFF34F8F81
:105A8000BFF36F8FFEE79DF80000204C00F0500040
:105A900020700720A06006E0401EA0609DF8000076
:105AA00040008DF800009DF800000006A068F3D4C7
:105AB000032807D0502080F31188BFF34F8FBFF326
:105AC0006F8FFEE74FF44070A060019808700C489B
:105AD0002030016841F470010160016841F07041BB
