:020000040000FA
:10000000880520206D0100007101000073010000CF
:1000100000000000000000000000000000000000E0
:10002000000000000000000000000000750100005A
:1000300000000000000000007701000079010000CE
:100040007B0100007B0100007B0100007B010000C0
:100050007B0100007B0100007B0100007B010000B0
:10006000000000007B0100007B0100000000000098
:10007000000000007B0100007B0100007B0100000C
:100080007B0100007B0100007B0100007B01000080
:100090007B0100007B010000000000000000000068
:1000A0007B0100007B010000000000000000000058
:1000B0007B010000000000007B0100007B010000CC
:1000C00000F002F800F042F812A030C808382418F6
:1000D0002D18AC4201D100F039F80FCCA246AB4646
:1000E0000CA730CF2D1B083F3F197C427F1E544484
:1000F0002D090426F441641EAC4201D300F026F819
:100100000126334200D0FB1A3343984754465D46DC
:10011000DFE70000BC5A0000CC5A000000000000DD
:100120007047000000000000002300240025002686
:10013000103A01D378C1FBD8520700D330C100D5A3
:100140000B6070471FB51FBD10B510BD00F01CFA45
:100150001146FFF7F7FF02F097F800F034FA03B406
:10016000FFF7F2FF03BC00F037FA00000648004733
:10017000FEE7FEE7FEE7FEE7FEE7FEE70348044989
:10018000044A054B70470000C10000008800202091
:1001900088052020880420208804202000220309CC
:1001A0008B4273D3030A8B4258D3030B8B423CD34D
:1001B000030C8B4221D312E003460B437FD4002271
:1001C00043088B4274D303098B425FD3030A8B42EB
:1001D00044D3030B8B4228D3030C8B420DD309026B
:1001E000FF2212BA030C8B4202D31212090265D00D
:1001F000030B8B4219D300E0090AC30B8B4201D3D6
:10020000CB03C01A5241830B8B4201D38B03C01A1C
:100210005241430B8B4201D34B03C01A5241030B93
:100220008B4201D30B03C01A5241C30A8B4201D344
:10023000CB02C01A5241830A8B4201D38B02C01AEF
:100240005241430A8B4201D34B02C01A5241030A66
:100250008B4201D30B02C01A5241CDD2C3098B424B
:1002600001D3CB01C01A524183098B4201D38B01C8
:10027000C01A524143098B4201D34B01C01A52416B
:1002800003098B4201D30B01C01A5241C3088B42B0
:1002900001D3CB00C01A524183088B4201D38B009B
:1002A000C01A524143088B4201D34B00C01A52413D
:1002B000411A00D201465241104670475DE0CA0F14
:1002C00000D04942031000D3404253409C460022D4
:1002D00003098B422DD3030A8B4212D38901FC22DE
:1002E00012BA030A8B420CD3890192118B4208D3B4
:1002F000890192118B4204D389013AD0921100E016
:100300008909C3098B4201D3CB01C01A5241830929
:100310008B4201D38B01C01A524143098B4201D356
:100320004B01C01A524103098B4201D30B01C01A81
:100330005241C3088B4201D3CB00C01A52418308FB
:100340008B4201D38B00C01A5241D9D243088B4251
:1003500001D34B00C01A5241411A00D2014652410A
:10036000104663465B1001D34042002B00D5494242
:10037000704763465B1000D3404201B50449002832
:1003800002DC491C084000E00846C046C04602BDE9
:10039000FFFFFF7F704770477047000030B503468E
:1003A000CA02400D1043164D164C0A1502D02043C8
:1003B000002A06DBAA1A002A12DDD040FF2A0BDC35
:1003C00030BD5205520D01D140004008AA1A07D491
:1003D000D0404042FF2A01DD002030BD0028FCDD76
:1003E0004A00002B01D0012000E00020101801225B
:1003F0005205D042F0D8C817C043604030BD00005D
:100400001E040000000000801F22030C02D10F22F6
:10041000000402D0030E03D004E000200146704720
:100420000002083A030F01D10001121F830F01D10E
:100430008000921E002801DB4000521E1205511858
:100440004205C012411810467047C10FC90700D0BD
:100450004042012292071143D6E701218907D3E7E1
:1004600010B500F089F8006810BD10B5044600F022
:1004700083F8046010BD0000F0B53D4B02460C4609
:100480001C400020002C63D03A4D8B4366D00029DD
:100490006BDB0B0D1D05A94301252D052943012407
:1004A000FD33E34001D392184941FF3381339C4629
:1004B0008B02940D0121234389074C4292020027AD
:1004C0001B198C105D1A04D42D1B02D42B46650019
:1004D000491992185B416408F4D15C1A08D40125CB
:1004E000ED07EE175519744102D42A462346491CDC
:1004F00094185B41012292071D46E61B8D4106D4EC
:10050000B61A854103D42B46550034467F19241969
:100510005B415208802AEFD1234300D002233846A2
:100520000A22D04001D3012213438A0510436246B8
:10053000890A12058918002B09D00122D34002D361
:100540000022401C5141002B01D140084000F0BD69
:100550000B03134307D0C90FC907F0BD08031043AD
:1005600003D1002901DB1046F0BD00202946F0BD73
:100570000000F07F0000F87F004870470000202056
:1005800000487047000020207546FFF7F9FFAE468F
:10059000050069465346C008C000854618B020B51E
:1005A000FFF7ECFD60BCB64600260027C0C5C0C5FD
:1005B000C0C5C0C5C0C5C0C5C0C5C0C5403D49084F
:1005C00049008D46704710B50446C046C0462046D7
:1005D000FFF7C5FD10BD000001491820ABBEFEE7C6
:1005E000260002007047811E091F00BFFCD2704721
:1005F00084B00390029101920398006800900098E3
:1006000001998843009000980299019A114008438B
:100610000399086004B0704782B00190009100987F
:10062000019995225201885002B0704782B0019022
:1006300000910098019995225201885002B07047AC
:1006400082B00190009100980199024A885002B04E
:100650007047C046D012000081B000900099012080
:10066000C202EF48885001B07047C04681B0009088
:1006700000988100144A8120885001B07047C0461C
:1006800081B00090009881000F4A0020885001B08E
:100690007047C04682B0019000910098034908431A
:1006A00001998900084A885002B070478000040010
:1006B00082B001900091009880210843019989003F
:1006C000014A885002B070470480424081B00090D7
:1006D00000992E4A2E48885001B0704782B0019090
:1006E000009100980199024A885002B07047C046B4
:1006F0009012000081B000900099034A88580123AD
:100700001843885001B070470411000081B0009078
:1007100000990120C202C248885001B07047C0460B
:10072000B0B51122120283580C4C1C400B894D8825
:100730001D438B792B430A4D1D402B1983508B8809
:10074000CC791C43097821435D239B001940801814
:1007500042689A4389184160B0BDC04680CCFFFF13
:100760007F33000081B00090009803494058102169
:100770000840000901B070471011000081B00090DE
:100780000099024A0248885001B0704704080000EE
:10079000030000B180B582B00190009101989449A6
:1007A00040180099024AFFF723FF02B080BDC046FF
:1007B000FF03000010B50122120383180C785C605F
:1007C0004978815010BD000080B584B000920A467F
:1007D00001460098039102A90A7001AA10700398BB
:1007E000044BC0180978127811433F22FFF700FF2D
:1007F00004B080BD0C11000082B001906846017009
:100800000078019945229201885002B0704700009B
:10081000F0B584B001242202344B1968039291434D
:1008200019606E490D686D04FCD5457E25409E69B2
:10083000A64374199C612024045D03252C40DE69C5
:10084000AE433419DC611F4C256805262660466AD4
:1008500037681F6276685E6207262E402660C4698C
:100860007F252D02DE69AE436406640C3419DC6119
:100870000768456882680092C66802690192426909
:1008800002929A69104C14403A07120B2D03ADB234
:10089000AA183243009D2D072D0D1543019A1543CB
:1008A000029A1543007E2843084A024010199861B5
:1008B0001868039A1043186008688005FCD504B0D6
:1008C000F0BDC046001340408D00F0FF72FF0F00E6
:1008D0000649086801229043086070470349086888
:1008E00001221202904308607047C04608010B4085
:1008F0003949086801221203104308607047C04656
:1009000081B001466846017000780249086001B074
:100910007047C04608030B4080B582B0014601A86D
:10092000018001880F2002022B48FFF761FE02B010
:1009300080BDC046F0B5124B1D46083D2E6801240F
:10094000A6432E600326360330401F68B74338188D
:1009500018601868FF26B043C9B2401818602868AC
:100960002043286018682107002A06D00843186031
:100970001A480168C905FCD5F0BD88431860F0BD70
:1009800010010B4080B582B0014601A801700178CA
:1009900002480322FFF72CFE02B080BD00010B408D
:1009A00080B582B0014601A8017001780A48302262
:1009B000FFF71EFE02B080BD074988600748026845
:1009C0009202FCD5012212040B6813430B600168EC
:1009D000C906FCD57047C04604010B4004020B4019
:1009E00081B000900099024A0120885001B0704700
:1009F0000811000082B001900091009B0199C24A49
:100A000088581843885002B07047C04681B00090A3
:100A100000990120C202C248885001B07047C04608
:100A200001000026F0B5AA4A82183B4BC31808798A
:100A30004E793A4D774C002E23D0202804D005263D
:100A4000F601002803D003E0354E002800D18826A7
:100A5000576F2F4037435767976F2F40374397673C
:100A6000566B26405663966B264096630026566565
:100A700096658F26F6435F6837405F609F68374012
:100A80009F608E79096820280BD0002819D1491E53
:100A90005160D76E2F4088210F43D76617467037B5
:100AA00019E0491E5160D16E29401D4F3943D1666E
:100AB000116F29403943116701214907194D174624
:100AC00009E049085160D76E2F400521C9010F4345
:100AD000D766174670373C682C400C433C60D16A9F
:100AE0004C4C2140D162116B214011630021D16433
:100AF00011658F21C943D46F0C40D4671C680C402A
:100B00001C600643BD2030401168074B0B40C018E5
:100B1000801C1060F0BDC0468418000024493E00CF
:100B200001040000FFFFFFCF4000FFCFB0B54A68CF
:100B3000364BC250664A80180A78222A58D8930049
:100B400001A4E3589F46C046E70B0000F10B0000EC
:100B5000E70B0000F10B0000F10B0000F10B0000AF
:100B6000F10B0000F10B0000F10B0000F10B000095
:100B7000F10B0000F10B0000F10B0000F10B000085
:100B8000F10B0000F10B0000D50B0000F10B000091
:100B9000D50B0000F10B0000F10B0000F10B000081
:100BA000F10B0000F10B0000F10B0000F10B000055
:100BB000F10B0000F10B0000F10B0000F10B000045
:100BC000F10B0000F10B0000D50B0000F10B000051
:100BD000D50B000003231B0704689C4301235B071C
:100BE000E318036004E003231B0704689C430460CC
:100BF0000B69C360CB68064C1C40C36A054D1D40A1
:100C00002B19C362097A11430160B0BD08180000B6
:100C1000777702008888FDFF81B000900099574ADD
:100C20005748885001B0704782B0019000910098F9
:100C3000019911221202885002B0704710B50723A3
:100C40009B04194092008018024A84589C43611802
:100C5000815010BD3018000010B5029CA40000198E
:100C600011431943014A815010BDC046501800007D
:100C700092008018014A81507047C0461018000049
:100C800010B50122120383180C789C604B788350B6
:100C90008978014A815010BD0C11000010B586B052
:100CA00001930B4601460198059104A90B8003AB03
:100CB0001A8002AA10800598054C001909881B8823
:100CC000194312881143034AFFF792FC06B010BD86
:100CD0000418000080FF000081B0009000991120EE
:100CE0000202885801231843885001B07047000061
:100CF00082B001900091009B0199034A88581843E3
:100D0000885002B07047C0462810000081B00090A3
:100D100000990120C2020248885001B07047C046C5
:100D200001000026B0B51122120283580124A3430A
:100D300083500B888C781C438B882343094C1C40C0
:100D40008358094D1D40631983508B79CC791C431E
:100D5000097A21437E231940801842689A4351182A
:100D60004160B0BD18670000E798FDFF81B00090BA
:100D70000099024A0248885001B0704704080000F8
:100D8000030000B180B584B00390029101920398F2
:100D90000B49401802990B4AFFF72AFC03980A49AD
:100DA000401801993F22FFF723FC0399074A88184E
:100DB000895801221140FFF71BFC04B080BDC046DA
:100DC00010110000FFFF00001411000004110000CA
:100DD00010B50122120383180C789C604978815069
:100DE00010BD80B582B001900091019811210902D7
:100DF000401800990322D203FFF7FAFB02B080BD2E
:100E000010B58AB00D9C0C9C09900891079206932E
:100E100000200590FFE705980C99884231D8FFE73C
:100E20000C98404305994943401AFFF716FB01F01F
:100E3000BFFAFFF7B3FA049005980290FFE7029813
:100E400005994942884217DBFFE709980299401843
:100E50000899049A891A0D9A00F0C5F9099802991F
:100E600040180899049A89180D9A00F0BCF9FFE718
:100E70000298401E0290E2E7FFE70598401C0590AB
:100E8000C9E70C9841000320401A0390FFE705983A
:100E9000049988425BDDFFE70398002807D5FFE748
:100EA0000598800003994018801D03900BE0059879
:100EB0000499401A8000039940180A30039004985E
:100EC000401C0490FFE70598401E0590059840429D
:100ED0000190FFE701980599884217DCFFE7099820
:100EE000019940180899049A891A0D9A00F07BF923
:100EF0000998019940180899049A89180D9A00F0E8
:100F000072F9FFE70198401C0190E3E70498404222
:100F10000090FFE700980499884217DCFFE70998E2
:100F2000059940180899009A89180D9A00F05BF904
:100F300009980599401A0899009A89180D9A00F0A5
:100F400052F9FFE70098401C0090E3E79FE70AB0E2
:100F500010BD80B584B003900291019200932A20C5
:100F600000F052FE039800F037FE019800F034FEC6
:100F70002B2000F049FE0298233000F02DFE00984F
:100F8000233000F029FE2C2000F03EFE04B080BD8E
:100F900010B58AB00C9C0990089107920693042022
:100FA00005900998059A8018089B07998A1A0C9948
:100FB0000091194600F091F8099A0898059BC1180C
:100FC0000698C31A0C980090104600F086F809980D
:100FD000059A8018069B07998A1A0C990091194660
:100FE00000F07BF8079A0898059BC1180698C31A69
:100FF0000C980090104600F070F80998059A801837
:10100000089989180C9B019300925A220292B423EA
:101010000393FFF7F5FE029B0798059A801A08993B
:1010200089180C9C019400920022FFF7E9FE039AB4
:101030000998059BC0180699C91A0C9C0194009345
:1010400087235B000493FFF7DBFE049A0798059B58
:10105000C01A0699C91A0C9C019400932D23DB0039
:10106000FFF7CEFE0998059BC0180899079AD21A77
:10107000CB180C9C009400F0C6F8079A059C101B36
:1010800008990919069B1B1B0C9C009400F0BBF8E7
:101090000998059C0019069B191B079A121B0C9CAA
:1010A000009400F0B0F809980899059C09190219F4
:1010B000069B1B1B0C9C009400F0A5F80998059C4E
:1010C000001908990919079A121B069B1B1B0C9CF7
:1010D000009400F098F80AB010BD10B58EB0109CC6
:1010E0000D900C910B920A930020089007900B989A
:1010F0000D99401A06900A980C99401A05900D987F
:1011000001900C9800900698012803DBFFE701206E
:1011100003900EE00698002803D1FFE7002003901B
:1011200006E00020C0430390069840420690FFE787
:10113000FFE70598012803DBFFE7012002900EE09E
:101140000598002803D1FFE70020029006E0002068
:10115000C0430290059840420590FFE7FFE70698DC
:101160000599884203DDFFE70698049002E00598A0
:101170000490FFE700200990FFE709980499491CB3
:1011800088422ED2FFE701980099109A00F02BF8C0
:1011900006990898401808900599079840180790F4
:1011A00008980499884209DDFFE704990898401AD5
:1011B00008900399019840180190FFE70798049957
:1011C000884209DDFFE704990798401A07900299C1
:1011D000009840180090FFE7FFE70998401C09902D
:1011E000CBE70EB010BD80B584B0039002910192A0
:1011F000039A029B10461946FFF7ABFE019800F0D8
:10120000EBFC04B080BD10B586B0089C059004913D
:101210000392029305980499039A521E029B5B1E47
:10122000FFF797FE04980190FFE701980299884222
:1012300015D2FFE705980090FFE7009803998842D0
:1012400008D2FFE7089800F0C7FCFFE70098401CB1
:101250000090F2E7FFE70198401C0190E5E706B037
:1012600010BD000070B594B000920C460546009881
:101270001A99199A189E1395129411AC0194207022
:1012800010930FA8029002700EAA11700AAA0021F2
:101290000391117013990791007841080CA80490EC
:1012A00001700178C80805904907401C0029069084
:1012B00001D105980690029B049A0199069C187822
:1012C000604308901198203808701398129912788A
:1012D0008218521E1B78CB185B1EFFF73AFE03984C
:1012E0000990FFE709980899884200D39DE00FA86C
:1012F00000780C280BD1FFE711A800780C2141439E
:101300004E4840180999405C0DA9087031E00FA8BB
:10131000007810280AD1FFE711A80078010146489B
:1013200040180999405C0DA9087021E00FA80078C9
:1013300018280BD1FFE711A80078302141433D4820
:1013400040180999405C0DA9087010E00FA80078BA
:1013500020280AD1FFE711A80078810134484018FD
:101360000999405C0DA9087000E05EE0FFE7FFE727
:10137000FFE70BA900200870FFE70BA800780728FB
:101380004EDCFFE70EA80078002822D1FFE70DA869
:1013900000780BA90978C840C007002804D0FFE7EF
:1013A000109800F019FC03E0189800F015FCFFE716
:1013B0000A98411C0AA8017000780CA90978FEF768
:1013C000EDFE002904D1FFE70AA90020087027E0FC
:1013D00020E00DA800780BA90978C840C0070028B4
:1013E00006D0FFE713981299109AFFF7FCFEFFE76B
:1013F0001398401C139013980799401A0CA9097868
:10140000884206D1FFE7079813901298401C12906B
:1014100006E0FFE7FFE70B98401C0BA90870ACE75C
:10142000FFE70998401C09905CE714B070BDC04606
:101430002C4000005C2E00006C280000F823000007
:1014400070B58AB00C46054610980F990E9E099506
:1014500008940792069305AA117004A90870FFE783
:101460000798007800287DD0FFE70798007880284B
:101470005DDBFFE705A800780C280FD1FFE709988E
:101480000899079A069B0E9C05AD2D7804AE367818
:1014900002960195009400F067F83FE005A80078F7
:1014A00010280FD1FFE709980899079A069B0E9C10
:1014B00005AD2D7804AE367802960195009400F0C3
:1014C00021F92AE005A8007818280FD1FFE709982C
:1014D0000899079A069B0E9C05AD2D7804AE3678C8
:1014E00002960195009400F0DBF915E005A800785C
:1014F00020280FD1FFE709980899079A069B0E9CB0
:1015000005AD2D7804AE367802960195009400F072
:1015100095FA00E026E0FFE7FFE7FFE70798801C69
:10152000079005A8017809984018099019E00998D2
:101530000899079A1278069B0E9C05AD03952D78A5
:1015400004AE3678029601950094FFF78BFE03985F
:101550000799491C0791007841080998401809909B
:10156000FFE77DE70AB070BD70B592B000920C46FF
:10157000054600981899179A169E119510940F9089
:101580000E930DA802700CAA117009AA00210191F6
:1015900011701199059101780291C80803904907CB
:1015A000401C0029049001D10398049001980299ED
:1015B000049A51430691052107910890FFE7089886
:1015C0000799884200D399E008981A2141434C4872
:1015D000405C0F990978884200D08AE008981A2167
:1015E00041434748401840780F994978884200D0D5
:1015F0007FE0119810990DAA1378C218521ECB18CB
:101600005B1EFFF7A6FC0BA900200870FFE70BA8E4
:101610000078069988426BD2FFE70AA9002008707B
:10162000FFE70AA8007807285CDCFFE70CA8007831
:10163000002829D1FFE708981A2141433048401873
:101640000BA90978401880780AA90978C840C00712
:10165000002804D0FFE70E9800F0BEFA03E01698C9
:1016600000F0BAFAFFE70998411C09A80170007858
:101670000DA90978FEF792FD002904D1FFE709A919
:10168000002008702EE027E008981A2141431C48EA
:1016900040180BA90978401880780AA90978C84031
:1016A000C007002806D0FFE7119810990E9AFFF79F
:1016B0009AFDFFE71198401C119011980599401A66
:1016C0000DA90978884206D1FFE705981190109876
:1016D000401C109006E0FFE7FFE70A98401C0AA9AB
:1016E00008709EE7FFE70B98401C0BA908708EE777
:1016F000FFE7FFE70898401C089060E712B070BD54
:101700007558000070B592B000920C4605460098DE
:101710001899179A169E119510940F900E930DA874
:1017200002700CAA117009AA00210191117011997F
:10173000059101780291C80803904907401C0029CF
:10174000049001D10398049001980299049A51439E
:1017500006910B2107910890FFE7089807998842A6
:1017600000D399E00898222141434C48405C0F99EE
:101770000978884200D08AE00898222141434748EE
:10178000401840780F994978884200D07FE011983E
:1017900010990DAA1378C218521ECB185B1EFFF7C2
:1017A000D8FB0BA900200870FFE70BA8007806996A
:1017B00088426BD2FFE70AA900200870FFE70AA859
:1017C000007807285CDCFFE70CA80078002829D106
:1017D000FFE7089822214143304840180BA90978B7
:1017E000401880780AA90978C840C007002804D0AA
:1017F000FFE70E9800F0F0F903E0169800F0ECF91E
:10180000FFE70998411C09A8017000780DA9097823
:10181000FEF7C4FC002904D1FFE709A900200870E5
:101820002EE027E00898222141431C4840180BA9CC
:101830000978401880780AA90978C840C0070028AC
:1018400006D0FFE7119810990E9AFFF7CCFCFFE73E
:101850001198401C119011980599401A0DA909780A
:10186000884206D1FFE7059811901098401C10900F
:1018700006E0FFE7FFE70A98401C0AA908709EE708
:10188000FFE70B98401C0BA908708EE7FFE7FFE706
:101890000898401C089060E712B070BDF75800002F
:1018A00070B592B000920C46054600981899179AA8
:1018B000169E119510940F900E930DA802700CAA0D
:1018C000117009AA002101911170119905910178F7
:1018D0000291C80803904907401C0029049001D1D7
:1018E0000398049001980299049A514306910321A8
:1018F00007910890FFE708980799884200D399E07C
:1019000008984A2141434C48405C0F990978884225
:1019100000D08AE008984A2141434748401840785F
:101920000F994978884200D07FE0119810990DAA4C
:101930001378C218521ECB185B1EFFF70AFB0BA9C7
:1019400000200870FFE70BA80078069988426BD248
:10195000FFE70AA900200870FFE70AA80078072817
:101960005CDCFFE70CA80078002829D1FFE7089885
:101970004A214143304840180BA909784018807823
:101980000AA90978C840C007002804D0FFE70E98CC
:1019900000F022F903E0169800F01EF9FFE709981D
:1019A000411C09A8017000780DA90978FEF7F6FB23
:1019B000002904D1FFE709A9002008702EE027E0E4
:1019C00008984A2141431C4840180BA9097840183F
:1019D00080780AA90978C840C007002806D0FFE728
:1019E000119810990E9AFFF7FEFBFFE71198401C23
:1019F000119011980599401A0DA90978884206D1CD
:101A0000FFE7059811901098401C109006E0FFE742
:101A1000FFE70A98401C0AA908709EE7FFE70B98A9
:101A2000401C0BA908708EE7FFE7FFE70898401CF1
:101A3000089060E712B070BD6D5A000070B592B0AA
:101A400000920C46054600981899179A169E119513
:101A500010940F900E930DA802700CAA117009AA91
:101A60000021019111701199059101780291C80826
:101A700003904907401C0029049001D10398049069
:101A800001980299049A5143069101210791089007
:101A9000FFE708980799884200D399E008988221C7
:101AA00041434C48405C0F990978884200D08AE055
:101AB0000898822141434748401840780F99497857
:101AC000884200D07FE0119810990DAA1378C218AF
:101AD000521ECB185B1EFFF73CFA0BA900200870C2
:101AE000FFE70BA80078069988426BD2FFE70AA9A6
:101AF00000200870FFE70AA8007807285CDCFFE7F1
:101B00000CA80078002829D1FFE7089882214143DA
:101B1000304840180BA90978401880780AA909783C
:101B2000C840C007002804D0FFE70E9800F054F822
:101B300003E0169800F050F8FFE70998411C09A847
:101B4000017000780DA90978FEF728FB002904D15F
:101B5000FFE709A9002008702EE027E008988221FD
:101B600041431C4840180BA90978401880780AA9FD
:101B70000978C840C007002806D0FFE711981099DF
:101B80000E9AFFF730FBFFE71198401C1190119857
:101B90000599401A0DA90978884206D1FFE70598F2
:101BA00011901098401C109006E0FFE7FFE70A989C
:101BB000401C0AA908709EE7FFE70B98401C0BA980
:101BC00008708EE7FFE7FFE70898401C089060E781
:101BD00012B070BD4B5B000080B582B0019001A8CF
:101BE0000090407800F026F80098007800F022F885
:101BF00002B080BD80B582B0014601A801700078B6
:101C000000F018F802B080BD80B584B003A900913F
:101C100008700120C1020291AF480190FEF7FCFC60
:101C20000098007800F006F801980299FEF756FD3A
:101C300004B080BD80B584B003A900910870012074
:101C400081030291A4480190FEF7E6FC0098007819
:101C500000F02CFB01980299FEF740FD04B080BD16
:101C600080B586B00920FEF70BFD0A20FEF708FDBF
:101C7000312003210391FEF71BFD01200190810516
:101C800095480490FEF7DCFC002002210291FEF74B
:101C90000FFD01980299FEF7FDFC03991920FEF74C
:101CA00007FD03991820FEF703FD1A20FEF7DEFC5E
:101CB0001B20FEF7DBFC1E20FEF7D8FC3820FEF7C9
:101CC000D5FC049804490591FEF7B0FC04980599E9
:101CD000FEF7B6FC06B080BD004C000480B584B0B1
:101CE00016497E480390FEF7CBFF03981449FEF790
:101CF00099FE039801220292510392028023FEF77B
:101D0000CDFF0299039800910023019319461A46CA
:101D1000FEF7A2FF0199029A0398FEF78FFF029A3D
:101D200003987D21C900FEF7A3FF0398FEF758FE34
:101D300003980221FEF778FF04B080BDEC57000045
:101D4000F057000080B582B00B4967480190FEF75C
:101D500031FD01980949FEF7E3FC01980021FEF7E7
:101D600019FD019810210222FEF72EFD0198FEF7C1
:101D7000C1FC02B080BDC046F8570000FA57000011
:101D800080B582B000200190FEF7BAFD01200090DE
:101D90004002FEF7C1FD0198FEF7F4FDFEF798FD45
:101DA000FEF79CFD009A032000032821FEF7C2FDE8
:101DB0000648FEF72DFD1020FEF7F2FDFEF798FD18
:101DC0000198FEF7F9FD02B080BDC046045800003E
:101DD00080B582B0084942480190FEF751FF019852
:101DE0000649FEF7A3FE01980121FEF703FE0198C4
:101DF000FEF7F6FD02B080BD2C5800003058000000
:101E000080B582B00D4937480190FEF7E1FF019897
:101E10000B49FEF787FF01980021FEF7E2FF0198CA
:101E200002210B22FEF7AEFF019801218902FEF785
:101E30005FFF0198FEF750FF02B080BD44580000DC
:101E40004658000080B500F013F8FFF709FFFFF7D0
:101E500097FFFFF743FFFFF7BBFFFFF7D1FFFFF748
:101E600071FF024924220020885480BD6000202098
:101E700080B586B017480090FEF728FC1648019000
:101E8000FEF724FC15480290FEF7C6FE14480390A6
:101E9000FEF7C2FE13480490FEF768FF1248059053
:101EA000FEF76CFC0098FEF7D7FB0198FEF7D4FB19
:101EB0000298FEF7ABFD0398FEF7A8FD0498FEF725
:101EC00025FF0598FEF722FC1020FEF78CFB06B0DC
:101ED00080BDC04600000A4000200A4000000940C2
:101EE000004008400080104000A0464010B586B079
:101EF0000A9C099C089C0590049103920293059802
:101F00000999401A059004980999491840180490B5
:101F100003980999401A03900298099949184018A2
:101F200002900598039B089942180A990091194656
:101F3000FFF7D3F8059A039908980B180A980090B0
:101F40001046FFF7CAF8059804994018039B0899B2
:101F5000421A0A9900911946FFF7BFF805980499AB
:101F60004218039908980B180A9800901046FFF73A
:101F7000B4F805980399029A8B18089942180A999F
:101F800000911946FFF7A9F8059A0398029941189C
:101F900008980B1A0A9800901046FFF79EF80598CB
:101FA000049940180399029A8B180899421A0A99C1
:101FB00000911946FFF791F8059804994218039883
:101FC0000299411808980B1A0A9800901046FFF7DA
:101FD00084F806B010BD0000B0B58CB0139C129C04
:101FE000119C109C0B900A910992089311991098DA
:101FF0004843C10F4018401007900B980A99CA0F28
:1020000089184910401806901198C10F40184010C7
:10201000059009980899CA0F89184910401804902A
:102020000B9809990A9A8218089BCB18139C009464
:10203000FEF7AEFF06980799401A0499059A891A87
:10204000129A139B11AC24780125029501940093F8
:10205000D64BFFF7F5F90CB0B0BDC046B0B58AB0AD
:102060000E9C0990089107AD03952A8006AC237059
:10207000217808984843C10F4018401005902078F7
:1020800040080490059A9620801A0999AA3223786C
:102090005B182D880095FEF77BFF039B0599A02018
:1020A000401A09990E9A1B882478012502950194FB
:1020B0000093BE4BFFF7C4F90AB0B0BD80B592B033
:1020C0000120039081020191B3480090FEF7A4FA29
:1020D0006A48FEF788FA00980199FEF7FFFA684807
:1020E000FEF781FA11201090FFF78EFD36200E903A
:1020F000FFF78AFD7020FFF77DFD3A20FFF784FD92
:1021000005200690FFF776FDB220FFF77DFD0C203D
:102110000290FFF76FFD0298FFF76CFD002004901E
:10212000FFF768FD33200C90FFF764FD0C98FFF774
:1021300061FDB720FFF768FD3520FFF75BFDBB2091
:10214000FFF762FD1A20FFF755FDC020FFF75CFD89
:102150002C20FFF74FFDC220FFF756FD0398FFF735
:1021600049FDC320FFF750FD0B200990FFF742FD0A
:10217000C420FFF749FD2020FFF73CFDC620FFF7F4
:1021800043FD0F20FFF736FDD020FFF73DFDA420D3
:10219000FFF730FDA120FFF72DFD2120FFF734FDD3
:1021A000E020FFF731FDF0200890FFF723FD0498B1
:1021B000FFF720FD04200590FFF71CFD0598FFF7B1
:1021C00019FD0598FFF716FD0698FFF713FD292066
:1021D0001190FFF70FFD0C98FFF70CFD3E200D90BE
:1021E000FFF708FD3820FFF705FD12200790FFF7E5
:1021F00001FD0798FFF7FEFC28200B90FFF7FAFC83
:102200003020FFF7F7FCE120FFF7FEFC0898FFF70E
:10221000F1FC07200A90FFF7EDFC0A20FFF7EAFC2B
:102220000D20FFF7E7FC0998FFF7E4FC0A98FFF799
:10223000E1FC0B98FFF7DEFC0C98FFF7DBFC0D9838
:10224000FFF7D8FC0E98FFF7D5FC14200F90FFF78E
:10225000D1FC0F98FFF7CEFC1198FFF7CBFC322092
:10226000FFF7C8FC1098FFF7CFFC0648FEF7BBF954
:102270001198FFF7C9FC12B080BDC046009F240032
:1022800000127A00007C920080B582B0002001909C
:10229000FFF7D8FDFFF712FF00F01EF8FFE7024836
:1022A000FEF7A1F9FBE7C0460024F40080B582B038
:1022B000014601A8017001780648FEF79DFAFFE784
:1022C0000448FEF74FFA002801D0FFE7F8E702B014
:1022D00080BDC04600A0464070B594B00120810684
:1022E0000B912D480A90FEF797F9002100910520E7
:1022F00006908201AA230846FEF785FF0699274823
:10230000009003201F26102305933246FFF7A6FEF8
:10231000059B23480090162009213246FFF79EFEB8
:102320002820079013905020099012904121089185
:102330001191109013981299119A109B0396194CB1
:1023400002941825019502240094FFF745FE089990
:102350000998C8220F920E900D910C900F980E992B
:102360000D9A0C9B0396104E029601950094FFF770
:1023700033FE06990798089A099B0C4C0294019128
:102380000A2100911946FFF7B1FD0A980B99FEF753
:10239000A5F914B070BDC04600200A405A5800008C
:1023A000655800005058000055580000FFFF00001D
:1023B000F8B506460C46FEF75FF8051E0F4600D03E
:1023C0000120014349000B484908411AC90F0DD0AB
:1023D000002E01D0012100E000210C4361004908DA
:1023E000401AC00F02D10120FEF73FF828463946B7
:1023F000F8BD00000000F07F0000000000000000B9
:1024000000000000000004040404040000040000B4
:1024100014140A00000000000000000000000A0A76
:102420001F0A0A1F0A0A000000040E1505060C14F4
:10243000150E0400000012150D152E2C2A12000096
:102440000000040A0A3615152916000002020100D0
:102450000000000000000000100808040404040448
:102460000808100002040408080808080404020010
:1024700000000004150E0E15040000000000000806
:10248000083E0808000000000000000000000000F6
:102490000202010000000000003F000000000000F8
:1024A00000000000000000000002000000201010EA
:1024B000080804040202010000000E11111111119C
:1024C000110E00000000040604040404040E0000C1
:1024D00000000E1111080402011F000000000E117F
:1024E000100C1010110E00000000080C0C0A091F3F
:1024F000081C000000001F01010F1110110E000048
:1025000000000C12010D1311110E000000001E102E
:10251000080804040404000000000E11110E11113B
:10252000110E000000000E1111191610090600000E
:102530000000000004000000000400000000000093
:10254000000400000004040000001008040202045B
:1025500008100000000000003F003F0000000000E5
:1025600000000204081010080402000000000E1110
:10257000110804040004000000001C22292D2D1D58
:10258000221C0000000004040C0A0A1E1233000082
:1025900000000F12120E1212120F000000001E1186
:1025A00001010101110E000000000F12121212129F
:1025B000120F000000001F120A0E0A02121F000074
:1025C00000001F120A0E0A020207000000001C127F
:1025D00001013911120C000000003312121E1212F8
:1025E0001233000000001F0404040404041F000050
:1025F00000003E080808080808080907000037120C
:102600000A060A1212370000000007020202020244
:10261000223F000000003B1B1B1B15151535000059
:1026200000003B1216161A1A1217000000000E11B5
:1026300011111111110E000000000F12120E0202F2
:102640000207000000000E1111111117190E1800D9
:1026500000000F12120E0A121237000000001E11A5
:1026600001060810110F000000001F1504040404E7
:10267000040E00000000331212121212120C00009D
:1026800000003312120A0A0C0404000000001515A1
:1026900015150E0A0A0A000000001B0A0A04040AA3
:1026A0000A1B000000001B0A0A0A0404040E0000B2
:1026B00000001F0908040402121F00001C04040487
:1026C0000404040404041C000002020404040808B6
:1026D000081010000E0808080808080808080E006E
:1026E000040A0000000000000000000000000000DC
:1026F000000000000000003F020400000000000095
:102700000000000000000000000C121C123C000041
:1027100000030202020E1212120E0000000000005E
:10272000001C1202120C000000181010101C1212D3
:10273000123C000000000000000C121E021C0000F1
:1027400000182404041E0404041E000000000000FD
:10275000003C120C021C221C00030202020E121288
:10276000123700000004040000060404040E0000F8
:1027700000080800000C0808080808070003020207
:10278000021A0A060A1300000007040404040404E1
:10279000041F000000000000000F151515150000B3
:1027A00000000000000F12121237000000000000AD
:1027B000000C1212120C000000000000000F121298
:1027C000120E020700000000001C1212121C10382A
:1027D00000000000001B06020207000000000000CD
:1027E000001E020C101E000000000004041E040461
:1027F000041C000000000000001B1212123C00002C
:1028000000000000001B0A0A040400000000000091
:102810000015150E0A0A000000000000001B0A0443
:102820000A1B000000000000003312120C08040311
:1028300000000000001E0804041E0000180808081C
:10284000080C0808080818000808080808080808FC
:102850000808080806040404040804040404060024
:102860001609000000000000000000000000000049
:102870000000000000000000000000000000000850
:1028800008080808080800001818000000486C2410
:102890001200000000000000000000000000002402
:1028A00024247F1212127F12121200000000081C52
:1028B0002A2A0A0C1828282A2A1C080800000022A4
:1028C000251515152A585454542200000000000CF8
:1028D0001212120A76252911916E000000060604D4
:1028E0000300000000000000000000000040201075
:1028F000100808080808081010204000000204080A
:102900000810101010101008080402000000000049
:1029100008086B1C1C6B0808000000000000000089
:10292000080808087F0808080800000000000000E8
:102930000000000000000000060604030000000084
:1029400000000000FE000000000000000000000089
:1029500000000000000000000606000000008040AB
:102960004020201010080804040202000000001893
:102970002442424242424242241800000000000821
:102980000E08080808080808083E00000000003C7F
:102990004242422020100804427E00000000003C19
:1029A0004242201820404042221C0000000000202B
:1029B0003028242422227E20207800000000007E7F
:1029C0000202021A26404042221C00000000003889
:1029D0002402021A26424242241800000000007E0F
:1029E0002222101008080808080800000000003C17
:1029F0004242422418244242423C00000000001897
:102A00002442424264584040241C00000000000060
:102A10000000181800000000181800000000000056
:102A2000000000080000000000080804000000404A
:102A300020100804020408102040000000000000DC
:102A400000007F0000007F00000000000000000286
:102A50000408102040201008040200000000003C80
:102A60004242464020101000181800000000001CD0
:102A7000225A555555552D42221C000000000008D1
:102A800008181414243C224242E700000000001FF2
:102A90002222221E22424242221F00000000007C0D
:102AA0004242010101010142221C00000000001FFE
:102AB0002242424242424242221F00000000003FA6
:102AC0004212121E12120242423F00000000003F5A
:102AD0004212121E12120202020700000000003C05
:102AE0002222010101712122221C0000000000E7C6
:102AF000424242427E42424242E700000000003E23
:102B00000808080808080808083E00000000007CC3
:102B100010101010101010101010110F000000777E
:102B200022120A0E0A121222227700000000000769
:102B30000202020202020202427F0000000000774D
:102B4000363636362A2A2A2A2A6B0000000000E38D
:102B500046464A4A52525262624700000000001C38
:102B60002241414141414141221C00000000003FFF
:102B7000424242423E020202020700000000001CE4
:102B80002241414141414D53321C60000000003F51
:102B90004242423E1212222242C700000000007C44
:102BA0004242020418204042423E00000000007FE2
:102BB0004908080808080808081C0000000000E789
:102BC0004242424242424242423C0000000000E790
:102BD0004242222424141418080800000000006B4C
:102BE000494949495555362222220000000000E794
:102BF000422424181818242442E70000000000771B
:102C00002222141408080808081C00000000007E96
:102C10002120101008040442423F000000780808F8
:102C200008080808080808080808780000000202D8
:102C3000040408080810102020204040001E101036
:102C4000101010101010101010101E00003844004A
:102C50000000000000000000000000000000000074
:102C60000000000000000000000000FF0006080057
:102C70000000000000000000000000000000000054
:102C80000000003C4278444242FC00000000000387
:102C90000202021A26424242261A000000000000E8
:102CA00000000038440202024438000000000060C6
:102CB000404040784442424264D800000000000096
:102CC0000000003C427E0202423C0000000000F096
:102CD0008808087E08080808083E00000000000078
:102CE0000000007C22221C023C42423C0000000307
:102CF0000202023A4642424242E700000000000C53
:102D00000C00000E08080808083E00000000003013
:102D100030000038202020202020221E0000000348
:102D200002020272120A1612227700000000000E40
:102D30000808080808080808083E0000000000000D
:102D40000000007F9292929292B700000000000073
:102D50000000003B4642424242E700000000000003
:102D60000000003C42424242423C000000000000A1
:102D70000000001B26424242221E02070000000003
:102D80000000007844424242447840E000000000E5
:102D9000000000774C040404041F00000000000041
:102DA0000000007C42023C40423E00000000000067
:102DB0000008083E0808080808300000000000006D
:102DC000000000634242424262DC0000000000005A
:102DD000000000E74224241408080000000000005E
:102DE000000000EB49495555222200000000000078
:102DF0000000007624181818246E0000000000005F
:102E0000000000E74224241418080807000000000E
:102E10000000007E22100808447E000000C0202030
:102E200020202010202020202020C0001010101072
:102E300010101010101010101010101000060808BC
:102E40000808081008080808080806000C32C20024
:102E50000000000000000000000000000000000072
:102E60000000000000000000000000000000000062
:102E70000000000000000000000000000000000052
:102E80000000000000000000000000000000000042
:102E900000000000600060006000600060006000F2
:102EA0006000400020002000200000000000000022
:102EB00060006000600000000000000000000000F2
:102EC000600660063003980188004400000000009E
:102ED00000000000000000000000000000000000F2
:102EE00000000000000000000000000000000000E2
:102EF000000000001002100210021002FE07FE0780
:102F000008020801080108010801FE07FE07040184
:102F100004010401040100000000000000000000A2
:102F2000000040004000F00158034C03CC034C006B
:102F300058007000E000C001C00140034C035C0376
:102F40004C034801F0004000400000000000000079
:102F5000000000000E010A01910091009100510053
:102F600051003A00AE03A002500450044804480443
:102F700048048402840300000000000000000000F8
:102F80000000000038006C006C006C006C006C00ED
:102F90002C0098071C011A01330133016301E3007F
:102FA000C308C6093C070000000000000000000044
:102FB0000C001C00100010000800040000000000BD
:102FC0000000000000000000000000000000000001
:102FD00000000000000000000000000000000000F1
:102FE000000400020001800080004000400020003A
:102FF0002000200020002000200020004000400091
:1030000080008000000100020004000000000000B9
:103010000200040008001000100020002000400002
:1030200040004000400040004000400020002000E0
:103030001000100008000400020000000000000062
:1030400000000000000000004000C0004000460CEE
:103050004E0FD001F0015E0F460C400040004000D2
:103060000000000000000000000000000000000060
:103070000000000000000000000040004000400090
:1030800040004000FE0F4000400040004000400073
:103090000000000000000000000000000000000030
:1030A0000000000000000000000000000000000020
:1030B0000000000000000000000000000000000010
:1030C0000C001C00100010000800040000000000AC
:1030D00000000000000000000000000000000000F0
:1030E00000000000FE0700000000000000000000DB
:1030F00000000000000000000000000000000000D0
:1031000000000000000000000000000000000000BF
:1031100000000000000000000000000000000000AF
:103120001C001C001C00000000000000000000004B
:10313000000400060002000300010001800080007E
:103140004000400060002000200010001000080037
:1031500008000C000400060002000000000000004F
:10316000000000000000F00098010C030C030606AC
:1031700006060606060606060606060606060C03EC
:103180000C039801F00000000000000000000000A7
:1031900000000000000040007C0060006000600053
:1031A000600060006000600060006000600060001F
:1031B00060006000FC030000000000000000000050
:1031C000000000000000F80084010203060306036B
:1031D000000300018001C000600020001000080210
:1031E00004020602FE0300000000000000000000D0
:1031F0000000000000007800C60086018601800102
:103200008001C0007000800100010003000306037C
:1032100006038601F8000000000000000000000026
:1032200000000000000080018001C001A001A00199
:1032300090018801880184018201FE0F80018001D4
:1032400080018001E0070000000000000000000095
:10325000000000000000FC0304000400040004005F
:103260000400F4008C0104030003000306030603BA
:1032700082018401F800000000000000000000004E
:10328000000000000000E00118030C030C00040023
:103290000600E60116030E060606060606060406E6
:1032A0000C021803F0000000000000000000000005
:1032B000000000000000F8070C06040204010001F1
:1032C000000180008000400040004000600060007D
:1032D00060006000600000000000000000000000CE
:1032E000000000000000F8010C03060606060606B2
:1032F0000C021C03F000C8010C03060606060606B5
:1033000006060C03F00100000000000000000000B1
:10331000000000000000F0000C010C03060206068D
:103320000606060606078C0678060006000300035C
:103330000C018C017800000000000000000000007B
:10334000000000000000000000000000000000007D
:10335000E000E000E00000000000000000000000CD
:10336000E000E000E00000000000000000000000BD
:10337000000000000000000000000000000000004D
:10338000600060000000000000000000000000007D
:1033900000006000600040002000200000000000ED
:1033A0000000000000040002000180004000200036
:1033B00010000800040008001000200040008000F9
:1033C00000010002000400000000000000000000F6
:1033D00000000000000000000000000000000000ED
:1033E000FE07000000000000FE07000000000000D3
:1033F00000000000000000000000000000000000CD
:1034000000000000040008001000200040008000C0
:1034100000010002000400020001800040002000C2
:103420001000080004000000000000000000000080
:10343000000000000000E0031806040C040C0C0C53
:103440000C0C00078001400040004000000000001C
:10345000E000E000E00000000000000000000000CC
:1034600000000000E00018030C02CC0564056605AE
:10347000A605B604B604B604B604B602E4010C040C
:103480000C021803F0000000000000000000000023
:10349000000000000000600060005000D0009000BC
:1034A0009000880088010801F80104030403040265
:1034B000020202060F0F00000000000000000000E2
:1034C000000000000000FE008C030C030C030C0342
:1034D0000C038C01FC000C030C020C060C060C0601
:1034E0000C060C03FE0100000000000000000000BC
:1034F000000000000000E00318030C060C040404A4
:1035000006000600060006000600060006040C047D
:103510000C021803F0000000000000000000000092
:103520000000000000007F008C010C030C030C065F
:103530000C060C060C060C060C060C060C060C03FE
:103540000C038C017F000000000000000000000060
:10355000000000000000FF03060306040604060046
:1035600086008600FE0086008600860006000604AF
:1035700006040602FF030000000000000000000037
:10358000000000000000FF03060306040604060016
:1035900086008600FE008600860086000600060083
:1035A000060006001F0000000000000000000000F0
:1035B000000000000000F00018010C020C020402E0
:1035C0000600060006000600C60F060306030C03ED
:1035D0000C031803F00000000000000000000000D1
:1035E0000000000000000F0F06060606060606068D
:1035F00006060606FE070606060606060606060672
:10360000060606060F0F0000000000000000000084
:10361000000000000000FC0360006000600060002B
:10362000600060006000600060006000600060009A
:1036300060006000FC0300000000000000000000CB
:10364000000000000000F807C000C000C000C0007B
:10365000C000C000C000C000C000C000C000C0006A
:10366000C000C000C000C60066003C0000000000B2
:10367000000000000000CF038601C60046002600BF
:10368000160036002E006E004600C6008600860139
:10369000060106038F070000000000000000000084
:1036A0000000000000001F000600060006000600E3
:1036B00006000600060006000600060006000604D6
:1036C00006040602FF0300000000000000000000E6
:1036D0000000000000000707860386038E038E03A8
:1036E0004E034E034A035A035A033A03320332038A
:1036F00032031203870700000000000000000000F2
:103700000000000000008E0F0C021C021C0234029C
:103710003402640264024402C40284028403840307
:10372000040304031F02000000000000000000006A
:10373000000000000000F00098010C030C020606D7
:1037400006060606060606060606060606060C0217
:103750000C039801F00000000000000000000000D1
:10376000000000000000FF0006030606060606062D
:10377000060606068603FE00060006000600060092
:10378000060006001F00000000000000000000000E
:10379000000000000000F00098010C030C02060677
:1037A00006060606060606060606060676064C0207
:1037B000CC039801F0008007000300000000000027
:1037C000000000000000FF010603060606060606CC
:1037D00006060603FE004600C600860086010603B4
:1037E000060306060F0E00000000000000000000A7
:1037F000000000000000F8020C03060206020600AA
:103800000E003C00F800E0038003000702060206F9
:1038100006060C03F001000000000000000000009C
:10382000000000000000FE076204610861086000FB
:103830006000600060006000600060006000600088
:1038400060006000F80100000000000000000000BF
:103850000000000000001E070C020C020C020C020B
:103860000C020C020C020C020C020C020C020C02E8
:103870000C021801F0000000000000000000000031
:103880000000000000000F070602040104010C0103
:103890000C018800880098009800500050007000CB
:1038A00030002000200000000000000000000000A8
:1038B000000000000000F70E6204420446044604C3
:1038C00064026402E402E4029C029C0198019801F3
:1038D000880188008800000000000000000000004F
:1038E0000000000000009E070C0108011801900074
:1038F000B0006000200060006000D00090008801EF
:10390000080104038E070000000000000000000012
:103910000000000000000F0F060404020C02080162
:103920001801B800B0007000600060006000600026
:1039300060006000F80100000000000000000000CE
:10394000000000000000FC070C02060302018001D9
:1039500080004000400020002000100018000804F3
:103960000C040402FE030000000000000000000040
:10397000E003200020002000200020002000200084
:103980002000200020002000200020002000200037
:103990002000200020002000E003000000000000C4
:1039A00000000000040004000800080010001000DF
:1039B00010002000200040004000C0008000800077
:1039C00000010001000200020002000400000000EB
:1039D0007C004000400040004000400040004000AB
:1039E00040004000400040004000400040004000D7
:1039F00040004000400040007C00000000006000EB
:103A0000900008010000000000000000000000001D
:103A100000000000000000000000000000000000A6
:103A20000000000000000000000000000000000096
:103A30000000000000000000000000000000000086
:103A40000000000000000000000000000000000076
:103A500000000000000000000000FF0F0000000058
:103A600018006000000000000000000000000000DE
:103A70000000000000000000000000000000000046
:103A80000000000000000000000000000000000036
:103A90000000000000000000000000000000000026
:103AA000F0010C030C030003E0031C030E030603E8
:103AB00006038E0B7C0E00000000000000000000DA
:103AC0000000000008000E000C000C000C000C00B0
:103AD000CC013C031C060C060C060C060C060C065E
:103AE0000C021C03E40100000000000000000000C4
:103AF00000000000000000000000000000000000C6
:103B0000F0008C018C01860106000600060006020A
:103B10000C020C01F000000000000000000000009A
:103B2000000000000002C0030003000300030003C4
:103B300078038C030C03060306030603060306033F
:103B400004038C0778010000000000000000000062
:103B50000000000000000000000000000000000065
:103B6000E001180308020C060C06FC070C000C0010
:103B700018041802E001000000000000000000002E
:103B8000000000000000C003600630063000300076
:103B9000FE013000300030003000300030003000D6
:103BA00030003000FC0100000000000000000000B8
:103BB0000000000000000000000000000000000005
:103BC000F007D8068C018C018C019801F8000C00DC
:103BD000FC00CC03060306038E03F800000000007F
:103BE0000000000008000E000C000C000C000C008F
:103BF000EC011C030C030C030C030C030C030C035F
:103C00000C030C039E0700000000000000000000F1
:103C100000000000000060006000000000004000A4
:103C20007C00600060006000600060006000600078
:103C300060006000FC0300000000000000000000C5
:103C4000000000000000C001C001000000000001F1
:103C5000F0018001800180018001800180018001EC
:103C60008001800180018001CC007C000000000008
:103C70000000000008000E000C000C000C000C00FE
:103C80008C038C008C004C006C005C008C008C0160
:103C90000C010C039E070000000000000000000063
:103CA0000000000040007C006000600060006000D8
:103CB0006000600060006000600060006000600004
:103CC00060006000FC030000000000000000000035
:103CD00000000000000000000000000000000000E4
:103CE0003707EE066606660666066606660666061A
:103CF00066066606FF0F00000000000000000000DE
:103D000000000000000000000000000000000000B3
:103D1000EE011C030C030C030C030C030C030C033B
:103D20000C030C039E0700000000000000000000D0
:103D30000000000000000000000000000000000083
:103D4000F00098010C03060606060606060606069F
:103D50000C030C03F0000000000000000000000055
:103D60000000000000000000000000000000000053
:103D7000EE011C030C060C060C060C060C060C06C9
:103D80000C031C03EC010C000C003E0000000000C2
:103D90000000000000000000000000000000000023
:103DA00078028C030C0306030603060306030603CE
:103DB00004038C03780300030003C0070000000025
:103DC00000000000000000000000000000000000F3
:103DD0009F0358063806180018001800180018002D
:103DE00018001800FF0000000000000000000000A4
:103DF00000000000000000000000000000000000C3
:103E0000F0031C030C020C023800F000C003040392
:103E100004038C03FC01000000000000000000000F
:103E200000000000000000002000200030003000F2
:103E3000FE01300030003000300030003000300033
:103E400030023002E001000000000000000000002D
:103E50000000000000000000000000000000080258
:103E60008E030C030C030C030C030C030C030C0358
:103E70000C039C0778010000000000000000000017
:103E80000000000000000000000000000000000032
:103E90001E070C020801080118019000B000B000D4
:103EA0006000600020000000000000000000000032
:103EB0000000000000000000000000000000000002
:103EC000F70E6204460464026402EC029C0198014D
:103ED00098019801080000000000000000000000A8
:103EE00000000000000000000000000000000000D2
:103EF000BC0718011001B00060006000E0009000F5
:103F0000080108039E0700000000000000000000F8
:103F100000000000000000000000000000000000A1
:103F20009E0708010801080190009000B0006000A1
:103F3000600060002000200024001C000000000041
:103F40000000000000000000000000000000000071
:103F5000FC018401C400440060002000300018020D
:103F600008020C03FC01000000000000000000003B
:103F700000038000800080008000800080008000BE
:103F80008000400020004000800080008000800011
:103F9000800080008000800000030000400040009E
:103FA0004000400040004000400040004000400011
:103FB0004000400040004000400040004000400001
:103FC0004000400040004000400040000000000071
:103FD0000C00100010001000100010001000100065
:103FE0001000200040002000100010001000100001
:103FF00010001000100010000C00000000001C0059
:104000002204C20480030000000000000000000041
:1040100000000000000000000000000000000000A0
:104020000000000000000000000000000000000090
:104030000000000000000000000000000000000080
:104040000000000000000000000000000000000070
:104050000000000000000000000000000000000060
:104060000000000000000000000000000000000050
:10407000000000000000C001C001C001C001C0017B
:10408000C001C001800080008000800080008000AE
:10409000800000000000000000008001C003C00399
:1040A000800100000000000000000000000000008F
:1040B0000000E01CE01CF01E700E38071803080119
:1040C000840000000000000000000000000000006C
:1040D00000000000000000000000000000000000E0
:1040E00000000000000000000000000000000000D0
:1040F0000000000000000000201020102010201000
:104100002010FE7FFE7F100810081008100810080D
:1041100010081008FE7FFE7F080408040804080445
:104120000804000000000000000000000000000083
:104130000000000000010001C007601910311831B3
:104140001839183938017001E001C0038007000FE9
:10415000001D003900311C311C310C310C11180DBF
:10416000E007000100010001000000000000000065
:1041700000000000000000001C1036186308630CEB
:1041800063046304630263026301361D9C3780226B
:1041900080634063406320632063306310221836DD
:1041A000081C0000000000000000000000000000EB
:1041B0000000000000000000F00098018C018C015C
:1041C0008C018C018C00CC007800183E1C0836084D
:1041D000320863046304C304C303834306438E2687
:1041E000781C00000000000000000000000000003B
:1041F00000001C003C003C003000300010000C00AF
:1042000006000000000000000000000000000000A8
:10421000000000000000000000000000000000009E
:10422000000000000000000000000000000000008E
:1042300000000040002000100008000C00040006F0
:1042400000030003000380018001800180018001E0
:1042500080018001800100030003000300060006C6
:10426000000C0008001000200040000000000000CA
:104270000000020004000800100030002000600070
:10428000C000C000C0008001800180018001800169
:10429000800180018001C000C000C000600060009B
:1042A00030001000080004000200000000000000C0
:1042B000000000000000000000000000000180037A
:1042C000800300011C713C79783DC0070001C007E4
:1042D000783D3C791C71000180038003800100005F
:1042E00000000000000000000000000000000000CE
:1042F00000000000000000000000000000000001BD
:10430000000100010001000100010001FC7F00012B
:104310000001000100010001000100010000000097
:10432000000000000000000000000000000000008D
:10433000000000000000000000000000000000007D
:10434000000000000000000000000000000000006D
:104350000000000000000000000000001C003C0005
:104360003C003000300010000C000600000000008F
:10437000000000000000000000000000000000003D
:10438000000000000000000000000000FE7F0000B0
:10439000000000000000000000000000000000001D
:1043A000000000000000000000000000000000000D
:1043B00000000000000000000000000000000000FD
:1043C00000000000000000000000000000000000ED
:1043D0000000000000000000000018003C003C004D
:1043E00018000000000000000000000000000000B5
:1043F000000000400060002000300010001800089D
:10440000000C00040006000200030001800180008F
:10441000C0004000600020003000100018000800BC
:104420000C00040006000200000000000000000074
:104430000000000000000000C007600C30181830B9
:10444000183018200C600C600C600C600C600C6064
:104450000C600C600C601820183018303018600C9C
:10446000C007000000000000000000000000000085
:10447000000000000000000000018001F801800140
:104480008001800180018001800180018001800124
:104490008001800180018001800180018001C003D2
:1044A000F81F0000000000000000000000000000F5
:1044B0000000000000000000E007101C0818043095
:1044C00004300C300C3000300018000800040002EA
:1044D0000001800040002020102008200430FC1F34
:1044E000FC1F0000000000000000000000000000B1
:1044F0000000000000000000E003180E0C0C0C1877
:104500000C180C180018000C0006C003000E001850
:104510000010003000300C300C300C100C18180C4F
:10452000E0030000000000000000000000000000A8
:104530000000000000000000000C000E000E000F44
:10454000800E800E400E600E200E100E100E080E13
:10455000040E040EFE7F000E000E000E000E000E74
:10456000000EC07F000000000000000000000000FE
:104570000000000000000000F03FF03F10001000BD
:10458000100008000800C807280C18180810003090
:104590000030003000300C300C3004180418080CC7
:1045A000F003000000000000000000000000000018
:1045B0000000000000000000800FC010203010300C
:1045C0001800180008000C008C0F6C183C301C60A0
:1045D0000C600C600C600C601860182030306018A3
:1045E000C007000000000000000000000000000004
:1045F0000000000000000000F83FF83F1C100C080D
:10460000040804040004000200020001000100018B
:10461000800080008000C000C000C000C000C0005A
:10462000C0000000000000000000000000000000CA
:104630000000000000000000E007300C18180C30EB
:104640000C300C301C3038187008E007B007180E1A
:104650000C1C063806300630063006300C18180CD4
:10466000E003000000000000000000000000000067
:104670000000000000000000E00318040C080C1803
:104680000610063006300630063006380C3C183668
:10469000F03100300018001800180C0C0C060C0348
:1046A000F001000000000000000000000000000019
:1046B00000000000000000000000000000000000FA
:1046C0000000000000008001C003C0038001000062
:1046D000000000000000000000008001C003C003D3
:1046E0008001000000000000000000000000000049
:1046F00000000000000000000000000000000000BA
:10470000000000000000C000C00000000000000029
:104710000000000000000000000000000000C000D9
:10472000C000800080004000400000000000000049
:104730000000000000000020001000080004000637
:1047400000038001C0006000300018000C00180059
:1047500030006000C0008001000300060004000873
:104760000010002000000000000000000000000019
:104770000000000000000000000000000000000039
:10478000000000000000FE7F0000000000000000AC
:104790000000FE7F0000000000000000000000009C
:1047A0000000000000000000000000000000000009
:1047B000000000000000040008001000200060005D
:1047C000C000800100030006000C00180030001833
:1047D000000C000600038001C000600020001000F3
:1047E00008000400000000000000000000000000BD
:1047F000000000000000C0073018083008600C609E
:104800001C601C601C600030001C00060001800061
:10481000800080008000000000008001C003C00311
:104820008001000000000000000000000000000007
:104830000000000000000000C007601810301820C1
:104840000C2F8C4D864CC64CC64C664C6644664458
:10485000662666266615CC1C0C40082018303018D9
:10486000C007000000000000000000000000000081
:104870000000000000000001C001C001C0014001B3
:1048800060032003200320033006100610061006E4
:10489000F80F080C080C080C0C0C04180418061867
:1048A0001F7C00000000000000000000000000006D
:1048B0000000000000000000FE07181C1838183027
:1048C0001830183018301818180CF8071818183045
:1048D00018201860186018601860186018301818D0
:1048E000FE0F0000000000000000000000000000BB
:1048F0000000000000000000C027603810301820C1
:104900000C400C40040006000600060006000600ED
:104910000600060006000C400C400C201830301831
:10492000C0070000000000000000000000000000C0
:104930000000000000000000FE03180E18181830D8
:104940001830183018601860186018601860186007
:104950001860186018601830183018101818180EE1
:10496000FE03000000000000000000000000000046
:104970000000000000000000FE3F18301820186002
:104980001840180018081808180CF80F180C180808
:10499000180818001800180018401840182018307F
:1049A000FE3F0000000000000000000000000000CA
:1049B0000000000000000000FE7F1870184018C0C2
:1049C00018801800181018101818F81F1818181048
:1049D0001810180018001800180018001800180007
:1049E0007E00000000000000000000000000000049
:1049F0000000000000000000C013701C1010181010
:104A00000C200C200400060006000600060006002C
:104A100006FC063006300C300C30183018303008E8
:104A2000C0070000000000000000000000000000BF
:104A300000000000000000003F7E0C180C180C184D
:104A40000C180C180C180C180C180C18FC1F0C184F
:104A50000C180C180C180C180C180C180C180C1836
:104A60003F7E000000000000000000000000000089
:104A70000000000000000000F81F8001800180019C
:104A8000800180018001800180018001800180011E
:104A9000800180018001800180018001800180010E
:104AA000F81F0000000000000000000000000000EF
:104AB0000000000000000000E07F00060006000685
:104AC00000060006000600060006000600060006B6
:104AD00000060006000600060006000600060006A6
:104AE000000600060E060E038E01FC00000000000A
:104AF00000000000000000007E7C18181808180450
:104B000018061802180198019801D801B803380353
:104B100018071806180E180C181C1818183018301A
:104B20007EFC00000000000000000000000000000B
:104B300000000000000000007E00180018001800AF
:104B400018001800180018001800180018001800A5
:104B500018001800180018001840184018201830C5
:104B6000FE3F000000000000000000000000000008
:104B700000000000000000001FF81C381C381C3822
:104B80001C3C343434343434343674326432643259
:104B900064326431C431C431C431C430C43084306F
:104BA0009FFC00000000000000000000000000006A
:104BB00000000000000000001F7C1C103C1034109E
:104BC000341074106410E410C410C41184118413E0
:104BD000041304170416041E041C041C041C0418EB
:104BE0001F1800000000000000000000000000008E
:104BF0000000000000000000C003300C181808106E
:104C00000C300C30066006600660066006600660C8
:104C10000660066006600C200C3008101818300C76
:104C2000C0030000000000000000000000000000C1
:104C30000000000000000000FE0F18181830186077
:104C4000186018601860186018301818F80F1800ED
:104C50001800180018001800180018001800180094
:104C60007E000000000000000000000000000000C6
:104C70000000000000000000C003300C18180C10E9
:104C80000C300C2006600660066006600660066058
:104C9000066006600660E4612C331C321816300E84
:104CA000C007004C007C003800000000000000003D
:104CB0000000000000000000FE07181C1838183023
:104CC0001830183018301818180CF8079803180303
:104CD000180718061806180E180C180C181C1818A7
:104CE0007E780000000000000000000000000000CE
:104CF0000000000000000000E027303818300C20D1
:104D00000C200C000C0018007800E003800F001E3F
:104D100000380070006004600460086018303818C3
:104D2000C80F0000000000000000000000000000AC
:104D30000000000000000000FC3F8C2184618241E3
:104D40008241800180018001800180018001800119
:104D5000800180018001800180018001800180014B
:104D6000E00700000000000000000000000000005C
:104D700000000000000000003F7C0C100C100C1024
:104D80000C100C100C100C100C100C100C100C1043
:104D90000C100C100C100C100C100C10080838041F
:104DA000E003000000000000000000000000000020
:104DB00000000000000000003EF818201820182015
:104DC0003010301030103010600860086008E00CBF
:104DD000C004C004C004800380038003800300017A
:104DE00000010000000000000000000000000000C2
:104DF0000000000000000000DFF3866186218621AC
:104E00008C210C218C238C138C138C134C13581273
:104E10005816580E380E380E380E300C1004100488
:104E2000100400000000000000000000000000006E
:104E300000000000000000007E3E18083808300422
:104E4000300470026002E001C001C00180018003F3
:104E50004003400720062006100C100C0818081804
:104E60003E7C000000000000000000000000000088
:104E700000000000000000007E7C1C1018101808C4
:104E80003008300C700460046002C002C002C0012F
:104E9000800180018001800180018001800180010A
:104EA000E00700000000000000000000000000001B
:104EB0000000000000000000F83F18180818040C5B
:104EC000040E00060007000380038001C001C0003B
:104ED000E000600070003000382018201C100C1812
:104EE000FE1F0000000000000000000000000000A5
:104EF0000000C03F40004000400040004000400033
:104F000040004000400040004000400040004000A1
:104F10004000400040004000400040004000400091
:104F2000400040004000C03F0000000000000000C2
:104F300000000000000008001800180010003000F9
:104F40002000600060004000C000800080018001FF
:104F5000000100030002000600060004000C000827
:104F600000180018001000300020000000000000B1
:104F70000000FC0300020002000200020002000226
:104F80000002000200020002000200020002000211
:104F90000002000200020002000200020002000201
:104FA000000200020002FC030000000000000000FC
:104FB00000008007C006200810100000000000005C
:104FC00000000000000000000000000000000000E1
:104FD00000000000000000000000000000000000D1
:104FE00000000000000000000000000000000000C1
:104FF00000000000000000000000000000000000B1
:1050000000000000000000000000000000000000A0
:105010000000000000000000000000000000000090
:1050200000000000000000000000FFFF0000000082
:1050300000007800C0000001000000000000000037
:105040000000000000000000000000000000000060
:105050000000000000000000000000000000000050
:105060000000000000000000000000000000000040
:105070000000000000000000000000000000000030
:10508000000000000000F00318060C0C0C0C000CD3
:10509000800F700C1C0C0C0C060C060C064C0C4FF4
:1050A000F8380000000000000000000000000000D0
:1050B00000000000000010001E001800180018007A
:1050C000180018001800180FD81838303860186009
:1050D0001860186018601860186018203830781848
:1050E000C8070000000000000000000000000000F1
:1050F00000000000000000000000000000000000B0
:10510000000000000000C007700C181818180C18D8
:105110000C000C000C000C000C201820181030089B
:10512000C0070000000000000000000000000000B8
:105130000000000000000010001E001800180018F9
:10514000001800180018E01B301C181818180C184C
:105150000C180C180C180C180C180818181C307A9D
:10516000E009000000000000000000000000000056
:10517000000000000000000000000000000000002F
:10518000000000000000C007300C181808100C3098
:105190000C30FC3F0C000C000C001820181070188C
:1051A000C007000000000000000000000000000038
:1051B0000000000000000000003E80C380C0C0C0AE
:1051C000C000C000C000FC1FC000C000C000C00084
:1051D000C000C000C000C000C000C000C000C000CF
:1051E000F80F0000000000000000000000000000B8
:1051F00000000000000000000000000000000000AF
:10520000000000000000C077306C10181818181843
:1052100018181018300CF00718001800F00FF03FA5
:1052200008700C600C600C603838E00F0000000063
:1052300000000000000010001E00180018001800F8
:10524000180018001800980FD81838301830183087
:10525000183018301830183018301830183018300E
:105260007EFC0000000000000000000000000000C4
:1052700000000000000000008003800380030000A5
:10528000000000000001F801800180018001800120
:105290008001800180018001800180018001800106
:1052A000F81F0000000000000000000000000000E7
:1052B0000000000000000000003800380038000046
:1052C000000000000010801F0018001800180018CF
:1052D000001800180018001800180018001800180E
:1052E000001800180018180C1806F0030000000041
:1052F00000000000000010001E0018001800180038
:10530000180018001800183E180C18061803180189
:105310009801D801380318071806180C181C18181B
:105320007E7C000000000000000000000000000083
:105330000000000000000001F801800180018001F0
:105340008001800180018001800180018001800155
:105350008001800180018001800180018001800145
:10536000F81F000000000000000000000000000026
:10537000000000000000000000000000000000002D
:10538000000000000800EE1C9C338C318C318C3105
:105390008C318C318C318C318C318C318C318C3125
:1053A000DE7B0000000000000000000000000000A4
:1053B00000000000000000000000000000000000ED
:1053C0000000000010001E0FD818383018301830B8
:1053D000183018301830183018301830183018308D
:1053E0007EFC000000000000000000000000000043
:1053F00000000000000000000000000000000000AD
:10540000000000000000C007701C103018300C6055
:105410000C600C600C600C600C6018301830301898
:10542000C0070000000000000000000000000000B5
:10543000000000000000000000000000000000006C
:105440000000000010009E0F581838301820186017
:1054500018601860186018601860183038307818B4
:10546000980718001800180018007E0000000000BF
:10547000000000000000000000000000000000002C
:10548000000000000000C023303C183818300C30F9
:105490000C300C300C300C300C3008301838303CEC
:1054A000E033003000300030003000FC000000002D
:1054B00000000000000000000000000000000000EC
:1054C0000000000060007E3C60666061E000E0007B
:1054D00060006000600060006000600060006000CC
:1054E000FE070000000000000000000000000000B7
:1054F00000000000000000000000000000000000AC
:10550000000000000000E027303818301820180094
:105510007000E003800F001C043004300C301C18B5
:10552000EC0F000000000000000000000000000080
:10553000000000000000000000000000800080006B
:105540008000C000E000FC1FC000C000C000C00020
:10555000C000C000C000C000C000C020C02080113A
:10556000000F00000000000000000000000000002C
:10557000000000000000000000000000000000002B
:105580000000000010201E3C183018301830183071
:10559000183018301830183018301830183830F4E7
:1055A000E013000000000000000000000000000008
:1055B00000000000000000000000000000000000EB
:1055C0000000000000007E3C18181808380830045D
:1055D0003004700260026002E001C001C001C0003E
:1055E000800000000000000000000000000000003B
:1055F00000000000000000000000000000000000AB
:10560000000000000000DFF78E630C238C238C2346
:105610009813981358165816700E700E700E2004BA
:105620002004000000000000000000000000000056
:10563000000000000000000000000000000000006A
:10564000000000000000FC3E70087004E004C0028E
:10565000C0018003800340076006200C100C18185E
:105660003E7E00000000000000000000000000007E
:10567000000000000000000000000000000000002A
:105680000000000000007E7C181818083008300860
:10569000300460046004C002C002C00280018001C6
:1056A00080018000800080004C003C000000000071
:1056B00000000000000000000000000000000000EA
:1056C000000000000000FC1F0C0C040E0406000388
:1056D00080038001C000E0007020302038301C18AA
:1056E000FC1F00000000000000000000000000009F
:1056F000000000300008000400040004000400045E
:105700000004000400040004000400028001000200
:105710000004000400040004000400040004000469
:105720000004000400040008003000000001000133
:105730000001000100010001000100010001000161
:105740000001000100010001000100010001000151
:105750000001000100010001000100010001000141
:105760000001000100010001000100010000000033
:1057700000000C001000200020002000200020006D
:105780002000200020002000200040008001400078
:105790002000200020002000200020002000200009
:1057A00020002000200010000C0000000000380045
:1057B000C400864002610022001C000000000000BE
:1057C00000000000000000000000000000000000D9
:1057D00000000000000000000000000000000000C9
:1057E00000000000000000000000000008070000AA
:1057F000E8030000000001000800040000000000B1
:105800000710000001000000000000000000000080
:105810000000000000000000100000000001000077
:1058200003000000000000003400C44108076300CA
:10583000020000004FC30000010000000000000053
:10584000000000000400000018000000003000000C
:10585000B6A8CBD900B6A8BEE000C1A2B4B4BFAA16
:10586000B7A2B0E500BCF2D2D7504944C8EBC3C5DB
:10587000CCD7BCFE00D6D0200020002000FE0322A2
:105880000222022202FE032202200020002000BE8B
:10589000B0FC010401FC010401FC012000FF07042D
:1058A00001FC01200024013202D4B0FE070204FAF8
:1058B0000402040204FE05520452044A058605024D
:1058C00004FE07B5E710001000FF0111011101FFF0
:1058D0000111011101FF0111041004E007D7D300E9
:1058E00000FC018000400020002000FF0720002075
:1058F00000200020003800C1A2400080008000008D
:1059000000FE3F00000008080810041004200220D8
:105910000220010000FF7F0000B4B41020102028F6
:10592000204824842402257D2444244424442454EF
:1059300024242404210421F8290010BFAA0000FE19
:105940003F10041004100410041004FF7F10041012
:1059500004100410040804080404040204B7A2801C
:1059600000880888104400FC3F40002000E01F50E1
:105970001090108808080504020205C0183860B0AD
:10598000E50810083888078800BF00883F8C229CF3
:1059900022AA22AA148914880888084814482228B0
:1059A00041BCF20402FC7E1209A1100800D01F04C1
:1059B00010E41324122412E41324122412E4130416
:1059C000100418D2D7F00F10081008F00F100810AC
:1059D00008F00F20001000F83F442242222021103E
:1059E0002188144008C8EB2000400080008000801F
:1059F0000040014001400120022002100410040870
:105A000008040802100160C3C50400C83F08200252
:105A10002002200220022002200220022002200276
:105A2000200220022002280210CCD780008000FE35
:105A30003F40012002F00F2C18E3672000E0072010
:105A400000FF7F20001008F81F0010BCFE1004109B
:105A50000490048804883F4C044C042A040904E898
:105A60007F080408040804080408040804B6A80011
:105A70000000000000001800001800FCFF3FFCFFC1
:105A80003F0C00300C00300C0030E0FF07E0FF0757
:105A9000001800001800C01800C0F80FC0F80FC0B0
:105AA0001800E01800E01900701F00383E001CF8D4
:105AB0003F0CC03F000000CBD900000000C0000038
:105AC000C00018C00038FF3F70FF3F20C00000FF3B
:105AD0001F00FF1F00C31800C3183EFF1F3EFF1F1B
