:020000040000FA
:10000000C8102020D5000000D9000000DB0000004F
:1000100000000000000000000000000000000000E0
:10002000000000000000000000000000DD000000F3
:100030000000000000000000DF000000E100000000
:10004000E3000000E3000000E3000000E300000024
:10005000E3000000E3000000E3000000E300000014
:1000600000000000E3000000E300000000000000CA
:1000700000000000E3000000E30000004113000066
:10008000E3000000E3000000E3000000E3000000E4
:10009000E3000000E300000000000000000000009A
:1000A000E3000000E300000000000000000000008A
:1000B000E300000000000000E3000000E300000097
:1000C0000348854600F068FB00480047151600000D
:1000D000C810202003480047FEE7FEE7FEE7FEE7E2
:1000E000FEE7FEE7C1000000421C0178401C002929
:1000F000FBD1801A7047F8B502464A40D40F42003F
:100100004B0052085B089A4202D20246084611464A
:100110004A0023D0C30D4A00DDB2120EAD1A202DC5
:1001200035DA49020126490AF6058A19002C00D061
:10013000524220214F1B1146B9402A411018C20DCE
:100140009A4221D0002C17D0012D08DCDA05801A44
:10015000D20F8019D207DBB200F0BEF8F8BDDA0585
:10016000801A012340001B06C01880185A428018CC
:10017000CA0F1043490007E04908C2071143DA05D6
:10018000801A80194008801800F09EF8F8BD6100C0
:100190000122511A001BF7E70122D2075140AAE7BA
:1001A0000122D2075040A6E70122D207002800DB37
:1001B000101A002900DB511A814201D80120704732
:1001C000002070470122D207002800DB101A002906
:1001D00000DB511A814201D1012070470020704795
:1001E000C20FD207400040080BD0C10D0723DB012E
:1001F000C91840020905400A1143C20840071143CB
:10020000704700200146704770B50446002903D0AE
:1002100000202022012310E0002801D00020C0434C
:10022000C046C0460DE02546D5408D4205D30D465B
:100230009540641B1D46954040191546521E002DE1
:10024000F1DC214670BDF0B51FB40646002082B037
:1002500005464024019100901BE0019922460F467B
:10026000304600F020F8049A059B801A994110D37B
:1002700010461946224600F0A7FA361A8F41019718
:10028000224601200021009F00F09EFA38184D41BF
:1002900000902046641E0028DFDC019B0098294660
:1002A000324607B0F0BD10B5202A04DB0846203ADC
:1002B000D040002110BD0B46D340D0402024A21ACC
:1002C00091400843194610BD002904DA401C49003A
:1002D00001D140084000704770B40024050C05D1DE
:1002E0001024000402D1002921D01124050E01D1CF
:1002F00000020834050F01D10001241D850F01D132
:100300008000A41C002801DB4000641C002908D0E8
:1003100020252E1B0D46F540A14000D00121294388
:10032000084301061B1B000ADB1D02D5002070BC20
:100330007047DB05181880180029F8DA401C4900BE
:10034000F5D170BC40084000704710B5002B08DAAA
:100350000024401C614192185B411A4301D14008BE
:10036000400010BDF0B51FB482B005460C0003D0AC
:10037000084601F0D5F902E001F0D2F9203002463A
:1003800000902146284600F01FFA049B059A044677
:100390000F4618431143084314D0184610431BD08E
:1003A000009840210A1A18460599FFF77CFF054678
:1003B0000E46009A0599049800F006FA084305D005
:1003C000012004E02046394607B0F0BD0020C117E7
:1003D00005430E432C43374300990E986305401A9A
:1003E0007905E40A00220C43FD0A0A3002D50020F8
:1003F0000146E9E70105101969410C9C0D9D0019A2
:100400006941FFF7A2FFDFE7F0B50746084658400D
:1004100087B0C00F049048000E46590040084908B4
:10042000BC1A884105D2384631461E4617460B464F
:1004300002465800400810434CD0300D0390400550
:100440005900400D490D0590401A0290402872DA7B
:1004500018030121000B090508430190049800923C
:10046000002805D001995242002088410092019055
:10047000029840210A1A0199009800F0A5F9054652
:100480000C466B4607CB00F0AFF9C0197141039AD7
:100490000E0D0023D71756401A467A40164344D013
:1004A000049A002A2DD0029A012A039A15DC12051B
:1004B000C01A914101263605001C7141D20F059EDC
:1004C000D2070093019202962A462346FFF74AFF7D
:1004D00007B0F0BD38463146FAE71605224A0F4606
:1004E000B218C01AB74101210905001C4F4100187C
:1004F0007F41114618187941E20F10436D1964418C
:1005000013E0E2076D0815436408C2071443039A19
:1005100001261205C01A91413605001C7141CE0713
:10052000400830434908C01851412A462346FFF786
:100530000CFFCDE7FFE7049801224000C117121A13
:1005400000238B4104983146C417381AA141EEE7C5
:1005500030B40124E407634030BC55E730B40124D3
:10056000E407614030BC4FE70000E0FFF0B51FB486
:1005700088B00B990998002448400999C00F490098
:1005800049080991C0070B990090490049080B914F
:1005900009990898A64608431CD00B990A98084365
:1005A00018D0099801244000420D4800410D0998D7
:1005B00024050003000B204309900B980003000B57
:1005C00020430B9050181C494018002201901446FB
:1005D000104605E0002001460DB0F0BD032801DA09
:1005E000034600E003239C46C11A0AAE0AE05F00FE
:1005F00008ADED5B4F00F75B7D430027AA187C41F7
:10060000491C5B1E6145F2DD410004AB5A522104D6
:10061000120C0A43240C401C0828DFDB01980290CE
:100620000099704601910090059B049A07990698DD
:10063000FFF798FED0E700000DFCFFFFF0B50C4679
:100640005C4085B0E40FE40703944C000026640886
:1006500059009446490802460296224321D0624638
:100660000A431ED06200570D4A000E032303550DA6
:10067000012402462C492405781B1B0B360B40181D
:1006800023432643614600901C46501AB44103D3CD
:100690000098401C009002E0921800985B410028EE
:1006A00003DA0020014605B0F0BD00200121090554
:1006B0000746864611E064461D46141BB54106D325
:1006C0006546521BB341744607430C43A646CD070B
:1006D00040084908284392185B4105460D43EAD17A
:1006E0001046184313D060461946504071400843E5
:1006F00006D06046101AB34106D20122002306E05C
:1007000000220123DB0702E00122D24353100098AC
:1007100074460105381C6141029C039D0019694122
:10072000FFF713FEBFE70000FD0300004A000903C6
:100730000123090B1B0519430A4B10B5520D9A42B0
:1007400002DA0020014610BD064B34339A4203DC26
:100750009A1AFFF7A8FD10BD034BD21800F034F829
:1007600010BD0000FF030000CDFBFFFF10B5002906
:1007700004DB0124E40740428C412146002B04DBCA
:100780001C460123DB075242A341994200D190420B
:1007900010BD0000000000001CB509480090094889
:1007A000019005460126009C05E0E36807CC334331
:1007B0000C3C98471034AC42F7D3FFF785FC00009F
:1007C000705400009054000010B5202A04DB01464C
:1007D000203A9140002010BD914020239C1A0346EE
:1007E000E3401943904010BD10B5202A06DBCB171B
:1007F0000846203A1041C1170B4306E00B4613414F
:10080000D0402024A21A91400843194610BD811EF1
:10081000091F00BFFCD2704784B00390029101927F
:100820000398006800900098019988430090009810
:100830000299019A114008430399086004B0704777
:1008400082B0019000910098019995225201885040
:1008500002B0704782B001900091009801999522F2
:100860005201885002B0704782B001900091009808
:100870000199024A885002B07047C046D012000069
:1008800081B0009000990120C2023F48885001B019
:100890007047C04681B00090009881001F4A8120B7
:1008A000885001B07047C04610B584B0069C0390D4
:1008B000029101920093029801990843009908431C
:1008C000069908438121084303998900134A8850F7
:1008D00004B010BD81B00090009881000F4A002044
:1008E000885001B07047C04682B0019000910098D6
:1008F0000349084301998900084A885002B07047AB
:100900008000040082B0019000910098802108438B
:1009100001998900014A885002B070470480424022
:1009200081B000900099334A3348885001B0704735
:1009300082B00190009100980199074A885002B056
:100940007047C04682B00190009100980199024A18
:10095000885002B07047C0469012000081B00090ED
:100960000099034A885801231843885001B0704702
:100970000411000081B0009000990120C202C1481A
:10098000885001B07047C04601000026B0B5112262
:10099000120283580C4C1C400B894D881D438B79E7
:1009A0002B430A4D1D402B1983508B88CC791C4357
:1009B000097821435D239B001940801842689A43BF
:1009C00089184160B0BDC04680CCFFFF7F33000076
:1009D00081B000900098DD4940581021084000097E
:1009E00001B0704781B000900099C74AC74888504D
:1009F00001B0704704080000030000B180B582B068
:100A0000019000910198044940180099034AFFF7AA
:100A100003FF02B080BDC04608110000FF030000C4
:100A200010B50122120383180C785C60497881505C
:100A300010BD000080B584B000920A4601460098BF
:100A4000039102A90A7001AA10700398044BC01800
:100A50000978127811433F22FFF7DEFE04B080BD13
:100A60000C11000082B00190684601700078019975
:100A700045229201885002B070470000F0B584B062
:100A800001242202344B19680392914319606A4988
:100A90000D686D04FCD5457E25409E69A6437419FA
:100AA0009C612024045D03252C40DE69AE4334198B
:100AB000DC611F4C256805262660466A37681F6280
:100AC00076685E6207262E402660C4697F252D0267
:100AD000DE69AE436406640C3419DC61076845685E
:100AE00082680092C66802690192426902929A691C
:100AF000104C14403A07120B2D03ADB2AA18324322
:100B0000009D2D072D0D1543019A1543029A15439B
:100B1000007E2843084A0240101998611868039A19
:100B20001043186008688005FCD504B0F0BDC046CD
:100B3000001340408D00F0FF72FF0F000649086867
:100B4000012290430860704703490868012212029D
:100B5000904308607047C04608010B4081B00146D1
:100B60006846017000780249086001B07047C046CD
:100B700008030B4080B582B0014601A801800188BE
:100B80000F2002022B48FFF747FE02B080BDC0468F
:100B9000F0B5124B1D46083D2E680124A6432E6079
:100BA0000326360330401F68B743381818601868AA
:100BB000FF26B043C9B24018186028682043286057
:100BC00018682107002A06D0084318601A480168EF
:100BD000C905FCD5F0BD88431860F0BD10010B407D
:100BE00080B582B0014601A8017001780248032255
:100BF000FFF712FE02B080BD00010B4080B582B04D
:100C0000014601A8017001780A483022FFF704FE6E
:100C100002B080BD07498860074802689202FCD58F
:100C2000012212040B6813430B600168C906FCD54E
:100C30007047C04604010B4004020B4081B0009095
:100C4000009911200202885801231843885001B0EE
:100C50007047000082B001900091009B0199034A07
:100C600088581843885002B07047C04628100000CA
:100C700081B0009000990120C2020248885001B062
:100C80007047C0460100002681B000900098812185
:100C900049014058C0B201B070470000B0B5112200
:100CA000120283580124A34383500B888C781C4381
:100CB0008B882343094C1C408358094D1D40631900
:100CC00083508B79CC791C43097A21437E231940C8
:100CD000801842689A4351184160B0BD18670000FF
:100CE000E798FDFF81B00090009802494058C0B2DB
:100CF00001B070472411000081B000900099024AB1
:100D00000248885001B0704704080000030000B199
:100D100080B584B003900291019203980B4940186A
:100D20000299D94AFFF778FD0398094940180199BB
:100D30003F22FFF771FD0399064A8818895801225E
:100D40001140FFF769FD04B080BDC04610110000DE
:100D5000141100000411000010B5012212038318C1
:100D60000C789C604978815010BD80B582B00190AC
:100D70000091019811210902401800990322D20321
:100D8000FFF74AFD02B080BD80B584B003900291A8
:100D9000019200932A2000F0C3F9039800F0A7F90C
:100DA000019800F0A4F92B2000F0BAF90298233042
:100DB00000F09DF90098233000F099F92C2000F004
:100DC000AFF904B080BD80B584B003900291019268
:100DD000039A029B10461946FFF7D6FF019800F0D0
:100DE00086F904B080BD10B586B0089C05900491CA
:100DF0000392029305980499039A521E029B5B1E6C
:100E0000FFF7C2FF04980190FFE70198029988421A
:100E100015D2FFE705980090FFE7009803998842F4
:100E200008D2FFE7089800F062F9FFE70098401C3D
:100E30000090F2E7FFE70198401C0190E5E706B05B
:100E400010BD000070B594B000920C4605460098A5
:100E50001A99199A189E1395129411AC0194207046
:100E600010930FA8029002700EAA11700AAA002116
:100E70000391117013990791007841080CA8049010
:100E800001700178C80805904907401C00290690A8
:100E900001D105980690029B049A0199069C187846
:100EA00060430890119820380870139812991278AE
:100EB0008218521E1B78CB185B1EFFF765FF039844
:100EC0000990FFE709980899884200D39DE00FA890
:100ED00000780C280BD1FFE711A800780C214143C2
:100EE0004E4840180999405C0DA9087031E00FA8E0
:100EF000007810280AD1FFE711A8007801014648C0
:100F000040180999405C0DA9087021E00FA80078ED
:100F100018280BD1FFE711A80078302141433D4844
:100F200040180999405C0DA9087010E00FA80078DE
:100F300020280AD1FFE711A8007881013448401821
:100F40000999405C0DA9087000E05EE0FFE7FFE74B
:100F5000FFE70BA900200870FFE70BA8007807281F
:100F60004EDCFFE70EA80078002822D1FFE70DA88D
:100F700000780BA90978C840C007002804D0FFE713
:100F8000109800F0B4F803E0189800F0B0F8FFE70C
:100F90000A98411C0AA8017000780CA90978FFF78B
:100FA00033F9002904D1FFE70AA90020087027E0DF
:100FB00020E00DA800780BA90978C840C0070028D8
:100FC00006D0FFE713981299109AFFF7FCFEFFE78F
:100FD0001398401C139013980799401A0CA909788C
:100FE000884206D1FFE7079813901298401C129090
:100FF00006E0FFE7FFE70B98401C0BA90870ACE781
:10100000FFE70998401C09905CE714B070BDC0462A
:10101000623C0000922A0000A22400002E20000062
:10102000B0B58EB00D900C910B920A930B98FFF710
:101030005BF809900A98C00008901024079409985A
:10104000C00006900D980899069A891ACA0F891847
:101050004910401805900C9804900D980C99089A26
:101060008218079BCB18002503950095FFF7BBFE60
:10107000039B059804990B9A029301940093024BE9
:1010800000F004F80EB0B0BDFFFF000070B58AB0EC
:101090000C46054610980F990E9E099508940792E4
:1010A000069305AA117004A90870FFE70798007855
:1010B00000281AD0FFE709980899079A1278069B2A
:1010C0000E9C05AD03952D7804AE367802960195F9
:1010D0000094FFF7B7FE039800784108099840187C
:1010E00009900798401C0790E0E70AB070BD80B5F2
:1010F00082B0019001A80090407800F027F8009895
:10110000007800F023F802B080BD80B582B00146BF
:1011100001A80170007800F019F802B080BD00004D
:1011200080B584B003A9009108700120C10202912A
:1011300081480190FFF78EFB0098007800F006F8D8
:1011400001980299FFF7FEFB04B080BD80B584B022
:1011500003A9009108700120810302917648019053
:10116000FFF778FB0098007800F0B0FA0198029938
:10117000FFF7E8FB04B080BD80B586B00920FFF71B
:10118000A9FB0A20FFF7A6FB142002210291FFF71A
:10119000B9FB02991520FFF7A7FB19200321039142
:1011A000FFF7B0FB03991820FFF7ACFB0023009377
:1011B0000120020431201946FFF776FB1A20FFF7C1
:1011C00069FB1B20FFF766FB1E20FFF763FB38203F
:1011D000FFF760FB5848049004490591FFF730FB86
:1011E00004980599FFF740FB06B080BD004C400411
:1011F00080B582B00B4951480190FFF711FC01986E
:101200000949FFF7C3FB01980021FFF7F7FB01989D
:1012100010210222FFF70EFC0198FFF79FFB02B09E
:1012200080BDC046225400002454000080B582B026
:1012300000200190FFF792FC012000904002FFF790
:1012400099FC0198FFF7CCFCFFF778FCFFF77CFCDA
:10125000009A032000030A21FFF79AFC0548FFF7D4
:101260000DFC1020FFF7CAFC0198FFF7D3FC02B079
:1012700080BDC0463054000080B582B010493A4865
:101280000190FFF769FD01980E49FFF707FD0198EE
:101290000021FFF76AFD0198412189001B22FFF719
:1012A00037FD019801218902FFF7D4FC0F200321AB
:1012B00000F05CF80198FFF7C1FC02B080BDC046A9
:1012C000585400005A54000080B500F00FF8FFF7A2
:1012D00053FFFFF7ABFFFFF7CFFFFFF789FF02498F
:1012E00024220020885480BD8C00202080B584B04A
:1012F00010480090FFF714FBED480190FFF710FB3A
:1013000019480290FFF7F8FCFA480390FFF76AFBD0
:101310000098FFF7B5FA0198FFF7B2FA0298FFF7C5
:10132000A7FC0398FFF726FB1020FFF770FA04B024
:1013300080BDC04600000A4000200A4000A0464090
:1013400010B50948FFF7A0FC0B280CD1FFE70648B1
:10135000FFF7C8FC304980240A59531C0B518854AC
:1013600000F046F8FFE710BD0080104070B582B075
:10137000024601A80270009100214056002816D4B0
:10138000FFE7002401A908570322D3431840174A56
:10139000805809578C07E50EFF24AC40A043009C01
:1013A000A401E4B2AC402043194088501AE001A9DE
:1013B00008780F24204008380322D34318400A4AF3
:1013C0008058002549578D07EE0EFF25B540A843EC
:1013D000009DAD01EDB2B5402843214008391940C8
:1013E0008850FFE702B070BD1CED00E000E400E0B3
:1013F00081B00948802140587F2806DBFFE7064975
:10140000802200208850009002E001200090FFE739
:10141000009801B07047C0460800202082B00190BB
:1014200000200090FFE70098019A7D214901514377
:10143000884206D2FFE700BFFFE70098401C0090FB
:10144000F1E702B07047000080B592B00120039030
:101450008102019196480090FFF7FCF96A48FFF776
:10146000D6F900980199FFF76DFA6848FFF7CFF9B0
:1014700011201090FFF754FE36200E90FFF750FE1B
:101480007020FFF742FE3A20FFF74AFE0520069043
:10149000FFF73BFEB220FFF743FE0C200290FFF760
:1014A00034FE0298FFF731FE00200490FFF72DFE76
:1014B00033200C90FFF729FE0C98FFF726FEB7208B
:1014C000FFF72EFE3520FFF720FEBB20FFF728FE9A
:1014D0001A20FFF71AFEC020FFF722FE2C20FFF78C
:1014E00014FEC220FFF71CFE0398FFF70EFEC32078
:1014F000FFF716FE0B200990FFF707FEC420FFF749
:101500000FFE2020FFF701FEC620FFF709FE0F2087
:10151000FFF7FBFDD020FFF703FEA420FFF7F5FD4A
:10152000A120FFF7F2FD2120FFF7FAFDE020FFF7F1
:10153000F7FDF0200890FFF7E8FD0498FFF7E5FDC0
:1015400004200590FFF7E1FD0598FFF7DEFD059803
:10155000FFF7DBFD0698FFF7D8FD29201190FFF774
:10156000D4FD0C98FFF7D1FD3E200D90FFF7CDFD87
:101570003820FFF7CAFD12200790FFF7C6FD079835
:10158000FFF7C3FD28200B90FFF7BFFD3020FFF7CA
:10159000BCFDE120FFF7C4FD0898FFF7B6FD07206A
:1015A0000A90FFF7B2FD0A20FFF7AFFD0D20FFF70D
:1015B000ACFD0998FFF7A9FD0A98FFF7A6FD0B9867
:1015C000FFF7A3FD0C98FFF7A0FD0D98FFF79DFD19
:1015D0000E98FFF79AFD14200F90FFF796FD0F98D5
:1015E000FFF793FD1198FFF790FD3220FFF78DFD77
:1015F0001098FFF795FD0648FFF709F91198FFF7D6
:101600008FFD12B080BDC046009F240000127A00FA
:10161000007C920080B586B0002004900590FFF712
:1016200053FEFFF711FF012081062148FFF780F9E3
:101630000499009105208201AA230846FFF7D3FBF5
:10164000FFE71C4800681C490968FEF7BBFD00283D
:1016500015D1FFE718480168164A11600068FEF7C7
:10166000BFFD02460B4615480390154900F044F8AB
:10167000039A142110230846FFF7D2FCFFE70E4817
:10168000029000680F49FEF736FD0146029801609E
:1016900000680D49FEF788FD002804D1FFE70649E0
:1016A00000200860FFE70A20FFF7B8FEC9E7C04640
:1016B00000200A4000002020C4002020B400202088
:1016C00064540000CDCCCC3DE1FAC74280B582B075
:1016D000014601A8017001780648FFF7C3F9FFE74A
:1016E0000448FFF775F9002801D0FFE7F8E702B0DA
:1016F00080BDC04600A046400FB410B504A9074BFA
:1017000002AA039800F0F2F8044602A9002000F0B3
:1017100089FC204610BC08BC04B0184725200000F6
:101720002021020C01D010211046020A01D01046DF
:101730000839020901D01046091F820801D010465D
:10174000891E420801D0881E7047081A70470000A1
:1017500002E008C8121F08C1002AFAD17047000031
:101760007047000000000000002001E001C1121FCE
:10177000002AFBD170470000F0B51FB486B009986D
:10178000089A030D0021024314D05148514A1818F9
:10179000504305141198012810981AD0281A401C9B
:1017A00000264D4F4D49009601910490002812DA11
:1017B000444211E01198012449A3012801D1109855
:1017C000C1430698119A84600360C26041600BB007
:1017D000F0BD4042E4E70446210500203F4A001CDA
:1017E00051410391029012E0E00707D032463B4698
:1017F00001990098FEF7BAFE0191009032463B46EF
:1018000010461946FEF7B2FE06460F466410002C3D
:10181000EAD10498039B0028029A0999089806DAED
:10182000FEF7A4FE019B009AFEF7A0FE05E0FEF77E
:1018300005FF019B009AFEF701FF04460E460022B9
:10184000284BFEF793FF03D80020C043014607E072
:101850000022254B20463146FEF7D6FDFEF766FFF7
:10186000102409E0002C0ADB0A220023FEF7EBFC1F
:10187000079B30321A55641E02460A43F2D11122E8
:10188000641C079B121B1C19119B012B03D0012305
:1018900008430ED10AE0084304D011201090002024
:1018A000119077E71098151A6D1E0BE01098824280
:1018B00002DD00236D1C03E0824201DA00236D1E6D
:1018C000002BEED0069811998260C16030C07EE78F
:1018D00001FCFFFF104D0000000014400000F03F2D
:1018E000300000000000F0430000E03FFFB597B07B
:1018F0000646002518E2252877D100242746FD4911
:10190000049400E00443761C32780120203A904091
:101910000842F7D130782A280ED0022230780146CA
:101920003039092916D804990A2359433039401807
:101930001443761C0490F1E7189802C8049118909B
:10194000002904DA012040030443484204900220A5
:101950000443761C30782E2814D104200443707878
:10196000761C2A2809D11898761C80C8189009E09E
:101970000A214F43303FC719761C30780146303971
:101980000929F5D930786C2810D006DC4C281AD0FB
:1019900068280ED06A2817D104E0742813D07A285A
:1019A00012D110E00120400504430CE0012109059B
:1019B00001E0032109050C437178814203D1012024
:1019C00000052418761C761C3078119066280BD000
:1019D00013DC58287DD009DC00287BD04528F6D0C0
:1019E0004628F4D047281AD1A5E118E0632835D05D
:1019F000642870D0652812D19DE170286CD008DC75
:101A00006728F1D069287BD06E280DD06F2806D1C9
:101A1000BAE073282ED0752871D0782859D01A9A38
:101A2000199990476D1C7EE16002400F022809D091
:101A300003280DD00428189801680DD00D60001DF2
:101A4000189070E11898EA1701680D604A60F6E78F
:101A5000189801680D80F2E70D70F0E718986A4653
:101A600001781172001D18900020507202A8009099
:101A7000012005E0189802C8189000200091C0438A
:101A800061070DD5002101E00199491C0191B9427E
:101A900012DA8142F8DB009A515C0029F4D10BE0A4
:101AA000002101E00199491C01918142FADB019A70
:101AB0000099895C0029F5D1019904981A9B471A6D
:101AC00021463846199A00F097FA019940194518AD
:101AD0000BE04FE02CE113E04EE000980099007815
:101AE000491C00911A9A199990470198401E01903B
:101AF000401CF2D1214638461A9B199A10E137E072
:101B00000A200021009001916002410F022907D0B4
:101B1000189A01CA1892C2179446032908D00AE0FD
:101B20001898C01DC108C90005C91891944607E05E
:101B300000B2C2179446042902D140B2C1178C46A4
:101B400000226146944506DA0A460021404291414E
:101B50008C462D2102E0210504D52B216A46117304
:101B6000012103E0E10701D02021F7E7029155E0D0
:101B70000A200AE0102008E0102000900021042034
:101B800004430191082703E00820002101910090FF
:101B90006002410F022907D0189A01CA1892002248
:101BA0009446032908D008E01898C01DC108C90050
:101BB00005C91891944603E080B2042900D1C0B24F
:101BC00000210291210729D51199702906D0009A88
:101BD0001021019B4A401A4305D00EE040216A467D
:101BE0001173012108E06146014306D030216A46A5
:101BF00011731199517302210291009A0821019BDE
:101C00004A401A430AD16146014301D1610705D513
:101C100030216A46117301217F1E029111995829C2
:101C200004D035A10E910DA90D910DE037A1F9E772
:101C30006146019B009AFEF706FB0E9B8C469B5C5F
:101C40000D9A521E0D92137061460143F0D10D980A
:101C500005A9081A20300190600703D5012000046F
:101C6000844300E001270198874201DD381A00E033
:101C70000020019900904118029809180498401A10
:101C80000490E00306D421461A9B199A049800F0A8
:101C9000B3F94519002706E003A81A9AC05D1999FF
:101CA00090476D1C7F1C02988742F5DBE0030CD542
:101CB00021461A9B199A049800F09EF9451904E0F0
:101CC0001A9A3020199990476D1C0099481E00906F
:101CD0000029F5DC08E00D980D990078491C0D915C
:101CE0001A9A199990476D1C0199481E0190002974
:101CF000F1DC63E109280100303132333435363705
:101D00003839616263646566000000003031323347
:101D100034353637383941424344454600000000E7
:101D200000F05AF94519761C3078002800D0E2E519
:101D300028461BB0F0BD600700D406271898C01DC8
:101D4000C108C90048680A680831C30FDB07189149
:101D5000190001D09CA108E0210501D59BA104E058
:101D6000E10701D09AA100E09AA1430011985B0815
:101D7000109165280CD006DC452809D046281DD0D6
:101D8000472841D141E0662818D067283CD13CE083
:101D90000021112F01DB112000E0781C019100903F
:101DA00008A911A8FFF7E8FC139905910021119AE1
:101DB00015927F1C12980197009150E00120C007F6
:101DC00003900120019008A9009711A8FFF7D4FC07
:101DD000139A149905920022119B00921298159360
:101DE000059A0192002901D0104602E0791C4018A2
:101DF0000190381A01D5019804E04042401E00903D
:101E0000781C0190C01B029043E0012F00DA0127EB
:101E10000021112F01DD112000E0384601910090D2
:101E200008A911A8FFF7A8FC13990591119A0021A0
:101E3000129815920091019721070CD40599B94287
:101E400001DB019900E00191012904DD159A491E89
:101E5000515C302906D0B84201DA011D05DA0121B2
:101E6000029115E00199491EEDE7002805DC009973
:101E7000411800910199091A03E0019A411C91420D
:101E800000DD01910099401A401C02900120C0071A
:101E90000390200706D402990198814202DB0020BA
:101EA000C043029000206946C87707AF012103981C
:101EB0000337C907884224D0022011902B201290AA
:101EC000039800280CDA404203902D20129007E07E
:101ED0000A210398FEF798F930317F1E039039707C
:101EE0001199481E11900029F2DC03980028EFD1C7
:101EF000791E129808703078202108404530BF1EA6
:101F0000387006A8C01BC01D0390109800780028E8
:101F100000D00120019941180298C01709180398B0
:101F200009180498401A401E0490E00306D4214684
:101F30001A9B199A049800F05FF8451910980078D8
:101F4000002803D01A9A199990476D1CE00324D5F4
:101F500021461A9B199A049800F04EF845191CE086
:101F60000098002807DB00990598884203DD159842
:101F7000405C199901E0199930201A9A904700980D
:101F80006D1C401C00900298401E0290002804D155
:101F90001A9A2E20199990476D1C0199481E01909C
:101FA0000029DDDC05E038781A9A7F1C19999047E2
:101FB0006D1C0399481E03900029F4DC21461A9BEE
:101FC000199A0498ACE600002D0000002B000000D8
:101FD0002000000000000000F8B5044600251E4661
:101FE0001746880404D405E039462020B0476D1C0C
:101FF000641EF9D52846F8BDFFB50446002581B01A
:102000001E46C80301D5302700E02027880404D5E8
:1020100005E038460399B0476D1C641EF9D5284683
:1020200005B0F0BD0A68531C0B60107070470000CB
:102030000000000000000000000000000404040490
:1020400004000004000014140A0000000000000056
:10205000000000000A0A1F0A0A1F0A0A0000000402
:102060000E1505060C14150E0400000012150D15B2
:102070002E2C2A1200000000040A0A361515291613
:102080000000020201000000000000000000100833
:1020900008040404040408081000020404080808E2
:1020A00008080404020000000004150E0E150400C8
:1020B000000000000008083E0808000000000000C2
:1020C0000000000000000202010000000000003FCC
:1020D00000000000000000000000000000000002FE
:1020E0000000002010100808040402020100000093
:1020F0000E1111111111110E00000000040604044C
:102100000404040E000000000E1111080402011F57
:10211000000000000E11100C1010110E0000000045
:10212000080C0C0A091F081C000000001F01010F09
:102130001110110E000000000C12010D1311110EF0
:10214000000000001E100808040404040000000041
:102150000E11110E1111110E000000000E111119B7
:102160001610090600000000000004000000000432
:102170000000000000000004000000040400000053
:1021800010080402020408100000000000003F00D4
:102190003F000000000000000204081010080402C4
:1021A000000000000E1111080404000400000000EB
:1021B0001C22292D2D1D221C0000000004040C0AE5
:1021C0000A1E1233000000000F12120E1212120F1C
:1021D000000000001E1101010101110E00000000AD
:1021E0000F1212121212120F000000001F120A0E1C
:1021F0000A02121F000000001F120A0E0A02020744
:10220000000000001C1201013911120C0000000036
:102210003312121E12121233000000001F040404B5
:102220000404041F000000003E080808080808080D
:102230000907000037120A060A12123700000000D0
:10224000070202020202223F000000003B1B1B1B90
:1022500015151535000000003B1216161A1A121734
:10226000000000000E1111111111110E00000000EC
:102270000F12120E02020207000000000E111111CF
:102280001117190E180000000F12120E0A12123741
:10229000000000001E1101060810110F00000000D0
:1022A0001F1504040404040E00000000331212126F
:1022B0001212120C000000003312120A0A0C04045D
:1022C00000000000151515150E0A0A0A000000008E
:1022D0001B0A0A04040A0A1B000000001B0A0A0A5F
:1022E0000404040E000000001F0908040402121F69
:1022F00000001C0404040404040404041C00000280
:10230000020404040808081010000E080808080851
:10231000080808080E00040A000000000000000081
:10232000000000000000000000000000003F020468
:102330000000000000000000000000000000000C91
:10234000121C123C000000030202020E1212120EB6
:10235000000000000000001C1202120C0000001817
:102360001010101C1212123C000000000000000CA3
:10237000121E021C000000182404041E0404041E83
:10238000000000000000003C120C021C221C000394
:102390000202020E121212370000000404000006AE
:1023A0000404040E000000080800000C08080808D7
:1023B000080700030202021A0A060A1300000007B7
:1023C000040404040404041F000000000000000FC3
:1023D00015151515000000000000000F121212372D
:1023E000000000000000000C1212120C000000009F
:1023F0000000000F1212120E020700000000001C65
:102400001212121C103800000000001B0602020706
:10241000000000000000001E020C101E0000000062
:102420000004041E0404041C000000000000001B43
:102430001212123C000000000000001B0A0A0404F3
:102440000000000000000015150E0A0A0000000040
:102450000000001B0A040A1B0000000000000033FB
:1024600012120C08040300000000001E0804041EE1
:10247000000018080808080C0808080818000808D0
:1024800008080808080808080808060404040408DE
:102490000404040406001609000000000000000007
:1024A000000000000000000000000000000000002C
:1024B00000000000000808080808080800001818B4
:1024C000000000486C241200000000000000000022
:1024D00000000000002424247F1212127F12121226
:1024E00000000000081C2A2A0A0C1828282A2A1C86
:1024F000080800000022251515152A5854545422A6
:1025000000000000000C1212120A76252911916EAB
:1025100000000006060403000000000000000000A8
:1025200000000040201010080808080808101020BB
:1025300040000002040808101010101010080804D1
:1025400002000000000008086B1C1C6B080800005B
:10255000000000000000080808087F0808080800BC
:10256000000000000000000000000000000006065F
:1025700004030000000000000000FE000000000056
:10258000000000000000000000000000000006063F
:1025900000000000804040202010100808040402C1
:1025A00002000000001824424242424242422418E3
:1025B0000000000000080E08080808080808083E87
:1025C00000000000003C4242422020100804427EED
:1025D00000000000003C4242201820404042221CE3
:1025E0000000000000203028242422227E202078B1
:1025F00000000000007E0202021A26404042221C17
:102600000000000000382402021A26424242241828
:1026100000000000007E22221010080808080808A8
:1026200000000000003C4242422418244242423C46
:102630000000000000182442424264584040241C1C
:10264000000000000000000018180000000018182A
:10265000000000000000000000080000000000086A
:102660000804000000402010080402040810204064
:1026700000000000000000007F0000007F0000005C
:10268000000000000002040810204020100804028E
:1026900000000000003C4242464020101000181884
:1026A00000000000001C225A555555552D42221C91
:1026B00000000000000808181414243C224242E7DD
:1026C00000000000001F2222221E22424242221F3E
:1026D00000000000007C4242010101010142221C75
:1026E00000000000001F2242424242424242221F9A
:1026F00000000000003F4212121E12120242423F2E
:1027000000000000003F4212121E121202020207D5
:1027100000000000003C2222010101712122221C44
:102720000000000000E7424242427E42424242E74D
:1027300000000000003E0808080808080808083ED5
:1027400000000000007C101010101010101010106D
:10275000110F0000007722120A0E0A1212222277AD
:102760000000000000070202020202020202427F91
:10277000000000000077363636362A2A2A2A2A6BCD
:102780000000000000E346464A4A52525262624745
:1027900000000000001C2241414141414141221CF6
:1027A00000000000003F424242423E020202020795
:1027B00000000000001C2241414141414D53321CA8
:1027C00060000000003F4242423E1212222242C7F5
:1027D00000000000007C4242020418204042423EB9
:1027E00000000000007F4908080808080808081CC5
:1027F0000000000000E74242424242424242423C64
:102800000000000000E742422224241414180808A3
:1028100000000000006B49494949555536222222E3
:102820000000000000E7422424181818242442E77E
:102830000000000000772222141408080808081C71
:1028400000000000007E2120101008040442423FD6
:1028500000000078080808080808080808080808A0
:10286000780000000202040408080810102020204C
:102870004040001E101010101010101010101010FA
:102880001E000038440000000000000000000000AE
:102890000000000000000000000000000000000038
:1028A00000FF00060800000000000000000000001B
:1028B0000000000000000000003C4278444242FC5E
:1028C0000000000000030202021A26424242261AB9
:1028D00000000000000000000038440202024438FA
:1028E000000000000060404040784442424264D80A
:1028F0000000000000000000003C427E0202423C5A
:102900000000000000F08808087E08080808083E5B
:102910000000000000000000007C22221C023C425B
:10292000423C000000030202023A4642424242E7B1
:1029300000000000000C0C00000E08080808083E0B
:10294000000000000030300000382020202020202F
:10295000221E0000000302020272120A16122277DF
:1029600000000000000E0808080808080808083ED3
:102970000000000000000000007F9292929292B747
:102980000000000000000000003B4642424242E7D7
:102990000000000000000000003C42424242423C75
:1029A0000000000000000000001B26424242221EE0
:1029B00002070000000000000078444242424478D0
:1029C00040E000000000000000774C040404041FF5
:1029D0000000000000000000007C42023C40423E3B
:1029E0000000000000000008083E08080808083041
:1029F000000000000000000000634242424262DC2E
:102A0000000000000000000000E742242414080831
:102A1000000000000000000000EB4949555522224B
:102A20000000000000000000007624181818246E32
:102A3000000000000000000000E7422424141808F1
:102A40000807000000000000007E22100808447EF5
:102A5000000000C020202020201020202020202046
:102A6000C0001010101010101010101010101010C6
:102A700010100006080808080810080808080808C8
:102A800006000C32C2000000000000000000000040
:102A90000000000000000000000000000000000036
:102AA0000000000000000000000000000000000026
:102AB0000000000000000000000000000000000016
:102AC00000000000000000000000600060006000E6
:102AD00060006000600060004000200020002000D6
:102AE00000000000000060006000600000000000C6
:102AF00000000000000060066006300398018800B6
:102B00004400000000000000000000000000000081
:102B100000000000000000000000000000000000B5
:102B2000000000000000000000001002100210026F
:102B30001002FE07FE07080208010801080108014B
:102B4000FE07FE0704010401040104010000000067
:102B5000000000000000000040004000F0015803A9
:102B60004C03CC034C0058007000E000C001C001D1
:102B700040034C035C034C034801F000400040005C
:102B8000000000000000000000000E010A0191009A
:102B900091009100510051003A00AE03A002500490
:102BA00050044804480448048402840300000000E0
:102BB0000000000000000000000038006C006C0005
:102BC0006C006C006C002C0098071C011A0133018A
:102BD00033016301E300C308C6093C07000000009D
:102BE0000000000000000C001C0010001000080095
:102BF00004000000000000000000000000000000D1
:102C000000000000000000000000000000000000C4
:102C100000000000000000040002000180008000AD
:102C20004000400020002000200020002000200064
:102C300020004000400080008000000100020004ED
:102C40000000000000000200040008001000100056
:102C500020002000400040004000400040004000B4
:102C600040002000200010001000080004000200B6
:102C70000000000000000000000000000000400014
:102C8000C0004000460C4E0FD001F0015E0F460C14
:102C90004000400040000000000000000000000074
:102CA0000000000000000000000000000000000024
:102CB00040004000400040004000FE0F4000400047
:102CC0004000400040000000000000000000000044
:102CD00000000000000000000000000000000000F4
:102CE00000000000000000000000000000000000E4
:102CF0000000000000000C001C0010001000080084
:102D000004000000000000000000000000000000BF
:102D100000000000000000000000FE0700000000AE
:102D200000000000000000000000000000000000A3
:102D30000000000000000000000000000000000093
:102D40000000000000000000000000000000000083
:102D50000000000000001C001C001C00000000001F
:102D60000000000000000004000600020003000153
:102D70000001800080004000400060002000200032
:102D800010001000080008000C00040006000200FB
:102D9000000000000000000000000000F0009801AA
:102DA0000C030C03060606060606060606060606BD
:102DB000060606060C030C039801F0000000000054
:102DC00000000000000000000000000040007C0047
:102DD00060006000600060006000600060006000F3
:102DE00060006000600060006000FC030000000004
:102DF000000000000000000000000000F800840156
:102E0000020306030603000300018001C000600006
:102E100020001000080204020602FE030000000069
:102E20000000000000000000000000007800C60064
:102E30008601860180018001C000700080010001D0
:102E400000030003060306038601F80000000000EB
:102E50000000000000000000000000008001800170
:102E6000C001A001A00190018801880184018201B4
:102E7000FE0F8001800180018001E007000000005A
:102E8000000000000000000000000000FC0304003F
:102E90000400040004000400F4008C010403000397
:102EA00000030603060382018401F800000000000D
:102EB000000000000000000000000000E001180316
:102EC0000C030C0004000600E60116030E060606BD
:102ED0000606060604060C021803F00000000000B7
:102EE000000000000000000000000000F8070C06D1
:102EF0000402040100010001800080004000400045
:102F000040006000600060006000600000000000A1
:102F1000000000000000000000000000F8010C03A9
:102F20000606060606060C021C03F000C8010C0388
:102F300006060606060606060C03F0010000000061
:102F4000000000000000000000000000F0000C0184
:102F50000C03060206060606060606078C06780619
:102F60000006000300030C018C0178000000000043
:102F70000000000000000000000000000000000051
:102F8000000000000000E000E000E00000000000A1
:102F9000000000000000E000E000E0000000000091
:102FA0000000000000000000000000000000000021
:102FB0000000000000006000600000000000000051
:102FC00000000000000000006000600040002000E1
:102FD00020000000000000000000000400020001CA
:102FE00080004000200010000800040008001000CD
:102FF00020004000800000010002000400000000EA
:1030000000000000000000000000000000000000C0
:10301000000000000000FE07000000000000FE07A6
:1030200000000000000000000000000000000000A0
:103030000000000000000000000004000800100074
:103040002000400080000001000200040002000196
:103050008000400020001000080004000000000074
:10306000000000000000000000000000E00318065F
:10307000040C040C0C0C0C0C0007800140004000F8
:10308000400000000000E000E000E0000000000060
:1030900000000000000000000000E00018030C0227
:1030A000CC0564056605A605B604B604B604B604E8
:1030B000B602E4010C040C021803F000000000004A
:1030C0000000000000000000000000006000600040
:1030D0005000D00090009000880088010801F8019D
:1030E000040304030402020202060F0F00000000A2
:1030F000000000000000000000000000FE008C0343
:103100000C030C030C030C038C01FC000C030C02DD
:103110000C060C060C060C060C03FE010000000059
:10312000000000000000000000000000E0031803A1
:103130000C060C0404040600060006000600060047
:10314000060006040C040C021803F0000000000046
:103150000000000000000000000000007F008C0163
:103160000C030C030C060C060C060C060C060C06D5
:103170000C060C060C030C038C017F000000000001
:10318000000000000000000000000000FF03060334
:1031900006040604060086008600FE0086008600FF
:1031A00086000600060406040602FF030000000075
:1031B000000000000000000000000000FF03060304
:1031C00006040604060086008600FE0086008600CF
:1031D000860006000600060006001F000000000032
:1031E000000000000000000000000000F0001801D6
:1031F0000C020C0204020600060006000600C60FC0
:10320000060306030C030C031803F0000000000083
:103210000000000000000000000000000F0F060684
:1032200006060606060606060606FE070606060645
:10323000060606060606060606060F0F0000000034
:10324000000000000000000000000000FC0360001F
:10325000600060006000600060006000600060006E
:1032600060006000600060006000FC03000000007F
:10327000000000000000000000000000F807C0008F
:10328000C000C000C000C000C000C000C000C0003E
:10329000C000C000C000C000C000C000C600660082
:1032A0003C0000000000000000000000CF03860189
:1032B000C60046002600160036002E006E004600AE
:1032C000C60086008601060106038F070000000085
:1032D0000000000000000000000000001F000600C9
:1032E00006000600060006000600060006000600AE
:1032F00006000600060406040602FF0300000000A4
:103300000000000000000000000000000707860326
:1033100086038E038E034E034E034A035A035A0359
:103320003A0332033203320312038707000000001E
:103330000000000000000000000000008E0F0C02E2
:103340001C021C0234023402640264024402C402FD
:10335000840284038403040304031F0200000000AA
:10336000000000000000000000000000F0009801D4
:103370000C030C02060606060606060606060606E8
:10338000060606060C020C039801F000000000007F
:10339000000000000000000000000000FF00060325
:1033A000060606060606060606068603FE00060054
:1033B000060006000600060006001F0000000000D0
:1033C000000000000000000000000000F000980174
:1033D0000C030C0206060606060606060606060688
:1033E000060676064C02CC039801F0008007000325
:1033F000000000000000000000000000FF010603C4
:1034000006060606060606060603FE004600C60079
:10341000860086010603060306060F0E0000000064
:10342000000000000000000000000000F8020C0393
:103430000602060206000E003C00F800E0038003CE
:1034400000070206020606060C03F0010000000059
:10345000000000000000000000000000FE07620401
:10346000610861086000600060006000600060004A
:1034700060006000600060006000F8010000000073
:103480000000000000000000000000001E070C0209
:103490000C020C020C020C020C020C020C020C02BC
:1034A0000C020C020C020C021801F00000000000DB
:1034B0000000000000000000000000000F070602EE
:1034C000040104010C010C01880088009800980098
:1034D000500050007000300020002000000000006C
:1034E000000000000000000000000000F70E620471
:1034F00042044604460464026402E402E4029C02BC
:103500009C01980198018801880088000000000053
:103510000000000000000000000000009E070C01F9
:10352000080118019000B0006000200060006000F9
:10353000D00090008801080104038E0700000000FD
:103540000000000000000000000000000F0F060453
:1035500004020C0208011801B800B00070006000FD
:1035600060006000600060006000F8010000000082
:10357000000000000000000000000000FC070C023A
:10358000060302018001800040004000200020006E
:103590001000180008040C040402FE0300000000E0
:1035A000000000000000E0032000200020002000B8
:1035B000200020002000200020002000200020000B
:1035C0002000200020002000200020002000E00338
:1035D00000000000000000000000040004000800DB
:1035E00008001000100010002000200040004000E3
:1035F000C000800080000001000100020002000203
:103600000004000000007C0040004000400040003A
:1036100040004000400040004000400040004000AA
:1036200040004000400040004000400040007C005E
:103630000000000060009000080100000000000091
:10364000000000000000000000000000000000007A
:10365000000000000000000000000000000000006A
:10366000000000000000000000000000000000005A
:10367000000000000000000000000000000000004A
:10368000000000000000000000000000000000003A
:10369000FF0F0000000018006000000000000000A4
:1036A000000000000000000000000000000000001A
:1036B000000000000000000000000000000000000A
:1036C00000000000000000000000000000000000FA
:1036D000000000000000F0010C030C030003E003F5
:1036E0001C030E03060306038E0B7C0E0000000075
:1036F0000000000000000000000008000E000C00A8
:103700000C000C000C00CC013C031C060C060C0643
:103710000C060C060C060C021C03E4010000000061
:103720000000000000000000000000000000000099
:10373000000000000000F0008C018C0186010600F2
:103740000600060006020C020C01F000000000005A
:10375000000000000000000000000002C0030003A1
:1037600000030003000378038C030C030603060325
:1037700006030603060304038C077801000000001B
:103780000000000000000000000000000000000039
:10379000000000000000E001180308020C060C06FF
:1037A000FC070C000C0018041802E00100000000E7
:1037B000000000000000000000000000C0036006E0
:1037C000300630003000FE013000300030003000A4
:1037D00030003000300030003000FC0100000000FC
:1037E00000000000000000000000000000000000D9
:1037F000000000000000F007D8068C018C018C014D
:103800009801F8000C00FC00CC03060306038E03AD
:10381000F800000000000000000008000E000C008E
:103820000C000C000C00EC011C030C030C030C033B
:103830000C030C030C030C030C039E070000000098
:1038400000000000000000000000000060006000B8
:103850000000000040007C0060006000600060002C
:1038600060006000600060006000FC030000000079
:10387000000000000000000000000000C001C001C6
:10388000000000000001F001800180018001800142
:103890008001800180018001800180018001CC00D5
:1038A0007C00000000000000000008000E000C007A
:1038B0000C000C000C008C038C008C004C006C0085
:1038C0005C008C008C010C010C039E0700000000C2
:1038D0000000000000000000000040007C006000CC
:1038E00060006000600060006000600060006000D8
:1038F00060006000600060006000FC0300000000E9
:1039000000000000000000000000000000000000B7
:103910000000000000003707EE0666066606660631
:1039200066066606660666066606FF0F000000006D
:103930000000000000000000000000000000000087
:10394000000000000000EE011C030C030C030C033C
:103950000C030C030C030C030C039E070000000077
:103960000000000000000000000000000000000057
:10397000000000000000F00098010C030606060697
:103980000606060606060C030C03F0000000000005
:103990000000000000000000000000000000000027
:1039A000000000000000EE011C030C060C060C06D3
:1039B0000C060C060C060C031C03EC010C000C009E
:1039C0003E000000000000000000000000000000B9
:1039D00000000000000078028C030C0306030603BD
:1039E00006030603060304038C03780300030003A5
:1039F000C007000000000000000000000000000000
:103A00000000000000009F03580638061800180048
:103A100018001800180018001800FF00000000002F
:103A20000000000000000000000000000000000096
:103A3000000000000000F0031C030C020C02380020
:103A4000F000C003040304038C03FC010000000029
:103A50000000000000000000000000000000200046
:103A6000200030003000FE01300030003000300017
:103A700030003000300030023002E0010000000071
:103A80000000000000000000000000000000000036
:103A90000000000008028E030C030C030C030C034F
:103AA0000C030C030C030C039C07780100000000BE
:103AB0000000000000000000000000000000000006
:103AC0000000000000001E070C0208010801180198
:103AD0009000B000B0006000600020000000000016
:103AE00000000000000000000000000000000000D6
:103AF000000000000000F70E620446046402640245
:103B0000EC029C0198019801980108000000000057
:103B100000000000000000000000000000000000A5
:103B2000000000000000BC0718011001B000600098
:103B30006000E0009000080108039E0700000000FC
:103B40000000000000000000000000000000000075
:103B50000000000000009E07080108010801900015
:103B60009000B00060006000600020002000240091
:103B70001C00000000000000000000000000000029
:103B8000000000000000FC018401C400440060004B
:103B900020003000180208020C03FC0100000000A5
:103BA0000000000000000003800080008000800012
:103BB00080008000800080004000200040008000E5
:103BC0008000800080008000800080008000000372
:103BD0000000400040004000400040004000400025
:103BE00040004000400040004000400040004000D5
:103BF00040004000400040004000400040004000C5
:103C00004000000000000C00100010001000100028
:103C100010001000100010002000400020001000D4
:103C200010001000100010001000100010000C0018
:103C3000000000001C002204C204800300000000F9
:103C40000000000000000000000000000000000074
:103C50000000000000000000000000000000000064
:103C60000000000000000000000000000000000054
:103C70000000000000000000000000000000000044
:103C80000000000000000000000000000000000034
:103C90000000000000000000000000000000000024
:103CA000000000000000000000000000C001C00192
:103CB000C001C001C001C001C001800080008000BF
:103CC00080008000800080000000000000000000F4
:103CD0008001C003C003800100000000000000005C
:103CE0000000000000000000E01CE01CF01E700E50
:103CF00038071803080184000000000000000000DD
:103D000000000000000000000000000000000000B3
:103D100000000000000000000000000000000000A3
:103D20000000000000000000000000000000201063
:103D30002010201020102010FE7FFE7F1008100899
:103D400010081008100810081008FE7FFE7F0804F5
:103D50000804080408040804000000000000000033
:103D60000000000000000000000000010001C0078A
:103D70006019103118311839183938017001E00113
:103D8000C0038007000F001D003900311C311C31B9
:103D90000C310C11180DE0070001000100010000BA
:103DA00000000000000000000000000000001C10E7
:103DB00036186308630C63046304630263026301DF
:103DC000361D9C37802280634063406320632063FC
:103DD000306310221836081C0000000000000000AC
:103DE0000000000000000000000000000000F000E3
:103DF00098018C018C018C018C018C00CC00780026
:103E0000183E1C083608320863046304C304C30365
:103E1000834306438E26781C00000000000000004B
:103E200000000000000000001C003C003C003000CE
:103E3000300010000C000600000000000000000030
:103E40000000000000000000000000000000000072
:103E50000000000000000000000000000000000062
:103E600000000000000000000040002000100008DA
:103E7000000C000400060003000300038001800121
:103E80008001800180018001800180010003000326
:103E9000000300060006000C00080010002000408F
:103EA00000000000000000000200040008001000F4
:103EB000300020006000C000C000C0008001800110
:103EC000800180018001800180018001C000C0006C
:103ED000C000600060003000100008000400020014
:103EE00000000000000000000000000000000000D2
:103EF000000000018003800300011C713C79783DC3
:103F0000C0070001C007783D3C791C7100018003A7
:103F1000800380010000000000000000000000009D
:103F20000000000000000000000000000000000091
:103F3000000000000001000100010001000100017B
:103F40000001FC7F000100010001000100010001EF
:103F50000001000000000000000000000000000060
:103F60000000000000000000000000000000000051
:103F70000000000000000000000000000000000041
:103F80000000000000000000000000000000000031
:103F900000001C003C003C003000300010000C0011
:103FA000060000000000000000000000000000000B
:103FB0000000000000000000000000000000000001
:103FC0000000FE7F00000000000000000000000074
:103FD00000000000000000000000000000000000E1
:103FE00000000000000000000000000000000000D1
:103FF00000000000000000000000000000000000C1
:1040000000000000000000000000000000000000B0
:1040100018003C003C0018000000000000000000F8
:1040200000000000000000000040006000200030A0
:10403000001000180008000C000400060002000335
:10404000000180018000C0004000600020003000BE
:104050001000180008000C00040006000200000018
:104060000000000000000000000000000000C00789
:10407000600C30181830183018200C600C600C6080
:104080000C600C600C600C600C600C601820183028
:1040900018303018600CC00700000000000000005D
:1040A000000000000000000000000000000000010F
:1040B0008001F80180018001800180018001800180
:1040C00080018001800180018001800180018001E8
:1040D00080018001C003F81F000000000000000004
:1040E0000000000000000000000000000000E007E9
:1040F000101C0818043004300C300C30003000184C
:104100000008000400020001800040002020102070
:1041100008200430FC1FFC1F00000000000000000D
:104120000000000000000000000000000000E003AC
:10413000180E0C0C0C180C180C180018000C0006AB
:10414000C003000E00180010003000300C300C309E
:104150000C100C18180CE003000000000000000018
:104160000000000000000000000000000000000C43
:10417000000E000E000F800E800E400E600E200E0E
:10418000100E100E080E040E040EFE7F000E000E20
:10419000000E000E000E000EC07F000000000000A8
:1041A0000000000000000000000000000000F03FE0
:1041B000F03F10001000100008000800C807280C8D
:1041C0001818081000300030003000300C300C306F
:1041D00004180418080CF0030000000000000000A0
:1041E0000000000000000000000000000000800F40
:1041F000C010203010301800180008000C008C0F80
:104200006C183C301C600C600C600C600C6018601A
:10421000182030306018C0070000000000000000C7
:104220000000000000000000000000000000F83F57
:10423000F83F1C100C0804080404000400020002EB
:10424000000100010001800080008000C000C0006B
:10425000C000C000C000C00000000000000000005E
:104260000000000000000000000000000000E00767
:10427000300C18180C300C300C301C30381870080A
:10428000E007B007180E0C1C063806300630063062
:1042900006300C18180CE0030000000000000000BD
:1042A0000000000000000000000000000000E0032B
:1042B00018040C080C1806100630063006300630BC
:1042C00006380C3C1836F031003000180018001881
:1042D0000C0C0C060C03F0010000000000000000B4
:1042E00000000000000000000000000000000000CE
:1042F0000000000000000000000000008001C0037A
:10430000C003800100000000000000000000000069
:104310008001C003C0038001000000000000000015
:10432000000000000000000000000000000000008D
:10433000000000000000000000000000C000C000FD
:10434000000000000000000000000000000000006D
:1043500000000000C000C00080008000400040005D
:10436000000000000000000000000000002000101D
:1043700000080004000600038001C0006000300057
:1043800018000C00180030006000C000800100031D
:1043900000060004000800100020000000000000DB
:1043A000000000000000000000000000000000000D
:1043B000000000000000000000000000FE7F000080
:1043C0000000000000000000FE7F00000000000070
:1043D00000000000000000000000000000000000DD
:1043E00000000000000000000000000004000800C1
:1043F000100020006000C000800100030006000CD7
:10440000001800300018000C000600038001C000F6
:104410006000200010000800040000000000000000
:10442000000000000000000000000000C00730187D
:10443000083008600C601C601C601C600030001CB0
:104440000006000180008000800080000000000065
:104450008001C003C00380010000000000000000D4
:104460000000000000000000000000000000C00785
:104470006018103018200C2F8C4D864CC64CC64C42
:10448000664C66446644662666266615CC1C0C405F
:10449000082018303018C00700000000000000009D
:1044A0000000000000000000000000000001C0014A
:1044B000C001C00140016003200320032003300637
:1044C000100610061006F80F080C080C080C0C0C4F
:1044D0000418041806181F7C0000000000000000EB
:1044E0000000000000000000000000000000FE07C7
:1044F000181C183818301830183018301818180CC4
:10450000F80718181830182018601860186018601C
:10451000186018301818FE0F00000000000000009E
:104520000000000000000000000000000000C027A4
:104530006038103018200C400C40040006000600C3
:104540000600060006000600060006000C400C40AF
:104550000C2018303018C0070000000000000000D8
:104560000000000000000000000000000000FE034A
:10457000180E1818183018301830186018601860A5
:1045800018601860186018601860186018301830CB
:1045900018101818180EFE0300000000000000009C
:1045A0000000000000000000000000000000FE3FCE
:1045B0001830182018601840180018081808180C2F
:1045C000F80F180C180818081800180018001840E0
:1045D000184018201830FE3F0000000000000000C6
:1045E0000000000000000000000000000000FE7F4E
:1045F0001870184018C018801800181018101818D3
:10460000F81F1818181018101800180018001800B3
:104610001800180018007E000000000000000000D4
:104620000000000000000000000000000000C013B7
:10463000701C101018100C200C200400060006003E
:1046400006000600060006FC063006300C300C3072
:10465000183018303008C0070000000000000000CB
:1046600000000000000000000000000000003F7E8D
:104670000C180C180C180C180C180C180C180C181A
:104680000C18FC1F0C180C180C180C180C180C1813
:104690000C180C180C183F7E0000000000000000F1
:1046A0000000000000000000000000000000F81FF3
:1046B00080018001800180018001800180018001F2
:1046C00080018001800180018001800180018001E2
:1046D000800180018001F81F000000000000000040
:1046E0000000000000000000000000000000E07F6B
:1046F000000600060006000600060006000600068A
:104700000006000600060006000600060006000679
:10471000000600060006000600060E060E038E01C7
:10472000FC000000000000000000000000007E7C93
:10473000181818081804180618021801980198018A
:10474000D801B803380318071806180E180C181CDF
:104750001818183018307EFC00000000000000001F
:1047600000000000000000000000000000007E00CB
:104770001800180018001800180018001800180079
:104780001800180018001800180018001800184029
:10479000184018201830FE3F000000000000000004
:1047A00000000000000000000000000000001FF8F2
:1047B0001C381C381C381C3C343434343434343603
:1047C00074326432643264326431C431C431C4310D
:1047D000C430C43084309FFC0000000000000000A2
:1047E00000000000000000000000000000001F7C2E
:1047F0001C103C103410341074106410E410C410F9
:10480000C41184118413041304170416041E041C19
:10481000041C041C04181F18000000000000000005
:104820000000000000000000000000000000C003C5
:10483000300C181808100C300C300660066006604A
:104840000660066006600660066006600C200C309C
:1048500008101818300CC003000000000000000011
:104860000000000000000000000000000000FE0F3B
:104870001818183018601860186018601860183020
:104880001818F80F18001800180018001800180061
:104890001800180018007E00000000000000000052
:1048A0000000000000000000000000000000C00345
:1048B000300C18180C100C300C20066006600660D6
:1048C000066006600660066006600660E4612C33E0
:1048D0001C321816300EC007004C007C0038000057
:1048E0000000000000000000000000000000FE07C3
:1048F000181C183818301830183018301818180CC0
:10490000F80798031803180718061806180E180C4D
:10491000180C181C18187E78000000000000000019
:104920000000000000000000000000000000E02780
:10493000303818300C200C200C000C0018007800C7
:10494000E003800F001E0038007000600460046007
:10495000086018303818C80F000000000000000080
:104960000000000000000000000000000000FC3F0C
:104970008C2184618241824180018001800180011B
:10498000800180018001800180018001800180011F
:10499000800180018001E0070000000000000000AD
:1049A00000000000000000000000000000003F7C4C
:1049B0000C100C100C100C100C100C100C100C1017
:1049C0000C100C100C100C100C100C100C100C1007
:1049D0000C1008083804E00300000000000000008C
:1049E00000000000000000000000000000003EF891
:1049F00018201820182030103010301030106008A7
:104A000060086008E00CC004C004C0048003800398
:104A1000800380030001000100000000000000008E
:104A20000000000000000000000000000000DFF3B4
:104A30008661862186218C210C218C238C138C137A
:104A40008C134C1358125816580E380E380E380E58
:104A5000300C1004100410040000000000000000DE
:104A600000000000000000000000000000007E3E8A
:104A7000180838083004300470026002E001C001F8
:104A8000C001800180034003400720062006100C6F
:104A9000100C081808183E7C000000000000000000
:104AA00000000000000000000000000000007E7C0C
:104AB0001C10181018083008300C700460046002D4
:104AC000C002C002C001800180018001800180011C
:104AD000800180018001E00700000000000000006C
:104AE0000000000000000000000000000000F83F8F
:104AF00018180818040C040E0006000700038003B1
:104B00008001C001C000E00060007000300038206B
:104B100018201C100C18FE1F0000000000000000F0
:104B20000000000000000000C03F400040004000C6
:104B30004000400040004000400040004000400075
:104B40004000400040004000400040004000400065
:104B5000400040004000400040004000C03F0000D6
:104B60000000000000000000000000000800180025
:104B70001800100030002000600060004000C000FD
:104B80008000800180010001000300020006000691
:104B90000004000C0008001800180010003000206D
:104BA0000000000000000000FC0300020002000200
:104BB00000020002000200020002000200020002E5
:104BC00000020002000200020002000200020002D5
:104BD000000200020002000200020002FC030000CA
:104BE00000000000000000008007C0062008101030
:104BF00000000000000000000000000000000000B5
:104C000000000000000000000000000000000000A4
:104C10000000000000000000000000000000000094
:104C20000000000000000000000000000000000084
:104C30000000000000000000000000000000000074
:104C40000000000000000000000000000000000064
:104C50000000000000000000000000000000000054
:104C6000FFFF0000000000007800C000000100000D
:104C70000000000000000000000000000000000034
:104C80000000000000000000000000000000000024
:104C90000000000000000000000000000000000014
:104CA0000000000000000000000000000000000004
:104CB000000000000000000000000000F0031806E3
:104CC0000C0C0C0C000C800F700C1C0C0C0C060C4B
:104CD000060C064C0C4FF8380000000000000000E5
:104CE00000000000000000000000000010001E0096
:104CF000180018001800180018001800180FD8180D
:104D000038303860186018601860186018601860D3
:104D1000182038307818C807000000000000000094
:104D20000000000000000000000000000000000083
:104D3000000000000000000000000000C007700C30
:104D4000181818180C180C000C000C000C000C2083
:104D5000182018103008C0070000000000000000F4
:104D60000000000000000000000000000010001E15
:104D7000001800180018001800180018E01B301C5C
:104D8000181818180C180C180C180C180C180C18EB
:104D90000818181C307AE00900000000000000002C
:104DA0000000000000000000000000000000000003
:104DB000000000000000000000000000C007300CF0
:104DC000181808100C300C30FC3F0C000C000C00C4
:104DD000182018107018C007000000000000000024
:104DE0000000000000000000000000000000003E85
:104DF00080C380C0C0C0C000C000C000FC1FC00095
:104E0000C000C000C000C000C000C000C000C000A2
:104E1000C000C000C000F80F00000000000000004B
:104E20000000000000000000000000000000000082
:104E3000000000000000000000000000C077306C9F
:104E400010181818181818181018300CF007180037
:104E50001800F00FF03F08700C600C600C603838E0
:104E6000E00F0000000000000000000010001E0025
:104E7000180018001800180018001800980FD8180B
:104E800038301830183018301830183018301830C2
:104E90001830183018307EFC0000000000000000C0
:104EA000000000000000000000000000000080037F
:104EB000800380030000000000000001F801800171
:104EC00080018001800180018001800180018001DA
:104ED000800180018001F81F000000000000000038
:104EE000000000000000000000000000000000388A
:104EF000003800380000000000000010801F00187B
:104F000000180018001800180018001800180018E1
:104F1000001800180018001800180018180C1806BF
:104F2000F0030000000000000000000010001E0060
:104F3000180018001800180018001800183E180C67
:104F40001806180318019801D80138031807180625
:104F5000180C181C18187E7C0000000000000000CF
:104F60000000000000000000000000000001F80147
:104F70008001800180018001800180018001800129
:104F80008001800180018001800180018001800119
:104F9000800180018001F81F000000000000000077
:104FA0000000000000000000000000000000000001
:104FB000000000000000000000000800EE1C9C3310
:104FC0008C318C318C318C318C318C318C318C31F9
:104FD0008C318C318C31DE7B000000000000000041
:104FE00000000000000000000000000000000000C1
:104FF0000000000000000000000010001E0FD81884
:105000003830183018301830183018301830183040
:105010001830183018307EFC00000000000000003E
:105020000000000000000000000000000000000080
:10503000000000000000000000000000C007701C1D
:10504000103018300C600C600C600C600C600C6050
:10505000183018303018C0070000000000000000B1
:105060000000000000000000000000000000000040
:105070000000000000000000000010009E0F581803
:1050800038301820186018601860186018601860B0
:1050900018303830781898071800180018001800D1
:1050A0007E00000000000000000000000000000082
:1050B000000000000000000000000000C023303CA1
:1050C000183818300C300C300C300C300C300C30E0
:1050D00008301838303CE033003000300030003009
:1050E00000FC0000000000000000000000000000C4
:1050F0000000000000000000000060007E3C6066D0
:105100006061E000E000600060006000600060003E
:10511000600060006000FE0700000000000000006A
:10512000000000000000000000000000000000007F
:10513000000000000000000000000000E027303800
:105140001830182018007000E003800F001C043095
:1051500004300C301C18EC0F0000000000000000B0
:10516000000000000000000000000000000000003F
:105170000000800080008000C000E000FC1FC00034
:10518000C000C000C000C000C000C000C000C0001F
:10519000C020C0208011000F0000000000000000AF
:1051A00000000000000000000000000000000000FF
:1051B0000000000000000000000010201E3C18301D
:1051C000183018301830183018301830183018309F
:1051D0001830183830F4E013000000000000000020
:1051E00000000000000000000000000000000000BF
:1051F0000000000000000000000000007E3C1818C5
:105200001808380830043004700260026002E001BF
:10521000C001C001C00080000000000000000000CC
:10522000000000000000000000000000000000007E
:10523000000000000000000000000000DFF78E63A7
:105240000C238C238C239813981358165816700E21
:10525000700E700E2004200400000000000000000A
:10526000000000000000000000000000000000003E
:10527000000000000000000000000000FC3E70087C
:105280007004E004C002C001800380034007600690
:10529000200C100C18183E7E0000000000000000DA
:1052A00000000000000000000000000000000000FE
:1052B0000000000000000000000000007E7C1818C4
:1052C000180830083008300460046004C002C002CE
:1052D000C0028001800180018000800080004C00BD
:1052E0003C00000000000000000000000000000082
:1052F000000000000000000000000000FC1F0C0C7B
:10530000040E0406000380038001C000E00070204A
:10531000302038301C18FC1F000000000000000086
:10532000000000000000000000300008000400043D
:10533000000400040004000400040004000400044D
:1053400000028001000200040004000400040004C4
:1053500000040004000400040004000400080030FD
:105360000000000100010001000100010001000136
:105370000001000100010001000100010001000125
:105380000001000100010001000100010001000115
:105390000001000100010001000100010001000105
:1053A00000010000000000000C00100020002000A0
:1053B00020002000200020002000200020002000ED
:1053C000400080014000200020002000200020003C
:1053D00020002000200020002000200010000C00F1
:1053E000000000003800C400864002610022001C5A
:1053F00000000000000000000000000000000000AD
:10540000000000000000000000000000000000009C
:10541000000000000000000000000000000000008C
:105420000000080004000000000007100000000059
:10543000010000000000000000000000000000006B
:105440000000000010000000000100000300000048
:10545000000000003400C4410800000018000000F3
:10546000003000004E756D3A25352E326600000082
:105470009054000000002020080000005017000099
:105480009854000008002020C01000006817000099
:0854900000FF7F47000000004F
:04000005000000C136
:00000001FF
