:020000040000FA
:1000000010142020D5000000D9000000DB00000003
:1000100000000000000000000000000000000000E0
:10002000000000000000000000000000DD000000F3
:100030000000000000000000DF000000E100000000
:10004000E3000000E3000000E3000000E300000024
:10005000E3000000E3000000E3000000E300000014
:1000600000000000E3000000E300000000000000CA
:1000700000000000E3000000E3000000E3000000D7
:10008000E3000000E3000000E3000000E3000000E4
:10009000E3000000E300000000000000000000009A
:1000A000E3000000E300000000000000000000008A
:1000B000E300000000000000E3000000E300000097
:1000C0000348854600F044F800480047910C0000C2
:1000D0001014202003480047FEE7FEE7FEE7FEE796
:1000E000FEE7FEE7C1000000D2B201E00270401C52
:1000F000491EFBD270470022F6E710B513460A46A8
:1001000004461946FFF7F0FF204610BD70B50446BF
:10011000002903D000202022012310E0002801D074
:100120000020C043C046C0460DE02546D5408D4264
:1001300005D30D469540641B1D4695404019154654
:10014000521E002DF1DC214670BD000000000000B1
:100150001CB5094800900948019005460126009CFD
:1001600005E0E36807CC33430C3C98471034AC42BD
:10017000F7D3FFF7A9FF0000FC1700001C180000D0
:10018000811E091F00BFFCD270470000F0B584B08B
:10019000012422022A4B19680392914319603549C0
:1001A0000D686D04FCD5457E25409E69A6437419F3
:1001B0009C612024045D03252C40DE69AE43341984
:1001C000DC61204C256805262660466A37681F6278
:1001D00076685E6207262E402660C4697F252D0260
:1001E000DE69AE436406640C3419DC610768456857
:1001F00082680092C66802690192426902929A6915
:10020000114C14403A07120B2D03ADB2AA18324319
:10021000009D2D072D0D1543019A1543029A154394
:10022000007E2843094A0240101998611868039A11
:100230001043186008688005FCD504B0F0BDC046C6
:1002400008010B40001340408D00F0FF72FF0F00CB
:1002500007498860074802689202FCD5012212040F
:100260000B6813430B600168C906FCD57047C04694
:1002700004010B4004020B40B0B511221202835856
:100280000124A34383508B780C881C438B88234321
:10029000094C1C408358094D1D402B1983508B7904
:1002A000CC791C43097A21437E2319408018426887
:1002B0009A4351184160B0BD18670000E798FDFFF0
:1002C00010B50122120383180C789C604978815084
:1002D00010BD0000034A801802681206FCD4816138
:1002E0007047C0460811000000280DD009490A884F
:1002F000521C0A8092B2824205D10020088001205F
:1003000080050549086170470120800502490860A1
:100310007047C04608002020A0320A40F0B581B0E6
:100320000125AE03F84C2661782000F077FC2660AA
:10033000E80320612907EA07AE260027F34B08E00F
:100340001A601D46103D29607C1C7600072F274649
:1003500007D2196075B2002DF2D51D46103D2A60F6
:10036000EFE7E94C20602061D526002706E01A60FF
:1003700029607C1C7600072F274605D2196074B2CD
:10038000002CF4D52A60F3E7DF4C20602061502672
:10039000002706E01A6029607C1C7600072F27469C
:1003A00005D2196074B2002CF4D52A60F3E7D64C5C
:1003B00020602061A826002706E01A6029607C1CC6
:1003C0007600072F274605D2196074B2002CF4D5A9
:1003D0002A60F3E7CC4C206020613F26002706E02E
:1003E0001A6029607C1C7600072F274605D2196009
:1003F00074B2002CF4D52A60F3E7FB4C2060206136
:10040000D326002706E01A6029607C1C7600072F9F
:10041000274605D2196074B2002CF4D52A60F3E7A0
:10042000F14C20602061002619601A602960741C5C
:10043000072E2646F8D3EC4C20602061402600278A
:1004400006E01A6029607C1C7600072F274605D23B
:10045000196074B2002CF4D52A60F3E7E24C2060F6
:1004600020618D26002706E01A6029607C1C76003A
:10047000072F274605D2196074B2002CF4D52A60E4
:10048000F3E7D94C206020611426002706E01A60AB
:1004900029607C1C7600072F274605D2196074B2AC
:1004A000002CF4D52A60F3E7CF4C20602061202691
:1004B000002706E01A6029607C1C7600072F27467B
:1004C00005D2196074B2002CF4D52A60F3E7C64C4B
:1004D000206020610226002706E01A6029607C1C4B
:1004E0007600072F274605D2196074B2002CF4D588
:1004F0002A60F3E7BC4C20602061A126002706E0BB
:100500001A6029607C1C7600072F274605D21960E7
:1005100074B2002CF4D52A60F3E7B34C206020615C
:10052000C026002706E01A6029607C1C7600072F91
:10053000274605D2196074B2002CF4D52A60F3E77F
:10054000A94C20602061DA26002706E01A602960A5
:100550007C1C7600072F274605D2196074B2002C48
:10056000F4D52A60F3E7A04C206020611226002712
:1005700006E01A6029607C1C7600072F274605D20A
:10058000196074B2002CF4D52A60F3E7964C206011
:1005900020618126002706E01A6029607C1C760015
:1005A000072F274605D2196074B2002CF4D52A60B3
:1005B000F3E78D4C20602061EF26002706E01A60EB
:1005C00029607C1C7600072F274605D2196074B27B
:1005D000002CF4D52A60F3E7834C20602061D926F3
:1005E000002706E01A6029607C1C7600072F27464A
:1005F00005D2196074B2002CF4D52A60F3E77A4C66
:1006000020602061F126002706E01A6029607C1C2A
:100610007600072F274605D2196074B2002CF4D556
:100620002A60F3E7704C20602061DB26002706E09B
:100630001A6029607C1C7600072F274605D21960B6
:1006400074B2002CF4D52A60F3E7674C2060206177
:100650003026002706E01A6029607C1C7600072FF0
:10066000274605D2196074B2002CF4D52A60F3E74E
:100670005D4C20602061A426002706E01A602960F6
:100680007C1C7600072F274605D2196074B2002C17
:10069000F4D52A60F3E7544C20602061A626002799
:1006A00006E01A6029607C1C7600072F274605D2D9
:1006B000196074B2002CF4D52A60F3E74A4C20602C
:1006C0002061AF26002706E01A6029607C1C7600B6
:1006D000072F274605D2196074B2002CF4D52A6082
:1006E000F3E7414908600020E84980220B460024D6
:1006F0001C700833521EFAD1491C401C0828F4D142
:1007000000F006F801B0F0BD90320A40A0120A4095
:10071000F0B584B00120C3030107C20718460024C6
:10072000EA4B314F0094039003E0029C641C082CB8
:1007300057D038614F20C54302942543009E08E0FE
:100740001A601C46103C2160701C6D00072E064686
:1007500007D2196068B20028F2D518461038026036
:10076000EFE7039838603861002019601A60216053
:10077000451C07282846F8D30398386038611025AF
:10078000002606E01A602160701C6D00072E0646E8
:1007900005D2196068B20028F4D52260F3E7039807
:1007A00038600026019605E003980F4F3860761CEC
:1007B000802EBAD0F500B54845193846029FEF5D46
:1007C000039D0560019D06E01A602160681C7F00A2
:1007D000072D0546E8D2196078B20028F4D52260CA
:1007E000F3E704B0F0BDC04690320A40F0B587B0E0
:1007F000002B72D00F460C990291203AD1B2009191
:1008000000253C460493039705E0401C3C46019DAF
:100810006D1C9D4261D00C2B019503D000990A01FB
:100820002F4903E00C2200994A4399498A1852192A
:100830001278C1B205910021069055B2002D45B243
:1008400016D4002D36D4E6B23F2E33D807231F46E8
:10085000A7430125BD40F6089B1B02980028DEB285
:100860001ED00598C3008948C3189F5DAF431DE0A3
:10087000002D1FD4E6B23F2E1CD807252F46A743D4
:100880000123BB40F608AD1B02980028EEB21CD035
:100890000598C5007D484519AF5D1F43AF5506E07B
:1008A0000598C3007948C3189F5D2F439F55049B4B
:1008B000039F0698641CE5B2ED1B9D42A5D04D1C1C
:1008C000520007292946B8D3A1E70598C5006F480B
:1008D0004519AF5D9F43AF55E9E707B0F0BDC0468E
:1008E0000C120000F0B587B004AC07C4002B3ED05A
:1008F0001C460C9D68080390581E029000273E4637
:1009000012E001260120009030200143CAB238468F
:100910000399484304994018C0B205992B46FFF744
:1009200065FF7F1CA74222D0F8430019010606D0BC
:1009300001210A225143401E0206FAD100E00121A2
:100940000698FFF7E3FB0A21FFF7E0FB002ED9D161
:100950000298B842D6DD0029D3D101200090384654
:100960000399484304994018C0B22022D5E707B044
:10097000F0BD0000F0B58BB005461078002809D115
:100980000BB0F0BD02994A1C019D08354978002939
:100990000399F5D0E8B27A2800D900257A2800D941
:1009A0001031C8B23B2811D314460020D14980220F
:1009B0000B4600251D700833521EFAD1491C401CFD
:1009C0000828F4D1FFF7A4FE29462246CBB20292B2
:1009D00010782038C0B20490002009900446019598
:1009E0000A951D460391069307E00A98401C0A9059
:1009F0000399059C641C0C2CC4D00C20049A504311
:100A0000234A10180594025D0A98C0B20890099B09
:100A1000CEB201243F2E204600D809980A9F7FB20B
:100A2000002F00D4099C044350B2002810D4002C9D
:100A300020D10898C000AF4C2018F4080726341BBA
:100A4000E4B2075D8E430125B540AF43069D10E03B
:100A5000002C0FD10898C000A64C2018F4080726D7
:100A6000341BE4B2075D07978E430127B740079E0A
:100A700037430755491CC8B2401B0C28B5D0581C39
:100A80005200072B0346C3D3B3E7C0460A00202019
:100A9000980D00000A48822181640A49C1648121BD
:100AA000016741670160C1600748016009200007D4
:100AB00006490860086306480649016001637047FB
:100AC0000C80424082000400C8804240A0120A40CC
:100AD000A0320A4000C04000B0B5134800240460B2
:100AE0000F200002114D296881430120420289181C
:100AF00029600321C9432A1F13680B4013606968EA
:100B00008143696000026968814369600848FFF7B2
:100B10003DFB2868102101432020814329602046A5
:100B2000FFF796FBB0BDC04608030B4004010B4025
:100B3000640D00000548042101604C49416000211A
:100B40008160016805220A430260704710E000E0FE
:100B500010B54E4C1A492046FFF7B2FB1949204602
:100B6000FFF78AFB0320C103174802688A4302602B
:100B70000169164A0A401532026141692D220A4371
:100B800012218A434261426801210A4043688B4333
:100B90009A1842604A04036813430360C2687023D2
:100BA0001343C360C2680223134305229343C36007
:100BB000026804231343036002680A43026010BD05
:100BC0008C0D00008E0D0000009110400000FFFF12
:100BD00080B500F009F8FFF75DFFFFF77DFFFFF735
:100BE000B7FFFFF7A7FF80BD80B507480749416001
:100BF000074A5160074B596007490160116019604D
:100C00001020FFF7BDFA80BD00080A40030000B1C4
:100C100000280A400088104001000026F0B581B08D
:100C20001049884200D308465021414300240E4A0F
:100C3000009404E0641C7D20C000844210D0106841
:100C40000A4BC618009F02E0EB1A8B42F2D21368DF
:100C5000834200D901273D060546F5D03546F3E726
:100C600001B0F0BD3333030018E000E0FFFFFF00E8
:100C700010B5044604490A68D207FCD1E1B2034822
:100C8000FFF728FB204610BD08911040008010405F
:100C900082B0FFF79DFFFFF741FB12A000F036F88E
:100CA000144C15A5184E012081022046FFF723FAA7
:100CB000002001462A46FFF75DFE32680C200090B6
:100CC0001E2014210823FFF70DFEFFF721FD3068D9
:100CD000401C30606420FFF707FB0A20FFF79EFFEF
:100CE000E1E7C0464F4C45445F496E69745F4F4B26
:100CF000210000000A00202048454C4C4F20574856
:100D000045454C54454300000C04202010B5024AD0
:100D1000024900F018F810BD710C000000002020FE
:100D200002E008C8121F08C1002AFAD1704700006B
:100D30007047000000000000002001E001C1121F08
:100D4000002AFBD17047F8B516460F460446002529
:100D500003E03946B047641C6D1C20780028F8D1A8
:100D60002846F8BD0100000000000000000000005F
:100D70004000000000000000000000000200000031
:100D800004000000010000002C00C4410800000025
:100D9000180000000030000000000000000000000B
:100DA00000000000000000003F40000000000000C4
:100DB00000003000400030004000000009000BC07F
:100DC0003D000BC03D00090018C024407FE02240D8
:100DD00031800000180024C01B000D8032400180CB
:100DE00003801C4027401C8007400040100060002A
:100DF00000000000000000000000000000001F8054
:100E0000204040200000402020401F8000000000C3
:100E1000090006001F80060009000000040004000D
:100E20003F8004000400000000100060000000008B
:100E3000000000000400040004000400040000009E
:100E4000000000400000000000000000002001C081
:100E500006003800400000001F8020402040204055
:100E60001F800000000010403FC000400000000054
:100E700018C021402240244018400000108020402B
:100E8000244024401B80000002000D0011003FC0E0
:100E9000014000003C802440244024402380000086
:100EA0001F80244024403440038000003000200094
:100EB00027C03800200000001B802440244024402C
:100EC0001B8000001C0022C0224022401F80000026
:100ED00000000000084000000000000000000000CA
:100EE0000460000000000000000004000A0011007F
:100EF00020804040090009000900090009000000A5
:100F000000004040208011000A000400180020006A
:100F100023402400180000001F8020402740294063
:100F20001F400000004007C039000F0001C0004012
:100F300020403FC0244024401B8000001F802040F0
:100F4000204020403080000020403FC02040204012
:100F50001F80000020403FC024402E4030C00000D1
:100F600020403FC024402E00300000000F001080C1
:100F7000204022403380020020403FC00400040093
:100F80003FC02040204020403FC020402040000083
:100F90000060202020203FC02000200020403FC0D3
:100FA00024400B0030C0204020403FC02040004083
:100FB000004000C03FC03C0003C03C003FC00000F8
:100FC00020403FC00C4023003FC020001F80204035
:100FD000204020401F80000020403FC024402400CB
:100FE000180000001F802140214020E01FA00000C9
:100FF00020403FC02440260019C0004018C02440B3
:101000002440224031800000300020403FC020407A
:101010003000000020003F80004000403F80200062
:1010200020003E0001C0070038002000380007C043
:101030003C0007C038000000204039C0060039C01D
:10104000204000002000384007C038402000000049
:10105000304021C02640384020C000000000000081
:101060007FE0402040200000000070000C00038062
:10107000004000000000402040207FE00000000011
:1010800000002000400020000000000000100010C0
:1010900000100010001000100000000040000000D0
:1010A00000000000000002800540054003C0004031
:1010B00020003FC004400440038000000000038083
:1010C0000440044006400000000003800440244027
:1010D0003FC0004000000380054005400340000081
:1010E000000004401FC0244024402000000002E013
:1010F000055005500650042020403FC00440040025
:1011000003C000400000044027C000400000000071
:1011100000100010041027E00000000020403FC035
:101120000140070004C00440204020403FC0004070
:101130000040000007C0040007C0040003C0000016
:10114000044007C00440040003C0004000000380C6
:101150000440044003800000041007F004500440E1
:1011600003800000000003800440045007F00010DA
:10117000044007C0024004000400000000000640D4
:101180000540054004C00000000004001F8004402A
:1011900000400000040007800040044007C00040F9
:1011A0000400070004C0018006000400060001C01E
:1011B000070001C006000000044006C0010006C090
:1011C000044000000410071004E001800600040041
:1011D0000000044005C0064004400000000000007C
:1011E00004007BE040200000000000000000FFF051
:1011F00000000000000040207BE004000000000030
:10120000400080004000200020004000000000005E
:1012100000000000000000000000000000000000CE
:1012200000001FCC000C00000000000000000800BF
:10123000300060000800300060000000022003FC65
:101240001E20022003FC1E200220000000000E18B9
:1012500011043FFF10840C78000000000F00108480
:101260000F3800C0077818840078000000780F84D9
:1012700010C411240E9800E40084000808006800DF
:1012800070000000000000000000000000000000EE
:10129000000007E01818200440020000000040028F
:1012A0002004181807E0000000000000024002407F
:1012B00001800FF0018002400240000000800080A9
:1012C00000800FF800800080008000000001000D09
:1012D000000E000000000000000000000000008080
:1012E0000080008000800080008000800000000CF2
:1012F000000C0000000000000000000000000006DC
:10130000001800600180060018002000000007F0AF
:10131000080810041004080807F000000000080482
:1013200008041FFC000400040000000000000E0C74
:1013300010141024104411840E0C000000000C182E
:1013400010041104110412880C700000000000E069
:101350000320042408241FFC0024000000001F9820
:10136000108411041104108810700000000007F0B0
:1013700008881104110418880070000000001C0087
:10138000100010FC13001C001000000000000E38BC
:1013900011441084108411440E380000000007002E
:1013A000088C10441044088807F00000000000007A
:1013B0000000030C030C000000000000000000000F
:1013C0000001010600000000000000000000008095
:1013D000014002200410080810040000022002202E
:1013E000022002200220022002200000000010043F
:1013F00008080410022001400080000000000E00D8
:101400001200100C106C10800F00000003E00C188C
:1014100013E4142417C4082807D000000004003C7B
:1014200003C41C40074000E4001C000410041FFC1F
:101430001104110411040E880070000003E00C1860
:1014400010041004100410081C10000010041FFCED
:10145000100410041004080807F0000010041FFC1A
:101460001104110417C410040818000010041FFC14
:101470001104110017C010000800000003E00C1850
:101480001004100410441C780040000010041FFCDD
:1014900010840080008010841FFC100400001004E1
:1014A00010041FFC100410040000000000030001E1
:1014B000100110011FFE10001000000010041FFC9E
:1014C000110403801464181C1004000010041FFC95
:1014D0001004000400040004000C000010041FFCB1
:1014E0001F0000FC1F001FFC1004000010041FFC64
:1014F0000C04030000E010181FFC100007F008089F
:10150000100410041004080807F0000010041FFC69
:1015100010841080108010800F00000007F0081861
:1015200010241024101C080A07F2000010041FFCED
:101530001104110011C011300E0C000400000E1C2B
:1015400011041084108410441C380000180010008E
:1015500010041FFC100410001800000010001FF8F9
:1015600010040004000410041FF8100010001E00F6
:1015700011E0001C007013801C0010001FC0103C04
:1015800000E01F0000E0103C1FC000001004180C19
:10159000163401C001C01634180C100410001C00D1
:1015A000130400FC13041C00100000000804101CAD
:1015B0001064108413041C041018000000000000C4
:1015C00000007FFE400240024002000000003000A8
:1015D0000C0003800060001C0003000000004002BB
:1015E000400240027FFE00000000000000000000FA
:1015F00020004000400040002000000000010001E9
:101600000001000100010001000100010000400094
:1016100040002000000000000000000000000098D2
:10162000012401440144014400FC000410001FFC9B
:1016300000880104010400880070000000000070B0
:10164000008801040104010400880000000000700B
:1016500000880104010411081FFC0004000000F8C8
:10166000014401440144014400C800000000010499
:1016700001040FFC1104110411001800000000D631
:1016800001290129012901C90106000010041FFCDC
:10169000008401000100010400FC000400000104BA
:1016A000190419FC000400040000000000000003FD
:1016B00000010101190119FE0000000010041FFCC7
:1016C0000024004001B4010C0104000000001004DB
:1016D00010041FFC0004000400000000010401FCD1
:1016E0000104010001FC0104010000FC010401FCF3
:1016F000008401000100010400FC0004000000F867
:10170000010401040104010400F80000010101FFCB
:1017100000850104010400880070000000000070D2
:10172000008801040104010501FF00010104010416
:1017300001FC00840104010001800000000000CCD5
:10174000012401240124012401980000000001006B
:10175000010007F80104010400000000010001F885
:10176000000400040004010801FC000401000180E1
:101770000170000C001001600180010001F0010CFB
:10178000003001C00030010C01F001000000010434
:10179000018C00740170018C0104000001010181C1
:1017A0000171000E00180160018001000000018439
:1017B000010C013401440184010C00000000000010
:1017C0000000000001003EFC40024002000000005A
:1017D00000000000FFFF00000000000000004002C9
:1017E00040023EFC0100000000000000000060001C
:1017F00080008000400040002000200020180000F1
:101800000000202008000000200D00002818000023
:101810000800202008140000380D0000000000001F
:081820000000000000000000C0
:04000005000000C136
:00000001FF
